S315080200000CE000201D000208310002083100020837
S3150802001031000208310002083100020802F09CB9D8
S31508020020DFF808D002F010FA02F0B8BAF8FF0010AA
S31508020030FEE76E2900F0B884702900F00986662961
S3150802004001F0FFA1652901F0FCA1672901F0F9A1D8
S31508020050612901F0F8A103681B0A28BF41F0800153
S31508020060692900F06584642900F06284752900F024
S315080200705F846F2900F09485782900F0D585E929EF
S3150802008000F02C85E42900F02985F52900F026855B
S31508020090EF2900F09185F82900F0D4850368DB0979
S315080200A028BF41F08001632901F0FA83732901F020
S315080200B0FF83E32901F00A84F32901F00F84002063
S315080200C07047000040BA7047C0BA704700BEFEE7E4
S315080200D07047704700487047E8C3001053EA020C9D
S315080200E000F069802DE9F04B4FF00006002B1FBF88
S315080200F0B3FA83F503FA05F424FA05F65E4012BF4D
S315080201001643B2FA82F502FA05F4C5F120051EBFB6
S3150802011022FA05FC44EA0C04203556EA044C4FEA56
S31508020120144418BF641C4FF000084FF000099042AF
S3150802013071EB030C39D3002919BFB1FA81F701FA19
S3150802014007F6B0FA80F700FA07F6C7F120071EBFCE
S3150802015020FA07FC46EA0C062037B6FBF4FCA7EBA6
S315080201600507103F07F01F0BCBF120060CFA0BFB15
S315080201702CFA06F644BFB3460026202FA4BF5E46D5
S315080201804FF0000B5BEA060C08BF4FF0010B19EBA8
S315080201900B09ABFB027C48EB0608C01B06FB02CC2C
S315080201A00BFB03CC71EB0C01C1E70B460246414639
S315080201B04846BDE8F08B13B54FF000004FF000013A
S315080201C000F040FBBDE81C407047B2F120030AD597
S315080201D0C2F1200301FA02F120FA03F300FA02F04F
S315080201E041EA0301704700FA03F14FF00000704735
S315080201F0B2F120030AD5C2F1200320FA02F001FA6D
S3150802020003F321FA02F140EA0300704721FA03F0E8
S315080202104FF000017047B2F120030AD5C2F120035C
S3150802022020FA02F001FA03F341FA02F140EA030066
S31508020230704741FA03F04FEAE171704710B54C1066
S3150802024084EA530404D54042C1F1000138BF491E6D
S315080202501B4204D55242C3F1000338BF5B1EFFF7A7
S315080202603DFF14F0804F04D04042C1F1000138BF6F
S31508020270491E14F0004F04D05242C3F1000338BF9E
S315080202805B1E10BD7CB515461A460C00009001D0BF
S315080202902044401E074B7B4469460190284600F0DD
S315080202A09EFB05461CB10020694600F0ABFB2846BA
S315080202B07CBD00007507000070B50646FFF70AFF09
S315080202C00468054630460A22002100F093FD2C6098
S315080202D070BD00000A460146014800F010BE000043
S315080202E0ECC300102DE9F04782460E46144698469E
S315080202F0DDF8209094B1012C0BD04A465046650889
S3150802030005FB08673946904700280CD00DDA2C46BB
S31508020310F0E74A4631465046904710B10020BDE8FC
S31508020320F0873046FBE73846F9E7641B641E07EB9D
S315080203300806DFE7401ECAB210F8011F8A4202D039
S315080203400029F9D10020704740EA010310B59B073E
S315080203500FD1042A0DD310C808C9121F9C42F8D01F
S3150802036020BA19BA884201D9012010BD4FF0FF30D0
S3150802037010BD1AB1D30703D0521C07E0002010BDE6
S3150802038010F8013B11F8014B1B1B07D110F8013B72
S3150802039011F8014B1B1B01D1921EF1D1184610BD53
S315080203A040EA0103024630B59B0710D14FF00134EB
S315080203B000E008C208C91D1B9D4315EAC41FF8D0F0
S315080203C013F0FF0102F8011B0DD01B0AF8E711F81A
S315080203D0013B002B02F8013B05D011F8013B002B2B
S315080203E002F8013BF3D130BD10B5431C02E010F808
S315080203F0011B71B18107FAD14FF0013202C88C1A7A
S315080204008C4314EAC211F9D0C01A0A0603D0C01ED8
S3150802041010BDC01A10BD0A0401D0801E10BD090203
S31508020420FCD0401E10BD40EA010370B59B072ED1D1
S315080204304FF00136042A2AD308C810C9121F9D1B79
S315080204409D4315EAC61517D0D8B2E1B2401A50EA4A
S31508020450056110D198B2A1B2401A50EA05410AD1F3
S3150802046023F07F4024F07F41401A50EA052102D149
S31508020470180EA0EB146070BDA342DBD018BA21BADD
S31508020480884201D9012070BD4FF0FF3070BD0AB90C
S31508020490002070BD10F8013B11F8014B63B1A3426D
S315080204A00AD1521E08D010F8013B11F8014B1BB1B4
S315080204B0A34201D1521EEDD1181B70BD032A40F288
S315080204C0308010F0030C00F0158011F8013BBCF1E6
S315080204D0020F624498BF11F801CB00F8013B38BFFE
S315080204E011F8013BA2F1040298BF00F801CB38BF0C
S315080204F000F8013B11F0030300F06780083AC0F0E8
S31508020500088051F8043B083A51F804CBA0E80810D1
S31508020510F5E7121D5CBF51F8043B40F8043BAFF304
S315080205200080D20724BF11F8013B11F801CB48BF5E
S3150802053011F8012B24BF00F8013B00F801CB48BF94
S3150802054000F8012B7047431A28BF9A427FF6B6AFC6
S31508020550032A1044114440F2268010F0030F1EBFEE
S3150802056011F8013D521E00F8013D10F0030F7FF409
S31508020570F6AF11F0030300F06D80083AC0F00B8065
S3150802058051F8043D083A51F804CD40F8043D40F8C4
S3150802059004CDFFF7F3BF121D5CBF51F8043D40F8C6
S315080205A0043DAFF30080D20724BF11F8013D11F8CC
S315080205B001CD48BF11F8012C24BF00F8013D00F80F
S315080205C001CD48BF00F8012C704710B5203AC0F09B
S315080205D00B80B1E81850203AA0E81850B1E8185034
S315080205E0A0E81850BFF4F5AF5FEA027C24BFB1E871
S315080205F01850A0E8185044BF18C918C0BDE81040E2
S315080206005FEA827C24BF51F8043B40F8043B08BFEA
S315080206107047D20728BF31F8023B48BF11F8012BB1
S3150802062028BF20F8023B48BF00F8012B7047431A3F
S3150802063028BF9A427FF6C9AF104410F0030F11443F
S315080206401EBF11F8013D521E00F8013D10F0030FBE
S315080206507FF4F6AF103AC0F00A8010B531E91850A7
S31508020660103A20E91850BFF4F9AFBDE81040530715
S3150802067024BF31E9081020E9081044BF51F8043DA7
S3150802068040F8043D12F0030F08BF7047D20728BF8F
S3150802069031F8023D48BF11F8012C28BF20F8023D67
S315080206A048BF00F8012C704702F0FF0343EA032211
S315080206B042EA024200F002B84FF000020429C0F0F2
S315080206C0128010F0030C00F01B80CCF1040CBCF174
S315080206D0020F18BF00F8012BA8BF20F8022BA1EBC6
S315080206E00C0100F00DB85FEAC17C24BF00F8012BAB
S315080206F000F8012B48BF00F8012B70474FF00002A3
S3150802070000B5134694469646203922BFA0E80C50F7
S31508020710A0E80C50B1F12001BFF4F7AF090728BFD2
S31508020720A0E80C5048BF0CC05DF804EB890028BF4E
S3150802073040F8042B08BF704748BF20F8022B11F077
S31508020740804F18BF00F8012B704710B5044610F009
S31508020750030F08BF11F0030F40F015804FF0013E5A
S31508020760121FC0F20E8051F8043BA3EB0E0C2CEAC2
S31508020770030C1CEACE1C08BF40F8043BF0D0A1F1DA
S31508020780040102F10402521E08DB11F8013B002B98
S3150802079000F8013BF7D11146FFF78EFF204610BD40
S315080207A04FF0013C50F8042B51F8043B9A4221D1F0
S315080207B0A2EB0C03934313EACC1317D150F8042B7C
S315080207C051F8043B9A4215D1A2EB0C03934313EA60
S315080207D0CC130BD150F8042B51F8043B9A4209D199
S315080207E0A2EB0C03934313EACC13DBD04FF00000C1
S315080207F0704700BFD01A01BAB1FA81F101F01801A7
S3150802080022FA01F0CB40C1F12001DBB2C0B2C01A14
S315080208102CFA01F3D11A914311EAC311E6D17047B2
S3150802082070B5064C7C44064D7D4403E0206820449E
S315080208308047241DAC42F9D170BD000004AA040009
S315080208400CAA040030F0BCB90048704718C400105E
S3150802085010B5FFF73FFC006810BD10B50446FFF758
S3150802086039FC046010BD70B5044685690068C10686
S3150802087001D5302600E02026C00708D070BDD4E98D
S31508020880012130469047206A00F1010020626D1E60
S31508020890F5D570BD70B5044685690068C00708D1EC
S315080208A070BDD4E9012120209047206A00F1010099
S315080208B020626D1EF5D570BD09684A0501D540B29C
S315080208C07047C905FCD500B2704709684A0501D5C3
S315080208D0C0B27047C905FCD580B2704770B50546E7
S315080208E00C46012A05D02868800600D5EA69002345
S315080208F002E0012305E05B1C934202D2E05C002879
S31508020900F9D1A869E618C01AA861286A18442862A3
S315080209102846FFF7A8FF04E0D5E9012114F8010BE0
S315080209209047B442F8D32846FFF7B4FF70BD0000DB
S315080209302DE9F0410746002510687529394616A49F
S3150802094011D0FFF7B9FF002803DAC0F1000013A49B
S3150802095007E039688A0701D511A402E0490704D5D8
S3150802096010A4012501E0FFF7B0FF00210A2307F1D1
S31508020970240607E0B0FBF3F203FB12003030705492
S315080209801046491C0028F5D12B4622463846BDE8B2
S31508020990F04100F08CBB0000000000002D000000B2
S315080209A02B0000002000000011680268006A530547
S315080209B001D508700BE0D30501D5088007E01306B8
S315080209C003D5C217C1E9000201E0520608600120F8
S315080209D07047000001694A1C02610878704700B531
S315080209E08FB0CDE901310021059105497944CDE958
S315080209F003101146684600F037F90FB000BD000033
S31508020A00E5FFFFFF0A6802F8010B0A607047D1E9A1
S31508020A1000239A4202D2531C0B60107070470000E2
S31508020A202DE9FF5F04468A461546DFF8AC80F8448E
S31508020A300027D8E900103E46CDE9001011E03AF841
S31508020A4016106A4602A800F09CFF411C07D02168CE
S31508020A50890603D5E269391891420ED8074406F188
S31508020A6001062068800602D5E069B84205DDAE4275
S31508020A70E5DB3AF816000028E1D1A069C01BA0619F
S31508020A802046FFF7F0FED8E90010CDE90010002055
S31508020A9016E03AF818106A4602A800F072FF814674
S31508020AA0401C0BD000250DF1080B05E0D4E9012105
S31508020AB01BF8050090476D1C4D45F7D308F1010058
S31508020AC0B0428046E5DB206A384420622046FFF7BA
S31508020AD0E1FEBDE8FF9F0000CE8804002DE9F04143
S31508020AE08046D21D22F007020026D2E90002F52925
S31508020AF014A512D0002A06DA0023D0EB030063EB12
S31508020B00020211A508E0D8F800108B0701D50FA537
S31508020B1002E0490701D50EA501261146002408F16F
S31508020B20240704E000F07EFA30323A55641C50EA93
S31508020B300102F7D133462A4621464046BDE8F0412E
S31508020B4000F0B5BA000000002D0000002B000000DE
S31508020B502000000030B4002100F124040CE002F069
S31508020B60070505F130054FEAD20242EA4372655497
S31508020B7001F101014FEAD30352EA0305EFD10468F2
S31508020B80002310A2250708D504F020040C4304D03C
S31508020B90C46901230CA2641EC46130BC00F087BA82
S31508020BA010B5044621461068FFF78FFE0246204616
S31508020BB0BDE810400023CDE7D21D22F00701D1E996
S31508020BC00023C7E70000000030000000F0B40F461B
S31508020BD00168090502D5234C7C4402E0214C7C4479
S31508020BE00E34002100F124050BE002F00F064FEA4D
S31508020BF01212A65D42EA03724FEA13136E5401F10A
S31508020C00010152EA0306F0D12246046800232407AA
S31508020C1004D5702F05D009B111320223F0BC00F0B9
S31508020C2046BA10320123F9E770B504460D46214645
S31508020C301068FFF74AFE024629462046BDE870407C
S31508020C400023C3E7D21D22F00703D3E90023BDE739
S31508020C500368126843F0200303600823C361002374
S31508020C60B4E700002C8704002DE9F05F04468946A4
S31508020C704FF0000ADFF878B1FB44C0F820A02046FE
S31508020C80E1688847002875D0252806D0D4E90121CD
S31508020C909047206A401C2062F1E700265F462046FC
S31508020CA0E16888472028054608DB312D06D207EB7E
S31508020CB0050010F8200C08B10643F0E7B00701D585
S31508020CC026F00406C4F81CA00027C4F818A02A2D8A
S31508020CD009D028462FF0A8FF38B304EB8708303D21
S31508020CE0C8F8185019E059F8041B204604EB870285
S31508020CF09161E1688847012F054618D1E069002805
S31508020D0020DA26F020061DE0D8F8180000EB80004D
S31508020D1005EB40003038C8F818002046E1688847D5
S31508020D2005462FF081FF0028EED1012F0AD02E2D7D
S31508020D3008D12046E16888477F1C0546022F46F0FF
S31508020D402006C4DBA069002803DA404246F0010601
S31508020D50A061F00701D026F010066C2D0BD0682D85
S31508020D6009D04C2D39D06A2D35D0742D35D07A2D2F
S31508020D7033D016E038E0E1682F4620468847B84265
S31508020D80054609D16C2F26D04FF48060E1680643E8
S31508020D9020468847054604E06C2F1AD04FF4807027
S31508020DA006430DB3A5F14100192802D8203546F4A9
S31508020DB000664A462946204626604E46FFF739F916
S31508020DC080B101280BD0F61D26F0070000F10809AC
S31508020DD055E74020E4E78020D8E70020D6E706F169
S31508020DE004094CE7284651E7206ABDE8F09F00004F
S31508020DF0B48604002DE9F0470F469146804604461C
S31508020E00002614F8015B2DB100F000F90068405D78
S31508020E10C007F6D12B2D02D02D2D18D0641E4A46B6
S31508020E203946204600F05EFD27B13968A14201D154
S31508020E30C7F800804FF0020471050BD5404200281E
S31508020E4003DDFFF747F90460A007BDE8F08746F41B
S31508020E508066E4E70028F8DAFFF73CF904606FF0E9
S31508020E600040F2E770B50646484231EA00000FD064
S31508020E702A20741C0025307000F0D0F803460020A2
S31508020E8053F82520110F120109292BD957312AE0C7
S31508020E90042913D004DC012908D0022904D109E067
S31508020EA008290FD0102911D0002070BD00F0B6F81D
S31508020EB000680EE000F0B2F840680AE000F0AEF80A
S31508020EC0806806E000F0AAF8C06802E000F0A6F81A
S31508020ED0006928B120F0030050F8041C084470BDCC
S31508020EE048A070BD3031401C082804F8011BC9DB34
S31508020EF06D1C052DC3DB00202070304670BD2DE920
S31508020F00F04709B14B0902D00020BDE8F08732B19B
S31508020F1013782A2B06D0BDE8F04700F025B8BDE8BD
S31508020F20F0479FE7551C81460F464FF001080024FB
S31508020F300026314615F8010B392801D8303800E069
S31508020F405738491C082940EA0616F3DB08FA04F062
S31508020F50384203D000F062F840F82460641C052C7D
S31508020F60E6DB39464846DAE72DE9F04106460C46FD
S31508020F70154688070AD51146234878443EF01AFED4
S31508020F8007003CD000F04AF87F1C4760E0070AD009
S31508020F9029461D4878441A38AFF3008007002ED038
S31508020FA000F03CF8076060070AD5294616487844D7
S31508020FB03438AFF30080070021D000F02FF887609D
S31508020FC020070AD52946104878444E383EF008FECE
S31508020FD0070014D000F022F8C760E0060AD52946B1
S31508020FE0094878446838AFF30080050007D000F056
S31508020FF015F8056121463046BDE8F04132E7BDE8FD
S31508021000F0810000430000007EA1040010B500F044
S3150802101005F8001D10BD00BF9DEB03000048704790
S315080210201CC4001030B5B0F10A024FEA900E71F1F5
S3150802103000034EEA817EB0EB0E0061EB91014FEAA6
S31508021040101E4EEA017E10EB0E0041EB11114FEA1B
S31508021050102E4EEA016E10EB0E0041EB11214FEAFB
S31508021060104E4EEA014E10EB0E0041EB11414018AC
S3150802107041F100014FEAD00040EA41704FEAD1013E
S3150802108010EB80054FEA810444EA907444EB0104AC
S315080210906D1944EB0404521BA3414FF0000348BFE9
S315080210A00A3200D530BD401C41F1000130BD2DE9A0
S315080210B0F0470D4604469246994600F1240801680F
S315080210C0880604D5E06921F01001216000E00120BC
S315080210D0A84202DDA0EB050700E00027A16907EB9D
S315080210E0050202EB0900A1EB0000A0612068C00618
S315080210F002D42046FFF7B7FB002608E0D4E901210F
S315080211001AF806009047206A401C761C20624E4553
S31508021110F4DB2068C0060AD52046FFF7A4FB06E0E2
S31508021120D4E9012130209047206A401C2062381EEB
S31508021130A7F10107F4DC07E0D4E9012118F8050054
S315080211409047206A401C2062281EA5F10105F3DC9F
S315080211502046FFF79FFB2068000602D50220BDE85D
S31508021160F0870120FBE770472DE9FF4F0C461E4624
S315080211704FF0FF378BB0D2E90001DDF860800A90A4
S315080211808A46C1F30A5505B93D46002108464FF07D
S315080211900000BAF1000F00F4400005DA00EB800007
S315080211A04FF4400101EA50004FEA9059B9F1010F94
S315080211B000DDB9460A9850EA4A000FD044F61050A4
S315080211C0A5F2FF3545432F14B8F1000F1FD075421B
S315080211D0291E1FDD4846C9F100021CE0B8F1010FBD
S315080211E04FF0000001D1F24307E0302101E021541B
S315080211F0401CB042FBDB30460022002121540B99E9
S31508021200C1F80880C1E900200FB0BDE8F08FBD1B08
S315080212106D1CDDE74A4600DA694206A800F020FCA2
S3150802122006AB07CB03AB07C350460A9900F08AFC04
S315080212308DE80700A0F500501F3800900398002D8E
S3150802124009DD42F21F014A46084403A9039068468B
S3150802125000F0E9FE08E0A0F500504A461F3803A947
S315080212600390684600F0F3FE8DE807000004000CC0
S3150802127003D04FF0FF30410800E01046B8F1000FE6
S3150802128003D00022009215461FE0751E06D4FFF70A
S31508021290C9FE02F1300262556D1EF8D5B346012227
S315080212A0084302D000227F1C04E02078302801D1AE
S315080212B000227F1E002A099786D01DE0112D07DA23
S315080212C0FFF7B0FE303262556D1C50EA0102F5D1C5
S315080212D008430FD10021681E05E0235C625C635453
S315080212E0491C2254401E8142F7DBAB46A81B401E0E
S315080212F0099001E0009848B1002004F80B000B9809
S31508021300099AC0F80880C0E9002B7DE711264FF03C
S31508021310000859E72DE9F04F88460446D21D22F007
S31508021320070191B0D1E90001CDE90A012EF004FEC8
S3150802133002460B98C00F01D02D2007E020688107CE
S3150802134001D52B2002E0202101EAC000032A0990D8
S3150802135001D0072A05DB03464146204600F032FB48
S315080213600EE12068800601D5E06900E00620B8F1A2
S31508021370650F814606D0B8F1660F18D0B8F1670F27
S3150802138072D132E00020B9F1110F009001DB11236E
S3150802139001E009F101030AAA01A90CA8FFF7E4FE74
S315080213A0DDE90C70002609F10105834648E00120B3
S315080213B04B4600904FF000470AAA01A90CA8FFF76E
S315080213C0D3FEDDE90C050E990026AB4619B909F1DB
S315080213D0010100EB0105B9EB050003D4C0F1FF36A4
S315080213E009F10105A5EB09002BE0B9F1010F01DAB4
S315080213F04FF001090020B9F1110F0090484601DDAE
S31508021400112300E003460AAA01A90CA8FFF7ACFEBD
S31508021410DDE90C704D4600268346206800070AD48B
S31508021420AB4500DA5D4601A8012D04DD411911F824
S31508021430011C302907D04F4502DA17F1040F04DAE6
S315080214400120824610E06D1EEEE7002F02DCED1B3E
S315080214503E4403E0781CA84200DD0546A7EB0600D9
S3150802146000F1010A4FF000472068000703D4AA4595
S3150802147001DB4FF0FF3A0021B7F1004F0DF14308A7
S315080214808DF8431022D002202B23002F01DA7F4247
S315080214902D230A22011EA0F1010000DC4FB197FBA1
S315080214A0F2F102FB117C0F460CF1300C08F801CD63
S315080214B0F0E7A8F1010003702168090501D5452165
S315080214C000E06521A0F1010800F8011C09980FA99E
S315080214D0A1EB080707F1070700B1012000EB050198
S315080214E001EBEA70A1693844A1EB0000A0F1010002
S315080214F0A0612068C00602D42046FFF7B4F909980D
S3150802150030B1D4E901219047206A00F10100206236
S315080215102068C00620D52046FFF7A5F91CE0002E54
S3150802152004DBB34502DD01A8805D00E03020D4E982
S3150802153001219047206A761C401CBAF1010A2062F2
S315080215400AD1FFF76BFDC0680168405CD4E9012146
S315080215509047206A401C2062281EA5F10105DEDCA0
S3150802156007E0D4E9012118F8010B9047206A401CCC
S315080215702062381EA7F10107F3DC2046FFF78AF935
S31508021580022011B041E600002DE9F04F04460D464F
S31508021590D21D22F0070089B0D0E9009248461746C4
S315080215A039462EF0C9FC0246F80F01D02D2307E072
S315080215B02068810701D52B2302E0202101EAC00316
S315080215C08DF820300BB1012000E00020032A824664
S315080215D001D0072A04DB2946204600F0F3F941E147
S315080215E02068800601D40D2500E0E569C7F30A568E
S315080215F00D2D4ADA00214FEA175B08464FF0000024
S31508021600002F00F4400007DA00EB80004FF4400197
S3150802161000EBD07001EA60004FEAA05CBCF1010F52
S3150802162001DD4FF0FF3CAB000021182B06D30A461A
S31508021630A3F118004FF08051C14002E04FF4801226
S31508021640DA400C33202B03D3203B09FA03F001E0DE
S3150802165007FA03F0BCF1000F4FF0004801DD18B994
S3150802166013E012D1404510D319EB01095741BCF1D9
S31508021670000F05D1404503D113469F4329EA0109C4
S31508021680BBEB175F01D006F101062068000502D5FB
S315080216907C48784402E07B487844193808AB302203
S315080216A003F80A20027C0AF10101002E0AF1020A55
S315080216B05A54694602DC4FF0300201E04FF031021B
S315080216C04FF001088DF8002002D0A6F2FF3603E09B
S315080216D059EA470200D06C4E002D02DC2268120736
S315080216E004D54FF002082E228DF80120C4460023A5
S315080216F00BE0C7F303423F01825C5B1C6D1E01F8D7
S315080217000820052B08F1010801DA002DF1DC002278
S315080217100CE000EB1973521C1B786D1E082A01F89F
S31508021720083008F101084FEA091901DA002DF0DC40
S315080217302268920602D514E0A8F10108E04505DD03
S3150802174001EB080212F8012C302AF5D0B8F1000F85
S3150802175007DD01EB080212F8012C2E2A01D1A8F1A5
S315080217600108002D05DD3E2201F808206D1E08F14C
S315080217700108407C002E01F8080008F1010806DA83
S315080217802D2001F80800764208F1010804E02B2012
S3150802179001F8080008F101080A274FF47A739E42F5
S315080217A00ADB96FBF3F000F1300203FB106601F840
S315080217B0082008F1010801E0642E0BDB642396FB7E
S315080217C0F3F000F1300203FB106601F8082008F175
S315080217D0010801E00A2E07DB96FBF7F000F130005C
S315080217E001F8080008F1010896FBF7F007FB1060FC
S315080217F000F1300001F80800A16908F1010808EBB8
S31508021800050202EB0A00A1EB0000A0612068C006EF
S3150802181002D42046FFF727F8216A08AE01EB0A0030
S31508021820206204E0D4E9012116F8010B9047BAF1C7
S31508021830010AF7D22068C00602D52046FFF713F838
S315080218406E4609E016F8010B3E280FD0D4E90121AD
S315080218509047206A401C2062B8F10108F2D220465D
S31508021860FFF718F809B00220BDE8F08F206A28446D
S31508021870206203E0D4E90121302090476D1EEBD3A4
S31508021880F8E70000757E040002FCFFFF10B5436905
S3150802189013B1AFF3008001E0FFF720F8012010BD75
S315080218A0126800F124010A7000224A700122EDE74B
S315080218B011684FF0FF32E9E710B5436913B1AFF388
S315080218C0008001E0FFF7ACF8012010BD126800F1B4
S315080218D0240182840022C2840122EDE711684FF0B6
S315080218E0FF32E9E72DE9F05F82468B461546002767
S315080218F00AF10104B9460078302801D09DB113E0F7
S3150802190014F8010B0127782803D0582801D045B1CD
S315080219100AE00DB1102D07D1002714F8010B102586
S3150802192002E0082500E00A250026B0460EE005FB7F
S31508021930080005FB06F101271FFA80F801EB10469D
S31508021940B6F5803F00D3B94614F8010B294600F0D4
S3150802195079F80028EBDABBF1000F05D00FB1641E47
S3150802196000E05446CBF80040B9F1000F06D0FEF766
S31508021970B1FB02210160C81EBDE8F09F48EA064095
S31508021980FAE770B505460C461646FFF73FFB0368AD
S3150802199093F80101012806D0FF2C0FD8185D68B10B
S315080219A001202C7070BDD3F8070132462146034444
S315080219B02846BDE8704003F2071318474FF0FF3078
S315080219C070BD00002DE9F04104461F460326016852
S315080219D0072A01F4006004DB08B116A505E016A57E
S315080219E003E008B115A500E015A521F01000206056
S315080219F0A069C01EA0610FB1401EA0612046FEF775
S31508021A0032FF4FB1D4E9012138469047206A401C7B
S31508021A102062C01C206206E0206AFAE7D4E90121A6
S31508021A2015F8010B9047761EF8D22046FEF732FFCC
S31508021A30BDE8F0814E414E006E616E00494E460089
S31508021A40696E66003A2800D2303820F02002412A10
S31508021A5001D3A2F13700884201D34FF0FF30704715
S31508021A602DE9F047814616468AB035487844D0E9CA
S31508021A70002380680092CDE90130314878440C3859
S31508021A80D0E90223006903924FF03702CDE9043008
S31508021A9041F69B30014491FBF2F0A0F1800502FB6E
S31508021AA010141B3C02D56442012000E00020DFF836
S31508021AB090A080460027FA44AAF1C60A0DE0E0077C
S31508021AC009D03246684607EB47010AEB810100F066
S31508021AD0BEFA8DE8070064107F1C002CEFD1184F60
S31508021AE07F44B43F17E0E80713D007EB04100DF163
S31508021AF0180A90E80E00AAE80E00C068F04201D162
S31508021B0098190890324606A903A800F0A0FA03AB72
S31508021B1007C36D10641C002DE5D132466946B8F13B
S31508021B20000F03A802D000F07EFA01E000F08FFA57
S31508021B30C9E90001C9F808200AB0BDE8F087000023
S31508021B402C7B04005FEA400C08BF91F0000F4FEAB5
S31508021B508C234FEAC12243EA51514FEA1C5018BF5F
S31508021B6000F5F0404FEA300018BF41F000415FEA45
S31508021B706C5C00F02980BCF1FF3F08BF40F0804052
S31508021B807047130C06BF12044FF0100C4FF0000CEE
S31508021B90130E04BF12020CF1080C130F04BF120134
S31508021BA00CF1040C930F04BF92000CF1020CD30F34
S31508021BB004BF52000CF1010C11464FF00002A0F1CD
S31508021BC01F00A0EB0C00704711F0004F08BF7047CA
S31508021BD031F000413FF4D5AF0B0C06BF09044FF0B4
S31508021BE0100C4FF0000C0B0E04BF09020CF1080C86
S31508021BF00B0F04BF09010CF1040C8B0F04BF8900FB
S31508021C000CF1020CCB0F04BF49000CF1010CCCF10C
S31508021C102003A0EB0C0022FA03F302FA0CF241EAC3
S31508021C20030100F10100704720F07F4C80EA0300AF
S31508021C3023F07F47ACEB070303F57C5300F0004023
S31508021C4003F1FF032DE980494FEA154B09B44FEA20
S31508021C50144325EA0B4E24EA03480FF2042606EB40
S31508021C60132749083E785FEA320203FB0667C7F57F
S31508021C70000707FB06F64FEA54374FEAD64606F13F
S31508021C80020607FB066CCCF1005C4FEA1C472CEAFD
S31508021C90074C07FB06F40CFB06F504EB15464FEA60
S31508021CA0961634BF00204FF000404FEAD13706FBA4
S31508021CB007FC4FEA1C4C0CFB0BF7D21B03FB0CF779
S31508021CC061EB07010CFB0EF7B0EB074072EB17420C
S31508021CD00CFB08F734BFA2EB0742B2EB074261EBF3
S31508021CE017414FEA0C444FEA910706FB07FC4FEAF5
S31508021CF01C4C0CFB0BF7B0EBC74072EB573203FBDD
S31508021D000CF734BFA2EBC742B2EBC74261EB5731BD
S31508021D100CFB0EF7B0EBC70072EB57720CFB08F719
S31508021D2034BFA2EBC702B2EBC70261EB5771039F3E
S31508021D304FEA816141EA921104EBCC044FEAD137AA
S31508021D404FEA826206FB07FC42EA90124FEA80607B
S31508021D504FEA1C4C0CFB0BF7D21B03FB0CF761EB8F
S31508021D6007010CFB0EF7B0EB074072EB17420CFBB0
S31508021D7008F734BFA2EB0742B2EB074261EB174101
S31508021D804FEA8C554FEA910704EB9C2406FB07FCA5
S31508021D904FEA1C4C0CFB0BF7B0EBC74072EB573201
S31508021DA003FB0CF734BFA2EBC742B2EBC74261EBA7
S31508021DB057310CFB0EF7B0EBC70072EB57720CFBF0
S31508021DC008F734BFA2EBC702B2EBC70261EB577141
S31508021DD015EB4C254FEA816141EA92114FEA82627C
S31508021DE04FEAD13742EA901206FB07FC44F1000497
S31508021DF04FEA80604FEA1C4C0CFB0BF7D21B03FB25
S31508021E000CF761EB07010CFB0EF7B0EB074072EB20
S31508021E1017420CFB08F734BFA2EB0742B2EB0742A4
S31508021E2061EB174115EB1C154FEA813141EA9241E4
S31508021E304FEA823242EA90424FEA80304FEA0C7603
S31508021E4044F1000448EA03434EEA0B484FF0000EF9
S31508021E50B2EB080C71EB030724BF624639464EEB18
S31508021E600E0E4FF0000B0018524149414BEB0B0B7B
S31508021E70B2EB080C71EB03077BF1000B24BF624639
S31508021E8039464EEB0E0E4FF0000B001852414941EF
S31508021E904BEB0B0BB2EB080C71EB03077BF1000B58
S31508021EA024BF624639464EEB0E0E51EA020718BFA8
S31508021EB046F0010616EB0E7655F1000254F10001C2
S31508021EC003D5BDE88901BDE80088BDE88901BDE8FA
S31508021ED00048B619524141EB0101A3F101037047CB
S31508021EE080807F7E7D7C7B7A797877767675747347
S31508021EF0727171706F6E6E6D6C6C6B6A6A69686806
S31508021F00676666656464636362616160605F5F5E9B
S31508021F105E5D5D5C5C5B5B5A5A5959585857575611
S31508021F205655555554545353525252515150505076
S31508021F304F4F4F4E4E4D4D4D4C4C4C4B4B4B4A4AC8
S31508021F404A4949494848484747474746464645450C
S31508021F504544444444434343434242424241414145
S31508021F60002B26D4770021D01CB54FEA370703B4D5
S31508021F704FF010004FF010014FF000000FBCBDE803
S31508021F8010400BF1010BBBF1010F08BF5FEA1707FF
S31508021F9022BF12F1010211F101014FF0004143F192
S31508021FA0000300F0004043EA00007047F9D35708DF
S31508021FB0DAE746EA064613F1400F4FEA16461FDDF0
S31508021FC013F1200FDFBF16430A46002120335B4276
S31508021FD0C8D0C3F1200746EA064602FA07F74FEACF
S31508021FE0164646EA0706C3F1200722FA03F201FA61
S31508021FF007F721FA03F14FF0000342EA0702B1E7B5
S3150802200046EA020646EA06464FEA164646EA010640
S31508022010BCBF46EA0646360C4FF000034FF00002F4
S315080220204FF000019EE72DE9C048934630B491E887
S31508022030380007C831EA400C48BF34EA430C03D5D6
S31508022040FFF7F2FDFFF78CFFF0BCBDE800882DE92B
S31508022050C048934630B491E8380007C810F0804F5C
S3150802206008BF13F0804F03D100F005F8FFF778FF99
S31508022070F0BCBDE8008820F07F4780EA030023F021
S315080220807F4C07EB0C03A3F57C5300F00040A3F149
S31508022090FE0392F0000F00F0B38095F0000F00F0F7
S315080220A077802DE901494FEA11404FEA144621EAA1
S315080220B0004800FB06FC24EA064708FB06F607FB6F
S315080220C008F800FB07F718EB06484CEB164C4FEAE4
S315080220D0124B18EB07484FEA15464CEB174022EA13
S315080220E00B4E0BFB06FC25EA06470EFB06F607FB1C
S315080220F00EFE0BFB07F71EEB064E4CEB164C4FF08B
S3150802210000061EEB074E4CEB174B18EB0B0840F17B
S31508022110000018EB0E0B58EB000840F100008F1A6E
S315080221204FF000013CBFC943661B14BFB5EB040C54
S3150802213000213CBFC943F61B4FEA17444EEA8E0EEE
S3150802214027EA04454FEA1C4704FB07622CEA074CB8
S3150802215005FB07F70CFB05F604FB0CFC16EB07461A
S3150802216042EB174216EB0C4642EB1C421BEB0606E9
S3150802217058EB0202414146EA9E0601D5BDE80189AD
S31508022180B619524141EB0101A3F10103BDE80189E8
S315080221904FEA14454FEA114724EA054621EA074C55
S315080221A005FB07F406FB07F70CFB06F105FB0CFC1F
S315080221B011EB074144EB17444FEA124711EB0C4166
S315080221C044EB1C4422EA074C05FB07F206FB07F719
S315080221D00CFB06F605FB0CFC16EB074642EB174210
S315080221E016EB0C4642EB1C456A1854F1000148BF2F
S315080221F07047B619524141EB0101A3F10103704739
S3150802220095F0000F37D04FEA11424FEA144721EAF8
S31508022210024624EA074C02FB07F106FB07F70CFB0A
S3150802222006F402FB0CFC14EB074441EB17414FEA98
S31508022230154714EB0C4441EB1C4125EA074C02FBFB
S3150802224007F506FB07F70CFB06F602FB0CFC16EB7A
S31508022250074645EB174516EB0C4645EB1C42121989
S3150802226051F1000148BF7047B619524141EB0101CD
S31508022270A3F1010370474FEA14454FEA114724EACE
S31508022280054621EA074C05FB07F106FB07F70CFB97
S3150802229006F24FF0000605FB0CFC12EB074241EB77
S315080222A0174112EB0C4251EB1C4148BF704792187A
S315080222B041EB0101A3F1010370470000814208BF07
S315080222C0704702F0030332F0030205D050F804CB3C
S315080222D041F804CB121FF9D1002BD8BF704710F86A
S315080222E0012B5B1E01F8012B002BF8DC704701F06D
S315080222F0030231F003014FF0000303D040F8043B18
S31508022300091FFBD1002AD8BF704700F8013B521EAD
S31508022310002AFADC704710B507480849084AFFF749
S31508022320CDFF08480849094AFFF7C8FFBDE810402B
S3150802233007480849DBE70000807908080000002002
S3150802234000000000DC7A0808000000104C0A0000B1
S315080223504C0A001074BC0000FDF762BE3F4A00201A
S31508022360116821F0EC611160116841F48001116075
S315080223703B4B196841F480311960196800F1010074
S3150802238011F4003F02D1B0F5A06FF6D1186810F427
S31508022390003F08BF70473348016841F08051016029
S315080223A03148016841F48041016010681060106884
S315080223B040F400401060106840F4A05010602C49A8
S315080223C02A480860186840F080701860186810F08B
S315080223D0007FFBD0274940F205600860106820F0AC
S315080223E003001060106840F002001060106800F0E8
S315080223F00C000828FAD1704772B601211E484160BE
S31508022400082181601D48016821F4027101601C4897
S31508022410016841F4FE6101601148016841F0010159
S3150802242001600E4A00211160026822F4102222F08D
S3150802243080720260031D134A1A60026822F480221F
S3150802244002601148016089E710B5FFF7D5FF02F06F
S31508022450E3F9BDE81040FFF75EBF00000838024006
S3150802246000380240403802400070004019544007C4
S3150802247004380240003C0240002004E014ED00E06B
S31508022480FCED00E0103000240C380240EFF3108215
S3150802249072B602607047016881F310887047EFF3DD
S315080224A00581006809B14FF001007047016881F3A0
S315080224B01088704772B670470168EFF3108281F38D
S315080224C0108800BF82F310887047EFF31080EFF38D
S315080224D0058180F0010009B14FF000007047EFF363
S315080224E0108072B680F001007047EFF3108062B672
S315080224F080F001007047EFF3108172B601607047F1
S31508022500016881F310887047704770471B4908882D
S3150802251010F0010F1A4809D04FF6FE720A80D0E968
S3150802252002120B1C42F10101C0E902311549096880
S31508022530D0E9023C41EA03006146704730B583B0F0
S31508022540044600216846FFF7A1FFFFF7DFFF0546AD
S315080225502046FFF7DAFF032894BF0024C41EFFF7BC
S31508022560D5FF401BA042FAD96846FFF794FF03B08D
S3150802257030BDA8214843401F00F022B9100C004084
S3150802258028000010240C0040806840687047806864
S31508022590806870470168491E0160704710B584B0AB
S315080225A06FF0030032496844884228BF314A03D390
S315080225B040F804298842FBD2304C2F4860603048E4
S315080225C0A06000F063FD2F482F490844A16808441B
S315080225D0A06004F01DF8206001F015F803F0C0F9B8
S315080225E001F0B2F80020009001230322042127A05B
S315080225F000F04CFC2BA32EA2304931A000F046FC79
S31508022600364937A000F042FC01A902A800F032FDC3
S31508022610DDE90110FEF750F838A033F037FE2749F6
S3150802262037A033F033FE38A135A033F02FFE20A1B0
S3150802263038A033F02BFE1BA136A033F027FE01216A
S315080226404EF6602004F04BFF0121022005F016F930
S315080226500121084604F041FF03F0F4FE30A033F0EE
S3150802266015FE38A02FF04AF907F09CFD04B010BDFC
S3150802267000E000100DF0ADBA0000020800000010DC
S3150802268080790600000000004C0A00002E4E657490
S315080226904D46207625642E25642E25642E25640D46
S315080226A00A00000031343A33393A32350000000064
S315080226B04D61792020372032303135002016060840
S315080226C025732C204275696C6420446174653A0D41
S315080226D00A0925732025730D0A0000000E45060017
S315080226E041524D20436F6D70696C65722076657232
S315080226F073696F6E2025640D0A0000000C00000045
S31508022700252D3135730D0A004275696C64204461C2
S3150802271074653A002020252D3133730D0A00000016
S315080227200C6D61696E2065786974656421213F3F85
S315080227303F2E202048616C74696E67204350550D00
S315080227400A0000006D61696E206578697465642106
S31508022750213F3F3F2E202048616C74696E672043F3
S3150802276050550D0A0000000010B503F093FCBDE8B1
S31508022770104007F017BD000004B02DE9FF0F6846A8
S31508022780EFF30581FFF7F0BF81B000B52DE9FF5FD2
S315080227906846EFF30381C163AFF3008010B582B0D8
S315080227A0044600216846FFF771FE0021204603F021
S315080227B071FC07F0F7FC6846FFF76DFE02B010BD24
S315080227C0001FFDDCF7460068002818BF0120704785
S315080227D00168491C01607047034951F82020521EBE
S315080227E041F82020704700008C0A0010034951F86E
S315080227F020000028CCBF0120002070478C0A001058
S31508022800034951F82020521C41F820207047000045
S315080228108C0A001030B40024002A17DD0B5D4FF035
S31508022820080CDD0945EA4000C0B210F0800F18BF57
S3150802283080F009005B061B0EACF1010CBCF1000F1F
S31508022840EFDC641C00F07F00A242E7DC07214006A9
S31508022850000E10F0800F18BF80F00900491E0029EB
S31508022860F5DC30BC00F07F00704700002DE9F04F20
S315080228708046C648C6499BB0081AC01C16904FEA3D
S31508022880186017901FFA88F04FF0000B18904FF057
S31508022890000A10F0D7FA012303220421BDA0CDF8BD
S315080228A000B02DF015F80BF0D5F8C3A02DF010F8EE
S315080228B0C54CC4F800801BF0A9FC0028C0F21C8194
S315080228C0C2A02DF005F8C8F3074020B1C348016835
S315080228D041F000410160C1481BF092FC0028C0F299
S315080228E00B81BFA02CF0F4FF12F048F901202071E9
S315080228F0DFF8D492BFA02CF0EBFF1698A34920F07C
S315080229000307A34D0C4601AA684611F007FD0028E5
S315080229101CBF0098002808D0C268806881681046E3
S315080229208847006810F0020F0FD0002000283EDB0F
S315080229302A462146B3A02CF0CBFF291B00222046AB
S3150802294002F0AAFAB749086027E00C2138460BF0CC
S3150802295075F8060008BF4FF07A40E7D0DDE900C1F6
S315080229600346DCF80C00DCF808C03A46DCF80CC072
S31508022970E04700280EBF4FF077403446F519D5D008
S31508022980D3E76A46214648462CF0CAFE00280EDBE3
S31508022990606E2044C01C20F0030404F17C00A842A7
S315080229A004D220462DF0EEF90028EAD100200028AC
S315080229B0C0F29E809CA02CF08BFF50210AA817F02B
S315080229C0CFFF18B9A1A02CF083FF6DE01398C26857
S315080229D080688168104688470AAC7C26B4E80E10DF
S315080229E08DE80E100EACB4E80E1004ACA4E80E1076
S315080229F0DDE91212CDE908120068CDF850B0C0F32D
S31508022A0040044CB9012130460BF03CF814900028DA
S31508022A1045D03146FDF750FE7742324614A968463C
S31508022A2018F003F980B3149D28462DF073F958B3AC
S31508022A30686EC01C20F003052CB90C2128460AF042
S31508022A40FDFF1590F8B101223946684618F044F997
S31508022A502A4615A9684618F0E8F8A8B1159D284629
S31508022A602DF090F958B186A02CF032FF19AA294602
S31508022A7048462CF055FE002807DA0CB10FE074B967
S31508022A8015980AF0EDFF07E005E01998016941F08B
S31508022A9008010161C1E714B914980AF0E1FF0AA80E
S31508022AA017F092FF002891D17CA02CF011FF7F48E5
S31508022AB016F0D2FE00281BDB7D481FF059FE7B4824
S31508022AC017F07AFB002813DB7AA02CF001FF00210D
S31508022AD00A2004F09AFF00211B2002F065FD00215E
S31508022AE03E48189A1DF0C8F875A02CF0F1FE03E0CE
S31508022AF0014675A02CF0ECFE384C206810F0005FF9
S31508022B0017D1206820F440602060206840F40060F5
S31508022B10206071480068006830B1012100230091E5
S31508022B201A4609210AF078FF1798002818BF12F0EA
S31508022B3067FC206810F0005F20D0A06810F0010F33
S31508022B401AD0052131EA00000CBF0120002060F3EB
S31508022B5017480020FFF7C3FC554820F0B4F91BF0CC
S31508022B6065FB194880F804B001F0C4FA00F0ECFDE0
S31508022B700020FFF7BAFC8AE607F062FBBAF1000FFB
S31508022B807FF485AE1BB0BDE8F08F000038B20608A8
S31508022B90807908080D0A54696E79434C52202842F6
S31508022BA075696C642025642E25642E25642E256499
S31508022BB0290D0A0D0A0000005374617274696E6762
S31508022BC02E2E2E0D0A0000001800001043726561B1
S31508022BD07465642045452E0D0A000000A0140010F5
S31508022BE053746172746564204861726477617265B0
S31508022BF02E0D0A004372656174652054532E0D0A20
S31508022C0000000000204C6F6164696E67207374616E
S31508022C1072742061742025782C20656E64202578CC
S31508022C200D0A0000AC0000104C6F6164696E6720E3
S31508022C304465706C6F796D656E7420417373656D4A
S31508022C40626C6965732E0D0A000000004552524FE8
S31508022C50523A20436F756C64206E6F742066696EF3
S31508022C60642064657669636520666F722044455000
S31508022C704C4F594D454E542075736167650D0A00D0
S31508022C80417474616368696E67206465706C6F79F4
S31508022C9065642066696C652E0D0A00005265736FBD
S31508022CA06C76696E672E0D0A00000000D4170010B4
S31508022CB0581B001052656164792E0D0A0000000047
S31508022CC0446F6E652E0D0A004572726F723A2025A0
S31508022CD03038780D0A000000A000001030B583B025
S31508022CE0044600216846FFF7D1FB0648016801EA57
S31508022CF004050168A14301606846FFF7CCFB03B0EF
S31508022D00284630BD8800001010B582B0044600215E
S31508022D106846FFF7BBFB074A116841EA04001060E0
S31508022D20516800291CBF906888476846FFF7B3FBBD
S31508022D3002B010BD880000102DE9F04389B00500E5
S31508022D40109E88461F467CD0D8F80040002C11BF3A
S31508022D50002A002009B0BDE8F08304F1B000C8F8E3
S31508022D600000A2F10109B0212046FDF7C7FC002F99
S31508022D7008BF2F462760287860606878A060688850
S31508022D80E060002E18BF306814D0C4F89800606856
S31508022D901B2856D2DFE800F055171717171717170B
S31508022DA0171717171717171C374141453755555522
S31508022DB055174F00294602A81AF04CFC0028A8BF4E
S31508022DC00398E4DBE1E7D5E90101C4E9040138E047
S31508022DD06D688DB12846C4F8945000F0B2F9C4F86B
S31508022DE090007F2828BF7F2003462A46802104F1C7
S31508022DF0100000F0C7FB24E00020C4F89400C4F8D1
S31508022E00900020741DE0686800234A4641460096F1
S31508022E10FFF792FF09B0BDE8F0836868C4F8980026
S31508022E200FE0E868C4F89C00E888C4F8A000A8681F
S31508022E30C4F8A40005E06868C4F8A800A868C4F83D
S31508022E40AC0009B00120BDE8F08307F07DBB012084
S31508022E50704719F02BBD00F0C0BC09F0CBBF10B506
S31508022E60002304464022194601F004FC00234022AE
S31508022E708021204601F0FEFB012084F8CE00D4F81A
S31508022E802815A07849688847002010BD0FB410B5E8
S31508022E9003A9029800F094F810BC5DF814FBFF2110
S31508022EA000F0AEB870B584B00E4600240546214639
S31508022EB002A8FFF7EBFA0021284604F0A6FD052032
S31508022EC007F06EF9012E19D00021284602F0FCFE01
S31508022ED0462007F065F90121284604F096FD0520EB
S31508022EE007F05EF902A8FFF7E1FA002C18BF0124E1
S31508022EF002A8FFF7D0FA04B0204670BD02200346A6
S31508022F00002200901146284604F00EFB052007F021
S31508022F1047F9284602F0AEFEC4B23720D9E707F0D1
S31508022F203BBBA0F1610119299CBF203880B27047CA
S31508022F30002319F0E9BC19F0F4BC08B5DDF808C09D
S31508022F40CDF800C019F0EFFC08BD10B582B0DDE976
S31508022F50044CCDE9004C19F0EEFC02B010BD00237A
S31508022F6019F0F3BC0020704709F0ECBF0AF098B8D4
S31508022F7010B50446D0F8280500698047032084F86E
S31508022F80CE00002010BD0FB410B504AA039900F0B4
S31508022F90E1F810BC5DF814FB10F8012B412A02D3A4
S31508022FA05A2AD8BF203211F8013B412B02D35A2B99
S31508022FB0D8BF20330AB19A42EED0D01A7047000021
S31508022FC0034603480A461946406900F0C3B800009A
S31508022FD038000010094B03EBC0034FF0000032B172
S31508022FE01A5C0A54401CC0B20828F9D370470A5C16
S31508022FF01A54401CC0B20828F9D3704768C3001097
S315080230002DE9F041002607460D46344605F0010132
S315080230103846FFF747FFA0403043C6B2601C6D1022
S31508023020C4B2082CF2D33046BDE8F08110B50C467E
S31508023030FFF7E6FFA0420CBF0120002010BD0A28B8
S3150802304034BF30303730C0B27047000010B582B096
S31508023050044600216846FFF719FA05490A6822EA72
S31508023060040008606846FFF716FA02B010BD0000B1
S3150802307088000010034A02600348801A001D08608F
S315080230807047000000000020F8FD012010B53EF050
S3150802309040F8044802A10068BDE81040FDF71AB9D5
S315080230A000000000989006080020704710B50446F4
S315080230B0014605A033F0EAF8214607A02EF01EFCC9
S315080230C0BDE81040FFF760BB0C4552524F523A0D0D
S315080230D00A25730D0A0000004552524F523A20251E
S315080230E0730D0A0019F00ABB19F040BC10B5042189
S315080230F080F8CE10D0F82805C0688047002010BD99
S3150802310008F0EDBB0FB410B505AB049A00F051FAFE
S3150802311010BC5DF814FB70B505000B4614461CBFBF
S31508023120002C002B05D0104600F00BF8401C9842E4
S3150802313001D9012070BD21462846FDF731F9002044
S3150802314070BD014611F8012B002AFBD1081A401E50
S315080231507047000070B51346ADF5007D04460A4671
S315080231604FF40071684600F024FA04F47F410546DC
S31508023170B1F5407F0FD006DCB1F5807F18BFB1F5F7
S31508023180007F1FD107E06E46B1F5A06F11D0B1F5E9
S31508023190C06F17D105E002466946204601F08DFD4B
S315080231A010E00A48016869B1002070553046884720
S315080231B008E00024002D05DD305D03F0EBFD641CFC
S315080231C0A542F9DC0DF5007D284670BD10000010F9
S315080231D0094B0A4A1968491C82FB01C24FEAA20C2A
S315080231E0ACEBE272524202EB820201EB4201044A62
S315080231F0196042F82100704748060010676666663D
S3150802320080C2001038B50446002104F0FEFB4FF4D4
S31508023210167006F0C5FF02210B46002200911146E0
S31508023220204604F081F9412006F0BAFF204602F052
S3150802323021FDC4B24FF4BA7006F0B2FF002C0CBFDF
S315080232400120002038BD0620704700000F4910B53E
S315080232500A6812F4807F0FD10A6842F480720A6003
S315080232600B490022C1F80423CA624A6001228A6015
S31508023270084ACA60084A0A6102F0E4F800220423EE
S31508023280114602F0F5F8012010BD0000443802404C
S3150802329000200140922449009224491230B59FB079
S315080232A004460D4600214348CDE900011AA869469D
S315080232B019F0CCFB0EA9204602F078FC002871DB37
S315080232C003A9284602F072FC00286BDB9DF8100061
S315080232D070B19DF83E00002808BF4FF0224061D029
S315080232E000222146684614F0B9FA00285ADB58E04B
S315080232F02946684614F048FB002853DB9DF83C0033
S3150802330003A9A8B19DF8120028B90C31684613F032
S31508023310EBFF002846DBBDF80200012818BFFCF7C0
S31508023320D5FEDDE90001029AA260C4E9000138E08F
S315080233309DF80000102808D1019830B10278122AA7
S3150802334003D1407810F0100F03D02078102822D12C
S3150802335012E02078102808D1606830B10278122A63
S3150802336003D1407810F0100F15D00C31684613F0CF
S31508023370BBFF002816DB0EE0606860B10278122AED
S3150802338009D1407810F0100F05D10C31684614F0B7
S3150802339075F9002806DB6946204614F0B5FC0028B4
S315080233A000DB002004461AA819F076FB1FB0204657
S315080233B030BD0000100001007047000010B54269D8
S315080233C04FF4B473526892FBF3FC03FB1C220A4BBC
S315080233D083FB0232A2EBE272002AB8BF3C32074BE9
S315080233E0002903EB820214BFB2F90210B2F90010E7
S315080233F015F058FC002010BDABAAAA2A48160608E2
S31508023400002070470020704708B50021112004F0FB
S31508023410FCFA022000900323024A0121152004F037
S3150802342083F808BD2946020870B5084E002430689C
S3150802343000288CBF064D70BD05EBC40040680068C5
S3150802344080473068641C8442F6D370BD4416060869
S315080234506809001018F098BB18F0AFBB18F0B2BB99
S315080234600020704740F281207047002070470120F3
S31508023470704719F025BA10B582B0DDE9044CCDE9DA
S31508023480004C19F075FA02B010BD01F0A3B87047E6
S3150802349008F046BA08F096BA2DE9F04105000E463C
S315080234A0904601D0072E01DBFCF710FE05EB8604D9
S315080234B0206908B1E06B08B1FCF708FE23691868B1
S315080234C000F1010CBCF1080F08BF4FF0000C0121F6
S315080234D09A68002A18BF00270BD15A68624508BFA6
S315080234E0996000EB001003EB800000F10C07C3F8AB
S315080234F000C02069B1408068C8F800006879FFF703
S31508023500FFFD3846BDE8F08170B504000D46164643
S3150802351001D0072D01DBFCF7D9FD04EB85042069F0
S3150802352000281ABFE06B0028FCF7D0FDA6B10020E0
S315080235302169D1E90032934202BF8B68002B70BD24
S31508023540531C082B08BF0023C1E9013002EB021005
S3150802355001EB80000C3070BD2069D0E900218A4257
S3150802356007BF8268002A01EB011100EB810008BF40
S315080235700020EFD170BD002812BF00290120704734
S31508023580FCF751BF10B594461A46002819BFBCF17C
S31508023590000F0029012010BD541C00238C4282BF53
S315080235A00370012010BD83546146FDF7CEF8002052
S315080235B010BDFCF767BE70B5064615460C4602EB0B
S315080235C045002CF0A1FC3119024600241346002DB1
S315080235D0C8BF2D2612DD08780009FFF730FD03F86B
S315080235E0010B087800F00F00FFF729FD03F8010B1D
S315080235F0641C491C03F8016BA542ECDC002003F8A5
S31508023600010C104670BD10B502F010F8012010BD6D
S3150802361011210160012070472DE9FF4F4FF0000488
S3150802362087B05FEA00091F462646A046059412BFE0
S31508023630002F0BB0BDE8F08F4048006801680029EA
S3150802364008BF0020A8B1056829001ABF2A68002AFF
S315080236500025C26ABA420AD14268002A18BF116016
S31508023660002918BF4A600460446037F0F1F928005F
S31508023670E9D1DFF8CCB00025DBF80000002888BFC6
S31508023680DFF8C0A016D95AF8350000281CBF826A8E
S31508023690002A0AD005A93846904730B10AEBC50078
S315080236A05AF83560D0F8048004E0DBF800006D1C97
S315080236B08542E8D3002E04BF012005904FF0000A88
S315080236C0059800289CBF0BB0BDE8F08F342037F070
S315080236D0C1F9050004BF0BB0BDE8F08F2C606C6021
S315080236E0AC60EC602C616C61AC61EC612C626C6262
S315080236F0AC62EC622C63301C18BF0120CDF8008046
S31508023700CDE903A0CDE90167DDE908234946284644
S3150802371019F012FD68B12B4600220121032000F0A0
S31508023720B3FD05980AF1010A8245CFD30BB0BDE86D
S31508023730F08F284637F08CF9F3E700007C0C00106E
S31508023740441606086809001000B583B014F052FE44
S315080237500FF00AF9002001900090694601A801F0CD
S3150802376091FADDE9001003F085F900F00DFB00F08F
S31508023770CFFE01F0CFFE01F0A3F80020FEF7B5FE5A
S3150802378010F0F4FC03F0C4FE10F034FDFFF74CFE13
S3150802379019F00CFCFFF738FE19F050FC05F0EEFCA8
S315080237A000F022F805F0C0F900F019F801F086F8E1
S315080237B002F048FA00F067FD01F02CF801F060FA11
S315080237C002F040F901F0B7FA00F00BF803B05DF821
S315080237D004EB03F065BE18F0F7B918F0F7B906F06E
S315080237E053BE4FF04A40704701207047072824BF4E
S315080237F0002070472DE9F0034649474B84250A5CA9
S31508023800185C593303EB8203183153F804CC434B43
S3150802381001EB820103EB820351F8041C53F8043CC2
S315080238203F4E4FF0FF374FF00108B1F1804F1CBFF2
S31508023830A1F18044B4F5806417D0A1F18044B4F5AF
S3150802384000641CBFA1F18044B4F540640DD0A1F117
S315080238508044B4F5C0541FBFA1F18044B4F5E054C6
S31508023860A1F18044B4F5005413D12E4CD4F800903B
S3150802387019EA030F30D1D4F8009049EA030323600A
S315080238800D80BCFBF6F307EB43030B85A1F8148006
S3150802389022E0254CD4F8009019EA030F1CD1D4F87B
S315080238A0009049EA030323600D80BCFBF6F307EB9D
S315080238B043030B85A1F81480A1F18043B3F5803345
S315080238C01CBFA1F18043B3F5823305D1B1F8443068
S315080238D043F40043A1F844300023022A18BF052AFC
S315080238E001EB80020CBF53639386682310F0010F25
S315080238F018BF4FF4D04301F1180210F0020F18BF97
S3150802390001F11C02108818431080BDE8F00301205B
S3150802391070470000587E06085F7E0608F07E060895
S3150802392040420F004038024044380240002808BF8F
S31508023930704730B583B004460D4600216846FEF747
S31508023940A5FD00222946204604F0F4FB6846FEF748
S31508023950A2FD03B030BD0120704700207047000069
S3150802396010B504460120FEF74BFF0220FEF748FF7A
S31508023970104850F82430ABB10F4924F003004058E0
S31508023980A107090FC8400D4900F00F0051F824207D
S315080239900B4901EB8021096944EA0010E14001F074
S315080239A0010198470220FEF717FFBDE810400120E3
S315080239B0FEF712BFB40B001008380140F40B0010D2
S315080239C0000002402DE9F04784B007000C469046F5
S315080239D04FF0000638D03D7844F480300090D8F88D
S315080239E000000190D8F804000290A54208BF0126FB
S315080239F023D0192C12D0102C16D0DFF86CA005EBA8
S31508023A0085095AF8290010F4003F08BFFCF75EFB47
S31508023A100AEB89004079042816D119E0102D04BF53
S31508023A207868002805D106E00198002808BF192DF4
S31508023A3001D0002600E0012636B13C70D8F8000015
S31508023A407860D8F80400B86004B03046BDE8F0875C
S31508023A5004EB84000AEB8000407904283CBF2C461C
S31508023A600126F1D2E9E70000385D0608CA88012A6C
S31508023A7005D190F8CE20022A03D0032A05D001F0F8
S31508023A80C3B90122034902F015BF012200F1CC0194
S31508023A9002F010BFC804001090F8CE20022A18BF00
S31508023AA0032A01D001F0B0B9D0F8D0200449002A7F
S31508023AB014BF032201228A600122024902F0FABED9
S31508023AC0BC040010C404001070B5044648880A46AF
S31508023AD0224DC1B20129297005D894F8CE000228D0
S31508023AE007D0032813D02046BDE87040114601F0DE
S31508023AF08BB969B384F8CC10032084F8CE0020462B
S31508023B0000F0F5FB2046BDE8704003F060BE91B1B7
S31508023B1094F8CC0088421BD00146204600F0E0FB10
S31508023B20297884F8CC10204600F0E1FB2046BDE84F
S31508023B30704003F04CBE022084F8CE0084F8CC1004
S31508023B40204600F0CDFB2046BDE8704003F03FBE9C
S31508023B502046BDE8704003F03ABE0000BC040010DF
S31508023B6007F01EBB30B4C0680024002804BF30BC6E
S31508023B707047438803EB000C0378012B18BF022B0E
S31508023B8006D0032B09D0FF2B10D030BC002070477B
S31508023B908B4204BF30BC70471AE0032918D15588F6
S31508023BA04378EDB2AB4213D130BC7047037915782E
S31508023BB0AB420DD143795578AB4209D1C3885588B2
S31508023BC0AB4205D103899588AB4204BF30BC704726
S31508023BD0002C08BF6046CCD030BC704707F000BB4B
S31508023BE007F098BB10B501F02DFC0023BDE8104084
S31508023BF01A46194601F03CBC40F674610160012080
S31508023C0070470FB410B505AB049A00F0C1F910BCA1
S31508023C105DF814FB58B101280FD0022818BF704767
S31508023C202A2008602B2010602C20186070471D205F
S31508023C3008601E2010601F2004E00520086014207A
S31508023C40106007201860704700487047007A030A18
S31508023C500A21A0FB0101704710B40A22A0FB023414
S31508023C6001FB02414FF0000C00FB0C1110BC184678
S31508023C707047B0F90000B1F90010401A7047704752
S31508023C8017F0A6BF17F0DCBF08B5DDF808C0CDF8F7
S31508023C9000C017F0D7FF08BD10B582B0DDE9044CA5
S31508023CA0CDE9004C18F026F802B010BD18F046B857
S31508023CB0002070470720704708B5DDF808C0CDF820
S31508023CC000C001F03DFE08BD08B5DDF808C0CDF814
S31508023CD000C001F03DFE08BD002070470120704774
S31508023CE011F07F0C0CEBCC0110B500EB810101F150
S31508023CF0D4014FF001044C7081F800C0CA604FF03D
S31508023D000002C1E9043203D002F0E3FD002010BD2F
S31508023D1003F026FBFAE7000078B500240094124E59
S31508023D20124D032006F002FAF16808690090641C35
S31508023D30AC4288BF78BD009810F0004FF1D0009AC7
S31508023D40002042F001020092009A0A610A69009272
S31508023D50401CA84203D8009A12F0010FF6D1BDE81A
S31508023D607840032006F0E2B928550010400D0300FA
S31508023D70072215F05DBD032215F05ABD014806F06B
S31508023D801CBF000020540010014806F01FBF0000A7
S31508023D902054001008B50B4600920246014806F068
S31508023DA04BFF08BD2054001010B50120FEF728FD70
S31508023DB00220FEF725FD0C48018821F00201018048
S31508023DC0FEF7A4FB094AD2E90032C01A71EB0200D7
S31508023DD028BF0EF07DFD0220FEF7FEFCBDE810406E
S31508023DE00120FEF7F9BC0000100C00402800001064
S31508023DF010B5044690F8CE00022818BF032804D04E
S31508023E002046BDE8104000F0FFBF4888012818BFC9
S31508023E1010BD0020C4F8D000D4F8240582682046D4
S31508023E2090472046BDE8104003F0D1BC10B50446C1
S31508023E3002234022812100F01DFC0223402219465A
S31508023E40204600F017FC4023034A0221204603F0CD
S31508023E500EFB002010BD00000869001030B50446AC
S31508023E608888002804BFC888002816D1488800F028
S31508023E707F0594F8CE0003280FD084F8CF50294640
S31508023E80204603F0BDFC204603F0A1FC002D0CBF22
S31508023E900120022084F8CE0030BD2046BDE830401D
S31508023EA000F0B2BF10B504464888012811D002288E
S31508023EB018BF10BD8A8812F0FF0F18BF10BD2069FF
S31508023EC04168120A062A24D2DFE802F023101418DF
S31508023ED01C200120C4F8D000D4F8240582682046A4
S31508023EE090472046BDE8104003F071BC21F07001EE
S31508023EF010310EE021F0700120310AE021F0700144
S31508023F00303106E021F07001403102E021F0700103
S31508023F10503141602046BDE8104003F058BCF0B568
S31508023F2083B005460C46174600216846FEF7AEFAE8
S31508023F300026002C18BF00240FD005EB840319694C
S31508023F4041B1D86B30B90E604E608E602146284664
S31508023F5000F03CF8641C072CEFDB002F18BF002189
S31508023F600DD005EB81000269002A1CBFC06B002830
S31508023F7002D0166056609660491C0729F1DB68462E
S31508023F80FEF789FA03B0F0BD07F033BA07F06CBA48
S31508023F9070B505460C4609680068FFF70AFB012159
S31508023FA011EBE07208BF20682968002301442960E2
S31508023FB00B702168081A2060104670BD002814BFCD
S31508023FC000200148704700009854001000B528B137
S31508023FD000EB8100016909B1C06B08B1002000BD80
S31508023FE040220349022004F08BF8012000BD00009C
S31508023FF008690010034A10B50021116005F0DEF9C0
S31508024000002010BD780400102DE9F041064619F08B
S315080240100BF8040014BF174DBDE8F081E06AB04200
S31508024020204620D118F0EAFF07460121204618F05B
S31508024030CBFF200018BF85420DD0D0E90012002A16
S3150802404018BF1160002918BF4A6021466A68C1E98B
S3150802405000526C601460234600220221032000F0FD
S3150802406013F93C4602E018F0C9FF0446002CD5D1E4
S31508024070BDE8F081800C00107047000010B50446B8
S3150802408004202080032060800120A0800020E08098
S31508024090372309A2382104F10800FFF773FA1248F8
S315080240A030221249D0F85004206404F14400FCF787
S315080240B005FA012010BD00004E65746475696E6FBD
S315080240C020506C75732032202876342E332E322EE9
S315080240D0312920627920536563726574204C6162C6
S315080240E073204C4C4300000000C0000854C400086A
S315080240F017F026BE70B51E4D002455F8240018B1D7
S315080241008047641C102CF8D300F058F800F032F8F7
S3150802411001F09CFD02F0C3FD00F05EFE01F094FD85
S3150802412001F06EFF03F08CFD00F026F802F043F86A
S3150802413002F02FFB03F002FD04F0E8FE18F0C0FFC0
S3150802414010F0C0F801F0F8FC01F0D2FD02F000FB15
S3150802415002F096F90020FEF7C2F901F031FB00F0F1
S31508024160C9FA14F023F9BDE870400EF08DBB0000C1
S315080241704C0A001006F0AAB94FF04A407047802050
S315080241807047000000B587B00146684619F062FA22
S3150802419000280EDB03980849C07B00EB800051F823
S315080241A020004FF4C02131EA000002BF012007B007
S315080241B000BD002007B000BD385D06080120704723
S315080241C040F2012070470020704700002749284A1C
S315080241D04FF0FF0C0B5C125C2648183101EB830189
S315080241E000EB830051F8041C50F8043C12F0010F4E
S315080241F018BF4FF47F4C01F1180012F0020F18BFD6
S3150802420001F11C00028822EA0C020280088B8A8BC2
S31508024210104328D1B1F1804F1CBFA1F18040B0F5FF
S31508024220806017D0A1F18040B0F500601CBFA1F1F3
S315080242308040B0F540600DD0A1F18040B0F5C05085
S315080242401FBFA1F18040B0F5E050A1F18040B0F562
S31508024250005004D1084801681940016003E0074884
S31508024260016819400160012070470000587E06085F
S315080242705F7E0608F07E060840380240443802404F
S315080242804FF40070704770472DE9F0410F4E1446FF
S3150802429082B0326805460F469846002A04BF02B025
S315080242A0BDE8F08100216846FEF7F0F8220442EAEA
S315080242B0052040EA07014246306803F03BFF68469C
S315080242C0FEF7E9F802B0BDE8F081000078040010B4
S315080242D001F092BF01F092BF01F092BF0120704730
S315080242E010B5D0F8242552689047002010BD10B5A5
S315080242F00446D0F82405026820469047D4F82805D3
S3150802430080688047002010BD014816F085BA000073
S315080243104854001013460A460146014806F09CBC5A
S315080243202054001010B582B0DDE9044CCDE9004CEA
S3150802433008F0D0FA02B010BD70B5054659B1D5F8E5
S3150802434024054269002A38D095F8CE00032804BF0E
S315080243502846904731E095F8CD0005F1D4040228A5
S315080243602BD1A169A068814207D9081AA06182B235
S315080243702846E16804F008FE1FE0E169B1FBF0F2A5
S3150802438000FB121262B981420AD3206A814207D21D
S3150802439000221146284604F0F7FD002020620CE0B0
S315080243A0D5F82405C16829B195F8CE00032804BFBB
S315080243B028468847284604F022F9002070BD0000E6
S315080243C000B50A7812F0700202D0102A15D107E059
S315080243D04A78062A04D00A2A06D00B2A0DD108E002
S315080243E000F012FD022000BD0122054902F062FA20
S315080243F003E048880349C0B20861002000BD0000F6
S31508024400CC040010BC04001030B50C461546002238
S315080244100221FFF7A7FB002808BF30BD00F10D02F5
S3150802442041880144206878B1904288BF81422ED9DA
S315080244302B68934228BF994229D94278052A04BF94
S315080244400278072A23D10BE0002022602860206820
S3150802445088421CD24378042B0BD0052B0ED010E0D1
S315080244605A78042A01BF1A78092AC01D20600ED17B
S31508024470EEE70278092A08BF286002E000780728D2
S3150802448007D020680278104420608842E2D30020D0
S3150802449030BD012030BD07F00FB8000010B4084C3B
S315080244A0DDF804C0245C0C600649095C1160064903
S315080244B0095C19600549085CCCF8000010BC704715
S315080244C0E0690608DC690608E8690608E469060878
S315080244D000F47F4310B54FF0000CC0B2B3F5807FED
S315080244E006D0B3F5007F07D0B3F5407F0DD108E0BB
S315080244F0401EFEF7B2FC02E0401E05F09FFE84460F
S3150802450003E0401EFEF7EEFD8446604610BD00003D
S315080245100349002008604860024908600120704784
S3150802452008C600108800001001490968084070474B
S315080245308800001010B5044684B014A0FEF701FEE8
S3150802454012A10022CDE900210290012303220421AF
S3150802455020460DF041FD1948D0F8041100291CBF68
S315080245604969002904F1400409D0888BCA8B0B8C4F
S31508024570498C20806280A380E18004B010BD0020AF
S3150802458020806080A080E08004B010BD4E6574640F
S3150802459075696E6F20506C75732032202876342E1A
S315080245A0332E322E3129206279205365637265745F
S315080245B0204C616273204C4C43000000D417001053
S315080245C010B582B0DDE9044CCDE9004C17F0D1FBF9
S315080245D002B010BD17F00DBC10B50A4A04460A49C6
S315080245E002F1440013F010FF084800230849224646
S315080245F0836113F009FFBDE81040064A0023034809
S315080246000EF09CB990C5001081780208E8C5001022
S315080246101193020880841E00002070478AB2002384
S31508024620C1B20420FFF730BE10B541B10B48FFF7FF
S31508024630EBFCBDE81040012108480FF0A7BD012395
S31508024640074A084905480FF0B7FE0022BDE81040A0
S31508024650024B114604A0FEF7DFBF000000680010F7
S31508024660E4010010300200105344000002F06CB856
S3150802467002F06CB830B50C4611F0800F01F07F0CD1
S315080246800CEBCC0100EB810114BFD43101F53C716E
S3150802469081F800C0E4094C708A60CB7018BFA1F893
S315080246A006C0022B04BF00220A7101F0E1FD0020B8
S315080246B030BDC068406900F001007047014816F035
S315080246C0B8B8000048540010014806F010BB0000B4
S315080246D020540010014806F013BB000020540010B5
S315080246E008B50B4600920246014806F02BFB08BDA8
S315080246F020540010014806F0EFBB000020540010B9
S3150802470010B5044651B1D4F82405826942B394F827
S31508024710CE00032804BF2046904721E094F8CD1026
S3150802472004F53C7003291BD18268816991420AD932
S31508024730891A8161914228BF11468AB2C168204608
S3150802474003F03DF80CE0D4F82405016929B194F880
S31508024750CE00032804BF20468847204603F037F8D0
S31508024760002010BD10B504460D480122FEF7CCFE06
S3150802477098B103680021002BC8BF0A4A08DD00EB7E
S31508024780010C9CF804C002F801C0491C8B42F6DCF5
S31508024790044A81212046FFF7A3FA002010BD000033
S315080247A0985400104869001010B50446812100F09B
S315080247B041FB0221204600F03DFB002010BD10B54A
S315080247C00446007994F86E10884208BF10BD052881
S315080247D004D1012211462046FFF7A1FB94F86E0088
S315080247E02071072812D2DFE800F004090909090A2C
S315080247F009000020A4F88C00C4F8840010BD2046E5
S315080248000022BDE810400121FFF789BBBDE8104030
S31508024810FBF75CBC012070471F4810B5016841F0E0
S315080248200F0101601E481D4901601E4A4FF420719E
S3150802483011608A031C490A60002141601B4B1960FA
S315080248401B4B19604FF440338360DFF868C0C023FE
S31508024850CCF80030184B1A604FF0C842C2600CF10F
S31508024860040280151060181D0160082001F0EEF898
S315080248700121122003F0C9F80021112003F0C5F81E
S3150802488000212F2003F0C1F80023BDE810401A4684
S315080248901946322000F0ECBD30380240000002A86A
S315080248A000000240000402400008024004040240DC
S315080248B00408024008040240080802400020704723
S315080248C001207047032070470048704740420F0096
S315080248D000281CBF012070472DE9F04F85B083469A
S315080248E000216846FDF7D2FDDFF86C83D94C012614
S315080248F0DA48C8F80860E067072084F880004FF0B5
S315080249000809402784F86F903046002504EB800199
S31508024910CD632118401C81F833700728F6DBA8F806
S315080249200050029503AA02A920460395FFF76CFDDB
S31508024930002818BFDFF828A341D00298817801F031
S315080249407F00072880F27E81039A9278032A00F272
S31508024950798111F0800F1CBF04EB8001CE630299A6
S315080249608988082918BF102904D0202918BF402988
S3150802497040F06881221882F833108B2141430AEBF2
S315080249808102A2F50B7104EB80020D604D608D6009
S3150802499011610299C97801F00301012900F04B81DE
S315080249A0400001FA00F0B8F8001003AA0843A8F874
S315080249B0000002A92046FFF727FD0028BDD1B8F856
S315080249C00000002800F03E814FF47A70FDF7B6FD2C
S315080249D00021584600F05CFE0022A249432003F05B
S315080249E0C9FD012004F0C6FF0A21092001F02EF8AC
S315080249F00A210B2001F02AF80A210C2001F026F8D8
S31508024A00022301220021092000F032FD022301229D
S31508024A1000210B2000F02CFD0223012200210C208C
S31508024A2000F026FD4FF4804004F0C4FF802004F015
S31508024A30A9FF4FF0805004F0B5FF8C498A480C460E
S31508024A40C1F824058A48C1F828058A48C1F82C0500
S31508024A50A670A780E67284F8009004204FF0A04161
S31508024A6060708815E080022020728348C4E903102A
S31508024A70002001EB401202F5106C04EB800302F5EC
S31508024A803062C3F814C01A656278401C8242F0D8B4
S31508024A9022780020002A0BD901EB003204EB8003AE
S31508024AA002F58052C3F88C202278401C8242F3D841
S31508024AB001F56060C4F8C80084F8CE6084F8CF5067
S31508024AC06078002100280FD901EBC10004EB8000B1
S31508024AD0D43046700170C180C570C0E9027505619F
S31508024AE06078491C8842EFD80021C0B2002810D944
S31508024AF001EBC10004EB800000F53C7045700170C3
S31508024B00C180C570C0E9027505616078491C884292
S31508024B10EED804F05BFEE068C16841F0400141F05E
S31508024B208041C160FFF7F8F8617A4FF450200029F6
S31508024B3018BF4FF4E810E1688863142005F032FACA
S31508024B40D4F8C800294605602069026822F4C052D2
S31508024B5042F003020260E0688022426267F31F4164
S31508024B6062F30F01816201EB1143294663F30F01D8
S31508024B7062F31F41C0F8041101EB114262F30F01FF
S31508024B8065F31F41C0F8081101EB114262F30F01E8
S31508024B90C0F80C111021354801F030FF334801F0F6
S31508024BA00DFF2069056145614FF0FF378761C561D1
S31508024BB061780020FF264FF0904C002911D904EBAA
S31508024BC080025369196811F0004F14BF61462946DD
S31508024BD0196051690D6151698E606178401C814284
S31508024BE0EDD80020C9B2002911D904EB8002136D51
S31508024BF0196811F0004F14BF614629461960116DF4
S31508024C000D61116D8E606178401C8142EDD8206974
S31508024C10016941F480710161E0688561476117495C
S31508024C2082698A431143816104F020FD0F48D0F856
S31508024C302805006880476846FDF72DFC05B0002068
S31508024C40BDE8F08F6846FDF726FC05B00120BDE8F1
S31508024C50F08F0000985400107C0100106467001061
S31508024C605C5A001075860208F004001028550010D8
S31508024C701C050010A00400100008005010380C8013
S31508024C8001207047002202600A60704700F47F41E3
S31508024C90C0B2B1F5807F0AD0B1F5007F0AD0B1F56E
S31508024CA0407F1CBF00207047401EFEF7E0BB401E37
S31508024CB0FEF75AB9401E05F053BB2DE9F047884660
S31508024CC0174600F47F444FF000096425C6B22CE06B
S31508024CD0B4F5807F06D0B4F5007F09D0B4F5407FDD
S31508024CE014D10BE0701E3A464146FEF73FF90AE038
S31508024CF0701E3A46414605F035FB04E0701E3A46F8
S31508024D004146FEF7B6FB002812DB0AD14FF0000037
S31508024D10FDF7DBFB60B100210122202001F072F9C8
S31508024D2003E032253F1A804481440FB16D1ECFD26B
S31508024D304846BDE8F0874FF04A407047072814D224
S31508024D40DFE800F013040713100A0D0040F2011001
S31508024D5070474FF48170704740F2031070474FF462
S31508024D608270704740F20130704740F20120704766
S31508024D70B0F5827F04BF062070470EDCA0F580706E
S31508024D80013804BF01207047012804BF022070477A
S31508024D90022804BF052070470AE0A0F50070013812
S31508024DA004BF03207047B0F5807F04BF0420704714
S31508024DB00020704710B504281CBF0228FBF786F9A5
S31508024DC04FF48040BDE81040FDF79EBF00207047B3
S31508024DD00020704717F010B8704770B506460024D1
S31508024DE0304617F075FA05000AD164224FF480415D
S31508024DF0202001F007F901F051FF641C322CEFDB89
S31508024E00284670BD17F02CB810B50A78044612F079
S31508024E10800F03D0802100F022F806E0C988002915
S31508024E2014BF0021802100F01AF82046BDE8104080
S31508024E3002F0E2BA0B4611F0800F01F07F0200B5CC
S31508024E4002EBC20100EB810114BFD43101F53C71BA
S31508024E500A70DA094A7002F0ECFA002000BD00B5C1
S31508024E600A4611F0800F02F07F0314BF03EBC30159
S31508024E7002EBC20100EB810114BFD43101F53C718A
S31508024E804FF0010C81F802C00B70D2094A7001F08A
S31508024E901BFA002000BD00004B1E0029C8BF0849A6
S31508024EA00CDD10F801CB8CEA126C51F82CC08CEA96
S31508024EB00222B3F1000CA3F10103F2DC104670479B
S31508024EC0606506087047000013460A46014601480F
S31508024ED015F02FBD4854001007F07EBD38B50D46B3
S31508024EE049880446080A012804D002280AD0032859
S31508024EF05BD113E0D4F82C15A0780A686946904766
S31508024F00014642E0D4F82415A0788A6A6946904791
S31508024F10014602204870C4F8301536E0C8B20628A1
S31508024F2043D2DFE800F0030B131B232BD4F82C150E
S31508024F30A0784A6869469047014626E0D4F82C15B7
S31508024F40A0788A686946904701461EE0D4F82C156F
S31508024F50A078CA6869469047014616E0D4F82C1527
S31508024F60A0780A696946904701460EE0D4F82C15DE
S31508024F70A0784A6969469047014606E0D4F82C1596
S31508024F80A0788A69694690470146BDF8000000285C
S31508024F901ABFEA88002A38BD824288BF0246ADF89F
S31508024FA00020204601F086FC38BD29462046FFF738
S31508024FB02BFF38BD38B5054601EBC10005EB80006D
S31508024FC06A46D0F8040384B20E48FEF765FAB8B109
S31508024FD0402CC8BF40240C4B011D0022002C06DDC4
S31508024FE013F801CB521C01F801CB9442F8DC046099
S31508024FF0009828B94023044A0221284602F037FAC3
S31508025000002038BD98540010086900104FF0FF3090
S31508025010704703F011BC00002DE9F04F89B05FEA32
S3150802502000084FF0000502BF012009B0BDE8F08F65
S315080250304D48DFF838914FF0060A00274FF0010B6A
S315080250400290002104A8FDF721FA0021029803F034
S31508025050C5F9B9F804000022C3B20221029802F087
S31508025060A5FCB9F804000122030A0221029802F0FB
S315080250709DFCCDE900A706AB1A220121029802F08F
S3150802508032FABDF81800BDF81A40B0F5805F09D3A8
S315080250904046029903F04AFB8DF80C7004A8FDF706
S315080250A0FAF95CE0A9F80400002C1BD0002221467C
S315080250B0032034F0E9F8060011D073683F2C84BF48
S315080250C0201F84B21A22CDE900470121029802F074
S315080250D00AFAD8F8102041463046904702E024A042
S315080250E0FDF7D4FEB9F8044014F0010F27D0E3B255
S315080250F00C220221029802F059FC230A0D220221EF
S31508025100029802F053FC40231E220421029802F060
S315080251104DFC0121029803F061F9CDE900B703AB12
S3150802512019220121029802F0DEF96D1C0A2D0EDD04
S315080251309DF80C0058B104A8FDF7ADF90FE0601E02
S31508025140B0F5805F2CBF40F6FF7484B2CFE704A89F
S31508025150FDF7A1F99DF80C0000287FF472AF9DF8BF
S315080251600C0009B0BDE8F08F1C0A00108805001073
S31508025170656E6332386A36305F6C7769705F72655E
S3150802518063763A20696E70757420616C6C6F632061
S315080251907061636B6574206661696C6564200D0ACB
S315080251A0000000002DE9F04F87B005460C460021A5
S315080251B004A8FDF76BF9002D00F0C3804FF0000B31
S315080251C00120CDE9000BDFF89CA102AB1F2259464C
S315080251D0504602F088F92589402D34BF4025B5F599
S315080251E0805F04D360A02CF089FB40F6FF75DFF8D8
S315080251F0A491B9F8020028440830B0F5005F24BF2C
S315080252004FF48050A9F802000021504603F0E6F850
S31508025210B9F802000222C3B28DF808301146504688
S3150802522002F0C4FBB9F802000322030A8DF808301B
S315080252300221504602F0BAFBB9F802000422C3B2B0
S315080252408DF808300221504602F0B0FBB9F8020088
S315080252500522030A8DF808300221504602F0A6FB01
S31508025260A81C81B206260022032034F00DF85FEA54
S3150802527000086FD0D8F804707A2038707E7002263B
S315080252804CB16289B8196168FBF718F96089246814
S315080252900644002CF5D1CDF800B00023AA1C3946E5
S315080252A05046CDF804B001F0FBFC404634F062FBF0
S315080252B0B9F8020000212844A9F80200504603F072
S315080252C08DF8B9F802000622C3B28DF80830022119
S315080252D0504602F06BFBB9F802000722030A8DF862
S315080252E008300221504602F061FBB9F80200083084
S315080252F080B2A9F8020010F0010F1CBF401CA9F8E1
S315080253000200082423468DF808401C22052150462F
S3150802531002F04CFB8A238DF808301B2204215046E2
S3150802532002F044FB23468DF808401F22042150460A
S3150802533002F03CFB04A8FDF7AEF807B00020BDE872
S31508025340F08F04A8FDF7A7F807B06FF00900BDE8CB
S31508025350F08FFFE704A8FDF79EF807B04FF0FF307D
S31508025360BDE8F08F1C0A0010786D6974202D206C38
S31508025370656E67746820697320746F6F206C61723A
S3150802538067652C207472756E6361746564200D0AF4
S31508025390000000008805001070B5044682B00D466C
S315080253A0164618463BF05EFCCDE900013246294610
S315080253B02046FDF7A7FE02B070BD2DE9FF4F8246D3
S315080253C08DB04069171E8B46C26BDDE91A6889B231
S315080253D0DDF87090104400EBC1054FF000042BD99C
S315080253E0298850460EF03AFC1099FBF7D9F9F8B914
S315080253F096B12A46514668461BF08AFC7069816D49
S31508025400084400EB0802314606A81BF089FC06A9E7
S31508025410684614F059FE58B1DAF80C000BEB040191
S3150802542041EA0040C9F8000011B00120BDE8F08F3A
S31508025430641C0835BC42D3D30020C9F8000011B059
S31508025440BDE8F08F06282CBF4FF0FF30203070479A
S3150802545010B5FA210160084601F092FC012010BD40
S3150802546090283ABF0149085C002070475EB00608DA
S3150802547038B504460846902C28BF38BD032B04BF0E
S315080254800221012221D0042B0CD09AB1012B0DD076
S31508025490022B0CBF022101214FF000020CBF03238D
S315080254A0012313E00321002213460FE00221002202
S315080254B001230BE0052B16D0062B0CBF0221002177
S315080254C04FF0000208BF022300D0002300902046B6
S315080254D001F0A4F901B020460023BDE830401A467F
S315080254E0194602F02FBB022100221346EEE70000FE
S315080254F0074A9023002908BF704703E012F801CB38
S3150802550000F801CB491E38BF70475B1EF6D27047BA
