S315080000000CE000201D00000831000008310000083F
S3150800001031000008310000083100000800F060BE19
S31508000020DFF808D000F0D4FE00F078BFF8BF012052
S31508000030FEE76E2900F07882702900F0C9836629E8
S31508000040AFF300806529AFF300806729AFF300801E
S315080000506129AFF3008003681B0A28BF41F08001BD
S31508000060692900F02582642900F02282752900F0AA
S315080000701F826F2900F05483782900F09583E929B7
S3150800008000F0EC82E42900F0E982F52900F0E68226
S31508000090EF2900F05183F82900F094830368DB09FF
S315080000A028BF41F08001632900F07E85732900F09E
S315080000B08385E32900F08E85F32900F093850020D7
S315080000C07047000040BA7047C0BA704700BEFEE7E6
S315080000D0704770477CB515461A460C00009001D04B
S315080000E02044401E074B7B4469460190284600F091
S315080000F036FA05461CB10020694600F043FA284640
S315080001007CBD0000A504000040EA010310B59B076A
S315080001100FD1042A0DD310C808C9121F9C42F8D063
S3150800012020BA19BA884201D9012010BD4FF0FF3014
S3150800013010BD1AB1D30703D0521C07E0002010BD2A
S3150800014010F8013B11F8014B1B1B07D110F8013BB6
S3150800015011F8014B1B1B01D1921EF1D1184610BD97
S31508000160032A40F2308010F0030C00F0158011F8D5
S31508000170013BBCF1020F624498BF11F801CB00F8AD
S31508000180013B38BF11F8013BA2F1040298BF00F801
S3150800019001CB38BF00F8013B11F0030300F0EA83F6
S315080001A0083AC0F0088051F8043B083A51F804CBE5
S315080001B0A0E80810F5E7121D5CBF51F8043B40F8AB
S315080001C0043BAFF30080D20724BF11F8013B11F8B6
S315080001D001CB48BF11F8012B24BF00F8013B00F8FA
S315080001E001CB48BF00F8012B7047431A28BF9A4233
S315080001F07FF6B6AF032A1044114440F2268010F069
S31508000200030F1EBF11F8013D521E00F8013D10F004
S31508000210030F7FF4F6AF11F0030300F0F083083AFA
S31508000220C0F00B8051F8043D083A51F804CD40F867
S31508000230043D40F804CDFFF7F3BF121D5CBF51F82B
S31508000240043D40F8043DAFF30080D20724BF11F8FF
S31508000250013D11F801CD48BF11F8012C24BF00F863
S31508000260013D00F801CD48BF00F8012C704702F0A7
S31508000270FF0343EA032242EA024200F002B84FF0C3
S3150800028000020429C0F0128010F0030C00F01B8055
S31508000290CCF1040CBCF1020F18BF00F8012BA8BF63
S315080002A020F8022BA1EB0C0100F00DB85FEAC17C27
S315080002B024BF00F8012B00F8012B48BF00F8012BDA
S315080002C070474FF0000200B513469446964620390B
S315080002D022BFA0E80C50A0E80C50B1F12001BFF4F1
S315080002E0F7AF090728BFA0E80C5048BF0CC05DF857
S315080002F004EB890028BF40F8042B08BF704748BFA5
S3150800030020F8022B11F0804F18BF00F8012B704718
S3150800031010B5044610F0030F08BF11F0030F40F0A4
S3150800032015804FF0013E121FC0F20E8051F8043BB3
S31508000330A3EB0E0C2CEA030C1CEACE1C08BF40F8F3
S31508000340043BF0D0A1F1040102F10402521E08DBBD
S3150800035011F8013B002B00F8013BF7D11146FFF7D6
S315080003608EFF204610BD00004FF0013C50F8042BCC
S3150800037051F8043B9A4221D1A2EB0C03934313EAAA
S31508000380CC1317D150F8042B51F8043B9A4215D1D7
S31508000390A2EB0C03934313EACC130BD150F8042BAE
S315080003A051F8043B9A4209D1A2EB0C03934313EA92
S315080003B0CC13DBD04FF00000704700BFD01A01BA4B
S315080003C0B1FA81F101F0180122FA01F0CB40C1F12E
S315080003D02001DBB2C0B2C01A2CFA01F3D11A91433C
S315080003E011EAC311E6D1704770B5044685690068FD
S315080003F0C10601D5302600E02026C00708D070BD0A
S31508000400D4E9012130469047206A00F101002062B4
S315080004106D1EF5D570BD70B5044685690068C007C0
S3150800042008D170BDD4E9012120209047206A00F147
S31508000430010020626D1EF5D570BD09684A0501D513
S3150800044040B27047C905FCD500B2704709684A052D
S3150800045001D5C0B27047C905FCD580B2704770B5E2
S3150800046005460C46012A05D02868800600D5EA69A3
S31508000470002302E0012305E05B1C934202D2E05C04
S315080004800028F9D1A869E618C01AA861286A18448C
S3150800049028622846FFF7A8FF04E0D5E9012114F8E9
S315080004A0010B9047B442F8D32846FFF7B4FF70BD56
S315080004B02DE9F0410746002510687529394616A426
S315080004C011D0FFF7BAFF002803DAC0F1000013A421
S315080004D007E039688A0701D511A402E0490704D55F
S315080004E010A4012501E0FFF7B1FF00210A2307F157
S315080004F0240607E0B0FBF3F203FB12003030705419
S315080005001046491C0028F5D12B4622463846BDE838
S31508000510F04100F0E3BA0000000000002D000000E2
S315080005202B0000002000000011680268006A5305CD
S3150800053001D508700BE0D30501D5088007E013063E
S3150800054003D5C217C1E9000201E05206086001207E
S315080005507047000001694A1C02610878704700B5B7
S315080005608FB0CDE901310021059105497944CDE9DE
S3150800057003101146684600F037F90FB000BD0000B9
S31508000580E5FFFFFF0A6802F8010B0A607047D1E928
S3150800059000239A4202D2531C0B6010707047000069
S315080005A02DE9FF5F04468A461546DFF8AC80F84415
S315080005B00027D8E900103E46CDE9001011E03AF8C8
S315080005C016106A4602A800F011FB411C07D02168E4
S315080005D0890603D5E269391891420ED8074406F10F
S315080005E001062068800602D5E069B84205DDAE42FC
S315080005F0E5DB3AF816000028E1D1A069C01BA06126
S315080006002046FFF7F1FED8E90010CDE900100020DA
S3150800061016E03AF818106A4602A800F0E7FA81468A
S31508000620401C0BD000250DF1080B05E0D4E901218B
S315080006301BF8050090476D1C4D45F7D308F10100DE
S31508000640B0428046E5DB206A384420622046FFF740
S31508000650E2FEBDE8FF9F0000CE8800002DE9F041CC
S315080006608046D21D22F007020026D2E90002F529AB
S3150800067014A512D0002A06DA0023D0EB030063EB98
S31508000680020211A508E0D8F800108B0701D50FA5BE
S3150800069002E0490701D50EA501261146002408F1F6
S315080006A0240704E000F0D5F930323A55641C50EAC4
S315080006B00102F7D133462A4621464046BDE8F041B5
S315080006C000F00CBA000000002D0000002B0000000E
S315080006D02000000030B4002100F124040CE002F0F0
S315080006E0070505F130054FEAD20242EA437265541E
S315080006F001F101014FEAD30352EA0305EFD1046879
S31508000700002310A2250708D504F020040C4304D0C2
S31508000710C46901230CA2641EC46130BC00F0DEB9B2
S3150800072010B5044621461068FFF790FE024620469B
S31508000730BDE810400023CDE7D21D22F00701D1E91C
S315080007400023C7E70000000030000000F0B40F46A1
S315080007500168090502D5234C7C4402E0214C7C44FF
S315080007600E34002100F124050BE002F00F064FEAD3
S315080007701212A65D42EA03724FEA13136E5401F190
S31508000780010152EA0306F0D1224604680023240731
S3150800079004D5702F05D009B111320223F0BC00F040
S315080007A09DB910320123F9E770B504460D46214676
S315080007B01068FFF74BFE024629462046BDE8704002
S315080007C00023C3E7D21D22F00703D3E90023BDE7C0
S315080007D00368126843F0200303600823C3610023FB
S315080007E0B4E700002C8700002DE9F05F044689462F
S315080007F04FF0000ADFF878B1FB44C0F820A0204685
S31508000800E1688847002875D0252806D0D4E9012153
S315080008109047206A401C2062F1E700265F46204682
S31508000820E16888472028054608DB312D06D207EB04
S31508000830050010F8200C08B10643F0E7B00701D50B
S3150800084026F00406C4F81CA00027C4F818A02A2D10
S3150800085009D0284607F011FF38B304EB8708303D66
S31508000860C8F8185019E059F8041B204604EB87020B
S315080008709161E1688847012F054618D1E06900288B
S3150800088020DA26F020061DE0D8F8180000EB8000D4
S3150800089005EB40003038C8F818002046E16888475C
S315080008A0054607F0EAFE0028EED1012F0AD02E2DC4
S315080008B008D12046E16888477F1C0546022F46F086
S315080008C02006C4DBA069002803DA404246F0010688
S315080008D0A061F00701D026F010066C2D0BD0682D0C
S315080008E009D04C2D39D06A2D35D0742D35D07A2DB6
S315080008F033D016E038E0E1682F4620468847B842EC
S31508000900054609D16C2F26D04FF48060E16806436E
S3150800091020468847054604E06C2F1AD04FF48070AD
S3150800092006430DB3A5F14100192802D8203546F42F
S3150800093000664A462946204626604E46FFF779FB5A
S3150800094080B101280BD0F61D26F0070000F1080932
S3150800095055E74020E4E78020D8E70020D6E706F1EF
S3150800096004094CE7284651E7206ABDE8F09F0000D5
S31508000970B486000010B5203AC0F00B80B1E81850D4
S31508000980203AA0E81850B1E81850A0E81850BFF46B
S31508000990F5AF5FEA027C24BFB1E81850A0E818500A
S315080009A044BF18C918C0BDE810405FEA827C24BF5E
S315080009B051F8043B40F8043B08BF7047D20728BFEC
S315080009C031F8023B48BF11F8012B28BF20F8023B3B
S315080009D048BF00F8012B7047431A28BF9A427FF692
S315080009E0C9AF104410F0030F11441EBF11F8013DA2
S315080009F0521E00F8013D10F0030F7FF4F6AF103ACF
S31508000A00C0F00A8010B531E91850103A20E918509C
S31508000A10BFF4F9AFBDE81040530724BF31E9081009
S31508000A2020E9081044BF51F8043D40F8043D12F08F
S31508000A30030F08BF7047D20728BF31F8023D48BFE9
S31508000A4011F8012C28BF20F8023D48BF00F8012CF8
S31508000A50704730B5B0F10A024FEA900E71F1000303
S31508000A604EEA817EB0EB0E0061EB91014FEA101E53
S31508000A704EEA017E10EB0E0041EB11114FEA102EE3
S31508000A804EEA016E10EB0E0041EB11214FEA104EB3
S31508000A904EEA014E10EB0E0041EB1141401841F1B0
S31508000AA000014FEAD00040EA41704FEAD10110EB4D
S31508000AB080054FEA810444EA907444EB01046D19F9
S31508000AC044EB0404521BA3414FF0000348BF0A320B
S31508000AD000D530BD401C41F1000130BD2DE9F0477D
S31508000AE00D4604469246994600F124080168880690
S31508000AF004D5E06921F01001216000E00120A84238
S31508000B0002DDA0EB050700E00027A16907EB050257
S31508000B1002EB0900A1EB0000A0612068C00602D420
S31508000B202046FFF761FC002608E0D4E901211AF8FF
S31508000B3006009047206A401C761C20624E45F4DB6E
S31508000B402068C0060AD52046FFF74EFC06E0D4E921
S31508000B50012130209047206A401C2062381EA7F1E8
S31508000B600107F4DC07E0D4E9012118F805009047ED
S31508000B70206A401C2062281EA5F10105F3DC2046E8
S31508000B80FFF749FC2068000602D50220BDE8F08779
S31508000B900120FBE710B5436913B1AFF3008001E00C
S31508000BA0FFF75DFC012010BD126800F124010A70F0
S31508000BB000224A700122EDE711684FF0FF32E9E79B
S31508000BC010B5436913B1AFF3008001E0FFF7E8FC05
S31508000BD0012010BD126800F1240182840022C2841B
S31508000BE00122EDE711684FF0FF32E9E770B50546D7
S31508000BF00C46164600F01AF8036893F80101012816
S31508000C0006D0FF2C0FD8185D68B101202C7070BD76
S31508000C10D3F807013246214603442846BDE870400A
S31508000C2003F2071318474FF0FF3070BD10B500F0F8
S31508000C3005F8001D10BD00BFA97A000000487047DE
S31508000C4088280120814208BF704702F0030332F06A
S31508000C50030205D050F804CB41F804CB121FF9D192
S31508000C60002BD8BF704710F8012B5B1E01F8012B2B
S31508000C70002BF8DC704701F0030231F003014FF056
S31508000C80000303D040F8043B091FFBD1002AD8BF54
S31508000C90704700F8013B521E002AFADC704710B56F
S31508000CA007480849084AFFF7CDFF08480849094A8E
S31508000CB0FFF7C8FFBDE8104007480849DBE7000012
S31508000CC0E09800080000012000000000E0980008F5
S31508000CD000000120C0010000C0010120A031000071
S31508000CE0FFF79EB93F4A0020116821F0EC611160B8
S31508000CF0116841F4800111603B4B196841F4803159
S31508000D001960196800F1010011F4003F02D1B0F52D
S31508000D10A06FF6D1186810F4003F08BF7047334833
S31508000D20016841F0805101603148016841F4804111
S31508000D30016010681060106840F400401060106888
S31508000D4040F4A05010602C492A480860186840F002
S31508000D5080701860186810F0007FFBD0274940F2B1
S31508000D6005600860106820F003001060106840F005
S31508000D7002001060106800F00C000828FAD17047CD
S31508000D8072B601211E484160082181601D4801682C
S31508000D9021F4027101601C48016841F4FE6101609A
S31508000DA01148016841F0010101600E4A00211160F5
S31508000DB0026822F4102222F080720260031D134A90
S31508000DC01A60026822F4802202601148016089E7ED
S31508000DD010B5FFF7D5FF01F09BFABDE81040FFF705
S31508000DE05EBF000008380240003802404038024022
S31508000DF0007000401954400704380240003C024085
S31508000E00002004E014ED00E0FCED00E010300024C2
S31508000E100C380240EFF3108272B602607047016820
S31508000E2081F310887047EFF30581006809B14FF028
S31508000E3001007047016881F31088704772B67047E1
S31508000E400168EFF3108281F3108800BF82F31088DF
S31508000E507047EFF31080EFF3058180F0010009B1C8
S31508000E604FF000007047EFF3108072B680F0010073
S31508000E707047EFF3108062B680F001007047EFF319
S31508000E80108172B601607047016881F31088704757
S31508000E90704770471B49088810F0010F1A4809D097
S31508000EA04FF6FE720A80D0E902120B1C42F10101CC
S31508000EB0C0E9023115490968D0E9023C41EA030054
S31508000EC06146704730B583B0044600216846FFF78F
S31508000ED0A1FFFFF7DFFF05462046FFF7DAFF0328E5
S31508000EE094BF0024C41EFFF7D5FF401BA042FAD9C1
S31508000EF06846FFF794FF03B030BDA8214843401F5A
S31508000F0000F024B9100C004050000120240C0040C9
S31508000F1080684068704780688068704710B584B0FC
S31508000F206FF0030032496844884228BF314A03D328
S31508000F3040F804298842FBD2304C2F48606030487C
S31508000F40A06000F0C3FB2F482F490844A168084455
S31508000F50A06002F085FC206000F09FFC01F05AFFBB
S31508000F6000F0A0FC0020009001230322042127A002
S31508000F7000F03FF92BA32EA2304931A000F039F931
S31508000F80364937A000F035F901A902A800F092FB0E
S31508000F90DDE90110FFF773F938A007F091FB27493F
S31508000FA037A007F08DFB38A135A007F089FB20A1F3
S31508000FB038A007F085FB1BA136A007F081FB0121AD
S31508000FC04EF6602003F064F80121022003F0EBF8E6
S31508000FD00121084603F05AF802F024FB30A007F076
S31508000FE06FFB38A007F050FB04F084F804B010BD7E
S31508000FF0008001200DF0ADBA00000008280001208D
S31508001000E098000000000000C00100002E4E657444
S315080010104D46207625642E25642E25642E25640DDE
S315080010200A00000031343A33383A353200000000FD
S315080010304D61792020372032303135002887000865
S3150800104025732C204275696C6420446174653A0DD9
S315080010500A0925732025730D0A0000000E450600AF
S3150800106041524D20436F6D70696C657220766572CA
S3150800107073696F6E2025640D0A0000000C000000DD
S31508001080252D3135730D0A004275696C642044615B
S3150800109074653A002020252D3133730D0A000000AF
S315080010A00C6D61696E2065786974656421213F3F1E
S315080010B03F2E202048616C74696E67204350550D99
S315080010C00A0000006D61696E20657869746564219F
S315080010D0213F3F3F2E202048616C74696E6720438C
S315080010E050550D0A00000000002070470020704788
S315080010F00020704710B502F059F9BDE8104003F01A
S31508001100F9BF000004B02DE9FF0F6846EFF305812B
S31508001110FFF7F0BF81B000B52DE9FF5F6846EFF332
S315080011200381C163AFF3008010B582B00446002185
S315080011306846FFF76FFE0021204602F037F903F0F4
S31508001140D9FF6846FFF76BFE02B010BD001FFDDC35
S31508001150F7460000034951F82020521E41F8202086
S315080011607047000000020120034951F820000028BA
S31508001170CCBF01200020704700020120034951F826
S315080011802020521C41F82020704700000002012050
S3150800119010B582B0044600216846FFF73BFE074AB1
S315080011A0116841EA04001060516800291CBF906864
S315080011B088476846FFF733FE02B010BD9800012045
S315080011C004F0B6BF10B5002304464022194600F0C5
S315080011D0EFFF002340228021204600F0E9FF01208E
S315080011E084F8CE00D4F82815A078496888470020E6
S315080011F010BD0FB410B503A9029800F01BF810BC77
S315080012005DF814FB05F03CB805F0E8B810B50446DF
S31508001210D0F8280500698047032084F8CE0000200E
S3150800122010BD0FB410B504AA039900F067FA10BCF4
S315080012305DF814FB034603480A461946406900F060
S315080012405DBA0000000001202DE9FF4F89B0054670
S31508001250014603F00F0B08AA01A806F0F5FA0028C4
S3150800126000F09E810198C2688068816810468847A8
S315080012700490019803AC02AEC1688068D0F808C033
S315080012800846E04733462246294607F034F900283F
S3150800129068D00498DDE90AA7816903984FF0010927
S315080012A000EB800001EB800001688068691AB1FBD9
S315080012B0F0F200FB12100590002803DA00200590D2
S315080012C0FEF704FF049803994069884240F29C811E
S315080012D0049804238169039800EB800001EB8004DD
S315080012E00298216900EB400003EB80000A58216848
S315080012F0A06802FB0012691AB1FBF0F6059907927D
S31508001300401A0690002005906068B04217D90698E2
S31508001310504534BF8046D046A06806900298226998
S3150800132000EB4003082101EB83015158B1422BD24F
S31508001330401C0290E16881421AD8FEF7C7FEBAF14E
S31508001340000F40F36181B9F1000F00F05D810020C4
S31508001350029003980499401C039049698842B7D3C0
S3150800136000F052B92946AA4807F08EF900F02AB9C2
S3150800137000EB40020420216900EB8200A2680858AD
S31508001380216800FB02100790BBF1000F18BFBBF1E4
S31508001390010F08D0BBF1020F4DD0BBF1030F00F0CF
S315080013A0D08000F0EBB80498006810F0020F13D054
S315080013B0BBF1000F06D0424629463846FEF7D0FE56
S315080013C000F0DCB80B9841460268284601F0BEFAE0
S315080013D00B99086000F0D2B8BBF1000F05D1404662
S315080013E007F07BF9070000F0ED8001982946424690
S315080013F0D0F80C9080683B46D0F80CC04846E047C9
S315080014005FEA000903D0BBF1000F07D0B6E0BBF1D5
S31508001410000F04BF384607F05EF9AFE00B98414667
S315080014200268384601F092FA01460B980160384680
S3150800143007F051F9A2E02946019803F0D7F80028E9
S3150800144004BF0DB0BDE8F08F2169029800EB40009B
S3150800145051F820106F4888430FD0A268206806FB11
S3150800146002094D4523D101984946D0F80CC0806839
S31508001470036A60469847D0B912E0079885422CD18E
S3150800148065480068002818BF07F025F9002062495A
S31508001490486040F60C1007F020F95F4908603AE00A
S315080014A001984946C3688068426A18469047019879
S315080014B000210091D0F80C90806842463B46D0F84F
S315080014C010C029464846E0475FEA000956D1424619
S315080014D0294652A007F0D8F850E04F490A984A68BA
S315080014E0104440F60C12904215D907F0F6F8009011
S315080014F0002804BF0DB0BDE8F08F47484268016870
S315080015000098FEF72DFE4448006807F0E4F84249C3
S315080015100098086006E040480068002804BF0DB03F
S31508001520BDE8F08F3C480A9A016840680844394685
S31508001530FEF716FE384841680A9801443648416065
S315080015401CE02946019803F051F8002804BF0DB0A5
S31508001550BDE8F08F2169029800EB400051F8201091
S315080015602C4888430AD00198A2682168C368806815
S3150800157006FB0211426A184690478146AAEB080AFA
S31508001580BAF1000F40DDB9F1000F3DD0002F18BFAA
S31508001590474445446068761CB0423FF6B8AED6E686
S315080015A00A9829182948D0E9063018449D4228BFC8
S315080015B0A84201D9814209D90090294624A00A9A4D
S315080015C007F062F80DB00020BDE8F08FBBF1000F00
S315080015D01AD0BBF1010F04BF2946DDE90A200AD05B
S315080015E0BBF1020F04BF2846DDE90A2103D0BBF18F
S315080015F0030F03D008E0FEF7B3FD05E00A9919B119
S31508001600FF222846FEF733FE0DB00120BDE8F08F15
S31508001610E8870008304001404400012020466169FF
S315080016206C6564205772697465536563746F7220BC
S315080016306174206C6F636174696F6E2025782C2045
S3150800164073697A65202578200D0A000000000120BC
S3150800165020496E76616C696420616464726573738F
S3150800166020257820616E642072616E676520257872
S315080016702052616D2053746172742025782C205293
S31508001680616D20656E642025780D0A0010B582B05C
S31508001690044600216846FFF7BDFB05490A6822EAA9
S315080016A0040008606846FFF7BAFB02B010BD0000E8
S315080016B098000120034A02600348801A001D08604A
S315080016C07047000000C00120F8FF01207047002085
S315080016D0704710B5042180F8CE10D0F82805C068E8
S315080016E08047002010BD04F0B2B8014611F8012B5E
S315080016F0002AFBD1081A401E7047000070B5134631
S31508001700ADF5007D04460A464FF40071684600F0C0
S31508001710C2F804F47F410546B1F5407F0FD006DCD8
S31508001720B1F5807F18BFB1F5007F1FD107E06E467F
S31508001730B1F5A06F11D0B1F5C06F17D105E002461B
S315080017406946204601F03BF810E00A48016869B18D
S31508001750002070553046884708E00024002D05DD36
S31508001760305D02F073FB641CA542F9DC0DF5007DC3
S31508001770284670BD4000012070477047002070471A
S3150800178000207047704704F083B82DE9F041050042
S315080017900E46904601D0072E01DBFEF797FC05EBB7
S315080017A08604206908B1E06B08B1FEF78FFC23694F
S315080017B0186800F1010CBCF1080F08BF4FF0000CC7
S315080017C001219A68002A18BF00270BD15A6862457A
S315080017D008BF996000EB001003EB800000F10C07CE
S315080017E0C3F800C02069B1408068C8F8000068796D
S315080017F0FFF779FF3846BDE8F08170B504000D465D
S31508001800164601D0072D01DBFEF760FC04EB8504C4
S31508001810206900281ABFE06B0028FEF757FCA6B11E
S3150800182000202169D1E90032934202BF8B68002B60
S3150800183070BD531C082B08BF0023C1E9013002EB19
S31508001840021001EB80000C3070BD2069D0E9002140
S315080018508A4207BF8268002A01EB011100EB81006A
S3150800186008BF0020EFD170BD10B594461A4600286F
S3150800187019BFBCF1000F0029012010BD541C00231C
S315080018808C4282BF0370012010BD83546146FEF767
S315080018903FFD002010BDFEF71DBC10B501F012FA81
S315080018A0012010BD00B583B006F002F905F016FD5B
S315080018B0002001900090694601A800F05DFFDDE96F
S315080018C0001002F04FF900F041FA00F05FFC01F059
S315080018D0AFF900F071FD0020FFF7CBFA05F01EFF07
S315080018E002F0D8FB05F048FFFFF747FF06F0E8FBD4
S315080018F0FFF742FF06F0E5FB03F028F800F01CF8B6
S3150800190000F015F800F056FD01F09AFB00F034FBE4
S3150800191000F0FCFC00F02EFF01F0E2FA00F08DFF6B
S3150800192000F007F803B05DF804EB02F0ABBB00204B
S3150800193070474FF04A4070470120704710B504467B
S315080019400120FFF71BFC0220FFF718FC104850F88F
S315080019502430ABB10F4924F003004058A107090F02
S31508001960C8400D4900F00F0051F824200B4901EB3F
S315080019708021096944EA0010E14001F00101984715
S315080019800220FFF7E7FBBDE810400120FFF7E2BBA6
S315080019907002012008380140B00201200000024010
S315080019A0CA88012A05D190F8CE20022A03D0032A34
S315080019B005D000F083BF0122034901F0F3BF0122DD
S315080019C000F1CC0101F0EEBF1C01012090F8CE20F9
S315080019D0022A18BF032A01D000F070BFD0F8D02021
S315080019E00449002A14BF032201228A6001220249FF
S315080019F001F0D8BF100101201801012070B5044676
S31508001A0048880A46224DC1B20129297005D894F89A
S31508001A10CE00022807D0032813D02046BDE8704020
S31508001A20114600F04BBF69B384F8CC10032084F844
S31508001A30CE00204600F0A8FA2046BDE8704002F025
S31508001A408DBB91B194F8CC0088421BD00146204644
S31508001A5000F093FA297884F8CC10204600F094FA1E
S31508001A602046BDE8704002F079BB022084F8CE001B
S31508001A7084F8CC10204600F080FA2046BDE8704075
S31508001A8002F06CBB2046BDE8704002F067BB000060
S31508001A901001012003F09EBB30B4C0680024002862
S31508001AA004BF30BC7047438803EB000C0378012B56
S31508001AB018BF022B06D0032B09D0FF2B10D030BC41
S31508001AC0002070478B4204BF30BC70471AE00329D8
S31508001AD018D155884378EDB2AB4213D130BC704764
S31508001AE003791578AB420DD143795578AB4209D1C4
S31508001AF0C3885588AB4205D103899588AB4204BF94
S31508001B0030BC7047002C08BF6046CCD030BC70474C
S31508001B1003F080BB03F018BC10B40A22A0FB023401
S31508001B2001FB02414FF0000C00FB0C1110BC1846DB
S31508001B30704700B583B04FF0000CCDF800C0CDF863
S31508001B4004C000F002F803B000BD2DE9F05F0546B9
S31508001B50ADF5825D0DF580500026D0E91AA8D0189B
S31508001B60144605EB010B02903046202206A90A54BA
S31508001B70401CB0F5805FFADB5D4571D27FD2B8F1C3
S31508001B80000F05D028466D1C04AA0121C04703E0B2
S31508001B9015F8010B8DF81000002000900298844279
S31508001BA073D20098012101FA00F09DF8101008423E
S31508001BB00AD0AB4563D9B8F1000F53D028466D1C3F
S31508001BC003AA0121C04751E05D4558D2B8F1000F7C
S31508001BD005D06F1C01AA01212846C04704E015F864
S31508001BE0010B8DF804002F465F4548D2B8F1000F67
S31508001BF005D07D1C05AA01213846C04703E0387880
S31508001C008DF814007D1C9DF8140000F00F01CF1C00
S31508001C109DF804104FEA101001EB0020C0F30B00EA
S31508001C2000F110093ED0C9F30B0006A9C6F30B0252
S31508001C30085C8DF80400885402998C421FD2BAF1C8
S31508001C40000F08BF04F8010B04D02046641C01AA43
S31508001C500121D047761C09F101097F1EE3D121E055
S31508001C6029E00CE015F8010B8DF80C00C6F30B0201
S31508001C7006A99DF80C00885402998C4206D34FF0A9
S31508001C80FF300DF5825DBDE8F09F11E0BAF1000F57
S31508001C9008BF04F8010B04D02046641C03AA0121DE
S31508001CA0D047761C0098401C00900828FFF676AFAF
S31508001CB05D45FFF463AF4FF00100E2E711F07F0CDA
S31508001CC00CEBCC0110B500EB810101F1D4014FF00A
S31508001CD001044C7081F800C0CA604FF00002C1E9E7
S31508001CE0043203D001F06DFE002010BD02F02AF97F
S31508001CF0FAE7000078B500240094124E124D03202E
S31508001D0003F0E6F9F16808690090641CAC4288BFE4
S31508001D1078BD009810F0004FF1D0009A002042F0EC
S31508001D2001020092009A0A610A690092401CA842C0
S31508001D3003D8009A12F0010FF6D1BDE878400320C7
S31508001D4003F0C6B980030120400D0300014803F0E3
S31508001D500BBA00009027012010B50120FFF70EFAF4
S31508001D600220FFF70BFA0C48018821F002010180D6
S31508001D70FFF790F8094AD2E90032C01A71EB02005F
S31508001D8028BF05F075FA0220FFF7E4F9BDE8104010
S31508001D900120FFF7DFB90000100C004050000120B9
S31508001DA010B5044690F8CE00022818BF032804D0C0
S31508001DB02046BDE8104000F081BD4888012818BFBC
S31508001DC010BD0020C4F8D000D4F824058268204647
S31508001DD090472046BDE8104002F0C0B910B5044649
S31508001DE002234022812100F0E3F90223402219460A
S31508001DF0204600F0DDF94023034A0221204602F07E
S31508001E0028F9002010BD0000F827012030B5044647
S31508001E108888002804BFC888002816D1488800F09A
S31508001E207F0594F8CE0003280FD084F8CF502946B2
S31508001E30204602F0ACF9204602F090F9002D0CBFBE
S31508001E400120022084F8CE0030BD2046BDE830408F
S31508001E5000F034BD10B504464888012811D0022880
S31508001E6018BF10BD8A8812F0FF0F18BF10BD206971
S31508001E704168120A062A24D2DFE802F02310141851
S31508001E801C200120C4F8D000D4F824058268204616
S31508001E9090472046BDE8104002F060B921F0700175
S31508001EA010310EE021F0700120310AE021F07001B6
S31508001EB0303106E021F07001403102E021F0700176
S31508001EC0503141602046BDE8104002F047B9F0B5F0
S31508001ED083B005460C46174600216846FEF79AFF6A
S31508001EE00026002C18BF00240FD005EB84031969BF
S31508001EF041B1D86B30B90E604E608E6021462846D7
S31508001F0000F024F8641C072CEFDB002F18BF002113
S31508001F100DD005EB81000269002A1CBFC06B0028A2
S31508001F2002D0166056609660491C0729F1DB6846A0
S31508001F30FEF775FF03B0F0BD03F075BA002814BFAD
S31508001F400020014870470000F002012000B528B1C2
S31508001F5000EB8100016909B1C06B08B1002000BD22
S31508001F6040220349022002F0D3FA012000BD0000F6
S31508001F70F827012001207047704710B5D0F82425AE
S31508001F8052689047002010BD10B50446D0F82405C5
S31508001F90026820469047D4F82805806880470020C4
S31508001FA010BD10B582B0DDE9044CCDE9004C03F054
S31508001FB02FFF02B010BD70B5054659B1D5F82405F6
S31508001FC04269002A38D095F8CE00032804BF28466F
S31508001FD0904731E095F8CD0005F1D40402282BD1BD
S31508001FE0A169A068814207D9081AA06182B2284669
S31508001FF0E16802F085FC1FE0E169B1FBF0F200FB45
S31508002000121262B981420AD3206A814207D200229B
S315080020101146284602F074FC002020620CE0D5F830
S315080020202405C16829B195F8CE00032804BF2846BF
S315080020308847284602F01EFB002070BD00B50A78C6
S3150800204012F0700202D0102A15D107E04A78062A43
S3150800205004D00A2A06D00B2A0DD108E000F02EFC7F
S31508002060022000BD0122054901F09CFC03E04888D6
S315080020700349C0B20861002000BD0000200101200C
S315080020801001012030B50C46154600220221FFF743
S3150800209003FD002808BF30BD00F10D024188014448
S315080020A0206878B1904288BF81422ED92B68934226
S315080020B028BF994229D94278052A04BF0278072AF7
S315080020C023D10BE0002022602860206888421CD2B9
S315080020D04378042B0BD0052B0ED010E05A78042A2F
S315080020E001BF1A78092AC01D20600ED1EEE70278D2
S315080020F0092A08BF286002E00078072807D0206868
S315080021000278104420608842E2D3002030BD0120C6
S3150800211030BD03F0C3B9704710B4084CDDF804C0ED
S31508002120245C0C600649095C11600649095C196063
S315080021300549085CCCF8000010BC70477888000890
S3150800214074880008808800087C88000800F47F43AB
S3150800215010B54FF0000CC0B2B3F5807F06D0B3F5CA
S31508002160007F07D0B3F5407F0DD108E0401EFFF78A
S3150800217027F802E0401E02F0BEFF844603E0401E38
S31508002180FFF7A5FA8446604610BD00000349002003
S31508002190086048600249086001207047002A01204B
S315080021A098000120014909680840704798000120F5
S315080021B030B50C4611F0800F01F07F0C0CEBCC010A
S315080021C000EB810114BFD43101F53C7181F800C0E0
S315080021D0E4094C708A60CB7018BFA1F806C0022BC0
S315080021E004BF00220A7101F053F9002030BDC0680F
S315080021F0406900F00100704710B5044651B1D4F8A3
S315080022002405826942B394F8CE00032804BF204609
S31508002210904721E094F8CD1004F53C7003291BD1B2
S315080022208268816991420AD9891A8161914228BFD7
S3150800223011468AB2C168204601F088FF0CE0D4F83E
S315080022402405016929B194F8CE00032804BF204665
S315080022508847204601F082FF002010BD10B50446CD
S315080022600D480122FFF7C9FA98B103680021002B2F
S31508002270C8BF0A4A08DD00EB010C9CF804C002F846
S3150800228001C0491C8B42F6DC044A81212046FFF72F
S3150800229015FD002010BD0000F0020120382801209D
S315080022A010B50446812100F01FFB0221204600F0EC
S315080022B01BFB002010BD10B50446007994F86E107B
S315080022C0884208BF10BD052804D1012211462046C0
S315080022D0FFF7FDFD94F86E002071072812D2DFE89B
S315080022E000F004090909090A09000020A4F88C006D
S315080022F0C4F8840010BD20460022BDE81040012124
S31508002300FFF7E5BDBDE81040FDF7E0BE01207047C8
S315080023101F4810B5016841F00F0101601E481D49AC
S3150800232001601E4A4FF4207111608A031C490A6035
S31508002330002141601B4B19601B4B19604FF4403359
S315080023408360DFF868C0C023CCF80030184B1A60E9
S315080023504FF0C842C2600CF1040280151060181DC7
S315080023600160082000F0C0FD0121122001F01DFFC8
S315080023700021112001F019FF00212F2001F015FF7F
S315080023800023BDE810401A461946322000F010BC5A
S3150800239030380240000002A8000002400004024053
S315080023A000080240040402400408024008040240EF
S315080023B0080802400020704701207047004870470F
S315080023C040420F0000281CBF012070472DE9F04F3E
S315080023D085B0834600216846FEF71CFDDFF86C834E
S315080023E0D94C0126DA48C8F80860E067072084F85F
S315080023F080004FF00809402784F86F903046002582
S3150800240004EB8001CD632118401C81F8337007283E
S31508002410F6DBA8F80050029503AA02A92046039500
S31508002420FFF730FE002818BFDFF828A341D002982E
S31508002430817801F07F00072880F27E81039A9278DE
S31508002440032A00F2798111F0800F1CBF04EB80018A
S31508002450CE6302998988082918BF102904D0202933
S3150800246018BF402940F06881221882F833108B2162
S3150800247041430AEB8102A2F50B7104EB80020D6061
S315080024804D608D6011610299C97801F00301012937
S3150800249000F04B81400001FA00F0B8F8001003AADA
S315080024A00843A8F8000002A92046FFF7EBFD00281C
S315080024B0BDD1B8F80000002800F03E814FF47A70CC
S315080024C0FEF700FD0021584600F02EFC0022A24926
S315080024D0432002F073F8012002F08AFC0A21092041
S315080024E000F002FD0A210B2000F0FEFC0A210C2058
S315080024F000F0FAFC022301220021092000F058FB13
S315080025000223012200210B2000F052FB02230122A4
S3150800251000210C2000F04CFB4FF4804002F080FCB8
S31508002520802002F06DFC4FF0805002F071FC8C495F
S315080025308A480C46C1F824058A48C1F828058A48FD
S31508002540C1F82C05A670A780E67284F800900420CE
S315080025504FF0A04160708815E08002202072834801
S31508002560C4E90310002001EB401202F5106C04EBDD
S31508002570800302F53062C3F814C01A656278401CFD
S315080025808242F0D822780020002A0BD901EB0032CB
S3150800259004EB800302F58052C3F88C202278401C95
S315080025A08242F3D801F56060C4F8C80084F8CE60AA
S315080025B084F8CF506078002100280FD901EBC100BC
S315080025C004EB8000D43046700170C180C570C0E944
S315080025D0027505616078491C8842EFD80021C0B2AF
S315080025E0002810D901EBC10004EB800000F53C700F
S315080025F045700170C180C570C0E9027505616078D3
S31508002600491C8842EED802F037FBE068C16841F001
S31508002610400141F08041C160FFF76CFB617A4FF4DD
S315080026205020002918BF4FF4E810E1688863142089
S3150800263002F049FDD4F8C8002946056020690268F9
S3150800264022F4C05242F003020260E068802242622D
S3150800265067F31F4162F30F01816201EB11432946BB
S3150800266063F30F0162F31F41C0F8041101EB114235
S3150800267062F30F0165F31F41C0F8081101EB11421F
S3150800268062F30F01C0F80C111021354801F02EFA3B
S31508002690334801F00BFA2069056145614FF0FF37B1
S315080026A08761C56161780020FF264FF0904C0029AC
S315080026B011D904EB80025369196811F0004F14BF51
S315080026C061462946196051690D6151698E606178C4
S315080026D0401C8142EDD80020C9B2002911D904EB6B
S315080026E08002136D196811F0004F14BF6146294620
S315080026F01960116D0D61116D8E606178401C814203
S31508002700EDD82069016941F480710161E06885614D
S315080027104761174982698A431143816102F018FAB1
S315080027200F48D0F82805006880476846FEF777FB0B
S3150800273005B00020BDE8F08F6846FEF770FB05B0CF
S315080027400120BDE8F08F0000F00201208C00012076
S31508002750BC150120B4080120ED46000844010120FB
S315080027608003012070010120F400012000080050B8
S3150800277010380C8001207047034A02600348801A0B
S31508002780001D08607047000050410120F84F0120E5
S3150800279000F47F41C0B2B1F5807F0AD0B1F5007F61
S315080027A00AD0B1F5407F1CBF00207047401EFEF7D7
S315080027B0E5BF401EFEF726BD401E02F0D0BC2DE93F
S315080027C0F0478846174600F47F444FF00009642511
S315080027D0C6B22CE0B4F5807F06D0B4F5007F09D0E8
S315080027E0B4F5407F14D10BE0701E3A464146FEF719
S315080027F00BFD0AE0701E3A46414602F0B2FC04E0C0
S31508002800701E3A464146FEF7BBFF002812DB0AD186
S315080028104FF00000FEF71DFB60B1002101222020C9
S3150800282000F07CFD03E032253F1A804481440FB155
S315080028306D1ECFD24846BDE8F0874FF04A40704734
S31508002840072814D2DFE800F013040713100A0D0056
S3150800285040F2011070474FF48170704740F2031040
S3150800286070474FF48270704740F20130704740F26B
S3150800287001207047B0F5827F04BF062070470EDC42
S31508002880A0F58070013804BF01207047012804BFF5
S3150800289002207047022804BF052070470AE0A0F509
S315080028A00070013804BF03207047B0F5807F04BF6D
S315080028B004207047002070470120704710B50A7839
S315080028C0044612F0800F03D0802100F022F806E0BB
S315080028D0C988002914BF0021802100F01AF8204673
S315080028E0BDE8104001F07ABB0B4611F0800F01F0ED
S315080028F07F0200B502EBC20100EB810114BFD4319F
S3150800290001F53C710A70DA094A7001F084FB00206F
S3150800291000BD00B50A4611F0800F02F07F0314BF10
S3150800292003EBC30102EBC20100EB810114BFD431F2
S3150800293001F53C714FF0010C81F802C00B70D20909
S315080029404A7000F0D1FD002000BD00004B1E002992
S31508002950C8BF08490CDD10F801CB8CEA126C51F897
S315080029602CC08CEA0222B3F1000CA3F10103F2DCBD
S3150800297010467047A4880008002808BF704770B53D
S3150800298050F8041C1B4DA0F11404A94205D01AA046
S31508002990A268FEF72EFCFEF7BDFBA268201F1158A1
S315080029A0A94204D024A0FEF724FCFEF7B3FB324963
S315080029B0E160206858B1C2688A4208D1A268836873
S315080029C01A44A26000682060002818BF4460606846
S315080029D0002808BF70BDC2688A4218BF70BD8168EA
S315080029E0A2681144816021680160002918BF486007
S315080029F070BD00000DF0B1BA53696D706C6548651D
S31508002A0061705F52656C656173653A204D656D6FDF
S31508002A10727920626C6F636B206865616420636FEE
S31508002A207272757074696F6E3A2025303878202571
S31508002A303038780D0A00000053696D706C6548657A
S31508002A4061705F52656C656173653A204D656D6F9F
S31508002A50727920626C6F636B207461696C20636F96
S31508002A607272757074696F6E3A2025303878202531
S31508002A703038780D0A000000EFBEADDE03F04ABA22
S31508002A8038B50D4649880446080A012804D00228A4
S31508002A900AD003285BD113E0D4F82C15A0780A686D
S31508002AA069469047014642E0D4F82415A0788A6A18
S31508002AB069469047014602204870C4F8301536E04A
S31508002AC0C8B2062843D2DFE800F0030B131B232BFA
S31508002AD0D4F82C15A0784A6869469047014626E03E
S31508002AE0D4F82C15A0788A686946904701461EE0F6
S31508002AF0D4F82C15A078CA6869469047014616E0AE
S31508002B00D4F82C15A0780A696946904701460EE064
S31508002B10D4F82C15A0784A6969469047014606E01C
S31508002B20D4F82C15A0788A69694690470146BDF8FD
S31508002B30000000281ABFEA88002A38BD824288BFEA
S31508002B400246ADF80020204600F02CFF38BD294685
S31508002B502046FFF7B3FE38BD38B5054601EBC10080
S31508002B6005EB80006A46D0F8040384B20E48FEF7E7
S31508002B700CFEB8B1402CC8BF40240C4B011D0022E6
S31508002B80002C06DD13F801CB521C01F801CB944248
S31508002B90F8DC0460009828B94023044A0221284634
S31508002BA001F057FA002038BDF0020120F82701206D
S31508002BB038B504460846902C28BF38BD032B04BFF9
S31508002BC00221012221D0042B0CD09AB1012B0DD061
S31508002BD0022B0CBF022101214FF000020CBF032378
S31508002BE0012313E00321002213460FE002210022ED
S31508002BF001230BE0052B16D0062B0CBF0221002162
S31508002C004FF0000208BF022300D0002300902046A0
S31508002C1000F07CFE01B020460023BDE830401A468D
S31508002C20194601F0DBBA022100221346EEE700003E
S31508002C3010B51420002100F017FA0020184A0146A2
S31508002C4022F81010401C0928FADB164801600022F9
S31508002C501549062001F0B2FC00221449072001F0AC
S31508002C60ADFC00221249082001F0A8FC00221149F7
S31508002C70092001F0A3FC00220F490A2001F09EFC5E
S31508002C8000220E49172001F099FC00220C49282041
S31508002C9001F094FC4FF4804002F0C2F8012010BD08
S31508002CA05C020120003C0140893800089938000878
S31508002CB0A9380008B9380008C9380008D938000802
S31508002CC0513E000812494FF0FF300860486088609E
S31508002CD0C1F80001C1F80401C1F808010E480D4900
S31508002CE08160C160016141618161C1620163816383
S31508002CF0BFF35F8F0A4AC16308491160A2F1040154
S31508002D0008600848016841F4E02101607047000046
S31508002D1080E100E005110008004001200007FA05DF
S31508002D200CED00E024ED00E0F0B51D4C83B00F4635
S31508002D302088002804BF03B0F0BD1A4D002168465C
S31508002D40FEF768F80026A1680120E7B1002904BF4C
S31508002D50A06001241ED105EB8400016900291CBF6F
S31508002D60C06B002806D0012221462846FEF745FDFD
S31508002D700028F8D1641C072CEDDB85F86E60284620
S31508002D80FFF799FA06E029B1A66085F86E0028468D
S31508002D90FFF791FA6846FEF742F803B00120F0BD46
S31508002DA08C000120F002012008B1072901DB002070
S31508002DB0704730B583B005460C4600216846FEF7D5
S31508002DC029F805EB8400016900291CBFC06B00289F
S31508002DD012D00F4830F8140010F0010F12D001225B
S31508002DE021462846FEF709FD0028F8D16846FEF771
S31508002DF016F803B0012030BD6846FEF710F803B098
S31508002E00002030BD22462946002001F043FCEDE7AC
S31508002E10BC15012018484FF0FF310A0CC0E9001212
S31508002E200021C0E902111548016841F00801016056
S31508002E3013490420088000200A1D1080121D1080E6
S31508002E40104B02221A80104A1080121D10800F4B58
S31508002E5053221A800E4A1060401E1A1D10600D4A31
S31508002E6001201080088840F00100088000220A49E5
S31508002E70322001F0A3BB0000500001204038024078
S31508002E80000C00400C0C0040180C0040280C0040B8
S31508002E90340C0040140C0040591D000830B583B0AE
S31508002EA004460D4600216846FDF7B4FF0948C0E907
S31508002EB0004509480460FDF7EDFF001B71EB0500AE
S31508002EC002D30649022008806846FDF7A8FF03B02A
S31508002ED030BD000050000120340C0040140C0040A6
S31508002EE04FF07740704700004207D20E0F239340F9
S31508002EF001F00F0191404FEA007C064A000902EBF7
S31508002F0080204FEADC7200EB8200026A9A43114382
S31508002F100162704700000240002808BF704710B4DD
S31508002F204FF0000C81F800C003234B70047802238D
S31508002F3054B1CC545B1CDBB201F803C05B1C10F81F
S31508002F40014FDBB2002CF4D113800B7010BC704714
S31508002F5030B40A7800EB8202D2F850C0DCF8005090
S31508002F60DCF810300C698A68ACB11444641EB4FBF2
S31508002F70F2F464F3DC43C3F3C944624362F3120315
S31508002F80CCF81030097845F0044200EB8100006D5A
S31508002F90026030BC704762F312036FF3DC4303F53B
S31508002FA00023EDE71A4910B51B300A6820F0030123
S31508002FB0002A18BF174825D0D36883421FD19368C3
S31508002FC08B421CD301F1280083420DD910461A18EA
S31508002FD0521A0368C2E900300260002B18BF5A6013
S31508002FE0916083685B1A836062B10B48D0600B48B6
S31508002FF010619168131FC85002F1140010BD1268C1
S31508003000002AD9D106A0FEF7F4F8002010BD00006A
S3150800301060000120EFBEADDE5EBEADDE0DF0B1BADA
S31508003020202020204D656D6F72793A204F55544FF8
S31508003030464D454D4F525921212025640D0A000061
S3150800304001207047902824BF002070470109054ACF
S3150800305002EB8121096900F00F0021FA00F000F067
S3150800306001007047000002400022134610B5121AEC
S3150800307073EB01020BDA42F21072821A71F1000147
S3150800308005DA01F013F803490860012010BD002095
S3150800309010BD00004C000120902828BF7047020987
S315080030A000F00F00054B03EB8222012303FA00F020
S315080030B080B200290CBF508310837047000002407D
S315080030C02DE9F04F89B00546DDE912A68B469046F4
S315080030D099460428B8BFB8F1030F0BDAB9F1070F00
S315080030E008DB03D1B8F1000F04D00BE0B9F1090FE2
S315080030F005D007DB09B04FF00000BDE8F08FB8F146
S31508003100000FF7D1002102A8FDF784FE6E4804AB34
S3150800311006AA50F825406D4808A9475D1430C05DD9
S31508003120019005A800902846FEF7F6FF16F0040F52
S315080031301FBF0498FF280199FFF7D6FE16F0020F65
S315080031401FBF0598FF280199FFF7CEFE0120A4F1BD
S315080031508041B1F588311CBFA4F18041B1F58A31AF
S315080031600CD104F53C3100EB912059490A68082333
S3150800317003FA00F01043086056480CE004F56F3176
S3150800318000EB912054490A684FF4803303FA00F0A3
S3150800319010430860514800EB6B00B0FBFBF0208140
S315080031A00C21B9F1090F08BF41F20C01B8F1000F63
S315080031B00BD041F48061B9F1080F08BF41F4805182
S315080031C0B8F1010F08BF41F40071A181BAF1010FEE
S315080031D008BF4FF0000A4FEA0A302082002016F096
S315080031E0040F1EBF0499FF294FF4007016F0020F52
S315080031F01EBF0599FF2940F48070A082002205238E
S3150800320011460898FFF7D4FC01990898FFF76CFE59
S3150800321001231A4600210698FFF7CAFC0199069869
S31508003220FFF762FE16F0040F0BD00498FF2824D08F
S31508003230002205231146FFF7BBFC01990498FFF706
S3150800324053FE16F0020F0BD00598FF2815D0012360
S315080032501A460021FFF7ACFC01990598FFF744FED2
S315080032600021284600F0E6FA1D486DB1012D10D060
S31508003270022D1FD0032D22D011E002A8FDF7CFFDA5
S3150800328009B00020BDE8F08F50F827000022154944
S3150800329003E050F827000022134901F08FF9A089AE
S315080032A040F40050A08102A8FDF7B9FD09B001203D
S315080032B0BDE8F08F50F8270000220C49EDE750F8DA
S315080032C0270000220A49E8E7640001207088000800
S315080032D04438024000BD01054038024080DE8002C5
S315080032E08C880008853E0008B53E0008E53E0008C3
S315080032F0153F000810B50446064800F040FF05488B
S3150800330000F04EF901212046FFF70EFD0249002084
S31508003310088010BD800301208C0001202DE9F041B2
S31508003320804684B00F46104600F0C0FE04460D469F
S31508003330002102A8FDF76EFDFDF7ACFD04194D410D
S3150800334001263846FEF72EFF38B1044602A8FDF7D7
S3150800335066FD04B02046BDE8F081FDF79BFD001B25
S3150800336071EB050006D302A8FDF759FD04B000204D
S31508003370BDE8F0811EB10220FDF7F6FE60B100201F
S31508003380CDE90070012642462046294603F0B0FFE3
S3150800339002A8FDF755FDD4E702A8FDF74BFD04F09A
S315080033A091FB064602A8FDF749FDCAE730B583B08A
S315080033B0054600220120CDE900020C4608234FF4F9
S315080033C0E1311046FEF7EDFD24B1214611A000F0CB
S315080033D010F902E014A000F00CF916A0E96B00F051
S315080033E008F918A0A96B00F004F91AA0696B00F097
S315080033F000F905F140011BA000F0FBF80024214666
S3150800340055F824201BA000F0F4F8641C0C2CF6DDFB
S3150800341003B030BD455843455054494F4E20307887
S31508003420253032783A0D0A004552524F523A0D0A63
S31508003430000000002020637073723D307825303814
S31508003440780D0A002020706320203D30782530381A
S31508003450780D0A0020206C7220203D3078253038FF
S31508003460780D0A002020737020203D3078253038EA
S31508003470780D0A0020207225303264203D307825E8
S315080034803038780D0A000000FEF746BB0120704769
S3150800349030B491F800C04D78012400EB8C0200236B
S315080034A004FA0CFC012D07BF52696CF30F03126D69
S315080034B06CF31F43D2F800C01CF4004F0DD18C6882
S315080034C064F30A0CCC78C98864F3934C61F3995C6D
S315080034D04CF4004141F0805111600069C1691943FB
S315080034E0C16130BC002070474A780978012A00EB90
S315080034F0810006D0006D016841F4001101600020CA
S3150800350070474169086810F0004F18BF40F08040C6
S3150800351040F400100860F2E784460846D11C0023F0
S315080035208908DCF88C20002998BF7047D2F800C0BB
S315080035305B1C40F804CB9942F8D8704730B40A7837
S3150800354000EB820253691D681A69D1F810C0BCF1F4
S31508003550000F1ED08C686CF31202A444ACF1010C67
S31508003560BCFBF4FC6CF3DC421A610A6942B10A78C6
S31508003570012393400269D2F834C04CEA030353632B
S31508003580097845F0044200EB81004069026030BCCE
S3150800359070476FF312026FF3DC4202F50022E3E78D
S315080035A010B50446012084F8CE0061780020002971
S315080035B088BFFF2209D904EB80014B699A60096D1F
S315080035C08A606178401C8142F5D82169002008612B
S315080035D0216948612169C8612169401E88612046C0
S315080035E000F064FA2046BDE81040102100F07EBACB
S315080035F070470FB4FF2110B5C0B043AB6846429A76
S31508003600FEF749F904460020FDF7FCFD2246694607
S315080036100020FDF7F9FD0020FDF7F4FD40B010BCD1
S315080036205DF814FB2DE9F04188B044F6206002905D
S3150800363003A906A8FEF73EF80399069800F092FA41
S31508003640544C5548616802F0E9FF02A9534804F052
S3150800365041FE002818BF012028B902A800F0A1FDE4
S31508003660002800F06F8001F079FD00260125CDE9DC
S315080036700056032304224AA140F20150FDF7D1FD6A
S315080036804EA0009050A3534A53A140F20150FDF7B3
S31508003690C8FD606800F01CFD00221146104600F0C7
S315080036A00FFEE068FFF774F80123032204213CA00B
S315080036B00096FDF79EFD41A343A246494DA0FDF79E
S315080036C098FD524952A0FDF794FDE068FFF760F8AF
S315080036D004A800900823012200210495534803F00A
S315080036E0ADFDFDF7D7FBDFF8488106460F46852175
S315080036F02020029AFFF712FE040018BFFDF7C6FF46
S3150800370014F0800F04D0002202A9012000F0D8FD91
S3150800371014F0050F1CBF204803F06DF91E48D0F8B9
S31508003720040810F0020F1BD020F00200C8F80000B1
S31508003730002202A9022000F0C3FDFDF7ABFB0646F6
S315080037400F46D4E7144803F0FDFA002804BF4FF0EB
S31508003750FF30029087D001F0D1FC08B0BDE8F081B7
S315080037600298411CC3D000F0A1FC04460D46FDF7A3
S3150800377091FB801B61EB0701201A75EB0100B6D29D
S3150800378000221146072000F09BFD034803F0DAFAF1
S31508003790ADE7000000000120101E0120382A012094
S315080037A054696E79426F6F746572207625642E258A
S315080037B0642E25642E25640D0A00000031343A3340
S315080037C0383A3438000000004D617920203720321D
S315080037D030313500288700082573204275696C64E6
S315080037E020446174653A0D0A0925732025730D0A6C
S315080037F0000000002573204275696C6420446174DA
S31508003800653A2025732025730D0A00000E4506002B
S3150800381041524D20436F6D70696C657220766572F2
S3150800382073696F6E2025640D0A00000020260120AA
S315080038301426012000B5034641B1002101F0F8FA2B
S31508003840002118465DF804EB01F00CBB012101F0DC
S3150800385009FB012118465DF804EB01F0E9BA0000FE
S3150800386070B50022064D074C20211046FFF76EF86A
S31508003870024621462846BDE87040FFF767B80000B3
S315080038800000012000000000024901200860002015
S31508003890FEF754B8143C0140024902200860012092
S315080038A0FEF74CB8143C0140024904200860022087
S315080038B0FEF744B8143C014002490820086003207A
S315080038C0FEF73CB8143C0140024910200860042069
S315080038D0FEF734B8143C014070B50A49086800F48C
S315080038E0787008600849096805250840440914F0F5
S315080038F0010F1CBF2846FEF721F86D1C6408F6D197
S3150800390070BD0000143C0140003C01402DE9F04F19
S31508003910234C4FEA101C04EB8C244FEA007C4FEA38
S31508003920DC6501FA05F8032100F00F0001FA05F637
S31508003930012183B001FA00FB02FA00F903FA05FA3D
S31508003940002168460C9FFDF765FA2068B04340EAF7
S3150800395008002060606820EA0B0040EA0900606001
S31508003960A068B04340EA0A00A060022F05D0E068CC
S31508003970012F20EA060008D00AE0E06820EA0601DE
S315080039800120A8400843E06003E00221A94008435B
S31508003990E0606846FDF743FA03B0BDE8F08F000023
S315080039A00000024000B5C0F8F0200223C0F8EC2061
S315080039B080F8CD3013460A460021FEF77FF900202D
S315080039C000BD30B491F801C00B780A6900EB830397
S315080039D0BCF1010F1DD01B6D1D68D3F810C0002A5D
S315080039E040D08C682244521EB2FBF4F262F3DC4CDF
S315080039F0CCF3C942624362F3120CC3F810C00978CB
S31508003A0045F0044200EB8100006D026030BC0020E6
S31508003A1070475B691D68D3F810C0E2B18C6862F321
S31508003A20120C2244521EB2FBF4F262F3DC4CC3F8C9
S31508003A3010C00A6942B10A78012393400269D2F894
S31508003A4034C04CEA03035363097845F0044200EB9B
S31508003A5081004069D9E76FF3120C6FF3DC4C0CF563
S31508003A60002CE4E78A6862F3120C6FF3DC4C0CF561
S31508003A70002CC2E700B50A4611F0800F02F07F035A
S31508003A8014BF03EBC30102EBC20100EB810114BFB3
S31508003A90D43101F53C714FF0000C81F802C00B706F
S31508003AA0D2094A7000F0A0FA002000BD18B500241B
S31508003AB021460094009A42F010020092009AC368C8
S31508003AC01A61094BC268D2F810C0CDF800C0491C6B
S31508003AD0994204D8DDF800C01CF0100FF3D103207A
S31508003AE001F0F6FA204618BD400D030018B500246B
S31508003AF022460094009B43F020030093009B61F349
S31508003B008A1300930099C3681961094BC168D1F8F3
S31508003B1010C0CDF800C0521C9A4204D8DDF800C087
S31508003B201CF0200FF3D1032001F0D2FA204618BD6D
S31508003B30400D0300C068416980690840704700EB82
S31508003B408200DB1C9B08D0F88C004FF0000C002B81
S31508003B5006D951F8042B02600CF1010C6345F8D81C
S31508003B6000207047074A10608160116800200860CD
S31508003B701168486011680448C860116803480861FC
S31508003B807047000060000120EFBEADDE0DF0B1BA4F
S31508003B902020088000487047240101202DE9F00FF5
S31508003BA000268BB001463746304632463346E8464D
S31508003BB008F80230521C1F2AFADB0022FF230DF1F7
S31508003BC0200B0BF80230521C0A2AFADB00280FBF1A
S31508003BD04FF001090BB0BDE8F00F70474B880A7823
S31508003BE003EB010A022A39D003DA82B1012A06D187
S31508003BF015E0032A00F0CC80FF2A00F0D5801720B4
S31508003C0051460028EAD00BB0BDE8F00F70473E4297
S31508003C100FBF01200BB0BDE8F00F7047F0E7002E8C
S31508003C2018BF0220ECD1162B06BF0A79122A0320E8
S31508003C30E6D14A79012A18BF0420E1D1CA7A082AAE
S31508003C4018BF102A04D0202A1CBF402A0520D7D125
S31508003C50497D012914BF06200126D1E7002F18BF88
S31508003C600720CDD10A79092A72D1CA88121D934232
S31508003C706ED14A79022A18BF0920C1D10A7A002AC8
S31508003C8008BF0A20BCD04B7A012B88BF0B20B7D8B7
S31508003C90CB7A03F08F03802B18BF0C20B0D10D31DF
S31508003CA0521ED5B24A78042A01D00E20A8E70A780F
S31508003CB0092A01D00D20A3E7CA780AB10F209FE789
S31508003CC00B79002B18BF002210D01BF802C0BCF1DC
S31508003CD0FF0F07D00A2A07DA8C78A44518BF521CAA
S31508003CE0F3D11A200A2A03DB1B2089E7102087E76D
S31508003CF091F802C009310BF802C04A78052A05D0A6
S31508003D0091F800C061444A78052AF9D15A1ED2B200
S31508003D102BB92EE04B78052B01D0122070E70B78D3
S31508003D20072B01D011206BE78B7803F07F03A3F1F3
S31508003D30010CBCF11F0F01D3182061E791F803C0ED
S31508003D401CF0030F02D01CF0C00F02D0132057E757
S31508003D501CE0434413F801CCBCF1000F01D0192034
S31508003D604EE703F8019CC91D1300A2F10102D2B265
S31508003D70D0D100287FF444AF2A00A5F10103DDB2B3
S31508003D8090D1514508BF01273FF43AAF082037E7DD
S31508003D900A79121D934218BF14207FF431AF49796E
S31508003DA0032918BF15202BE7097911F0800F08BFE2
S31508003DB0162025E730B583B0054600216846FDF78D
S31508003DC029F81D48002150F825401C48405DA1816E
S31508003DD01B4951F8200000F040FD01212846FFF755
S31508003DE029FD0120A4F18041B1F588311CBFA4F159
S31508003DF08041B1F58A310CD104F53C3100EB9120B4
S31508003E0010490A68082303FA00F022EA000008604D
S31508003E100CE004F56F3100EB91200B490A684FF46A
S31508003E20803303FA00F022EA000008606846FCF7CF
S31508003E30F6FF03B0012030BD640001207088000839
S31508003E408C88000844380240403802407047000019
S31508003E5070B50A49086800F47C4008600849096892
S31508003E600A250840840A14F0010F1CBF2846FDF7EE
S31508003E7065FD6D1C6408F6D170BD0000143C014058
S31508003E80003C014070B50A4805682C8814F0200FDC
S31508003E9003D02946002000F000FB14F0800F08BF6D
S31508003EA070BD2946BDE87040002000F00FBB000039
S31508003EB06400012070B50A4845682C8814F0200F64
S31508003EC003D02946012000F0E8FA14F0800F08BF55
S31508003ED070BD2946BDE87040012000F0F7BA000021
S31508003EE06400012070B50A4885682C8814F0200FF4
S31508003EF003D02946022000F0D0FA14F0800F08BF3C
S31508003F0070BD2946BDE87040022000F0DFBA000007
S31508003F106400012070B50A48C5682C8814F0200F83
S31508003F2003D02946032000F0B8FA14F0800F08BF22
S31508003F3070BD2946BDE87040032000F0C7BA0000EE
S31508003F406400012030B44A780B69012A1ED00A7829
S31508003F5000EB820CDCF8502014681269002B8B6881
S31508003F6018BF0B6163F30602DCF8503022F4C01266
S31508003F7002F500221A61097844F0044200EB810038
S31508003F80006D026030BC4FF000007047426915684A
S31508003F90D2F810C0002B04BF2CF07F0323F4C01303
S31508003FA009D08C68A34286BF64F3060C0C6163F3E0
S31508003FB0060C2CF4C01303F50023136145F00443E3
S31508003FC013600A69002ADDD009780069012202FA1D
S31508003FD001F1426B11434163D4E70000006D0149CA
S31508003FE001617047180008C091F801C00A780023DB
S31508003FF000EB8200BCF1010F0CBF4069006D02683E
S31508004000C97822F40012032914BF022942F080520B
S3150800401002601846704730B44D7803460978012483
S3150800402003EB81024FF0000C04FA01F16046012D02
S3150800403007BF526961F30F00126D61F31F40C2F8A2
S3150800404000C01969CA6922EA0000C86130BC604626
S31508004050704711F07F0C0CEBCC0100EB810100B529
S3150800406001F53C71C1E903234FF000024A614A7029
S3150800407081F800C003D0FFF7A4FC002000BDFFF7BD
S3150800408061FFFAE74FF04A407047704700207047D3
S31508004090002070470023024A0249034803F022BC65
S315080040A08C010120A8000120782801204FF47A719C
S315080040B0A0FB010170470000044951F82000008860
S315080040C010F0800018BF012070470000640001202E
S315080040D030B500F47F4183B0C4B2B1F5807F06D015
S315080040E0B1F5007F10D0B1F5407F14D125E000214D
S315080040F00120CDE900011448082300220169601E49
S31508004100FDF74FFF03B030BDC0F34210002105464E
S31508004110FDF739FB10B103B0002030BD2846FDF786
S31508004120F7FC002804BF03B030BD601E03B00222AE
S31508004130BDE830400121FDF7EDBC03B0601EBDE8C7
S315080041403040FEF7B9BB000000000120134600B559
S315080041500A460021FFF77DFF002000BD30B5044662
S315080041600025042084F8CD002B462A4629462046F9
S31508004170FDF7A4FD2046FFF731FF284630BD00694C
S31508004180416841F002014160032000F09CBF0069CC
S31508004190002261F30A12016811430160704701F0B9
S315080041A0E9BE0020704700207047902828BF704756
S315080041B038B50446FEF770FF002101230A46009130
S315080041C019462046FFF7A2FB01B020460023BDE8AA
S315080041D030401A46194600F001B870472DE9F04FED
S315080041E0814600F00F05012000FA05F48A46A80763
S315080041F0000F0F2101FA00F74FEA191101FA00F82A
S3150800420083B093461E4600216846FCF703FE2648FF
S31508004210C9F3810100EB8100224A2449BAF1000F53
S315080042202FD003683B4043450ED00B68234206D087
S315080042306846FCF7F4FD03B00020BDE8F08F03687C
S31508004240BB4343EA08030360194842F825A0022E37
S3150800425040F825B0174818BF032E02680CBF224342
S31508004260A24302601448012E18BF032E02680CBF31
S315080042702243A2430260114804600868204308608C
S3150800428009E000683840404505D10868A043086041
S31508004290002042F825006846FCF7C1FD03B001205E
S315080042A0BDE8F08F7002012008380140003C01404B
S315080042B0B0020120083C01400C3C0140143C01407E
S315080042C030B583B00C461546092824BF03B030BD67
S315080042D0DFE800F0050D2A3B444D58286F003BA146
S315080042E003B040F20150BDE83040FCF79ABF002CFD
S315080042F004BF03B030BD4FF0FF30206001A9684607
S3150800430000F05AF9002812BF002503B030BD009806
S3150800431010F0100F18BF256001A9684600F04CF987
S315080043200028F4D103B030BD002C04BF03B030BD63
S315080043302068411C00291CBF44F620618142CEBF7B
S31508004340216003B030BD03B030BD03B02246BDE8DE
S31508004350304021A140F20150FCF763BF03B022466A
S31508004360BDE830401FA140F20150FCF75ABF20A11A
S3150800437040F20150FCF755FF03B01DA0BDE83040E0
S31508004380FCF737BF34B11EA140F20150FCF749FFD4
S315080043901BA005E01FA140F20150FCF742FF1DA03B
S315080043A0FCF727FF2048C06803B0BDE83040FEF799
S315080043B0EFB92CB122461DA140F20150FCF731FF9E
S315080043C044F00100286003B030BD000057616974ED
S315080043D0696E670D0000000057723A203078253064
S315080043E038780D0045723A203078253038780D0037
S315080043F043686B207369676E6174757265200D007A
S315080044005369676E617475726520504153530D0A7E
S315080044100D0A00005369676E61747572652046411E
S31508004420494C0D0A0D0A0000000001205374617200
S3150800443074696E67206170706C69636174696F6E08
S31508004440206174203078253038780D0A0000000085
S315080044507047704710B500F47F420446C1B2B2F502
S31508004460807F0CD0B2F5007F0ED0B2F5407F1CBF1E
S31508004470002010BD481EBDE81040FFF707B8BDE88C
S315080044801040481EFEF7FABA481EFDF755FDC4F35C
S315080044904210BDE81040FDF73CBE70B505460C4617
S315080044A00120FCF76BFE0220FCF768FEA18828466F
S315080044B0C9B2FFF774FE0120FCF76AFE0220FCF77A
S315080044C049FEBDE870400120FCF744BE38B50546F4
S315080044D00C460120FCF752FE0220FCF74FFE694607
S315080044E0284600F0CAF9002819BF9DF80000A080E8
S315080044F0A08920F0800008BFA0810220FCF748FEB2
S315080045000220FCF727FE0120FCF724FE38BD000038
S315080045100B4600F07F00DFF828C000EBC0010CEB6B
S31508004520810101F53C714FF0000C81F801C008705B
S31508004530C1F814C0C1E90332014800F013BB0000FA
S315080045408003012010B5044684B008A0FDF7CDF815
S3150800455006A10022CDE900210290012303220421AD
S31508004560204602F021FE04B0012010BD4E65746499
S3150800457075696E6F20506C75732032202876342E3C
S31508004580332E322E31292062792053656372657481
S31508004590204C616273204C4C430000000248052100
S315080045A080F86E10FDF787BEF00201201220088001
S315080045B000487047E0000120002070470A4A02EBD5
S315080045C08002BFF35F8F116400F01F020121914042
S315080045D042094FF0E02000EB8200C0F88012C0F8D4
S315080045E00011012070470000004001202DE9F0412C
S315080045F004460E46D4E9021082B0D1F808C0002558
S315080046006F460DF10408E04743463A46314603F043
S3150800461072FFB8B1D4E902108968884781690098A1
S31508004620102200EB800002EB80000958019800EB8D
S31508004630400051F82000C0B210280ABF03A0012587
S31508004640FCF7D7FD284602B0BDE8F08154727969B7
S315080046506E6720746F20777269746520746F2062A4
S315080046606F6F74737472617020726567696F6E0D0F
S315080046700A00000010B50521002380F8CD10044675
S315080046801A461946FFF7E5FC2046FFF7A7FC002067
S3150800469010BD00000846134610B501EB8301D1F89A
S315080046A010C0BCF1000F1ABFC96B002910BD01224A
S315080046B01946FDF7A2F8002808BF10BD00210268B8
S315080046C0002AC8BF084B08DD00EB010C9CF804C0A3
S315080046D003F801C0491C8A42F6DCBDE810400249CD
S315080046E0812000F047B800003828012010B50120C5
S315080046F0FCF744FD0220FCF741FD1D48FDF777FD58
S3150800470000282CD11A48FFF715FA040027D014F40C
S31508004710002F18BF00F024FC14F4802F18BF00F0F7
S31508004720AFFB14F0004F1CBF114800F0BFF914F49A
S31508004730006F1CBF0E4800F021FA14F0100F1CBFC2
S315080047400B4800F083FC14F4805F1CBF084800F097
S315080047504DF914F4005F1CBF054800F04EFC02201A
S31508004760FCF7F8FCBDE810400120FCF7F3BC00009C
S31508004770800301200B4600F07F00DFF824C000EB21
S31508004780C0010CEB8101D4314FF0010C81F801C056
S3150800479008700020CB60C1E90420014800F0E2B9A6
S315080047A0800301200123036000200B60C2E900009A
S315080047B0704710B582B00446694600F020F89DF8A7
S315080047C0002012F01F010BD001290ED0022911D0AA
S315080047D002F080012046FEF79CF802B0002010BDCA
S315080047E06946204600F07EF9F7E76946204600F05C
S315080047F0D1FAF2E76946204600F048FAEDE790F864
S315080048000C250A7090F80D254A7090F80E2590F838
S315080048100F3502EB03224A8090F8102590F81135DF
S3150800482002EB03228A8090F8122590F8133502EBE2
S31508004830032292B2CA800121C0F8F42080F8CD1074
S31508004840704700698169C069084080B270470000F6
S31508004850004870470CE00020704700F01F01012255
S3150800486002FA01F140094FF0E02202EB8000C0F89D
S315080048708011012070470020704701F003BC00003A
S3150800488010B50A46024903A0FEF746FB004810BDCC
S31508004890B82701204E65746475696E6F506C757320
S315080048A0320000000420088000487047DC00012020
S315080048B010B50A46024903A0FEF72EFB004810BDB4
S315080048C0B82701203030303030303030303030309A
S315080048D00000000041094FF0E02202EB8101D1F807
S315080048E0001100F01F0021FA00F000F001007047E7
S315080048F0024A52F8200081807047000064000120B7
S31508004900134600B50A460021FDF7D8F9002000BD78
S3150800491010B50A46024903A0FEF7FEFA004810BD84
S31508004920B82701204E65746475696E6F20506C75E2
S3150800493073203200044951F82000008810F0400026
S3150800494018BF0120704700006400012000B521A0AF
S3150800495087B090E80E108DE80E10006904900422C6
S3150800496005A9684602F0F0FFE8B940F20120FDF714
S3150800497081FF8DF8140040F20120FDF77BFF8DF8CA
S31508004980150040F20120FDF775FF8DF8160040F27C
S315080049900120FDF76FFF8DF817000123042205A9F2
S315080049A0684603F03DF89DF81400FDF749FF0E4AE6
S315080049B050609DF81500FDF743FF90609DF81600BE
S315080049C0FDF73EFFD0609DF81700FDF739FF5061EF
S315080049D007B000BD534C5F5452414E53504F52548A
S315080049E05F434F4E4649470000000120F8B504468C
S315080049F0006900250126416821F001014160284629
S31508004A000095009941F020010091009921F4F86180
S31508004A1000910099E2681161224AE1680B690093E6
S31508004A20401C904203D8009B13F0200FF6D10320B8
S31508004A3000F04EFB61780020002988BFFF2209D9C3
S31508004A4004EB80014B699A60096D8A606178401CA5
S31508004A508142F5D821694FF0FF30886128462169DF
S31508004A6066F30F0066F31F40C861216945F00F0021
S31508004A704861216945F02F0008612069016821F421
S31508004A80FE6101602046FFF7A9FAE1684FF48050FD
S31508004A90486105484068C16801B02046BDE8F04055
S31508004AA008470000400D03008C00012010B504469D
S31508004AB0807A30B1D4F8C800D4F8C81020F00300C2
S31508004AC008602069416821F0010141600448406896
S31508004AD0416920468847E1684FF00040486110BDAB
S31508004AE08C00012010B54A780A2A1BD2DFE802F0AA
S31508004AF011171A141A08051A0E0BFDF7C1FF13E051
S31508004B00FDF784F910E0FCF779FF0DE0FCF748FFA4
S31508004B100AE0FCF75BFF07E0FDF79CF904E0FDF708
S31508004B203FF901E0FDF7CAFE002010BD00207047DE
S31508004B3010B50A46024903A0FEF7EEF9004810BD73
S31508004B40B82701204E65746475696E6F0000000011
S31508004B500348C068816841F0010181607047000020
S31508004B608003012000B54A78012A03D0FEF7F0F940
S31508004B70002000BDFEF7E2FCFAE7000010B5044687
S31508004B801148406801692046884720698068E268BC
S31508004B904FF400615161A17A002914BF10F0010F8A
S31508004BA010BDD4F8C800016841F001010160D4F8CD
S31508004BB0C800016841F0030101600448016841F03A
S31508004BC00601016010BD00008C00012010ED00E018
S31508004BD02DE9F0411C4B00EBC00103EB810101F10B
S31508004BE0D404D4E90412891AA2688A4238BF114645
S31508004BF0C91C03EB80074FEA910879698969C6B22F
S31508004C0015E0451AA068854288BF0546E81C4FEAA4
S31508004C109008ABB232460C48E168FEF790FFE068B0
S31508004C202844E0606069284460617869816988B2CF
S31508004C30404586BFD4E904018842BDE8F0810028D2
S31508004C40DFD1BDE8F081000080030120084910B5D6
S31508004C5051F82010898A11F4007F07D00549085CAD
S31508004C60FEF7F0F900281CBF002010BD012010BD7A
S31508004C7064000120808800080348C068816821F024
S31508004C8001018160704700008003012070B5044669
S31508004C9088880D46C1B26878002600283ED00128CB
S31508004CA01FD0032844D194F8CE00022802D0032846
S31508004CB03AD104E000293BD0802939D03EE0688803
S31508004CC028B921B180291CBF2046FDF722FED4F859
S31508004CD0240529468268204690472046FFF73EFA73
S31508004CE026E094F8CE00022802D003281CD103E05F
S31508004CF0F1B180291CD021E06888C8B951B1802952
S31508004D0008D02046FEF7B6FED4F824052946826860
S31508004D10204690472046FFF721FA09E094F8CE008E
S31508004D20022807D003280DD029462046FDF7C6FDE0
S31508004D30304670BD0029FBD08029F9D02046FDF702
S31508004D40E8FDF5E7114A11F0800F4FF0000C4FF01F
S31508004D50010309D001F07F0000EBC00004EB8000DE
S31508004D6090F8D60038B908E001EBC10004EB8000E2
S31508004D7090F8F20208B1536001E0C2F804C00222BA
S31508004D8003492046FEF70EFED2E700001001012077
S31508004D901401012070B5044690F8CE000D4603288C
S31508004DA00FD1A888C0B201280BD8D4F82405826888
S31508004DB020469047E888002804BF2046FFF7CEF92A
S31508004DC002E02046FDF77AFD002070BD10B50A46C0
S31508004DD0024903A0FEF7A0F8004810BDB827012035
S31508004DE0536563726574204C616273204C4C4300B2
S31508004DF002490A68104308607047000030380240CC
S31508004E0002490A68104308607047000034380240B7
S31508004E1002490A68104308607047000020380240BB
S31508004E2002490A6810430860704700004438024087
S31508004E30054A002952F82000818914BF41F0200153
S31508004E4021F020018181704764000120044951F84E
S31508004E502000808910F0800018BF012070470000EC
S31508004E6064000120054A002952F82000818914BFF0
S31508004E7041F0800121F080018181704764000120A2
S31508004E802DE9F05F00263448FFF7DBFC070008BF72
S31508004E90BDE8F09F4FF001084FF004094FF0080AEB
S31508004EA04FF0100B17F0010F51D02B4B1869016901
S31508004EB0426B03EB8605F24002F0010241EAC21199
S31508004EC06A69926802EA010414F0010F0FD0426B76
S31508004ED0444608FA06F122EA010141636869C0F806
S31508004EE008801E48F1B2406842681846904714F098
S31508004EF0040F03D068694C46C0F8089014F0080FF0
S31508004F0003D068695446C0F808A014F0100F03D0FF
S31508004F1068695C46C0F808B014F0200F02D06869CA
S31508004F202024846014F0400F02D06869402484600D
S31508004F3014F0020F02D068690224846014F0800F0E
S31508004F4005D03046FFF744FE696980208860761CE4
S31508004F507F08A7D1BDE8F09F800301208C000120BF
S31508004F602DE9F05FDFF888900026D9F810008169EE
S31508004F70C0690840050C08BFBDE8F09F4FF0010A5C
S31508004F80DFF870804FF0080B15F0010F2BD009EBF6
S31508004F908607386D8168D9F81020526902EA01043B
S31508004FA014F0010F08D05446C0F808A0D8F8040039
S31508004FB0F1B202680E48904714F0020F02D0386D1D
S31508004FC00224846014F0040F02D0386D042484602F
S31508004FD014F0080F07D0D8F80400816804488847F9
S31508004FE0386DC0F808B0761C6D08CDD1BDE8F09FC5
S31508004FF0800301208C000120704701698968436994
S315080050001A68C1F34101002918BF012907D00229EE
S3150800501004BF6FF30A02D21C03D0032901D16FF330
S315080050200A021A6001694A6842F480724A60C168D5
S31508005030CA6801238370402322F47052838002F5E4
S31508005040A052CA60C068D9014161704770B505466B
S31508005050C068816921F010018161E868066A06F076
S315080050600F0000EBC00005EB800000F53C74C6F3AA
S315080050704340072816D2DFE800F015150415151564
S315080050801B0047F6F07006420CD0C6F30A163246E5
S315080050902846E168FEF740FAE0683044E060606957
S315080050A030446061E868816941F01001816170BD32
S315080050B0082205F20C512846FEF72EFA6069C6F357
S315080050C00A110844EDE74FF47A714843AFF30080BC
S315080050D0C0EB0010DFF818C00021C300624608467E
S315080050E0E3FB0C204008491C8142FCD970470000AC
S315080050F049922449FEE700F01DBA0000024901481A
S315080051000860FEE70400FA050CED00E011490A689C
S3150800511022F003020A60104A30280BD04028106893
S3150800512010D020F004001060086840F00400086001
S3150800513030BF7047106840F004001060086840F0FF
S31508005140050005E040F004001060086840F006001D
S315080051500860EDE70070004010ED00E0704700F0D1
S315080051606FBA00F0CCBA00002DE9F041164E04469D
S31508005170306830BB0125A5610021E561C4E9081145
S3150800518004F12002111F081FFFF70CFB0020C4E9D9
S3150800519002000F480D49C922A1FB00C702FB007295
S315080051A0C31701FB0321C4E900C10849C922A1FBB1
S315080051B000C7C31702FB007001FB0300C4E904C063
S315080051C035600020BDE8F081A400012000C0692AEE
S315080051D08C49020030B583B004460D460021684666
S315080051E0FBF718FE2046FCF7A9FE68B1846834EA86
S315080051F00501816004BF0420FCF748FA6846FBF7FE
S315080052000EFE03B0204630BD6846FBF708FE03B025
S31508005210002030BD2DE9F0418AB00546FCF78EFE28
S315080052200446002108A8FBF7F5FD002C60D0404E87
S31508005230206860B1706800F47F41B1F5007F06D13F
S31508005240C0F34210A84204BF284600F027F9E068D8
S3150800525018B90021284600F01BFB36A02022694613
S3150800526002F072FB0027374B00281ABF0020EC46D5
S315080052701F700FD003EB40021CF800109170D77016
S3150800528011B1401C2028F5DB022101EB4000187003
S3150800529003205870002202212046FCF7FDFB074632
S315080052A0206828BB27B390212046D4F80C80FBF74A
S315080052B008F80020FF22C4F80C8004EB4001401CCB
S315080052C081F8582081F859200728F6DB6571227184
S315080052D0F87A10F0400FB4F8780014BF40F00100D7
S315080052E020F00100A4F878002846FDF76BF830B1E5
S315080052F008A8FBF794FD0AB00020BDE8F0817068A5
S3150800530000F47F41B1F5007F04BFC0F34211A94202
S3150800531005D1C0B2401E02220121FCF7FBFB012089
S31508005320206008A8FBF77BFD0AB00120BDE8F081E4
S31508005330000001205553425F4E414D455F434F4E95
S3150800534046494700CA1D012070B50C46C0F34211F4
S3150800535000F01F0682B015460846FCF7EFFD002848
S315080053601CBF016800294AD0072E48DAFF2D12D043
S31508005370691E062943D2FF2C02D0611E06293ED299
S3150800538000EB460696F85810FF2904BF96F8591000
S31508005390FF2934D102E0FF2C31D0EEE7FF2D03D0F0
S315080053A000EB8501096951B3FF2C03D000EB84019A
S315080053B0096921B3FF2D03D000EB8501C96BF1B94B
S315080053C0FF2C03D000EB8401C96BC1B10021FF2D6E
S315080053D009D000EB410292F85830AB421CBF92F854
S315080053E05920AA420BD0FF2C0CD000EB410292F8B0
S315080053F05830A3421CBF92F85920A24202D102B0EB
S31508005400002070BD491C0729E1DB00216846FBF72F
S3150800541001FD86F8585086F859406846FBF7FFFCA8
S3150800542002B0012070BD30B5C0F3421100F01F056F
S3150800543083B00846FCF782FD04001CBF20680028DC
S3150800544001D0072D02DB03B0002030BD00216846DD
S31508005450FBF7E0FC04EB4501002291F85800FF2811
S3150800546006D004EB8000006910B1026042608260D9
S31508005470FF2381F8583091F85900FF2806D004EB2D
S315080054808000006910B102604260826081F859307C
S315080054906846FBF7C4FC03B0012030BDF0B583B005
S315080054A00546FCF74BFD040004BF03B0F0BD002120
S315080054B06846FBF7AFFC2068C8B11C480021426863
S315080054C0D6B202F47F40C2F34213A6F1010CB0F53E
S315080054D0007F04BFAB428C450FD004EB410292F823
S315080054E05870FF2F04BF92F85920FF2A05D0684646
S315080054F0FBF795FC03B00020F0BD491C0729E6DB45
S31508005500B0F5007F02BFAB426046FCF715FD0020F0
