S315080200000CE000201D000208310002083100020837
S3150802001031000208310002083100020802F0DAB89B
S31508020020DFF808D002F046F902F0EEB9F8FF001040
S31508020030FEE76E2900F08884702900F0D9856629C2
S3150802004030F0EB81652930F0E881672930F0E581E7
S31508020050612930F0E48103681B0A28BF41F0800158
S31508020060692900F03584642900F03284752900F084
S315080200702F846F2900F06485782900F0A585E9297F
S3150802008000F0FC84E42900F0F984F52900F0F684EE
S31508020090EF2900F06185F82900F0A4850368DB09D9
S315080200A028BF41F08001632901F08E83732901F08C
S315080200B09383E32901F09E83F32901F0A3830020A9
S315080200C07047000040BA7047C0BA704700BEFEE7E4
S315080200D07047704753EA020C00F069802DE9F04B2D
S315080200E04FF00006002B1FBFB3FA83F503FA05F497
S315080200F024FA05F65E4012BF1643B2FA82F502FAF0
S3150802010005F4C5F120051EBF22FA05FC44EA0C04D3
S31508020110203556EA044C4FEA144418BF641C4FF0C3
S3150802012000084FF00009904271EB030C39D30029FD
S3150802013019BFB1FA81F701FA07F6B0FA80F700FAA1
S3150802014007F6C7F120071EBF20FA07FC46EA0C0687
S315080201502037B6FBF4FCA7EB0507103F07F01F0B89
S31508020160CBF120060CFA0BFB2CFA06F644BFB34673
S315080201700026202FA4BF5E464FF0000B5BEA060C52
S3150802018008BF4FF0010B19EB0B09ABFB027C48EBDE
S315080201900608C01B06FB02CC0BFB03CC71EB0C0159
S315080201A0C1E70B46024641464846BDE8F08B13B501
S315080201B04FF000004FF0000100F014FBBDE81C40B0
S315080201C07047B2F120030AD5C2F1200301FA02F1FF
S315080201D020FA03F300FA02F041EA0301704700FA33
S315080201E003F14FF000007047B2F120030AD5C2F1BD
S315080201F0200320FA02F001FA03F321FA02F140EA97
S315080202000300704721FA03F04FF000017047B2F17C
S3150802021020030AD5C2F1200320FA02F001FA03F3F9
S3150802022041FA02F140EA0300704741FA03F04FEA45
S31508020230E171704710B54C1084EA530404D5404264
S31508020240C1F1000138BF491E1B4204D55242C3F10F
S31508020250000338BF5B1EFFF73DFF14F0804F04D042
S315080202604042C1F1000138BF491E14F0004F04D0C4
S315080202705242C3F1000338BF5B1E10BD7CB515465A
S315080202801A460C00009001D02044401E074B7B44BE
S3150802029069460190284600F072FB05461CB100200B
S315080202A0694600F07FFB28467CBD00001D0700005A
S315080202B00A460146014800F0BABD0000D87200108D
S315080202C02DE9F04782460E4614469846DDF82090F8
S315080202D094B1012C0BD04A465046650805FB0867BF
S315080202E03946904700280CD00DDA2C46F0E74A46E4
S315080202F031465046904710B10020BDE8F087304697
S31508020300FBE73846F9E7641B641E07EB0806DFE7D6
S31508020310401ECAB210F8011F8A4202D00029F9D13A
S315080203200020704740EA010310B59B070FD1042A43
S315080203300DD310C808C9121F9C42F8D020BA19BAA0
S31508020340884201D9012010BD4FF0FF3010BD1AB105
S31508020350D30703D0521C07E0002010BD10F8013B5A
S3150802036011F8014B1B1B07D110F8013B11F8014B81
S315080203701B1B01D1921EF1D1184610BD40EA01039A
S31508020380024630B59B0710D14FF0013400E008C28F
S3150802039008C91D1B9D4315EAC41FF8D013F0FF01B7
S315080203A002F8011B0DD01B0AF8E711F8013B002BD6
S315080203B002F8013B05D011F8013B002B02F8013B7C
S315080203C0F3D130BD40EA010370B59B072ED14FF039
S315080203D00136042A2AD308C810C9121F9D1B9D4339
S315080203E015EAC61517D0D8B2E1B2401A50EA056125
S315080203F010D198B2A1B2401A50EA05410AD123F0A7
S315080204007F4024F07F41401A50EA052102D1180E96
S31508020410A0EB146070BDA342DBD018BA21BA884299
S3150802042001D9012070BD4FF0FF3070BD0AB9002016
S3150802043070BD10F8013B11F8014B63B1A3420AD112
S31508020440521E08D010F8013B11F8014B1BB1A3420A
S3150802045001D1521EEDD1181B70BD032A40F230801D
S3150802046010F0030C00F0158011F8013BBCF1020FE5
S31508020470624498BF11F801CB00F8013B38BF11F866
S31508020480013BA2F1040298BF00F801CB38BF00F87D
S31508020490013B11F0030300F06780083AC0F00880B8
S315080204A051F8043B083A51F804CBA0E80810F5E7DE
S315080204B0121D5CBF51F8043B40F8043BAFF30080C1
S315080204C0D20724BF11F8013B11F801CB48BF11F836
S315080204D0012B24BF00F8013B00F801CB48BF00F806
S315080204E0012B7047431A28BF9A427FF6B6AF032AF2
S315080204F01044114440F2268010F0030F1EBF11F873
S31508020500013D521E00F8013D10F0030F7FF4F6AFCD
S3150802051011F0030300F06D80083AC0F00B8051F821
S31508020520043D083A51F804CD40F8043D40F804CD9C
S31508020530FFF7F3BF121D5CBF51F8043D40F8043DB6
S31508020540AFF30080D20724BF11F8013D11F801CD9F
S3150802055048BF11F8012C24BF00F8013D00F801CD6F
S3150802056048BF00F8012C704710B5203AC0F00B803E
S31508020570B1E81850203AA0E81850B1E81850A0E897
S315080205801850BFF4F5AF5FEA027C24BFB1E81850F1
S31508020590A0E8185044BF18C918C0BDE810405FEA61
S315080205A0827C24BF51F8043B40F8043B08BF7047DD
S315080205B0D20728BF31F8023B48BF11F8012B28BFE2
S315080205C020F8023B48BF00F8012B7047431A28BFA0
S315080205D09A427FF6C9AF104410F0030F11441EBFAA
S315080205E011F8013D521E00F8013D10F0030F7FF489
S315080205F0F6AF103AC0F00A8010B531E91850103A31
S3150802060020E91850BFF4F9AFBDE81040530724BFDC
S3150802061031E9081020E9081044BF51F8043D40F8B2
S31508020620043D12F0030F08BF7047D20728BF31F8FE
S31508020630023D48BF11F8012C28BF20F8023D48BFE9
S3150802064000F8012C704702F0FF0343EA032242EA4C
S31508020650024200F002B84FF000020429C0F01280EC
S3150802066010F0030C00F01B80CCF1040CBCF1020F55
S3150802067018BF00F8012BA8BF20F8022BA1EB0C012A
S3150802068000F00DB85FEAC17C24BF00F8012B00F820
S31508020690012B48BF00F8012B70474FF0000200B546
S315080206A0134694469646203922BFA0E80C50A0E885
S315080206B00C50B1F12001BFF4F7AF090728BFA0E833
S315080206C00C5048BF0CC05DF804EB890028BF40F8FF
S315080206D0042B08BF704748BF20F8022B11F0804F41
S315080206E018BF00F8012B704710B5044610F0030F27
S315080206F008BF11F0030F40F015804FF0013E121F9C
S31508020700C0F20E8051F8043BA3EB0E0C2CEA030C44
S315080207101CEACE1C08BF40F8043BF0D0A1F1040144
S3150802072002F10402521E08DB11F8013B002B00F805
S31508020730013BF7D11146FFF78EFF204610BD000098
S315080207404FF0013C50F8042B51F8043B9A4221D150
S31508020750A2EB0C03934313EACC1317D150F8042BDC
S3150802076051F8043B9A4215D1A2EB0C03934313EAC0
S31508020770CC130BD150F8042B51F8043B9A4209D1F9
S31508020780A2EB0C03934313EACC13DBD04FF0000021
S31508020790704700BFD01A01BAB1FA81F101F0180107
S315080207A022FA01F0CB40C1F12001DBB2C0B2C01A75
S315080207B02CFA01F3D11A914311EAC311E6D1704713
S315080207C070B5064C7C44064D7D4403E020682044FF
S315080207D08047241DAC42F9D170BD0000BC8F0300CE
S315080207E0C08F03002CF014B8004870470473001039
S315080207F010B500F0A7FB006810BD10B5044600F05E
S31508020800A1FB046010BD70B5044685690068C1067F
S3150802081001D5302600E02026C00708D070BDD4E9ED
S31508020820012130469047206A00F1010020626D1EC0
S31508020830F5D570BD70B5044685690068C00708D14C
S3150802084070BDD4E9012120209047206A00F10100F9
S3150802085020626D1EF5D570BD09684A0501D540B2FC
S315080208607047C905FCD500B2704709684A0501D523
S31508020870C0B27047C905FCD580B2704770B5054647
S315080208800C46012A05D02868800600D5EA690023A5
S3150802089002E0012305E05B1C934202D2E05C0028D9
S315080208A0F9D1A869E618C01AA861286A1844286204
S315080208B02846FFF7A8FF04E0D5E9012114F8010B41
S315080208C09047B442F8D32846FFF7B4FF70BD00003C
S315080208D02DE9F0410746002510687529394616A400
S315080208E011D0FFF7B9FF002803DAC0F1000013A4FC
S315080208F007E039688A0701D511A402E0490704D539
S3150802090010A4012501E0FFF7B0FF00210A2307F131
S31508020910240607E0B0FBF3F203FB120030307054F2
S315080209201046491C0028F5D12B4622463846BDE812
S31508020930F04100F050BB0000000000002D0000004E
S315080209402B0000002000000011680268006A5305A7
S3150802095001D508700BE0D30501D5088007E0130618
S3150802096003D5C217C1E9000201E052060860012058
S315080209707047000001694A1C02610878704700B591
S315080209808FB0CDE901310021059105497944CDE9B8
S3150802099003101146684600F037F90FB000BD000093
S315080209A0E5FFFFFF0A6802F8010B0A607047D1E902
S315080209B000239A4202D2531C0B6010707047000043
S315080209C02DE9FF5F04468A461546DFF8AC80F844EF
S315080209D00027D8E900103E46CDE9001011E03AF8A2
S315080209E016106A4602A800F011FF411C07D02168BA
S315080209F0890603D5E269391891420ED8074406F1E9
S31508020A0001062068800602D5E069B84205DDAE42D5
S31508020A10E5DB3AF816000028E1D1A069C01BA061FF
S31508020A202046FFF7F0FED8E90010CDE900100020B5
S31508020A3016E03AF818106A4602A800F0E7FE814660
S31508020A40401C0BD000250DF1080B05E0D4E9012165
S31508020A501BF8050090476D1C4D45F7D308F10100B8
S31508020A60B0428046E5DB206A384420622046FFF71A
S31508020A70E1FEBDE8FF9F0000EE6E03002DE9F0419E
S31508020A808046D21D22F007020026D2E90002F52985
S31508020A9014A512D0002A06DA0023D0EB030063EB72
S31508020AA0020211A508E0D8F800108B0701D50FA598
S31508020AB002E0490701D50EA501261146002408F1D0
S31508020AC0240704E000F042FA30323A55641C50EA30
S31508020AD00102F7D133462A4621464046BDE8F0418F
S31508020AE000F079BA000000002D0000002B0000007B
S31508020AF02000000030B4002100F124040CE002F0CA
S31508020B00070505F130054FEAD20242EA43726554F7
S31508020B1001F101014FEAD30352EA0305EFD1046852
S31508020B20002310A2250708D504F020040C4304D09C
S31508020B30C46901230CA2641EC46130BC00F04BBA1E
S31508020B4010B5044621461068FFF78FFE0246204676
S31508020B50BDE810400023CDE7D21D22F00701D1E9F6
S31508020B600023C7E70000000030000000F0B40F467B
S31508020B700168090502D5234C7C4402E0214C7C44D9
S31508020B800E34002100F124050BE002F00F064FEAAD
S31508020B901212A65D42EA03724FEA13136E5401F16A
S31508020BA0010152EA0306F0D122460468002324070B
S31508020BB004D5702F05D009B111320223F0BC00F01A
S31508020BC00ABA10320123F9E770B504460D462146E2
S31508020BD01068FFF74AFE024629462046BDE87040DD
S31508020BE00023C3E7D21D22F00703D3E90023BDE79A
S31508020BF00368126843F0200303600823C3610023D5
S31508020C00B4E700004C6D03002DE9F05F04468946FF
S31508020C104FF0000ADFF878B1FB44C0F820A020465E
S31508020C20E1688847002875D0252806D0D4E901212D
S31508020C309047206A401C2062F1E700265F4620465C
S31508020C40E16888472028054608DB312D06D207EBDE
S31508020C50050010F8200C08B10643F0E7B00701D5E5
S31508020C6026F00406C4F81CA00027C4F818A02A2DEA
S31508020C7009D028462BF0F5FD38B304EB8708303D3A
S31508020C80C8F8185019E059F8041B204604EB8702E5
S31508020C909161E1688847012F054618D1E069002865
S31508020CA020DA26F020061DE0D8F8180000EB8000AE
S31508020CB005EB40003038C8F818002046E168884736
S31508020CC005462BF0CEFD0028EED1012F0AD02E2D97
S31508020CD008D12046E16888477F1C0546022F46F060
S31508020CE02006C4DBA069002803DA404246F0010662
S31508020CF0A061F00701D026F010066C2D0BD0682DE6
S31508020D0009D04C2D39D06A2D35D0742D35D07A2D8F
S31508020D1033D016E038E0E1682F4620468847B842C5
S31508020D20054609D16C2F26D04FF48060E168064348
S31508020D3020468847054604E06C2F1AD04FF4807087
S31508020D4006430DB3A5F14100192802D8203546F409
S31508020D5000664A462946204626604E46FFF769F946
S31508020D6080B101280BD0F61D26F0070000F108090C
S31508020D7055E74020E4E78020D8E70020D6E706F1C9
S31508020D8004094CE7284651E7206ABDE8F09F0000AF
S31508020D90D46C030070B50646484231EA00000FD00B
S31508020DA02A20741C0025307000F0C8F8034600207B
S31508020DB053F82520110F120109292BD957312AE098
S31508020DC0042913D004DC012908D0022904D109E038
S31508020DD008290FD0102911D0002070BD00F0AEF8F6
S31508020DE000680EE000F0AAF840680AE000F0A6F8EB
S31508020DF0806806E000F0A2F8C06802E000F09EF8FB
S31508020E00006928B120F0030050F8041C084470BD9C
S31508020E1048A070BD3031401C082804F8011BC9DB04
S31508020E206D1C052DC3DB00202070304670BD2DE9F0
S31508020E30F04709B14B0902D00020BDE8F08732B16C
S31508020E4013782A2B06D0BDE8F04700F025B8BDE88E
S31508020E50F0479FE7551C81460F464FF001080024CC
S31508020E600026314615F8010B392801D8303800E03A
S31508020E705738491C082940EA0616F3DB08FA04F033
S31508020E80384203D000F05AF840F82460641C052C56
S31508020E90E6DB39464846DAE72DE9F04106460C46CE
S31508020EA0154688070AD51146234878442DF084FE4C
S31508020EB007003CD000F042F87F1C4760E0070AD0E2
S31508020EC029461D4878441A38AFF3008007002ED009
S31508020ED000F034F8076060070AD5294616487844B0
S31508020EE03438AFF30080070021D000F027F8876076
S31508020EF020070AD52946104878444E382DF046FE72
S31508020F00070014D000F01AF8C760E0060AD5294689
S31508020F10094878446838AFF30080050007D000F026
S31508020F200DF8056121463046BDE8F04132E7BDE8D5
S31508020F30F081000043000000A687030000487047BE
S31508020F4008730010004870471C73001030B5B0F1E2
S31508020F500A024FEA900E71F100034EEA817EB0EB67
S31508020F600E0061EB91014FEA101E4EEA017E10EB6C
S31508020F700E0041EB11114FEA102E4EEA016E10EBEC
S31508020F800E0041EB11214FEA104E4EEA014E10EBCC
S31508020F900E0041EB1141401841F100014FEAD00021
S31508020FA040EA41704FEAD10110EB80054FEA81040D
S31508020FB044EA907444EB01046D1944EB0404521B91
S31508020FC0A3414FF0000348BF0A3200D530BD401C8A
S31508020FD041F1000130BD2DE9F0470D46044692461F
S31508020FE0994600F124080168880604D5E06921F0CB
S31508020FF01001216000E00120A84202DDA0EB0507EE
S3150802100000E00027A16907EB050202EB0900A1EB44
S315080210100000A0612068C00602D42046FFF7F3FB51
S31508021020002608E0D4E901211AF806009047206A4A
S31508021030401C761C20624E45F4DB2068C0060AD5A1
S315080210402046FFF7E0FB06E0D4E90121302090476D
S31508021050206A401C2062381EA7F10107F4DC07E06B
S31508021060D4E9012118F805009047206A401C20623D
S31508021070281EA5F10105F3DC2046FFF7DBFB2068F5
S31508021080000602D50220BDE8F0870120FBE770477B
S315080210902DE9FF4F0C461E464FF0FF378BB0D2E9BB
S315080210A00001DDF860800A908A46C1F30A5505B93F
S315080210B03D46002108464FF00000BAF1000F00F441
S315080210C0400005DA00EB80004FF4400101EA5000C7
S315080210D04FEA9059B9F1010F00DDB9460A9850EA6C
S315080210E04A000FD044F61050A5F2FF3545432F1497
S315080210F0B8F1000F1FD07542291E1FDD4846C9F1F7
S3150802110000021CE0B8F1010F4FF0000001D1F243D2
S3150802111007E0302101E02154401CB042FBDB304697
S315080211200022002121540B99C1F80880C1E9002048
S315080211300FB0BDE8F08FBD1B6D1CDDE74A4600DA2D
S31508021140694206A800F0CAFB06AB07CB03AB07C386
S3150802115050460A9900F034FC8DE80700A0F50050C5
S315080211601F3800900398002D09DD42F21F014A46F6
S31508021170084403A90390684600F093FE08E0A0F528
S3150802118000504A461F3803A90390684600F09DFEA0
S315080211908DE807000004000C03D04FF0FF30410829
S315080211A000E01046B8F1000F03D00022009215465F
S315080211B01FE0751E06D4FFF7C9FE02F1300262551A
S315080211C06D1EF8D5B3460122084302D000227F1CC1
S315080211D004E02078302801D100227F1E002A0997D0
S315080211E086D01DE0112D07DAFFF7B0FE30326255C0
S315080211F06D1C50EA0102F5D108430FD10021681E81
S3150802120005E0235C625C6354491C2254401E8142F9
S31508021210F7DBAB46A81B401E099001E0009848B1CF
S31508021220002004F80B000B98099AC0F80880C0E958
S31508021230002B7DE711264FF0000859E72DE9F04FFC
S3150802124088460446D21D22F0070191B0D1E9000171
S31508021250CDE90A012AF0A9FC02460B98C00F01D073
S315080212602D2007E02068810701D52B2002E02021E6
S3150802127001EAC000032A099001D0072A05DB0346C2
S315080212804146204600F0EAFA0EE12068800601D5BA
S31508021290E06900E00620B8F1650F814606D0B8F18C
S315080212A0660F18D0B8F1670F72D132E00020B9F193
S315080212B0110F009001DB112301E009F101030AAACB
S315080212C001A90CA8FFF7E4FEDDE90C70002609F176
S315080212D00105834648E001204B4600904FF000473F
S315080212E00AAA01A90CA8FFF7D3FEDDE90C050E9997
S315080212F00026AB4619B909F1010100EB0105B9EB64
S31508021300050003D4C0F1FF3609F10105A5EB090072
S315080213102BE0B9F1010F01DA4FF001090020B9F10A
S31508021320110F0090484601DD112300E003460AAA80
S3150802133001A90CA8FFF7ACFEDDE90C704D460026A4
S315080213408346206800070AD4AB4500DA5D4601A841
S31508021350012D04DD411911F8011C302907D04F452A
S3150802136002DA17F1040F04DA0120824610E06D1E34
S31508021370EEE7002F02DCED1B3E4403E0781CA84290
S3150802138000DD0546A7EB060000F1010A4FF000470B
S315080213902068000703D4AA4501DB4FF0FF3A002173
S315080213A0B7F1004F0DF143088DF8431022D0022001
S315080213B02B23002F01DA7F422D230A22011EA0F1D8
S315080213C0010000DC4FB197FBF2F102FB117C0F46DC
S315080213D00CF1300C08F801CDF0E7A8F10100037012
S315080213E02168090501D5452100E06521A0F101081A
S315080213F000F8011C09980FA9A1EB080707F10707CE
S3150802140000B1012000EB050101EBEA70A16938443D
S31508021410A1EB0000A0F10100A0612068C00602D479
S315080214202046FFF7F0F9099830B1D4E9012190472F
S31508021430206A00F1010020622068C00620D52046F5
S31508021440FFF7E1F91CE0002E04DBB34502DD01A833
S31508021450805D00E03020D4E901219047206A761C9D
S31508021460401CBAF1010A20620AD1FFF767FDC0687B
S315080214700168405CD4E901219047206A401C206239
S31508021480281EA5F10105DEDC07E0D4E9012118F8DA
S31508021490010B9047206A401C2062381EA7F10107FB
S315080214A0F3DC2046FFF7C6F9022011B041E6000038
S315080214B02DE9F04F04460D46D21D22F0070089B0E9
S315080214C0D0E900924846174639462AF06EFB02468C
S315080214D0F80F01D02D2307E02068810701D52B23B9
S315080214E002E0202101EAC0038DF820300BB1012069
S315080214F000E00020032A824601D0072A04DB294697
S31508021500204600F0ABF941E12068800601D40D259A
S3150802151000E0E569C7F30A560D2D4ADA00214FEABB
S31508021520175B08464FF00000002F00F4400007DA68
S3150802153000EB80004FF4400100EBD07001EA600036
S315080215404FEAA05CBCF1010F01DD4FF0FF3CAB0096
S315080215500021182B06D30A46A3F118004FF0805132
S31508021560C14002E04FF48012DA400C33202B03D339
S31508021570203B09FA03F001E007FA03F0BCF1000F79
S315080215804FF0004801DD18B913E012D1404510D3D7
S3150802159019EB01095741BCF1000F05D1404503D1AA
S315080215A013469F4329EA0109BBEB175F01D006F1EF
S315080215B001062068000502D57C48784402E07B488B
S315080215C07844193808AB302203F80A20027C0AF15B
S315080215D00101002E0AF1020A5A54694602DC4FF04A
S315080215E0300201E04FF031024FF001088DF8002079
S315080215F002D0A6F2FF3603E059EA470200D06C4E43
S31508021600002D02DC2268120704D54FF002082E22AA
S315080216108DF80120C44600230BE0C7F303423F01BD
S31508021620825C5B1C6D1E01F80820052B08F1010877
S3150802163001DA002DF1DC00220CE000EB1973521CD2
S315080216401B786D1E082A01F8083008F101084FEACE
S31508021650091901DA002DF0DC2268920602D514E097
S31508021660A8F10108E04505DD01EB080212F8012C94
S31508021670302AF5D0B8F1000F07DD01EB080212F89F
S31508021680012C2E2A01D1A8F10108002D05DD3E22E2
S3150802169001F808206D1E08F10108407C002E01F8A9
S315080216A0080008F1010806DA2D2001F8080076423A
S315080216B008F1010804E02B2001F8080008F10108E6
S315080216C00A274FF47A739E420ADB96FBF3F000F17F
S315080216D0300203FB106601F8082008F1010801E050
S315080216E0642E0BDB642396FBF3F000F1300203FB56
S315080216F0106601F8082008F1010801E00A2E07DB46
S3150802170096FBF7F000F1300001F8080008F101082D
S3150802171096FBF7F007FB106000F1300001F80800AD
S31508021720A16908F1010808EB050202EB0A00A1EB20
S315080217300000A0612068C00602D42046FFF763F8BD
S31508021740216A08AE01EB0A00206204E0D4E901210D
S3150802175016F8010B9047BAF1010AF7D22068C006BB
S3150802176002D52046FFF74FF86E4609E016F8010B38
S315080217703E280FD0D4E901219047206A401C2062F6
S31508021780B8F10108F2D22046FFF754F809B0022050
S31508021790BDE8F08F206A2844206203E0D4E90121DB
S315080217A0302090476D1EEBD3F8E700000D65030065
S315080217B002FCFFFF10B5436913B1AFF3008001E0E5
S315080217C0FFF75CF8012010BD126800F124010A70C7
S315080217D000224A700122EDE711684FF0FF32E9E76D
S315080217E010B5436913B1AFF3008001E0FFF7E8F8DB
S315080217F0012010BD126800F1240182840022C284ED
S315080218000122EDE711684FF0FF32E9E770B50546A8
S315080218100C46164600F01AF8036893F801010128E7
S3150802182006D0FF2C0FD8185D68B101202C7070BD48
S31508021830D3F807013246214603442846BDE87040DC
S3150802184003F2071318474FF0FF3070BD10B5FFF7C4
S3150802185075FB001D10BD00BF61D302002DE9F041E2
S3150802186004461F4603260168072A01F4006004DBC2
S3150802187008B116A505E016A503E008B115A500E00E
S3150802188015A521F010002060A069C01EA0610FB145
S31508021890401EA0612046FEF7B6FF4FB1D4E90121EA
S315080218A038469047206A401C2062C01C206206E027
S315080218B0206AFAE7D4E9012115F8010B9047761E4A
S315080218C0F8D22046FEF7B6FFBDE8F0814E414E003B
S315080218D06E616E00494E4600696E66002DE9F04754
S315080218E0814616468AB035487844D0E9002380688E
S315080218F00092CDE90130314878440C38D0E9022308
S31508021900006903924FF03702CDE9043041F69B3065
S31508021910014491FBF2F0A0F1800502FB10141B3C76
S3150802192002D56442012000E00020DFF890A080463C
S315080219300027FA44AAF1C60A0DE0E00709D03246A2
S31508021940684607EB47010AEB810100F0BEFA8DE80B
S31508021950070064107F1C002CEFD1184F7F44B43F58
S3150802196017E0E80713D007EB04100DF1180A90E800
S315080219700E00AAE80E00C068F04201D19819089034
S31508021980324606A903A800F0A0FA03AB07C36D10F6
S31508021990641C002DE5D132466946B8F1000F03A84A
S315080219A002D000F07EFA01E000F08FFAC9E90001E0
S315080219B0C9F808200AB0BDE8F08700007062030083
S315080219C05FEA400C08BF91F0000F4FEA8C234FEAFA
S315080219D0C12243EA51514FEA1C5018BF00F5F040A4
S315080219E04FEA300018BF41F000415FEA6C5C00F034
S315080219F02980BCF1FF3F08BF40F080407047130CB6
S31508021A0006BF12044FF0100C4FF0000C130E04BF61
S31508021A1012020CF1080C130F04BF12010CF1040C8C
S31508021A20930F04BF92000CF1020CD30F04BF5200AD
S31508021A300CF1010C11464FF00002A0F11F00A0EBB9
S31508021A400C00704711F0004F08BF704731F0004193
S31508021A503FF4D5AF0B0C06BF09044FF0100C4FF03C
S31508021A60000C0B0E04BF09020CF1080C0B0F04BF85
S31508021A7009010CF1040C8B0F04BF89000CF1020C4E
S31508021A80CB0F04BF49000CF1010CCCF12003A0EBEB
S31508021A900C0022FA03F302FA0CF241EA030100F1FE
S31508021AA00100704720F07F4C80EA030023F07F474D
S31508021AB0ACEB070303F57C5300F0004003F1FF0388
S31508021AC02DE980494FEA154B09B44FEA144325EA32
S31508021AD00B4E24EA03480FF2042606EB132749089D
S31508021AE03E785FEA320203FB0667C7F5000707FB83
S31508021AF006F64FEA54374FEAD64606F1020607FBC0
S31508021B00066CCCF1005C4FEA1C472CEA074C07FB33
S31508021B1006F40CFB06F504EB15464FEA961634BF97
S31508021B2000204FF000404FEAD13706FB07FC4FEA88
S31508021B301C4C0CFB0BF7D21B03FB0CF761EB0701E2
S31508021B400CFB0EF7B0EB074072EB17420CFB08F7DB
S31508021B5034BFA2EB0742B2EB074261EB17414FEAE9
S31508021B600C444FEA910706FB07FC4FEA1C4C0CFB98
S31508021B700BF7B0EBC74072EB573203FB0CF734BFD7
S31508021B80A2EBC742B2EBC74261EB57310CFB0EF729
S31508021B90B0EBC70072EB57720CFB08F734BFA2EB27
S31508021BA0C702B2EBC70261EB5771039F4FEA816125
S31508021BB041EA921104EBCC044FEAD1374FEA82622A
S31508021BC006FB07FC42EA90124FEA80604FEA1C4C79
S31508021BD00CFB0BF7D21B03FB0CF761EB07010CFBA3
S31508021BE00EF7B0EB074072EB17420CFB08F734BF4F
S31508021BF0A2EB0742B2EB074261EB17414FEA8C555B
S31508021C004FEA910704EB9C2406FB07FC4FEA1C4C9F
S31508021C100CFB0BF7B0EBC74072EB573203FB0CF722
S31508021C2034BFA2EBC742B2EBC74261EB57310CFB9A
S31508021C300EF7B0EBC70072EB57720CFB08F734BF0E
S31508021C40A2EBC702B2EBC70261EB577115EB4C2543
S31508021C504FEA816141EA92114FEA82624FEAD1372D
S31508021C6042EA901206FB07FC44F100044FEA806040
S31508021C704FEA1C4C0CFB0BF7D21B03FB0CF761EB70
S31508021C8007010CFB0EF7B0EB074072EB17420CFB91
S31508021C9008F734BFA2EB0742B2EB074261EB1741E2
S31508021CA015EB1C154FEA813141EA92414FEA82321D
S31508021CB042EA90424FEA80304FEA0C7644F1000439
S31508021CC048EA03434EEA0B484FF0000EB2EB080C03
S31508021CD071EB030724BF624639464EEB0E0E4FF0F0
S31508021CE0000B0018524149414BEB0B0BB2EB080CA7
S31508021CF071EB03077BF1000B24BF624639464EEBB4
S31508021D000E0E4FF0000B0018524149414BEB0B0BDC
S31508021D10B2EB080C71EB03077BF1000B24BF62469A
S31508021D2039464EEB0E0E51EA020718BF46F0010677
S31508021D3016EB0E7655F1000254F1000103D5BDE803
S31508021D408901BDE80088BDE88901BDE80048B619E1
S31508021D50524141EB0101A3F10103704780807F7E66
S31508021D607D7C7B7A79787776767574737271717001
S31508021D706F6E6E6D6C6C6B6A6A69686867666665B3
S31508021D806464636362616160605F5F5E5E5D5D5C41
S31508021D905C5B5B5A5A5959585857575656555555B2
S31508021DA05454535352525251515050504F4F4F4E12
S31508021DB04E4D4D4D4C4C4C4B4B4B4A4A4A49494960
S31508021DC048484847474747464646454545444444A2
S31508021DD0444343434342424242414141002B26D4B3
S31508021DE0770021D01CB54FEA370703B44FF010002D
S31508021DF04FF010014FF000000FBCBDE810400BF188
S31508021E00010BBBF1010F08BF5FEA170722BF12F1E8
S31508021E10010211F101014FF0004143F1000300F004
S31508021E20004043EA00007047F9D35708DAE746EA62
S31508021E30064613F1400F4FEA16461FDD13F1200F2F
S31508021E40DFBF16430A46002120335B42C8D0C3F1DE
S31508021E50200746EA064602FA07F74FEA164646EA10
S31508021E600706C3F1200722FA03F201FA07F721FA55
S31508021E7003F14FF0000342EA0702B1E746EA020617
S31508021E8046EA06464FEA164646EA0106BCBF46EA4F
S31508021E900646360C4FF000034FF000024FF00001E1
S31508021EA09EE72DE9C048934630B491E8380007C842
S31508021EB031EA400C48BF34EA430C03D5FFF7F2FD7A
S31508021EC0FFF78CFFF0BCBDE800882DE9C0489346B1
S31508021ED030B491E8380007C810F0804F08BF13F0F5
S31508021EE0804F03D100F005F8FFF778FFF0BCBDE894
S31508021EF0008820F07F4780EA030023F07F4C07EB37
S31508021F000C03A3F57C5300F00040A3F1FE0392F004
S31508021F10000F00F0B38095F0000F00F077802DE9EE
S31508021F2001494FEA11404FEA144621EA004800FBEC
S31508021F3006FC24EA064708FB06F607FB08F800FB38
S31508021F4007F718EB06484CEB164C4FEA124B18EB00
S31508021F5007484FEA15464CEB174022EA0B4E0BFB95
S31508021F6006FC25EA06470EFB06F607FB0EFE0BFBEA
S31508021F7007F71EEB064E4CEB164C4FF000061EEB0F
S31508021F80074E4CEB174B18EB0B0840F1000018EB09
S31508021F900E0B58EB000840F100008F1A4FF00001B3
S31508021FA03CBFC943661B14BFB5EB040C00213CBFFA
S31508021FB0C943F61B4FEA17444EEA8E0E27EA044532
S31508021FC04FEA1C4704FB07622CEA074C05FB07F796
S31508021FD00CFB05F604FB0CFC16EB074642EB174214
S31508021FE016EB0C4642EB1C421BEB060658EB0202AA
S31508021FF0414146EA9E0601D5BDE80189B619524114
S3150802200041EB0101A3F10103BDE801894FEA144539
S315080220104FEA114724EA054621EA074C05FB07F46D
S3150802202006FB07F70CFB06F105FB0CFC11EB074157
S3150802203044EB17444FEA124711EB0C4144EB1C449C
S3150802204022EA074C05FB07F206FB07F70CFB06F626
S3150802205005FB0CFC16EB074642EB174216EB0C4641
S3150802206042EB1C456A1854F1000148BF7047B6197D
S31508022070524141EB0101A3F10103704795F0000FAC
S3150802208037D04FEA11424FEA144721EA024624EAB8
S31508022090074C02FB07F106FB07F70CFB06F402FBEB
S315080220A00CFC14EB074441EB17414FEA154714EBB6
S315080220B00C4441EB1C4125EA074C02FB07F506FBDB
S315080220C007F70CFB06F602FB0CFC16EB074645EB7C
S315080220D0174516EB0C4645EB1C42121951F1000145
S315080220E048BF7047B619524141EB0101A3F10103FA
S315080220F070474FEA14454FEA114724EA054621EA92
S31508022100074C05FB07F106FB07F70CFB06F24FF037
S31508022110000605FB0CFC12EB074241EB174112EBDA
S315080221200C4251EB1C4148BF7047921841EB010122
S31508022130A3F1010370470000814208BF704702F00D
S31508022140030332F0030205D050F804CB41F804CB5E
S31508022150121FF9D1002BD8BF704710F8012B5B1E4E
S3150802216001F8012B002BF8DC704701F0030231F06D
S3150802217003014FF0000303D040F8043B091FFBD1CB
S31508022180002AD8BF704700F8013B521E002AFADC23
S31508022190704710B507480849084AFFF7CDFF0848AF
S315080221A00849094AFFF7C8FFBDE810400748084929
S315080221B0DBE70000142C07080000002000000000DE
S315080221C0702D070800000010000700000007001025
S315080221D0D06E0000FDF724BF3E4A0020116841F484
S315080221E080311160116800F1010011F4003F02D13B
S315080221F0B0F5A06FF6D1106810F4003F08BF70471B
S315080222003548016841F0805101603448016841F45B
S3150802221080410160324801680160016841F4004169
S315080222200160016841F4A0510160031F2D4919603C
S31508022230116841F080711160116811F0007FFBD0BE
S31508022240294A40F205611160016821F00301016023
S31508022250016841F002010160016801F00C010829D8
S31508022260FAD1704772B6012120484160082181607F
S315080222701F48016821F4027101601E48016841F491
S31508022280FE6101601348016841F001010160144AC8
S3150802229000211160026822F4102222F08072026084
S315080222A0031D154A1A60026822F480220260134846
S315080222B0016091E710B5FFF7D5FF02F019F9BDE8FD
S315080222C01040FFF766BF10B5FFF7CCFFBDE8104018
S315080222D002F00EB900380240403802400070004051
S315080222E00838024019544007003C0240002004E026
S315080222F014ED00E0FCED00E0103000240C3802403A
S31508022300EFF3108272B602607047016881F3108893
S315080223107047EFF30581006809B14FF00100704775
S31508022320016881F31088704772B670470168EFF347
S31508022330108281F3108800BF82F310887047EFF38A
S315080223401080EFF3058180F0010009B14FF000001B
S315080223507047EFF3108072B680F001007047EFF312
S31508022360108062B680F001007047EFF3108172B6F2
S3150802237001607047016881F310887047704770479B
S315080223801B49088810F0010F1A4809D04FF6FE7249
S315080223900A80D0E902120B1C42F10101C0E902319E
S315080223A015490968D0E9023C41EA030061467047CB
S315080223B030B583B0044600216846FFF7A1FFFFF750
S315080223C0DFFF05462046FFF7DAFF032894BF0024FD
S315080223D0C41EFFF7D5FF401BA042FAD96846FFF78D
S315080223E094FF03B030BDA8214843401F00F01EB930
S315080223F0100C004028000010240C00408068406839
S31508022400704780688068704710B584B06FF0030023
S3150802241032496844884228BF314A03D340F804291E
S315080224208842FBD2304C2F4860603048A06000F0EA
S315080224303BFD2F482F490844A1680844A06003F0D1
S3150802244039FD206000F0CBFF02F0E8FE01F068F8E3
S315080224500020009001230322042127A000F040FC5B
S315080224602BA32EA2304931A000F03AFC364937A0F8
S3150802247000F036FC01A902A800F00AFDDDE9011008
S31508022480FEF7E9F838A02BF003FA274937A02BF014
S31508022490FFF938A135A02BF0FBF920A138A02BF0C3
S315080224A0F7F91BA136A02BF0F3F901214EF66020AD
S315080224B004F099FC0121022004F040FE012108469D
S315080224C004F08FFC03F006FC30A02BF0E1F938A0EB
S315080224D02AF08AFF06F02AFC04B010BD00E00010BC
S315080224E00DF0ADBA0000020800000010142C050019
S315080224F000000000000700002E4E65744D46207647
S3150802250025642E25642E25642E25640D0A000000F6
S3150802251031363A33383A3334000000004A756C20B3
S315080225203134203230313500F805050825732C2060
S315080225304275696C6420446174653A0D0A0925730B
S315080225402025730D0A0000000E45060041524D2053
S31508022550436F6D70696C65722076657273696F6E0A
S315080225602025640D0A0000000C000000252D3135D7
S31508022570730D0A004275696C6420446174653A00F9
S315080225802020252D3133730D0A0000000C6D616978
S315080225906E2065786974656421213F3F3F2E2020AD
S315080225A048616C74696E67204350550D0A00000035
S315080225B06D61696E2065786974656421213F3F3FC4
S315080225C02E202048616C74696E67204350550D0AA7
S315080225D00000000010B503F0C3F9BDE8104006F08C
S315080225E0A5BB000004B02DE9FF0F6846EFF305818D
S315080225F0FFF7F0BF81B000B52DE9FF5F6846EFF33C
S315080226000381C163AFF3008010B582B0044600218E
S315080226106846FFF775FE0021204603F0A1F906F089
S3150802262085FB6846FFF771FE02B010BD001FFDDC90
S31508022630F7460000034951F82020521E41F820208F
S315080226407047000040070010034951F8200000288F
S31508022650CCBF01200020704740070010034951F8FB
S315080226602020521C41F82020704700004007001025
S3150802267030B40024002A17DD0B5D4FF0080CDD0983
S3150802268045EA4000C0B210F0800F18BF80F009007A
S315080226905B061B0EACF1010CBCF1000FEFDC641CEF
S315080226A000F07F00A242E7DC07214006000E10F088
S315080226B0800F18BF80F00900491E0029F5DC30BCDE
S315080226C000F07F00704700002DE9F04F8046C648AB
S315080226D0C6499BB0081AC01C16904FEA1860179094
S315080226E01FFA88F04FF0000B18904FF0000A0EF010
S315080226F0FBFE012303220421BDA0CDF800B028F079
S3150802270025FF09F0F9FCC3A028F020FFC54CC4F840
S31508022710008018F0D7FB0028C0F21C81C2A028F05E
S3150802272015FFC8F3074020B1C348016841F00041CC
S315080227300160C14818F0C0FB0028C0F20B81BFA097
S3150802274028F004FF10F044FD01202071DFF8D4922E
S31508022750BFA028F0FBFE1698A34920F00307A34D55
S315080227600C4601AA684610F02BF900281CBF0098EF
S31508022770002808D0C26880688168104688470068C1
S3150802278010F0020F0FD0002000283EDB2A46214611
S31508022790B3A028F0DBFE291B0022204602F0B6F978
S315080227A0B749086027E00C21384609F099FC06006B
S315080227B008BF4FF07A40E7D0DDE900C10346DCF8EE
S315080227C00C00DCF808C03A46DCF80CC0E0470028E2
S315080227D00EBF4FF077403446F519D5D0D3E76A468F
S315080227E02146484628F0DAFD00280EDB606E2044B2
S315080227F0C01C20F0030404F17C00A84204D220463F
S3150802280029F0FEF80028EAD100200028C0F29E80AE
S315080228109CA028F09BFE50210AA816F099FA18B92E
S31508022820A1A028F093FE6DE01398C26880688168BB
S31508022830104688470AAC7C26B4E80E108DE80E10BE
S315080228400EACB4E80E1004ACA4E80E10DDE91212C0
S31508022850CDE908120068CDF850B0C0F340044CB96F
S315080228600121304609F060FC1490002845D0314613
S31508022870FDF7F1FE7742324614A9684616F0CDFBFB
S3150802288080B3149D284629F083F858B3686EC01C95
S3150802289020F003052CB90C21284609F021FC1590D5
S315080228A0F8B101223946684616F00EFC2A4615A9E1
S315080228B0684616F0B2FBA8B1159D284629F0A0F87D
S315080228C058B186A028F042FE19AA2946484628F099
S315080228D065FD002807DA0CB10FE074B9159809F0FE
S315080228E011FC07E005E01998016941F00801016148
S315080228F0C1E714B9149809F005FC0AA816F05CFA9F
S31508022900002891D17CA028F021FE7F4815F0CEFA46
S3150802291000281BDB7D481CF087FD7B4815F076FFF7
S31508022920002813DB7AA028F011FE00210A2004F001
S3150802293024FC0021152002F0A7FA00213E48189A25
S3150802294019F0F6FF75A028F001FE03E0014675A00E
S3150802295028F0FCFD384C206810F0005F17D120687B
S3150802296020F440602060206840F4006020607148CE
S315080229700068006830B10121002300911A46092136
S3150802298009F09CFB1798002818BF11F063F8206815
S3150802299010F0005F20D0A06810F0010F1AD00521B0
S315080229A031EA00000CBF0120002060F3174800201E
S315080229B0FFF7CFFC55481DF0E2F818F093FA1948CC
S315080229C080F804B001F052FA00F0AAFD0020FFF7E1
S315080229D0C6FC8AE606F0F6F9BAF1000F7FF485AE70
S315080229E01BB0BDE8F08F00008C970508142C070869
S315080229F00D0A54696E79434C5220284275696C64F3
S31508022A002025642E25642E25642E2564290D0A0D9B
S31508022A100A0000005374617274696E672E2E2E0DB9
S31508022A200A0000001800001043726561746564208C
S31508022A3045452E0D0A0000002817001053746172CE
S31508022A407465642048617264776172652E0D0A00A6
S31508022A504372656174652054532E0D0A0000000006
S31508022A60204C6F6164696E672073746172742061A9
S31508022A70742025782C20656E642025780D0A0000BE
S31508022A80A00000104C6F6164696E67204465706C23
S31508022A906F796D656E7420417373656D626C6965D5
S31508022AA0732E0D0A000000004552524F523A204337
S31508022AB06F756C64206E6F742066696E6420646537
S31508022AC07669636520666F72204445504C4F594DAE
S31508022AD0454E542075736167650D0A004174746129
S31508022AE06368696E67206465706C6F7965642066D1
S31508022AF0696C652E0D0A00005265736F6C76696EF5
S31508022B00672E0D0A000000005C1A0010E01D001076
S31508022B1052656164792E0D0A00000000446F6E65E5
S31508022B202E0D0A004572726F723A20253038780DDA
S31508022B300A0000009400001030B583B00446002154
S31508022B406846FFF7DDFB0648016801EA04050168E5
S31508022B50A14301606846FFF7D8FB03B0284630BD9B
S31508022B607C00001010B582B0044600216846FFF7C3
S31508022B70C7FB074A116841EA040010605168002938
S31508022B801CBF906888476846FFF7BFFB02B010BDB6
S31508022B907C0000102DE9F04389B00500109E884696
S31508022BA01F467CD0D8F80040002C11BF002A00200E
S31508022BB009B0BDE8F08304F1B000C8F80000A2F13C
S31508022BC00109B0212046FDF768FD002F08BF2F46F0
S31508022BD02760287860606878A0606888E060002EC0
S31508022BE018BF306814D0C4F8980060681B2856D2FB
S31508022BF0DFE800F0551717171717171717171717BC
S31508022C001717171C374141453755555555174F0064
S31508022C10294602A817F07AFB0028A8BF0398E4DB26
S31508022C20E1E7D5E90101C4E9040138E06D688DB12F
S31508022C302846C4F8945000F090F9C4F890007F280A
S31508022C4028BF7F2003462A46802104F1100000F09F
S31508022C5085FB24E00020C4F89400C4F89000207490
S31508022C601DE0686800234A4641460096FFF792FF30
S31508022C7009B0BDE8F0836868C4F898000FE0E86810
S31508022C80C4F89C00E888C4F8A000A868C4F8A400A0
S31508022C9005E06868C4F8A800A868C4F8AC0009B0DA
S31508022CA00120BDE8F08306F009BA0120704708F052
S31508022CB0F3BB10B5002304464022194601F052FB25
S31508022CC0002340228021204601F04CFB012084F893
S31508022CD0CE00D4F82815A07849688847002010BD88
S31508022CE00FB410B503A9029800F078F810BC5DF885
S31508022CF014FBFF2100F092B870B584B00E4600248A
S31508022D000546214602A8FFF7FBFA0021284604F0E9
S31508022D1034FA052006F008F8012E19D000212846B3
S31508022D2002F014FC462005F0FFFF0121284604F0B4
S31508022D3024FA052005F0F8FF02A8FFF7F1FA002C9D
S31508022D4018BF012402A8FFF7E0FA04B0204670BDB6
S31508022D5002200346002200901146284604F054F841
S31508022D60052005F0E1FF284602F0C6FBC4B237206B
S31508022D70D9E706F0CBB9A0F1610119299CBF203821
S31508022D8080B2704708F030BC08F0DCBC10B50446C7
S31508022D90D0F8280500698047032084F8CE00002071
S31508022DA010BD0FB410B504AA039900F0DFF810BCE1
S31508022DB05DF814FB10F8012B412A02D35A2AD8BF10
S31508022DC0203211F8013B412B02D35A2BD8BF2033AC
S31508022DD00AB19A42EED0D01A704700000346034859
S31508022DE00A461946406900F0C1B8000038000010CA
S31508022DF0094B03EBC0034FF0000032B11A5C0A54C8
S31508022E00401CC0B20828F9D370470A5C1A54401C01
S31508022E10C0B20828F9D37047587000102DE9F0415E
S31508022E20002607460D46344605F001013846FFF7E7
S31508022E3063FFA0403043C6B2601C6D10C4B2082CB2
S31508022E40F2D33046BDE8F08110B50C46FFF7E6FF2F
S31508022E50A0420CBF0120002010BD0A2834BF303022
S31508022E603730C0B27047000010B582B00446002160
S31508022E706846FFF745FA05490A6822EA0400086027
S31508022E806846FFF742FA02B010BD00007C00001047
S31508022E90034A02600348801A001D08607047000052
S31508022EA000000020F8FD022010B52DF01EF9044896
S31508022EB002A10068BDE81040FDF7FAB9000000005B
S31508022EC0587605080020704710B50446014605A045
S31508022ED02AF0DEFC214607A02AF086FABDE8104051
S31508022EE0FFF788BB0C4552524F523A0D0A25730D0D
S31508022EF00A0000004552524F523A2025730D0A0025
S31508022F000020704710B5042180F8CE10D0F82805A5
S31508022F10C0688047002010BD07F033B80FB410B55B
S31508022F2005AB049A00F031FA10BC5DF814FB70B5D3
S31508022F3005000B4614461CBF002C002B05D0104674
S31508022F4000F00BF8401C984201D9012070BD2146B9
S31508022F502846FDF713FA002070BD014611F8012B29
S31508022F60002AFBD1081A401E7047000070B51346A6
S31508022F70ADF5007D04460A464FF40071684600F036
S31508022F8004FA04F47F410546B1F5407F0FD006DC0A
S31508022F90B1F5807F18BFB1F5007F1FD107E06E46F5
S31508022FA0B1F5A06F11D0B1F5C06F17D105E0024691
S31508022FB06946204601F0DBFC10E00A48016869B15F
S31508022FC0002070553046884708E00024002D05DDAC
S31508022FD0305D03F04AFB641CA542F9DC0DF5007D61
S31508022FE0284670BD10000010094B0A4A1968491C88
S31508022FF082FB01C24FEAA20CACEBE272524202EB2E
S31508023000820201EB4201044A196042F82100704724
S315080230102403001067666666706F001038B50446AA
S31508023020002104F0AAF84FF4167005F07DFE02217D
S315080230300B46002200911146204603F0E5FE412088
S3150802304005F072FE204602F057FAC4B24FF4BA707F
S3150802305005F06AFE002C0CBF0120002038BD0620B0
S31508023060704700000F4910B50A6812F4807F0FD125
S315080230700A6842F480720A600B490022C1F80423E6
S31508023080CA624A6001228A60084ACA60084A0A6114
S3150802309001F047FE00220423114601F059FE0120E1
S315080230A010BD000044380240002001409224490025
S315080230B09224491230B59FB004460D460021434872
S315080230C0CDE900011AA8694616F0C6FB0EA92046E4
S315080230D002F0AEF9002871DB03A9284602F0A8F926
S315080230E000286BDB9DF8100070B19DF83E000028A1
S315080230F008BF4FF0224061D000222146684612F0EE
S31508023100D7FE00285ADB58E02946684612F066FFC1
S31508023110002853DB9DF83C0003A9A8B19DF81200CC
S3150802312028B90C31684612F009FC002846DBBDF8BE
S315080231300200012818BFFCF7C9FFDDE90001029A5F
S31508023140A260C4E9000138E09DF80000102808D101
S31508023150019830B10278122A03D1407810F0100F84
S3150802316003D02078102822D112E02078102808D11E
S31508023170606830B10278122A03D1407810F0100F35
S3150802318015D00C31684612F0D9FB002816DB0EE082
S31508023190606860B10278122A09D1407810F0100FDF
S315080231A005D10C31684612F093FD002806DB694604
S315080231B0204613F0D3F8002800DB002004461AA89C
S315080231C016F070FB1FB0204630BD0000100001004B
S315080231D07047000010B542694FF4B473526892FB07
S315080231E0F3FC03FB1C220A4B83FB0232A2EBE272BC
S315080231F0002AB8BF3C32074B002903EB820214BFF0
S31508023200B2F90210B2F9001014F076F8002010BDD7
S31508023210ABAAAA2A080605080020704700207047AC
S315080232207047000070B5084E0024306800288CBF2D
S31508023230064D70BD05EBC4004068006880473068DB
S31508023240641C8442F6D370BD040605084C060010B9
S315080232500020704740F28120704700207047002006
S31508023260704700207047704706F0ACBE06F0FCBEF9
S315080232702DE9F04105000E46904601D0072E01DBE6
S31508023280FCF724FF05EB8604206908B1E06B08B158
S31508023290FCF71CFF2369186800F1010CBCF1080F42
S315080232A008BF4FF0000C01219A68002A18BF0027B0
S315080232B00BD15A68624508BF996000EB001003EB10
S315080232C0800000F10C07C3F800C02069B14080688D
S315080232D0C8F800006879FFF71FFE3846BDE8F08196
S315080232E070B504000D46164601D0072D01DBFCF722
S315080232F0EDFE04EB8504206900281ABFE06B00285E
S31508023300FCF7E4FEA6B100202169D1E90032934216
S3150802331002BF8B68002B70BD531C082B08BF002305
S31508023320C1E9013002EB021001EB80000C3070BDDE
S315080233302069D0E900218A4207BF8268002A01EB88
S31508023340011100EB810008BF0020EFD170BD0028F3
S3150802335012BF002901207047FDF734B810B594460C
S315080233601A46002819BFBCF1000F0029012010BD1A
S31508023370541C00238C4282BF0370012010BD835463
S315080233806146FDF7B1F9002010BDFCF777BF70B5AD
S31508023390064615460C4602EB450028F0F3FB3119A2
S315080233A0024600241346002DC8BF2D2612DD0878D2
S315080233B00009FFF752FD03F8010B087800F00F0029
S315080233C0FFF74BFD03F8010B641C491C03F8016B5C
S315080233D0A542ECDC002003F8010C104670BD10B5BE
S315080233E001F094FD012010BD1121016001207047F2
S315080233F02DE9FF4F4FF0000487B05FEA00091F4628
S315080234002646A046059412BF002F0BB0BDE8F08FE2
S31508023410404800680168002908BF0020A8B105686D
S3150802342029001ABF2A68002A0025C26ABA420AD1A6
S315080234304268002A18BF1160002918BF4A60046052
S3150802344044602BF0A5F92800E9D1DFF8CCB00025B5
S31508023450DBF80000002888BFDFF8C0A016D95AF8A2
S31508023460350000281CBF826A002A0AD005A93846F8
S31508023470904730B10AEBC5005AF83560D0F8048097
S3150802348004E0DBF800006D1C8542E8D3002E04BF79
S31508023490012005904FF0000A059800289CBF0BB042
S315080234A0BDE8F08F34202BF075F9050004BF0BB088
S315080234B0BDE8F08F2C606C60AC60EC602C616C61CE
S315080234C0AC61EC612C626C62AC62EC622C63301CFF
S315080234D018BF0120CDF80080CDE903A0CDE9016728
S315080234E0DDE908234946284616F082FC68B12B46D0
S315080234F000220121032000F083FD05980AF1010A42
S315080235008245CFD30BB0BDE8F08F28462BF040F9A1
S31508023510F3E7000000090010040605084C0600102F
S3150802352000B583B013F090FA0DF070FD00200190FB
S315080235300090694601A801F0FFF9DDE9001002F0E2
S31508023540E5FE00F0E1FA00F091FE01F053FC01F00D
S3150802355011F80020FEF703FF0FF05AF903F048FCB2
S315080235600FF09AF9FFF75EFE16F07CFBFFF758FE9E
S3150802357016F0C0FB04F0ACFD00F01EF804F0FCFAED
S3150802358000F015F800F0F4FF01F09EFF00F037FD99
S3150802359000F0ACFF01F0CEF901F0B2FE01F025FA17
S315080235A000F007F803B05DF804EB03F005BC05F07C
S315080235B025BD4FF04A407047012070470A2824BFAC
S315080235C0002070472DE9F0034649474B84250A5CDB
S315080235D0185C5E3303EB8203203153F804CC434B69
S315080235E001EB820103EB820351F8041C53F8043CF5
S315080235F03F4E4FF0FF374FF00108B1F1804F1CBF25
S31508023600A1F18044B4F5806417D0A1F18044B4F5E1
S3150802361000641CBFA1F18044B4F540640DD0A1F149
S315080236208044B4F5C0541FBFA1F18044B4F5E054F8
S31508023630A1F18044B4F5005413D12E4CD4F800906D
S3150802364019EA030F30D1D4F8009049EA030323603C
S315080236500D80BCFBF6F307EB43030B85A1F8148038
S3150802366022E0254CD4F8009019EA030F1CD1D4F8AD
S31508023670009049EA030323600D80BCFBF6F307EBCF
S3150802368043030B85A1F81480A1F18043B3F5803377
S315080236901CBFA1F18043B3F5823305D1B1F844309A
S315080236A043F40043A1F844300023022A18BF052A2E
S315080236B001EB80020CBF53639386682310F0010F57
S315080236C018BF4FF4D04301F1180210F0020F18BFC9
S315080236D001F11C02108818431080BDE8F00301208E
S315080236E070470000546E05085E6E0508F46E0508FC
S315080236F040420F004038024044380240002808BFC2
S31508023700704730B583B004460D4600216846FEF779
S31508023710F7FD00222946204603F052FF6846FEF7C7
S31508023720F4FD03B030BD000010B504460120FEF7D3
S3150802373095FF0220FEF792FF104850F82430ABB1ED
S315080237400F4924F003004058A107090FC8400D4944
S3150802375000F00F0051F824200B4901EB802109697A
S3150802376044EA0010E14001F0010198470220FEF701
S3150802377061FFBDE810400120FEF75CBF6808001033
S3150802378008380140A8080010000002402DE9F04759
S3150802379084B007000C4690464FF0000638D03D78B4
S315080237A044F480300090D8F800000190D8F804005C
S315080237B00290A54208BF012623D0192C12D0102C3C
S315080237C016D0DFF86CA005EB85095AF8290010F423
S315080237D0003F08BFFCF77AFC0AEB89004079042807
S315080237E016D119E0102D04BF7868002805D106E025
S315080237F00198002808BF192D01D0002600E00126ED
S3150802380036B13C70D8F800007860D8F80400B86081
S3150802381004B03046BDE8F08704EB84000AEB80006A
S31508023820407904283CBF2C460126F1D2E9E700007C
S31508023830F84C0508CA88012A05D190F8CE20022A32
S3150802384003D0032A05D001F01AB90122034902F06E
S315080238507DBC012200F1CC0102F078BC34020010D2
S3150802386090F8CE20022A18BF032A01D001F007B920
S31508023870D0F8D0200449002A14BF032201228A6004
S315080238800122024902F062BC28020010300200102E
S3150802389070B5044648880A46224DC1B201292970E4
S315080238A005D894F8CE00022807D0032813D020465C
S315080238B0BDE87040114601F0E2B869B384F8CC104D
S315080238C0032084F8CE00204600F0C5FB2046BDE85A
S315080238D0704003F0DEBB91B194F8CC0088421BD04D
S315080238E00146204600F0B0FB297884F8CC10204621
S315080238F000F0B1FB2046BDE8704003F0CABB0220C7
S3150802390084F8CE0084F8CC10204600F09DFB2046B1
S31508023910BDE8704003F0BDBB2046BDE8704003F029
S31508023920B8BB00002802001005F08CBF30B4C0688E
S315080239300024002804BF30BC7047438803EB000C00
S315080239400378012B18BF022B06D0032B09D0FF2BB5
S3150802395010D030BC002070478B4204BF30BC704781
S315080239601AE0032918D155884378EDB2AB4213D130
S3150802397030BC704703791578AB420DD14379557837
S31508023980AB4209D1C3885588AB4205D103899588CC
S31508023990AB4204BF30BC7047002C08BF6046CCD08F
S315080239A030BC704705F06EBF06F006B810B501F0D8
S315080239B0B8F90023BDE810401A46194601F0C8B9FD
S315080239C040F674610160012070470FB410B505AB6B
S315080239D0049A00F09DF910BC5DF814FB68B1012841
S315080239E011D0022815D0032818BF70474220086054
S315080239F04D2010604620186070471D2008601E2062
S31508023A0010601F20F7E705200860062010600720CF
S31508023A10F1E72A2008602B2010602C20EBE7000033
S31508023A2000487047007A030A0A21A0FB0101704781
S31508023A3010B40A22A0FB023401FB02414FF0000C2B
S31508023A4000FB0C1110BC18467047B0F90000B1F91A
S31508023A500010401A70477047002070470A207047C6
S31508023A6011F07F0C0CEBCC0110B500EB810101F1D2
S31508023A70D4014FF001044C7081F800C0CA604FF0BF
S31508023A800002C1E9043203D002F06FFB002010BD28
S31508023A9003F0F2F8FAE7000078B500240094124E13
S31508023AA0124D032005F006F9F16808690090641CB6
S31508023AB0AC4288BF78BD009810F0004FF1D0009A4A
S31508023AC0002042F001020092009A0A610A690092F5
S31508023AD0401CA84203D8009A12F0010FF6D1BDE89D
S31508023AE07840032005F0E6B860570010400D030041
S31508023AF0072214F0C7B9032214F0C4B9014805F025
S31508023B00CFBB0000A8560010014805F0D3BB000041
S31508023B10A856001008B50B4600920246014805F061
S31508023B20FFFB08BDA856001010B50120FEF796FD4A
S31508023B300220FEF793FD0C48018821F0020101805C
S31508023B40FEF71EFC094AD2E90032C01A71EB0200DE
S31508023B5028BF0DF00FFA0220FEF76CFDBDE81040F3
S31508023B600120FEF767BD0000100C00402800001077
S31508023B7010B5044690F8CE00022818BF032804D0D0
S31508023B802046BDE8104000F07ABF4888012818BFD1
S31508023B9010BD0020C4F8D000D4F824058268204657
S31508023BA090472046BDE8104003F073BA10B50446A4
S31508023BB002234022812100F0D5FB02234022194626
S31508023BC0204600F0CFFB4023034A0221204603F099
S31508023BD0DAF8002010BD0000546A001030B5044619
S31508023BE08888002804BFC888002816D1488800F0AB
S31508023BF07F0594F8CE0003280FD084F8CF502946C3
S31508023C00204603F05FFA204603F043FA002D0CBF64
S31508023C100120022084F8CE0030BD2046BDE830409F
S31508023C2000F02DBF10B504464888012811D0022895
S31508023C3018BF10BD8A8812F0FF0F18BF10BD206981
S31508023C404168120A062A24D2DFE802F02310141861
S31508023C501C200120C4F8D000D4F824058268204626
S31508023C6090472046BDE8104003F013BA21F07001D0
S31508023C7010310EE021F0700120310AE021F07001C6
S31508023C80303106E021F07001403102E021F0700186
S31508023C90503141602046BDE8104003F0FAB9F0B54C
S31508023CA083B005460C46174600216846FEF728FBF0
S31508023CB00026002C18BF00240FD005EB84031969CF
S31508023CC041B1D86B30B90E604E608E6021462846E7
S31508023CD000F03CF8641C072CEFDB002F18BF00210C
S31508023CE00DD005EB81000269002A1CBFC06B0028B3
S31508023CF002D0166056609660491C0729F1DB6846B1
S31508023D00FEF703FB03B0F0BD05F0C5BE05F0FEBE27
S31508023D1070B505460C4609680068FFF736FB0121AF
S31508023D2011EBE07208BF2068296800230144296064
S31508023D300B702168081A2060104670BD002814BF4F
S31508023D400020014870470000D056001000B528B17F
S31508023D5000EB8100016909B1C06B08B1002000BD02
S31508023D6040220349022003F011FC012000BD000095
S31508023D70546A0010034A10B50021116004F072FA61
S31508023D80002010BDF00100102DE9F041064615F09D
S31508023D90A7FF040014BF174DBDE8F081E06AB042E0
S31508023DA0204620D115F086FF07460121204615F048
S31508023DB067FF200018BF85420DD0D0E90012002AFD
S31508023DC018BF1160002918BF4A6021466A68C1E90E
S31508023DD000526C601460234600220221032000F080
S31508023DE00FF93C4602E015F065FF0446002CD5D1D2
S31508023DF0BDE8F081040900107047000010B50446BA
S31508023E0004202080032060800120A0800020E0801A
S31508023E10372309A2382104F10800FFF79FFA11484F
S31508023E2030221149D0F85004206404F14400FCF70A
S31508023E3014FB012010BD00004E65746475696E6F2F
S31508023E402033202876342E332E322E3229206279D8
S31508023E5020536563726574204C616273204C4C432F
S31508023E600000000000C0000854C4000870B51E4DCA
S31508023E70002455F8240018B18047641C102CF8D386
S31508023E8000F058F800F032F801F022FB02F053FB7A
S31508023E9000F0F0FD01F01AFB01F018FD03F05CFAE0
S31508023EA000F026F801F0EDFD02F0BFF803F0E0F9A4
S31508023EB003F0E0FF15F060FF0EF056FD01F09AFAE6
S31508023EC001F058FB02F090F801F022FF0020FEF7FD
S31508023ED040FA01F0E5F800F079FA12F091FDBDE832
S31508023EE070400DF023B800000007001005F0A8B8CE
S31508023EF04FF04A40704780207047000000B587B0EF
S31508023F000146684616F002FA00280EDB03980849AD
S31508023F10C07B00EB800051F820004FF4C02131EA43
S31508023F20000002BF012007B000BD002007B000BD97
S31508023F30F84C05080120704740F20120704700201E
S31508023F40704700002749284A4FF0FF0C0B5C125CA9
S31508023F502648203101EB830100EB830051F8041C4B
S31508023F6050F8043C12F0010F18BF4FF47F4C01F1D0
S31508023F70180012F0020F18BF01F11C00028822EA8B
S31508023F800C020280088B8A8B104328D1B1F1804F2C
S31508023F901CBFA1F18040B0F5806017D0A1F1804026
S31508023FA0B0F500601CBFA1F18040B0F540600DD0AD
S31508023FB0A1F18040B0F5C0501FBFA1F18040B0F515
S31508023FC0E050A1F18040B0F5005004D108480168DC
S31508023FD01940016003E007480168194001600120A1
S31508023FE070470000546E05085E6E0508F46E0508F3
S31508023FF040380240443802404FF400707047704718
S315080240002DE9F0410F4E144682B0326805460F4636
S315080240109846002A04BF02B0BDE8F081002168462E
S31508024020FEF76EF9220442EA052040EA07014246F3
S31508024030306803F0C5FA6846FEF767F902B0BDE8CC
S31508024040F0810000F001001010B5D0F8242552685E
S315080240509047002010BD10B50446D0F82405026822
S3150802406020469047D4F8280580688047002010BD6E
S3150802407013460A460146014805F062B9A8560010D9
S3150802408010B582B0DDE9044CCDE9004C06F074FFA8
S3150802409002B010BD70B5054659B1D5F82405426976
S315080240A0002A38D095F8CE00032804BF2846904740
S315080240B031E095F8CD0005F1D40402282BD1A16987
S315080240C0A068814207D9081AA06182B22846E16827
S315080240D003F00CFF1FE0E169B1FBF0F200FB1212DC
S315080240E062B981420AD3206A814207D20022114666
S315080240F0284603F0FBFE002020620CE0D5F82405D2
S31508024100C16829B195F8CE00032804BF2846884716
S31508024110284603F09AFC002070BD000000B50A7814
S3150802412012F0700202D0102A15D107E04A78062A40
S3150802413004D00A2A06D00B2A0DD108E000F09FFC0B
S31508024140022000BD0122054902F000F803E0488872
S315080241500349C0B20861002000BD00003802001001
S315080241602802001030B50C46154600220221FFF738
S31508024170DDFB002808BF30BD00F10D02418801446D
S31508024180206878B1904288BF81422ED92B68934223
S3150802419028BF994229D94278052A04BF0278072AF4
S315080241A023D10BE0002022602860206888421CD2B6
S315080241B04378042B0BD0052B0ED010E05A78042A2C
S315080241C001BF1A78092AC01D20600ED1EEE70278CF
S315080241D0092A08BF286002E00078072807D0206865
S315080241E00278104420608842E2D3002030BD0120C4
S315080241F030BD05F0B3BC000010B4084CDDF804C0AD
S31508024200245C0C600649095C11600649095C196060
S315080242100549085CCCF8000010BC7047A659050889
S315080242209F590508B4590508AD59050800F47F4396
S3150802423010B54FF0000CC0B2B3F5807F06D0B3F5C7
S31508024240007F07D0B3F5407F0DD108E0401EFEF788
S315080242502EFD02E0401E04F0B3FD844603E0401E34
S31508024260FEF74EFE8446604610BD00000349002054
S315080242700860486002490860012070478875001086
S315080242807C00001001490968084070477C0000104C
S3150802429010B5044684B014A0FEF75FFE12A10022F0
S315080242A0CDE90021029001230322042120460CF0C5
S315080242B0E5F91848D0F8041100291CBF49690029F4
S315080242C004F1400409D0888BCA8B0B8C498C208058
S315080242D06280A380E18004B010BD00202080608047
S315080242E0A080E08004B010BD4E65746475696E6F77
S315080242F02033202876342E332E322E322920627924
S3150802430020536563726574204C616273204C4C437A
S31508024310000000005C1A00100020704710B541B179
S315080243200C48FFF731FDBDE81040012109480EF09F
S315080243307FBA0123084A094906480EF08FFB00286E
S3150802434008BF10BD034B0022BDE81040114604A069
S31508024350FFF74EB8306F0010A4020010F0020010EA
S315080243605344000030B50C4611F0800F01F07F0C63
S315080243700CEBCC0100EB810114BFD43101F53C7181
S3150802438081F800C0E4094C708A60CB7018BFA1F8A6
S3150802439006C0022B04BF00220A7101F0C1FB0020ED
S315080243A030BDC068406900F001007047014805F059
S315080243B012B80000A856001008B50B46009202462D
S315080243C0014805F029F808BDA8560010014805F06D
S315080243D0EDB80000A856001010B5044651B1D4F83D
S315080243E02405826942B394F8CE00032804BF204606
S315080243F0904721E094F8CD1004F53C7003291BD1AF
S315080244008268816991420AD9891A8161914228BFD3
S3150802441011468AB2C168204602F033FE0CE0D4F88F
S315080244202405016929B194F8CE00032804BF204661
S315080244308847204602F02DFE002010BD10B504461E
S315080244400D480122FEF74CFF98B103680021002BA4
S31508024450C8BF0A4A08DD00EB010C9CF804C002F842
S3150802446001C0491C8B42F6DC044A81212046FFF72B
S31508024470F7FA002010BD0000D0560010946A00100A
S3150802448010B50446812100F010FB0221204600F0F7
S315080244900CFB002010BD10B50446007994F86E1086
S315080244A0884208BF10BD052804D1012211462046BC
S315080244B0FFF7F5FB94F86E002071072812D2DFE8A1
S315080244C000F004090909090A09000020A4F88C0069
S315080244D0C4F8840010BD20460022BDE81040012120
S315080244E0FFF7DDBBBDE81040FBF7F0BD01207047C2
S315080244F01748016841F00F010160016841F0100197
S31508024500016014494FF028400860134A4FF420709E
S31508024510106082031148026000204860104B186040
S31508024520104B18608860DFF840C0C023CCF8003012
S315080245300E4B1A604FF0C842CA600CF10402891584
S315080245401160191D08600221082000F0DDBE000076
S3150802455030380240000002400004024000080240CF
S315080245600404024004080240080402400808024003
S3150802457000207047012070470420704700487047A2
S3150802458040420F0000281CBF012070472DE9F04F5A
S3150802459085B0834600216846FDF7B2FEDFF86C83D4
S315080245A0D94C0126DA48C8F80860E067072084F87B
S315080245B080004FF00809402784F86F90304600259E
S315080245C004EB8001CD632118401C81F8337007285B
S315080245D0F6DBA8F80050029503AA02A9204603951D
S315080245E0FFF7C0FD002818BFDFF828A341D00298BC
S315080245F0817801F07F00072880F27E81039A9278FB
S31508024600032A00F2798111F0800F1CBF04EB8001A6
S31508024610CE6302998988082918BF102904D020294F
S3150802462018BF402940F06881221882F833108B217E
S3150802463041430AEB8102A2F50B7104EB80020D607D
S315080246404D608D6011610299C97801F00301012953
S3150802465000F04B81400001FA00F0B8F8001003AAF6
S315080246600843A8F8000002A92046FFF77BFD0028A8
S31508024670BDD1B8F80000002800F03E814FF47A70E8
S31508024680FDF796FE0021584600F072FC0022A24968
S31508024690432003F095F9012003F0F6FF0A210920C9
S315080246A000F032FE0A210B2000F02EFE0A210C2011
S315080246B000F02AFE022301220021092000F048FB0D
S315080246C00223012200210B2000F042FB02230122D1
S315080246D000210C2000F03CFB4FF4804003F0F4FF6D
S315080246E0802003F0D9FF4FF0805003F0E5FF8C4994
S315080246F08A480C46C1F824058A48C1F828058A481A
S31508024700C1F82C05A670A780E67284F800900420EA
S315080247104FF0A04160708815E0800220207283481D
S31508024720C4E90310002001EB401202F5106C04EBF9
S31508024730800302F53062C3F814C01A656278401C19
S315080247408242F0D822780020002A0BD901EB0032E7
S3150802475004EB800302F58052C3F88C202278401CB1
S315080247608242F3D801F56060C4F8C80084F8CE60C6
S3150802477084F8CF506078002100280FD901EBC100D8
S3150802478004EB8000D43046700170C180C570C0E960
S31508024790027505616078491C8842EFD80021C0B2CB
S315080247A0002810D901EBC10004EB800000F53C702B
S315080247B045700170C180C570C0E9027505616078EF
S315080247C0491C8842EED803F08DFEE068C16841F0C4
S315080247D0400141F08041C160FFF75EF9617A4FF40A
S315080247E05020002918BF4FF4E810E16888631420A6
S315080247F004F09CF9D4F8C8002946056020690268C5
S3150802480022F4C05242F003020260E0688022426249
S3150802481067F31F4162F30F01816201EB11432946D7
S3150802482063F30F0162F31F41C0F8041101EB114251
S3150802483062F30F0165F31F41C0F8081101EB11423B
S3150802484062F30F01C0F80C111021354801F022FD60
S31508024850334801F0FFFC2069056145614FF0FF37D7
S315080248608761C56161780020FF264FF0904C0029C8
S3150802487011D904EB80025369196811F0004F14BF6D
S3150802488061462946196051690D6151698E606178E0
S31508024890401C8142EDD80020C9B2002911D904EB87
S315080248A08002136D196811F0004F14BF614629463C
S315080248B01960116D0D61116D8E606178401C81421F
S315080248C0EDD82069016941F480710161E06885616A
S315080248D04761174982698A431143816103F06EFD74
S315080248E00F48D0F82805006880476846FDF70DFD91
S315080248F005B00020BDE8F08F6846FDF706FD05B055
S315080249000120BDE8F08F0000D05600107401001097
S315080249109C690010945C0010C17A02085C020010BF
S3150802492060570010880200100C02001000080050A0
S3150802493010380C8001207047002202600A60704716
S3150802494000F47F41C0B2B1F5807F0AD0B1F5007F8D
S315080249500AD0B1F5407F1CBF00207047401EFEF703
S315080249607EBC401EFEF70EBA401E04F0B3BA2DE90D
S31508024970F0478846174600F47F444FF0000964253D
S31508024980C6B22CE0B4F5807F06D0B4F5007F09D014
S31508024990B4F5407F14D10BE0701E3A464146FEF745
S315080249A0F3F90AE0701E3A46414604F095FA04E025
S315080249B0701E3A464146FEF754FC002812DB0AD11D
S315080249C04FF00000FDF7BBFC60B100210122202058
S315080249D000F07EFF03E032253F1A804481440FB17E
S315080249E06D1ECFD24846BDE8F0874FF04A40704761
S315080249F0072814D2DFE800F013040713100A0D0083
S31508024A0040F2011070474FF48170704740F203106C
S31508024A1070474FF48270704740F20130704740F297
S31508024A2001207047B0F5827F04BF062070470EDC6E
S31508024A30A0F58070013804BF01207047012804BF21
S31508024A4002207047022804BF052070470AE0A0F535
S31508024A500070013804BF03207047B0F5807F04BF99
S31508024A6004207047002070470020704700207047D6
S31508024A70012070477047012070470020704710B523
S31508024A800A78044612F0800F03D0802100F022F83B
S31508024A9006E0C988002914BF0021802100F01AF80F
S31508024AA02046BDE8104002F033B90B4611F0800FDC
S31508024AB001F07F0200B502EBC20100EB810114BFCF
S31508024AC0D43101F53C710A70DA094A7002F03DF9EF
S31508024AD0002000BD00B50A4611F0800F02F07F03E0
S31508024AE014BF03EBC30102EBC20100EB810114BF41
S31508024AF0D43101F53C714FF0010C81F802C00B70FC
S31508024B00D2094A7001F038F8002000BD4B1E002970
S31508024B10C8BF08490CDD10F801CB8CEA126C51F8B3
S31508024B202CC08CEA0222B3F1000CA3F10103F2DCD9
S31508024B301046704720550508704706F09FBA38B5E3
S31508024B400D4649880446080A012804D002280AD0D4
S31508024B5003285BD113E0D4F82C15A0780A686946B5
S31508024B609047014642E0D4F82415A0788A6A694635
S31508024B709047014602204870C4F8301536E0C8B29C
S31508024B80062843D2DFE800F0030B131B232BD4F8C5
S31508024B902C15A0784A6869469047014626E0D4F85B
S31508024BA02C15A0788A686946904701461EE0D4F813
S31508024BB02C15A078CA6869469047014616E0D4F8CB
S31508024BC02C15A0780A696946904701460EE0D4F882
S31508024BD02C15A0784A6969469047014606E0D4F83A
S31508024BE02C15A0788A69694690470146BDF80000E7
S31508024BF000281ABFEA88002A38BD824288BF0246C0
S31508024C00ADF80020204601F0A1FA38BD2946204613
S31508024C10FFF735FF38BD000038B5054601EBC10080
S31508024C2005EB80006A46D0F8040384B20E48FEF704
S31508024C301FFBB8B1402CC8BF40240C4B011D0022F3
S31508024C40002C06DD13F801CB521C01F801CB944265
S31508024C50F8DC0460009828B94023044A0221284651
S31508024C6002F091F8002038BDD0560010546A0010A0
S31508024C704FF0FF30704770B5044682B00D461646AF
S31508024C8018462AF0DBFFCDE90001324629462046BE
S31508024C90FEF744F902B070BD2DE9FF4F82468DB08A
S31508024CA04069171E8B46C26BDDE91A6889B2DDF8C0
S31508024CB07090104400EBC1054FF000042BD92988E7
S31508024CC050460DF01DFB1099FBF73AFDF8B996B15F
S31508024CD02A465146684618F077FE7069816D08447F
S31508024CE000EB0802314606A818F076FE06A96846C1
S31508024CF013F014FD58B1DAF80C000BEB040141EA83
S31508024D000040C9F8000011B00120BDE8F08F641C0C
S31508024D100835BC42D3D30020C9F8000011B0BDE85B
S31508024D20F08F06282CBF4FF0FF302030704710B5A1
S31508024D30FA210160084601F06FFC012010BD00004F
S31508024D4090283ABF0149085C00207047B7950508C4
S31508024D5038B504460846902C28BF38BD032B04BF35
S31508024D600221012221D0042B0CD09AB1012B0DD09D
S31508024D70022B0CBF022101214FF000020CBF0323B4
S31508024D80012313E00321002213460FE00221002229
S31508024D9001230BE0052B16D0062B0CBF022100219E
S31508024DA04FF0000208BF022300D0002300902046DD
S31508024DB001F080F901B020460023BDE830401A46CA
S31508024DC0194602F057BA022100221346EEE70000FE
S31508024DD0074A9023002908BF704703E012F801CB5F
S31508024DE000F801CB491E38BF70475B1EF6D27047E2
S31508024DF0B795050810B51420002100F08FFB002096
S31508024E00184A014622F81010401C0928FADB1648EF
S31508024E10016000221549062002F0D2FD002214493B
S31508024E20072002F0CDFD00221249082002F0C8FD33
S31508024E3000221149092002F0C3FD00220F490A2067
S31508024E4002F0BEFD00220E49172002F0B9FD00222B
S31508024E500C49282002F0B4FD4FF4804003F034FCDC
S31508024E60012010BD54080010003C014031600208C0
S31508024E704160020851600208616002087160020816
S31508024E8081600208F5680208902824BF002070474E
S31508024E90F0B504460F46050900F00F00012101FA94
S31508024EA000F685B0002102A8FDF72AFA154A32F85B
S31508024EB015009FB1304205D002A8FDF726FA05B0C3
S31508024EC00020F0BD304322F81500152C13D100231B
S31508024ED01A461946204602F0CDF90CE0B04322F8EC
S31508024EE01500152C07D1002000900223064A01213D
S31508024EF0204601F089FF02A8FDF707FA05B001204E
S31508024F00F0BD0000540800105570020812494FF00F
S31508024F10FF30086048608860C1F80001C1F80401E2
S31508024F20C1F808010E480D498160C16001614161FD
S31508024F308161C16201638163BFF35F8F0A4AC163FC
S31508024F4008491160A2F1040108600848016841F4A1
S31508024F50E02101607047000080E100E0E5250208D3
S31508024F6000FE02200007FA050CED00E024ED00E041
S31508024F70F0B51D4C83B00F462088002804BF03B045
S31508024F80F0BD1A4D00216846FDF7BAF90026A16858
S31508024F900120E7B1002904BFA06001241ED105EB58
S31508024FA08400016900291CBFC06B002806D00122B3
S31508024FB021462846FEF794F90028F8D1641C072CE6
S31508024FC0EDDB85F86E602846FFF765FA06E029B13B
S31508024FD0A66085F86E002846FFF75DFA6846FDF773
S31508024FE094F903B00120F0BD74010010D0560010E8
S31508024FF008B1072901DB0020704730B583B00546A2
S315080250000C4600216846FDF77BF905EB8400016929
S3150802501000291CBFC06B002812D00F4830F81400B4
S3150802502010F0010F12D0012221462846FEF758F940
S315080250300028F8D16846FDF768F903B0012030BDAB
S315080250406846FDF762F903B0002030BD22462946BC
S31508025050002002F009FDEDE79C6900104FF0FF30D1
S315080250607047000070B504460D460B480CF00EF862
S31508025070002C08BF70BD08480123084922468361EF
S3150802508011F0ECFC4FF47A7005FB00F1BDE87040B4
S3150802509001480BF002BF00008875001061860208FD
S315080250A010B502480BF0F2FF012010BD88750010FA
S315080250B02DE9F04F87B05748DFF85091CDF8109098
S315080250C0DFF84CA1046800260AF16008002C04BF28
S315080250D007B0BDE8F08FD4E9021089688847074609
S315080250E03020039001A80290D4E902100DF1140BA6
S315080250F0896806AD8847DDE902215B46009526F0F8
S31508025100CAFA386810F0020F08D1D4E902C040F68C
S315080251100C12DCF80CC03E4B0199E047DFF8F8B0F8
S31508025120002558F82500B0F1FF3F03D010EB0B001D
S3150802513027D125E001F0FEF9386810F0020F10D0E9
S3150802514008EB850002F031F84FF0000CCDF800C0EC
S31508025150D4E902160422D1F810C0014604AB30463F
S315080251600DE00AEB85005346C0F8609000200090D7
S31508025170D4E902C040F60C12DCF810C00199E047E7
S3150802518001266D1C002E3CD1322DCAD30598B96969
S3150802519000EB800001EB800501F0CCF9A86829F044
S315080251A0F9FA06002DD0386810F0020F05D0AA6861
S315080251B030460199FBF751F907E0D4E902C0019993
S315080251C0DCF80CC0AA683346E047FF22C82106F17C
S315080251D06000FBF738FAC6F86090D4E90220019914
S315080251E0526A904701F0A6F90020AA680090D4E90D
S315080251F002C00199DCF810C03346E047304629F070
S31508025200C7FA03F0DFFD07B0BDE8F08F444C5442FD
S3150802521000C0000864000010BCB3ABBD18484FF0CC
S31508025220FF310A0CC0E900120021C0E90211154833
S31508025230016841F008010160134904200880002032
S315080252400A1D1080121D1080104B02221A80104A65
S315080252501080121D10800F4B53221A800E4A1060BE
S31508025260401E1A1D10600D4A01201080088840F061
S315080252700100088000220A49322002F0A1BB000080
S315080252802800001040380240000C00400C0C004078
S31508025290180C0040280C0040340C0040140C004046
S315080252A0293B020830B583B004460D4600216846FC
S315080252B0FDF726F80948C0E9004509480460FDF7E4
S315080252C05FF8001B71EB050002D30649022008802D
S315080252D06846FDF71AF803B030BD00002800001032
S315080252E0340C0040140C0040014908600020704745
S315080252F0F0010010002070474FF0FF3070477047EA
S315080253004FF07740704700004207D20E0F239340B2
S3150802531001F00F0191404FEA007C064A000902EBB0
S3150802532080204FEADC7200EB8200026A9A4311433C
S315080253300162704700000240002808BF704710B497
S315080253404FF0000C81F800C003234B700478022347
S3150802535054B1CC545B1CDBB201F803C05B1C10F8D9
S31508025360014FDBB2002CF4D113800B7010BC7047CE
S3150802537030B40A7800EB8202D2F850C0DCF800504A
S31508025380DCF810300C698A68ACB11444641EB4FBAC
S31508025390F2F464F3DC43C3F3C944624362F31203CF
S315080253A0CCF81030097845F0044200EB8100006D14
S315080253B0026030BC704762F312036FF3DC4303F5F5
S315080253C00023EDE70020704713460A4601460148C6
S315080253D004F0F6B8A85600100146014804F01AB9B6
S315080253E0A8560010014804F097B90000A856001004
S315080253F005F074BE05F086BE05F09ABE0FB40A46DD
S3150802540008B505A9009101460348049B03F0ECFF81
S3150802541001B05DF814FB0000A856001000B583B071
S31508025420DDE9043CCDE9003CFDF778FD03B000BD9B
S315080254302DE9F04105000C4603D02878142808BF48
S315080254406D6800270126256095B12878102801D1B4
S31508025450686868B1294604F1080014F057FF002865
S31508025460B8BFBDE8F0812771287810280BD103E070
S31508025470267167718E7122E06868407810F0100F05
S3150802548018BF012000D100206071A16801F06002F6
S31508025490202A18BF402A06D001F01F0101291CBF85
S315080254A00829102901D0A67109E030B90549E06832
S315080254B0896B884218BF002000D10120A071002004
S315080254C0BDE8F081E81800100120704701207047F6
S315080254D00020704770470000054810B50068FEF7BF
S315080254E0A3FABDE8104042F210720023FAF7F2BDA1
S315080254F02000001090207047902824BF0020704793
S315080255000109054A02EB8121096900F00F0021FA17
