S315080200000CE000201D000208310002083100020837
S3150802001031000208310002083100020802F0E2B893
S31508020020DFF808D002F078F902F02CBAF8FF0010CF
S31508020030FEE76E2900F08884702900F0D9856629C2
S315080200403CF08F8365293CF08C8367293CF08983D1
S3150802005061293CF0888303681B0A28BF41F08001A6
S31508020060692900F03584642900F03284752900F084
S315080200702F846F2900F06485782900F0A585E9297F
S3150802008000F0FC84E42900F0F984F52900F0F684EE
S31508020090EF2900F06185F82900F0A4850368DB09D9
S315080200A028BF41F08001632901F08E83732901F08C
S315080200B09383E32901F09E83F32901F0A3830020A9
S315080200C07047000040BA7047C0BA704700BEFEE7E4
S315080200D07047704753EA020C00F069802DE9F04B2D
S315080200E04FF00006002B1FBFB3FA83F503FA05F497
S315080200F024FA05F65E4012BF1643B2FA82F502FAF0
S3150802010005F4C5F120051EBF22FA05FC44EA0C04D3
S31508020110203556EA044C4FEA144418BF641C4FF0C3
S3150802012000084FF00009904271EB030C39D30029FD
S3150802013019BFB1FA81F701FA07F6B0FA80F700FAA1
S3150802014007F6C7F120071EBF20FA07FC46EA0C0687
S315080201502037B6FBF4FCA7EB0507103F07F01F0B89
S31508020160CBF120060CFA0BFB2CFA06F644BFB34673
S315080201700026202FA4BF5E464FF0000B5BEA060C52
S3150802018008BF4FF0010B19EB0B09ABFB027C48EBDE
S315080201900608C01B06FB02CC0BFB03CC71EB0C0159
S315080201A0C1E70B46024641464846BDE8F08B13B501
S315080201B04FF000004FF0000100F014FBBDE81C40B0
S315080201C07047B2F120030AD5C2F1200301FA02F1FF
S315080201D020FA03F300FA02F041EA0301704700FA33
S315080201E003F14FF000007047B2F120030AD5C2F1BD
S315080201F0200320FA02F001FA03F321FA02F140EA97
S315080202000300704721FA03F04FF000017047B2F17C
S3150802021020030AD5C2F1200320FA02F001FA03F3F9
S3150802022041FA02F140EA0300704741FA03F04FEA45
S31508020230E171704710B54C1084EA530404D5404264
S31508020240C1F1000138BF491E1B4204D55242C3F10F
S31508020250000338BF5B1EFFF73DFF14F0804F04D042
S315080202604042C1F1000138BF491E14F0004F04D0C4
S315080202705242C3F1000338BF5B1E10BD7CB515465A
S315080202801A460C00009001D02044401E074B7B44BE
S3150802029069460190284600F072FB05461CB100200B
S315080202A0694600F07FFB28467CBD00001D0700005A
S315080202B00A460146014800F0BABD0000D878001087
S315080202C02DE9F04782460E4614469846DDF82090F8
S315080202D094B1012C0BD04A465046650805FB0867BF
S315080202E03946904700280CD00DDA2C46F0E74A46E4
S315080202F031465046904710B10020BDE8F087304697
S31508020300FBE73846F9E7641B641E07EB0806DFE7D6
S31508020310401ECAB210F8011F8A4202D00029F9D13A
S315080203200020704740EA010310B59B070FD1042A43
S315080203300DD310C808C9121F9C42F8D020BA19BAA0
S31508020340884201D9012010BD4FF0FF3010BD1AB105
S31508020350D30703D0521C07E0002010BD10F8013B5A
S3150802036011F8014B1B1B07D110F8013B11F8014B81
S315080203701B1B01D1921EF1D1184610BD40EA01039A
S31508020380024630B59B0710D14FF0013400E008C28F
S3150802039008C91D1B9D4315EAC41FF8D013F0FF01B7
S315080203A002F8011B0DD01B0AF8E711F8013B002BD6
S315080203B002F8013B05D011F8013B002B02F8013B7C
S315080203C0F3D130BD40EA010370B59B072ED14FF039
S315080203D00136042A2AD308C810C9121F9D1B9D4339
S315080203E015EAC61517D0D8B2E1B2401A50EA056125
S315080203F010D198B2A1B2401A50EA05410AD123F0A7
S315080204007F4024F07F41401A50EA052102D1180E96
S31508020410A0EB146070BDA342DBD018BA21BA884299
S3150802042001D9012070BD4FF0FF3070BD0AB9002016
S3150802043070BD10F8013B11F8014B63B1A3420AD112
S31508020440521E08D010F8013B11F8014B1BB1A3420A
S3150802045001D1521EEDD1181B70BD032A40F230801D
S3150802046010F0030C00F0158011F8013BBCF1020FE5
S31508020470624498BF11F801CB00F8013B38BF11F866
S31508020480013BA2F1040298BF00F801CB38BF00F87D
S31508020490013B11F0030300F06780083AC0F00880B8
S315080204A051F8043B083A51F804CBA0E80810F5E7DE
S315080204B0121D5CBF51F8043B40F8043BAFF30080C1
S315080204C0D20724BF11F8013B11F801CB48BF11F836
S315080204D0012B24BF00F8013B00F801CB48BF00F806
S315080204E0012B7047431A28BF9A427FF6B6AF032AF2
S315080204F01044114440F2268010F0030F1EBF11F873
S31508020500013D521E00F8013D10F0030F7FF4F6AFCD
S3150802051011F0030300F06D80083AC0F00B8051F821
S31508020520043D083A51F804CD40F8043D40F804CD9C
S31508020530FFF7F3BF121D5CBF51F8043D40F8043DB6
S31508020540AFF30080D20724BF11F8013D11F801CD9F
S3150802055048BF11F8012C24BF00F8013D00F801CD6F
S3150802056048BF00F8012C704710B5203AC0F00B803E
S31508020570B1E81850203AA0E81850B1E81850A0E897
S315080205801850BFF4F5AF5FEA027C24BFB1E81850F1
S31508020590A0E8185044BF18C918C0BDE810405FEA61
S315080205A0827C24BF51F8043B40F8043B08BF7047DD
S315080205B0D20728BF31F8023B48BF11F8012B28BFE2
S315080205C020F8023B48BF00F8012B7047431A28BFA0
S315080205D09A427FF6C9AF104410F0030F11441EBFAA
S315080205E011F8013D521E00F8013D10F0030F7FF489
S315080205F0F6AF103AC0F00A8010B531E91850103A31
S3150802060020E91850BFF4F9AFBDE81040530724BFDC
S3150802061031E9081020E9081044BF51F8043D40F8B2
S31508020620043D12F0030F08BF7047D20728BF31F8FE
S31508020630023D48BF11F8012C28BF20F8023D48BFE9
S3150802064000F8012C704702F0FF0343EA032242EA4C
S31508020650024200F002B84FF000020429C0F01280EC
S3150802066010F0030C00F01B80CCF1040CBCF1020F55
S3150802067018BF00F8012BA8BF20F8022BA1EB0C012A
S3150802068000F00DB85FEAC17C24BF00F8012B00F820
S31508020690012B48BF00F8012B70474FF0000200B546
S315080206A0134694469646203922BFA0E80C50A0E885
S315080206B00C50B1F12001BFF4F7AF090728BFA0E833
S315080206C00C5048BF0CC05DF804EB890028BF40F8FF
S315080206D0042B08BF704748BF20F8022B11F0804F41
S315080206E018BF00F8012B704710B5044610F0030F27
S315080206F008BF11F0030F40F015804FF0013E121F9C
S31508020700C0F20E8051F8043BA3EB0E0C2CEA030C44
S315080207101CEACE1C08BF40F8043BF0D0A1F1040144
S3150802072002F10402521E08DB11F8013B002B00F805
S31508020730013BF7D11146FFF78EFF204610BD000098
S315080207404FF0013C50F8042B51F8043B9A4221D150
S31508020750A2EB0C03934313EACC1317D150F8042BDC
S3150802076051F8043B9A4215D1A2EB0C03934313EAC0
S31508020770CC130BD150F8042B51F8043B9A4209D1F9
S31508020780A2EB0C03934313EACC13DBD04FF0000021
S31508020790704700BFD01A01BAB1FA81F101F0180107
S315080207A022FA01F0CB40C1F12001DBB2C0B2C01A75
S315080207B02CFA01F3D11A914311EAC311E6D1704713
S315080207C070B5064C7C44064D7D4403E020682044FF
S315080207D08047241DAC42F9D170BD0000D4540400F0
S315080207E0E054040037F04CBF004870470479001003
S315080207F010B500F0A7FB006810BD10B5044600F05E
S31508020800A1FB046010BD70B5044685690068C1067F
S3150802081001D5302600E02026C00708D070BDD4E9ED
S31508020820012130469047206A00F1010020626D1EC0
S31508020830F5D570BD70B5044685690068C00708D14C
S3150802084070BDD4E9012120209047206A00F10100F9
S3150802085020626D1EF5D570BD09684A0501D540B2FC
S315080208607047C905FCD500B2704709684A0501D523
S31508020870C0B27047C905FCD580B2704770B5054647
S315080208800C46012A05D02868800600D5EA690023A5
S3150802089002E0012305E05B1C934202D2E05C0028D9
S315080208A0F9D1A869E618C01AA861286A1844286204
S315080208B02846FFF7A8FF04E0D5E9012114F8010B41
S315080208C09047B442F8D32846FFF7B4FF70BD00003C
S315080208D02DE9F0410746002510687529394616A400
S315080208E011D0FFF7B9FF002803DAC0F1000013A4FC
S315080208F007E039688A0701D511A402E0490704D539
S3150802090010A4012501E0FFF7B0FF00210A2307F131
S31508020910240607E0B0FBF3F203FB120030307054F2
S315080209201046491C0028F5D12B4622463846BDE812
S31508020930F04100F050BB0000000000002D0000004E
S315080209402B0000002000000011680268006A5305A7
S3150802095001D508700BE0D30501D5088007E0130618
S3150802096003D5C217C1E9000201E052060860012058
S315080209707047000001694A1C02610878704700B591
S315080209808FB0CDE901310021059105497944CDE9B8
S3150802099003101146684600F037F90FB000BD000093
S315080209A0E5FFFFFF0A6802F8010B0A607047D1E902
S315080209B000239A4202D2531C0B6010707047000043
S315080209C02DE9FF5F04468A461546DFF8AC80F844EF
S315080209D00027D8E900103E46CDE9001011E03AF8A2
S315080209E016106A4602A800F011FF411C07D02168BA
S315080209F0890603D5E269391891420ED8074406F1E9
S31508020A0001062068800602D5E069B84205DDAE42D5
S31508020A10E5DB3AF816000028E1D1A069C01BA061FF
S31508020A202046FFF7F0FED8E90010CDE900100020B5
S31508020A3016E03AF818106A4602A800F0E7FE814660
S31508020A40401C0BD000250DF1080B05E0D4E9012165
S31508020A501BF8050090476D1C4D45F7D308F10100B8
S31508020A60B0428046E5DB206A384420622046FFF71A
S31508020A70E1FEBDE8FF9F0000063404002DE9F041BF
S31508020A808046D21D22F007020026D2E90002F52985
S31508020A9014A512D0002A06DA0023D0EB030063EB72
S31508020AA0020211A508E0D8F800108B0701D50FA598
S31508020AB002E0490701D50EA501261146002408F1D0
S31508020AC0240704E000F042FA30323A55641C50EA30
S31508020AD00102F7D133462A4621464046BDE8F0418F
S31508020AE000F079BA000000002D0000002B0000007B
S31508020AF02000000030B4002100F124040CE002F0CA
S31508020B00070505F130054FEAD20242EA43726554F7
S31508020B1001F101014FEAD30352EA0305EFD1046852
S31508020B20002310A2250708D504F020040C4304D09C
S31508020B30C46901230CA2641EC46130BC00F04BBA1E
S31508020B4010B5044621461068FFF78FFE0246204676
S31508020B50BDE810400023CDE7D21D22F00701D1E9F6
S31508020B600023C7E70000000030000000F0B40F467B
S31508020B700168090502D5234C7C4402E0214C7C44D9
S31508020B800E34002100F124050BE002F00F064FEAAD
S31508020B901212A65D42EA03724FEA13136E5401F16A
S31508020BA0010152EA0306F0D122460468002324070B
S31508020BB004D5702F05D009B111320223F0BC00F01A
S31508020BC00ABA10320123F9E770B504460D462146E2
S31508020BD01068FFF74AFE024629462046BDE87040DD
S31508020BE00023C3E7D21D22F00703D3E90023BDE79A
S31508020BF00368126843F0200303600823C3610023D5
S31508020C00B4E70000643204002DE9F05F0446894621
S31508020C104FF0000ADFF878B1FB44C0F820A020465E
S31508020C20E1688847002875D0252806D0D4E901212D
S31508020C309047206A401C2062F1E700265F4620465C
S31508020C40E16888472028054608DB312D06D207EBDE
S31508020C50050010F8200C08B10643F0E7B00701D5E5
S31508020C6026F00406C4F81CA00027C4F818A02A2DEA
S31508020C7009D0284637F062FD38B304EB8708303DC1
S31508020C80C8F8185019E059F8041B204604EB8702E5
S31508020C909161E1688847012F054618D1E069002865
S31508020CA020DA26F020061DE0D8F8180000EB8000AE
S31508020CB005EB40003038C8F818002046E168884736
S31508020CC0054637F03BFD0028EED1012F0AD02E2D1E
S31508020CD008D12046E16888477F1C0546022F46F060
S31508020CE02006C4DBA069002803DA404246F0010662
S31508020CF0A061F00701D026F010066C2D0BD0682DE6
S31508020D0009D04C2D39D06A2D35D0742D35D07A2D8F
S31508020D1033D016E038E0E1682F4620468847B842C5
S31508020D20054609D16C2F26D04FF48060E168064348
S31508020D3020468847054604E06C2F1AD04FF4807087
S31508020D4006430DB3A5F14100192802D8203546F409
S31508020D5000664A462946204626604E46FFF769F946
S31508020D6080B101280BD0F61D26F0070000F108090C
S31508020D7055E74020E4E78020D8E70020D6E706F1C9
S31508020D8004094CE7284651E7206ABDE8F09F0000AF
S31508020D90EC31040070B50646484231EA00000FD02D
S31508020DA02A20741C0025307000F0C8F8034600207B
S31508020DB053F82520110F120109292BD957312AE098
S31508020DC0042913D004DC012908D0022904D109E038
S31508020DD008290FD0102911D0002070BD00F0AEF8F6
S31508020DE000680EE000F0AAF840680AE000F0A6F8EB
S31508020DF0806806E000F0A2F8C06802E000F09EF8FB
S31508020E00006928B120F0030050F8041C084470BD9C
S31508020E1048A070BD3031401C082804F8011BC9DB04
S31508020E206D1C052DC3DB00202070304670BD2DE9F0
S31508020E30F04709B14B0902D00020BDE8F08732B16C
S31508020E4013782A2B06D0BDE8F04700F025B8BDE88E
S31508020E50F0479FE7551C81460F464FF001080024CC
S31508020E600026314615F8010B392801D8303800E03A
S31508020E705738491C082940EA0616F3DB08FA04F033
S31508020E80384203D000F05AF840F82460641C052C56
S31508020E90E6DB39464846DAE72DE9F04106460C46CE
S31508020EA0154688070AD511462348784439F002FEC2
S31508020EB007003CD000F042F87F1C4760E0070AD0E2
S31508020EC029461D4878441A38AFF3008007002ED009
S31508020ED000F034F8076060070AD5294616487844B0
S31508020EE03438AFF30080070021D000F027F8876076
S31508020EF020070AD52946104878444E3839F0C4FDE9
S31508020F00070014D000F01AF8C760E0060AD5294689
S31508020F10094878446838AFF30080050007D000F026
S31508020F200DF8056121463046BDE8F04132E7BDE8D5
S31508020F30F081000043000000BE4C040000487047E0
S31508020F4008790010004870471C79001030B5B0F1D6
S31508020F500A024FEA900E71F100034EEA817EB0EB67
S31508020F600E0061EB91014FEA101E4EEA017E10EB6C
S31508020F700E0041EB11114FEA102E4EEA016E10EBEC
S31508020F800E0041EB11214FEA104E4EEA014E10EBCC
S31508020F900E0041EB1141401841F100014FEAD00021
S31508020FA040EA41704FEAD10110EB80054FEA81040D
S31508020FB044EA907444EB01046D1944EB0404521B91
S31508020FC0A3414FF0000348BF0A3200D530BD401C8A
S31508020FD041F1000130BD2DE9F0470D46044692461F
S31508020FE0994600F124080168880604D5E06921F0CB
S31508020FF01001216000E00120A84202DDA0EB0507EE
S3150802100000E00027A16907EB050202EB0900A1EB44
S315080210100000A0612068C00602D42046FFF7F3FB51
S31508021020002608E0D4E901211AF806009047206A4A
S31508021030401C761C20624E45F4DB2068C0060AD5A1
S315080210402046FFF7E0FB06E0D4E90121302090476D
S31508021050206A401C2062381EA7F10107F4DC07E06B
S31508021060D4E9012118F805009047206A401C20623D
S31508021070281EA5F10105F3DC2046FFF7DBFB2068F5
S31508021080000602D50220BDE8F0870120FBE770477B
S315080210902DE9FF4F0C461E464FF0FF378BB0D2E9BB
S315080210A00001DDF860800A908A46C1F30A5505B93F
S315080210B03D46002108464FF00000BAF1000F00F441
S315080210C0400005DA00EB80004FF4400101EA5000C7
S315080210D04FEA9059B9F1010F00DDB9460A9850EA6C
S315080210E04A000FD044F61050A5F2FF3545432F1497
S315080210F0B8F1000F1FD07542291E1FDD4846C9F1F7
S3150802110000021CE0B8F1010F4FF0000001D1F243D2
S3150802111007E0302101E02154401CB042FBDB304697
S315080211200022002121540B99C1F80880C1E9002048
S315080211300FB0BDE8F08FBD1B6D1CDDE74A4600DA2D
S31508021140694206A800F0CAFB06AB07CB03AB07C386
S3150802115050460A9900F034FC8DE80700A0F50050C5
S315080211601F3800900398002D09DD42F21F014A46F6
S31508021170084403A90390684600F093FE08E0A0F528
S3150802118000504A461F3803A90390684600F09DFEA0
S315080211908DE807000004000C03D04FF0FF30410829
S315080211A000E01046B8F1000F03D00022009215465F
S315080211B01FE0751E06D4FFF7C9FE02F1300262551A
S315080211C06D1EF8D5B3460122084302D000227F1CC1
S315080211D004E02078302801D100227F1E002A0997D0
S315080211E086D01DE0112D07DAFFF7B0FE30326255C0
S315080211F06D1C50EA0102F5D108430FD10021681E81
S3150802120005E0235C625C6354491C2254401E8142F9
S31508021210F7DBAB46A81B401E099001E0009848B1CF
S31508021220002004F80B000B98099AC0F80880C0E958
S31508021230002B7DE711264FF0000859E72DE9F04FFC
S3150802124088460446D21D22F0070191B0D1E9000171
S31508021250CDE90A0136F0BEFB02460B98C00F01D053
S315080212602D2007E02068810701D52B2002E02021E6
S3150802127001EAC000032A099001D0072A05DB0346C2
S315080212804146204600F0EAFA0EE12068800601D5BA
S31508021290E06900E00620B8F1650F814606D0B8F18C
S315080212A0660F18D0B8F1670F72D132E00020B9F193
S315080212B0110F009001DB112301E009F101030AAACB
S315080212C001A90CA8FFF7E4FEDDE90C70002609F176
S315080212D00105834648E001204B4600904FF000473F
S315080212E00AAA01A90CA8FFF7D3FEDDE90C050E9997
S315080212F00026AB4619B909F1010100EB0105B9EB64
S31508021300050003D4C0F1FF3609F10105A5EB090072
S315080213102BE0B9F1010F01DA4FF001090020B9F10A
S31508021320110F0090484601DD112300E003460AAA80
S3150802133001A90CA8FFF7ACFEDDE90C704D460026A4
S315080213408346206800070AD4AB4500DA5D4601A841
S31508021350012D04DD411911F8011C302907D04F452A
S3150802136002DA17F1040F04DA0120824610E06D1E34
S31508021370EEE7002F02DCED1B3E4403E0781CA84290
S3150802138000DD0546A7EB060000F1010A4FF000470B
S315080213902068000703D4AA4501DB4FF0FF3A002173
S315080213A0B7F1004F0DF143088DF8431022D0022001
S315080213B02B23002F01DA7F422D230A22011EA0F1D8
S315080213C0010000DC4FB197FBF2F102FB117C0F46DC
S315080213D00CF1300C08F801CDF0E7A8F10100037012
S315080213E02168090501D5452100E06521A0F101081A
S315080213F000F8011C09980FA9A1EB080707F10707CE
S3150802140000B1012000EB050101EBEA70A16938443D
S31508021410A1EB0000A0F10100A0612068C00602D479
S315080214202046FFF7F0F9099830B1D4E9012190472F
S31508021430206A00F1010020622068C00620D52046F5
S31508021440FFF7E1F91CE0002E04DBB34502DD01A833
S31508021450805D00E03020D4E901219047206A761C9D
S31508021460401CBAF1010A20620AD1FFF767FDC0687B
S315080214700168405CD4E901219047206A401C206239
S31508021480281EA5F10105DEDC07E0D4E9012118F8DA
S31508021490010B9047206A401C2062381EA7F10107FB
S315080214A0F3DC2046FFF7C6F9022011B041E6000038
S315080214B02DE9F04F04460D46D21D22F0070089B0E9
S315080214C0D0E9009248461746394636F083FA02466C
S315080214D0F80F01D02D2307E02068810701D52B23B9
S315080214E002E0202101EAC0038DF820300BB1012069
S315080214F000E00020032A824601D0072A04DB294697
S31508021500204600F0ABF941E12068800601D40D259A
S3150802151000E0E569C7F30A560D2D4ADA00214FEABB
S31508021520175B08464FF00000002F00F4400007DA68
S3150802153000EB80004FF4400100EBD07001EA600036
S315080215404FEAA05CBCF1010F01DD4FF0FF3CAB0096
S315080215500021182B06D30A46A3F118004FF0805132
S31508021560C14002E04FF48012DA400C33202B03D339
S31508021570203B09FA03F001E007FA03F0BCF1000F79
S315080215804FF0004801DD18B913E012D1404510D3D7
S3150802159019EB01095741BCF1000F05D1404503D1AA
S315080215A013469F4329EA0109BBEB175F01D006F1EF
S315080215B001062068000502D57C48784402E07B488B
S315080215C07844193808AB302203F80A20027C0AF15B
S315080215D00101002E0AF1020A5A54694602DC4FF04A
S315080215E0300201E04FF031024FF001088DF8002079
S315080215F002D0A6F2FF3603E059EA470200D06C4E43
S31508021600002D02DC2268120704D54FF002082E22AA
S315080216108DF80120C44600230BE0C7F303423F01BD
S31508021620825C5B1C6D1E01F80820052B08F1010877
S3150802163001DA002DF1DC00220CE000EB1973521CD2
S315080216401B786D1E082A01F8083008F101084FEACE
S31508021650091901DA002DF0DC2268920602D514E097
S31508021660A8F10108E04505DD01EB080212F8012C94
S31508021670302AF5D0B8F1000F07DD01EB080212F89F
S31508021680012C2E2A01D1A8F10108002D05DD3E22E2
S3150802169001F808206D1E08F10108407C002E01F8A9
S315080216A0080008F1010806DA2D2001F8080076423A
S315080216B008F1010804E02B2001F8080008F10108E6
S315080216C00A274FF47A739E420ADB96FBF3F000F17F
S315080216D0300203FB106601F8082008F1010801E050
S315080216E0642E0BDB642396FBF3F000F1300203FB56
S315080216F0106601F8082008F1010801E00A2E07DB46
S3150802170096FBF7F000F1300001F8080008F101082D
S3150802171096FBF7F007FB106000F1300001F80800AD
S31508021720A16908F1010808EB050202EB0A00A1EB20
S315080217300000A0612068C00602D42046FFF763F8BD
S31508021740216A08AE01EB0A00206204E0D4E901210D
S3150802175016F8010B9047BAF1010AF7D22068C006BB
S3150802176002D52046FFF74FF86E4609E016F8010B38
S315080217703E280FD0D4E901219047206A401C2062F6
S31508021780B8F10108F2D22046FFF754F809B0022050
S31508021790BDE8F08F206A2844206203E0D4E90121DB
S315080217A0302090476D1EEBD3F8E70000252A040087
S315080217B002FCFFFF10B5436913B1AFF3008001E0E5
S315080217C0FFF75CF8012010BD126800F124010A70C7
S315080217D000224A700122EDE711684FF0FF32E9E76D
S315080217E010B5436913B1AFF3008001E0FFF7E8F8DB
S315080217F0012010BD126800F1240182840022C284ED
S315080218000122EDE711684FF0FF32E9E770B50546A8
S315080218100C46164600F01AF8036893F801010128E7
S3150802182006D0FF2C0FD8185D68B101202C7070BD48
S31508021830D3F807013246214603442846BDE87040DC
S3150802184003F2071318474FF0FF3070BD10B5FFF7C4
S3150802185075FB001D10BD00BF5D9203002DE9F04126
S3150802186004461F4603260168072A01F4006004DBC2
S3150802187008B116A505E016A503E008B115A500E00E
S3150802188015A521F010002060A069C01EA0610FB145
S31508021890401EA0612046FEF7B6FF4FB1D4E90121EA
S315080218A038469047206A401C2062C01C206206E027
S315080218B0206AFAE7D4E9012115F8010B9047761E4A
S315080218C0F8D22046FEF7B6FFBDE8F0814E414E003B
S315080218D06E616E00494E4600696E66002DE9F04754
S315080218E0814616468AB035487844D0E9002380688E
S315080218F00092CDE90130314878440C38D0E9022308
S31508021900006903924FF03702CDE9043041F69B3065
S31508021910014491FBF2F0A0F1800502FB10141B3C76
S3150802192002D56442012000E00020DFF890A080463C
S315080219300027FA44AAF1C60A0DE0E00709D03246A2
S31508021940684607EB47010AEB810100F0BEFA8DE80B
S31508021950070064107F1C002CEFD1184F7F44B43F58
S3150802196017E0E80713D007EB04100DF1180A90E800
S315080219700E00AAE80E00C068F04201D19819089034
S31508021980324606A903A800F0A0FA03AB07C36D10F6
S31508021990641C002DE5D132466946B8F1000F03A84A
S315080219A002D000F07EFA01E000F08FFAC9E90001E0
S315080219B0C9F808200AB0BDE8F087000088270400A5
S315080219C05FEA400C08BF91F0000F4FEA8C234FEAFA
S315080219D0C12243EA51514FEA1C5018BF00F5F040A4
S315080219E04FEA300018BF41F000415FEA6C5C00F034
S315080219F02980BCF1FF3F08BF40F080407047130CB6
S31508021A0006BF12044FF0100C4FF0000C130E04BF61
S31508021A1012020CF1080C130F04BF12010CF1040C8C
S31508021A20930F04BF92000CF1020CD30F04BF5200AD
S31508021A300CF1010C11464FF00002A0F11F00A0EBB9
S31508021A400C00704711F0004F08BF704731F0004193
S31508021A503FF4D5AF0B0C06BF09044FF0100C4FF03C
S31508021A60000C0B0E04BF09020CF1080C0B0F04BF85
S31508021A7009010CF1040C8B0F04BF89000CF1020C4E
S31508021A80CB0F04BF49000CF1010CCCF12003A0EBEB
S31508021A900C0022FA03F302FA0CF241EA030100F1FE
S31508021AA00100704720F07F4C80EA030023F07F474D
S31508021AB0ACEB070303F57C5300F0004003F1FF0388
S31508021AC02DE980494FEA154B09B44FEA144325EA32
S31508021AD00B4E24EA03480FF2042606EB132749089D
S31508021AE03E785FEA320203FB0667C7F5000707FB83
S31508021AF006F64FEA54374FEAD64606F1020607FBC0
S31508021B00066CCCF1005C4FEA1C472CEA074C07FB33
S31508021B1006F40CFB06F504EB15464FEA961634BF97
S31508021B2000204FF000404FEAD13706FB07FC4FEA88
S31508021B301C4C0CFB0BF7D21B03FB0CF761EB0701E2
S31508021B400CFB0EF7B0EB074072EB17420CFB08F7DB
S31508021B5034BFA2EB0742B2EB074261EB17414FEAE9
S31508021B600C444FEA910706FB07FC4FEA1C4C0CFB98
S31508021B700BF7B0EBC74072EB573203FB0CF734BFD7
S31508021B80A2EBC742B2EBC74261EB57310CFB0EF729
S31508021B90B0EBC70072EB57720CFB08F734BFA2EB27
S31508021BA0C702B2EBC70261EB5771039F4FEA816125
S31508021BB041EA921104EBCC044FEAD1374FEA82622A
S31508021BC006FB07FC42EA90124FEA80604FEA1C4C79
S31508021BD00CFB0BF7D21B03FB0CF761EB07010CFBA3
S31508021BE00EF7B0EB074072EB17420CFB08F734BF4F
S31508021BF0A2EB0742B2EB074261EB17414FEA8C555B
S31508021C004FEA910704EB9C2406FB07FC4FEA1C4C9F
S31508021C100CFB0BF7B0EBC74072EB573203FB0CF722
S31508021C2034BFA2EBC742B2EBC74261EB57310CFB9A
S31508021C300EF7B0EBC70072EB57720CFB08F734BF0E
S31508021C40A2EBC702B2EBC70261EB577115EB4C2543
S31508021C504FEA816141EA92114FEA82624FEAD1372D
S31508021C6042EA901206FB07FC44F100044FEA806040
S31508021C704FEA1C4C0CFB0BF7D21B03FB0CF761EB70
S31508021C8007010CFB0EF7B0EB074072EB17420CFB91
S31508021C9008F734BFA2EB0742B2EB074261EB1741E2
S31508021CA015EB1C154FEA813141EA92414FEA82321D
S31508021CB042EA90424FEA80304FEA0C7644F1000439
S31508021CC048EA03434EEA0B484FF0000EB2EB080C03
S31508021CD071EB030724BF624639464EEB0E0E4FF0F0
S31508021CE0000B0018524149414BEB0B0BB2EB080CA7
S31508021CF071EB03077BF1000B24BF624639464EEBB4
S31508021D000E0E4FF0000B0018524149414BEB0B0BDC
S31508021D10B2EB080C71EB03077BF1000B24BF62469A
S31508021D2039464EEB0E0E51EA020718BF46F0010677
S31508021D3016EB0E7655F1000254F1000103D5BDE803
S31508021D408901BDE80088BDE88901BDE80048B619E1
S31508021D50524141EB0101A3F10103704780807F7E66
S31508021D607D7C7B7A79787776767574737271717001
S31508021D706F6E6E6D6C6C6B6A6A69686867666665B3
S31508021D806464636362616160605F5F5E5E5D5D5C41
S31508021D905C5B5B5A5A5959585857575656555555B2
S31508021DA05454535352525251515050504F4F4F4E12
S31508021DB04E4D4D4D4C4C4C4B4B4B4A4A4A49494960
S31508021DC048484847474747464646454545444444A2
S31508021DD0444343434342424242414141002B26D4B3
S31508021DE0770021D01CB54FEA370703B44FF010002D
S31508021DF04FF010014FF000000FBCBDE810400BF188
S31508021E00010BBBF1010F08BF5FEA170722BF12F1E8
S31508021E10010211F101014FF0004143F1000300F004
S31508021E20004043EA00007047F9D35708DAE746EA62
S31508021E30064613F1400F4FEA16461FDD13F1200F2F
S31508021E40DFBF16430A46002120335B42C8D0C3F1DE
S31508021E50200746EA064602FA07F74FEA164646EA10
S31508021E600706C3F1200722FA03F201FA07F721FA55
S31508021E7003F14FF0000342EA0702B1E746EA020617
S31508021E8046EA06464FEA164646EA0106BCBF46EA4F
S31508021E900646360C4FF000034FF000024FF00001E1
S31508021EA09EE72DE9C048934630B491E8380007C842
S31508021EB031EA400C48BF34EA430C03D5FFF7F2FD7A
S31508021EC0FFF78CFFF0BCBDE800882DE9C0489346B1
S31508021ED030B491E8380007C810F0804F08BF13F0F5
S31508021EE0804F03D100F005F8FFF778FFF0BCBDE894
S31508021EF0008820F07F4780EA030023F07F4C07EB37
S31508021F000C03A3F57C5300F00040A3F1FE0392F004
S31508021F10000F00F0B38095F0000F00F077802DE9EE
S31508021F2001494FEA11404FEA144621EA004800FBEC
S31508021F3006FC24EA064708FB06F607FB08F800FB38
S31508021F4007F718EB06484CEB164C4FEA124B18EB00
S31508021F5007484FEA15464CEB174022EA0B4E0BFB95
S31508021F6006FC25EA06470EFB06F607FB0EFE0BFBEA
S31508021F7007F71EEB064E4CEB164C4FF000061EEB0F
S31508021F80074E4CEB174B18EB0B0840F1000018EB09
S31508021F900E0B58EB000840F100008F1A4FF00001B3
S31508021FA03CBFC943661B14BFB5EB040C00213CBFFA
S31508021FB0C943F61B4FEA17444EEA8E0E27EA044532
S31508021FC04FEA1C4704FB07622CEA074C05FB07F796
S31508021FD00CFB05F604FB0CFC16EB074642EB174214
S31508021FE016EB0C4642EB1C421BEB060658EB0202AA
S31508021FF0414146EA9E0601D5BDE80189B619524114
S3150802200041EB0101A3F10103BDE801894FEA144539
S315080220104FEA114724EA054621EA074C05FB07F46D
S3150802202006FB07F70CFB06F105FB0CFC11EB074157
S3150802203044EB17444FEA124711EB0C4144EB1C449C
S3150802204022EA074C05FB07F206FB07F70CFB06F626
S3150802205005FB0CFC16EB074642EB174216EB0C4641
S3150802206042EB1C456A1854F1000148BF7047B6197D
S31508022070524141EB0101A3F10103704795F0000FAC
S3150802208037D04FEA11424FEA144721EA024624EAB8
S31508022090074C02FB07F106FB07F70CFB06F402FBEB
S315080220A00CFC14EB074441EB17414FEA154714EBB6
S315080220B00C4441EB1C4125EA074C02FB07F506FBDB
S315080220C007F70CFB06F602FB0CFC16EB074645EB7C
S315080220D0174516EB0C4645EB1C42121951F1000145
S315080220E048BF7047B619524141EB0101A3F10103FA
S315080220F070474FEA14454FEA114724EA054621EA92
S31508022100074C05FB07F106FB07F70CFB06F24FF037
S31508022110000605FB0CFC12EB074241EB174112EBDA
S315080221200C4251EB1C4148BF7047921841EB010122
S31508022130A3F101037047000070B5814214D002F082
S31508022140030522F0030202E040C840C1121F002A1A
S31508022150FAD10B46044604E014F8016B03F8016B46
S315080221606D1E002DF8DC00BF70BD10B501F003032B
S3150802217021F0030102E0002410C0091F0029FAD148
S31508022180024603E0002402F8014B5B1E002BF9DC31
S3150802219010BD70B50B4C0C4D0C4E324629462046E6
S315080221A0FFF7CAFF0A4C0B4D0B4E3246294620460C
S315080221B0FFF7C2FF094C0A4D29462046FFF7D5FF0D
S315080221C070BD00002CCD08080000002000000000A9
S315080221D088CE0808000000105C0900005C0900109F
S315080221E0D4720000FDF71CBF002100204E4A126877
S315080221F042F480324C4B1A6000BF4B4A126802F412
S315080222000030491C10B9B1F5A06FF6D1464A1268DA
S3150802221012F4003F01D0012000E00020012845D138
S31508022220414A4032126842F080523F4B40331A60AC
S315080222303E4A126842F480423C4B1A603A4A0832D5
S315080222401268394B08331A601A46126842F4004279
S315080222501A601A46126842F4A0521A60344A1B1FC0
S315080222601A601A1F126842F080721B1F1A6000BF9A
S315080222702D4A126812F0007FFAD040F205622D4B01
S315080222801A60294A0832126822F00302264B0833DA
S315080222901A601A46126842F002021A6000BF224AFF
S315080222A00832126802F00C02082AF8D1704710B5F3
S315080222B072B6012020494860082088601F480068D5
S315080222C020F402701D4908601C48E830006840F492
S315080222D0FE601A49E83108601348006840F00100B8
S315080222E01149086000201049083108600E48006844
S315080222F0134908400C4908601248091D0860081F5E
S31508022300006820F48020091F0860002006490C3165
S315080223100860FFF769FF10BD10B5FFF7C8FF02F0A6
S3150802232089FAFFF736FF10BD0038024000700040F8
S3150802233019544007003C0240002004E014ED00E076
S31508022340FFFFF6FE10300024EFF3108272B6026029
S315080223507047016881F310887047EFF305810068BA
S3150802236009B14FF001007047016881F31088704780
S3150802237072B670470168EFF3108281F3108800BFC6
S3150802238082F310887047EFF31080EFF3058180F02F
S31508022390010009B14FF000007047EFF3108072B6E2
S315080223A080F001007047EFF3108062B680F00100FA
S315080223B07047EFF3108172B601607047016881F3C6
S315080223C01088704730B502460B464FF001044FF0AD
S315080223D00000A2FB041503FB045402FB0044084652
S315080223E0214630BD70472048008810F0010F0CD0F6
S315080223F04FF6FE701C4908801C48D0E900301A1CAA
S3150802240040F101001949C1E9002017481430006853
S31508022410164AD2E900321843114670477CB5064679
S3150802242000216846FFF790FFFFF7DDFF04463046B6
S31508022430FFF7D8FF0546032D01D8002500E0ED1E5B
S3150802244000BFFFF7D0FF001BA842FAD96846FFF77C
S3150802245080FF7CBD70B50446A820444300BF651FB3
S31508022460284600F02BF970BD100C00403000001011
S3150802247001460A4690684068704701460A469068CF
S31508022480806870470EB56FF003006844324902E06F
S31508022490324A40F804298842FAD23148314908605A
S315080224A031483249086000F08DFC31483149084408
S315080224B02E49096808442D49086004F023FA2E4972
S315080224C0086000F06BFF03F047FA00F0FFFF0020F8
S315080224D0012303220421009028A000F04FFB2DA31C
S315080224E02FA2324932A000F049FB384938A000F041
S315080224F045FB01A902A800F059FCDDE90110FEF727
S31508022500AAF83AA037F038F9284939A037F034F949
S3150802251039A137A037F030F921A13AA037F02CF9C2
S315080225201CA138A037F028F901214EF6602005F0E3
S315080225304BFC0121022005F051FE0121084605F057
S3150802254040FC04F0E3F832A037F016F939A036F069
S31508022550B9FE08F0EDF80EBD00E000100DF0ADBAB8
S3150802256000000208080000102CCD06000C0000101E
S31508022570000000005C090000000000102E4E657481
S315080225804D46207625642E25642E25642E25640D57
S315080225900A00000030313A33383A33350000000079
S315080225A04D617920313420323031350040C9050871
S315080225B025732C204275696C6420446174653A0D52
S315080225C00A0925732025730D0A0000000E45060028
S315080225D041524D20436F6D70696C65722076657243
S315080225E073696F6E2025640D0A0000000C00000056
S315080225F0252D3135730D0A004275696C64204461D4
S3150802260074653A002020252D3133730D0A00000027
S315080226100C6D61696E2065786974656421213F3F96
S315080226203F2E202048616C74696E67204350550D11
S315080226300A0000006D61696E206578697465642117
S31508022640213F3F3F2E202048616C74696E67204304
S3150802265050550D0A0000000070B504460D460020CC
S31508022660FFF791FE08B1FDF731FD2946204603F032
S31508022670FDFD08F05DF870BD04B02DE9FF0F684650
S31508022680EFF30581FFF7E8BF81B000B52DE9FF5FDB
S315080226906846EFF30381C163AFF300801CB50446B5
S315080226A000216846FFF750FE0021204603F0DEFDB2
S315080226B008F03EF86846FFF74CFE1CBD001FFDDC1D
S315080226C0F746000010B504460020FFF75CFE08B185
S315080226D0FDF7FCFC034850F82400401E014941F866
S315080226E0240010BD9C09001010B504460020FFF70F
S315080226F04AFE08B1FDF7EAFC044850F8240000280F
S3150802270001DD012010BD0020FCE700009C09001035
S3150802271010B504460020FFF736FE08B1FDF7D6FCD1
S31508022720034850F82400401C014941F8240010BD12
S315080227309C09001070B50B46002113E05C5C082565
S315080227400BE0E60946EA4006F0B210F0800F01D027
S3150802275080F009006606340E6D1E002DF1DC00F0CD
S315080227607F00491C9142E9DB072107E04406200E57
S3150802277010F0800F01D080F00900491E0029F5DC0F
S3150802278000F07F0070BD000011B581B000BF0024C3
S3150802279012F0B6FB002001230322042100903FA079
S315080227A034F02CFB0BF0B8FC45A034F027FB484864
S315080227B0019934F03FF8002818DB454834F03CFA12
S315080227C0002813DB43A034F019FB00210A2005F088
S315080227D03AFD0021152002F0B3FEBDF804200021BF
S315080227E03F4820F073F83FA034F008FB3C480068E5
S315080227F010F0005F1FD13A48006820F4406038495B
S3150802280008600846006840F40060086037480068B7
S31508022810006850B1012035490090096800231A461C
S31508022820086809210BF04CFC00E000BF9DF8070080
S3150802283008B115F065F92A48006810F0005F28D03B
S315080228402748806800F00100012820D10124244885
S31508022850806800F00500052801D1012000E000206B
S315080228608DF806000020FFF798FD00BF204824F0E7
S31508022870D4F91EF00BFA00201549087100BF01F0C1
S31508022880E5FB00F023FE0020FFF78DFD01E007F0CF
S31508022890A5FF002C7FF47BAF1CBD00000D0A54690E
S315080228A06E79434C5220284275696C642025642E41
S315080228B025642E25642E2564290D0A0D0A000000BA
S315080228C05374617274696E672E2E2E0D0A0000000B
S315080228D01C00001052656164792E0D0A0000000082
S315080228E0801B0010446F6E652E0D0A00B80000109A
S315080228F0E82200107CB5044600216846FFF724FD4D
S315080229000748006800EA040605480068A043044927
S31508022910086035466846FFF71CFD28467CBD000060
S31508022920840000101CB5044600216846FFF70CFD1A
S31508022930084800682043074908600748006820B12C
S31508022940064800680449096888476846FFF701FD92
S315080229501CBD000084000010880000108C000010C6
S315080229602DE9F04788B004460E4690469A46DDF8A9
S3150802297040901CB9012008B0BDE8F087306810B154
S31508022980B8F1000F01D10020F5E7356805F1B0006E
S315080229903060A8F10108B0212846FDF77EFEBAF19B
S315080229A0000F01D0504600E020462860204634F049
S315080229B063FD686000BF6078A86000BF6088E86051
S315080229C0B9F1000F04D09820D9F80010415108E057
S315080229D0214602A81DF046FA002802DB9820039930
S315080229E041516868372830D2DFE800F0981C1D1E6E
S315080229F01F2021222324252627282930525F606694
S31508022A0053818283752A767F808485868788898A18
S31508022A108B8C8D8E8F90919293949898989898987B
S31508022A209596970000BF00BF00BF00BF00BF00BF5A
S31508022A3000BF00BF00BF00BF00BF00BF00BF00BF8E
S31508022A4000BF201D03C8C5E9040167E000BF60682E
S31508022A500746B7B105F190056F60384600F021FACE
S31508022A60286055F890097F2802D2D5F8900000E030
S31508022A707F2003463A46802105F1100000F029FC22
S31508022A8005E00020C5F89400C5F89000287445E0D2
S31508022A9000BF204634F0BFFB0746002342463146B4
S31508022AA0CDF80090FFF75CFF65E700BF00BF201D69
S31508022AB098210068485131E02046C168C5F89C1043
S31508022AC00446211D4988C5F8A01000BF211DA4226D
S31508022AD04968515122E021E000BF6068C5F8A800A4
S31508022AE000BFA068C5F8AC0018E017E016E000BF02
S31508022AF000BF00BF00BF00BF00BF00BF00BF00BFCE
S31508022B0000BF00BF00BF00BF00BF00BF00BF00BFBD
S31508022B1000BF00BF00BF00BF00BF00BF00BF01204B
S31508022B2029E770B504460D462946204608F073F88B
S31508022B3070BD02460120704770B504460D4616461A
S31508022B403246294620460AF0A3FC70BD10B5044653
S31508022B50002340221946204601F06CFD002340223C
S31508022B608021204601F066FD0121CE200155A0787C
S31508022B70D4F8282551688847002010BD0FB438B507
S31508022B8005A800900099049800F0A6F804460020CB
S31508022B900090204638BC5DF814FB10B50446FF21A8
S31508022BA0204600F0C3F810BD2DE9FE4304460D4643
S31508022BB00027A046002101A8FFF7C6FB00214046D0
S31508022BC005F041FB052007F0ADFD012D12D10220CB
S31508022BD00346002211460090404605F019F90520E1
S31508022BE007F0A0FD404603F0B1F8C7B2372007F058
S31508022BF099FD06E00021404603F0D4F8462007F086
S31508022C0091FD0121404605F01EFB052007F08AFDCD
S31508022C1001A8FFF7A9FB0FB1012700E000273E46EE
S31508022C2001A8FFF796FB3046BDE8FE8310B50446B9
S31508022C30204608F021F810BD612804DB7A2802DC58
S31508022C40A0F1200188B2704710B5044620460AF062
S31508022C5093FC10BD70B504460D4616463246294603
S31508022C6020460AF033FD70BD10B50446D4F828157F
S31508022C70086980470321CE200155002010BD0FB4F4
S31508022C8038B5044606A800902046009A059900F031
S31508022C9013F9054600200090284638BC5DF814FB57
S31508022CA030B503460C460021002200BF13F8015B2B
S31508022CB02946412D02DB5A2900DC203114F8015B32
S31508022CC02A46412D02DB5A2A00DC203209B19142FA
S31508022CD0ECD0881A30BD000013B50446034948698A
S31508022CE02146019A00F0E8F81CBD000038000010E1
S31508022CF030B503465AB1002006E00B4C04EBC30478
S31508022D00245C0C54441CE0B20828F6DB0AE00020D6
S31508022D1006E00C5C044D05EBC3052C54441CE0B2DA
S31508022D200828F6DB30BD0000587800102DE9F0417E
S31508022D3007460C46002600250AE004F0010138463B
S31508022D40FFF732FFA8403043C6B26410681CC5B20A
S31508022D50082DF2DB3046BDE8F08170B505460C4613
S31508022D6021462846FFF7E2FFA04201D1012070BDA5
S31508022D700020FCE701460A2902DA01F1300001E0E7
S31508022D8001F13700C0B270471CB5044600216846F7
S31508022D90FFF7DAFA04480068A04303490860684660
S31508022DA0FFF7D7FA1CBD000084000010034A026030
S31508022DB0034A024BD21A121D0A607047000000200D
S31508022DC0F8FD022010B539F034FB03A10348006868
S31508022DD0FDF76EFA10BD000000000000743B0608FD
S31508022DE00020704710B50446214605A036F0C4FCFB
S31508022DF0214607A036F066FAFFF746FC10BD00002A
S31508022E000C4552524F523A0D0A25730D0A0000001C
S31508022E104552524F523A2025730D0A0003460020A6
S31508022E20704710B504460421CE200155D4F828155A
S31508022E30C8688047002010BD70B504460D4629466D
S31508022E40204608F0D1FF70BD0FB4F8B504460D460A
S31508022E5009A8009029462046009B089A00F055FAD0
S31508022E600646002000903046F8BC5DF814FB2DE9B2
S31508022E70F04107460D4614460FB104B115B90120B3
S31508022E80BDE8F081204600F00CF80646701C854223
S31508022E9001D20120F4E721463846FDF76FFA0020F1
S31508022EA0EEE701460A4600BF12F8013B002BFBD1AA
S31508022EB0501A401E70470000F7B5ADF5007D06466C
S31508022EC00F4600243A464FF400716846829B00F08A
S31508022ED01CFA044606F47F40B0F5407F10D006DCA3
S31508022EE0B0F5807F0AD0B0F5007F24D107E0B0F5AF
S31508022EF0A06F16D0B0F5C06F1DD107E000BF00BFA6
S31508022F0022466946304602F010F814E00C4800687A
S31508022F1030B100200DF80400684609490968884757
S31508022F2009E0002504E01DF8050004F055FA6D1CB9
S31508022F30A542F8DB00BF00BF20460DF5037DF0BDB4
S31508022F401400001030B5104B1B685B1C0A2493FB57
S31508022F50F4F504FB15330C4C236023461B6803EB7C
S31508022F6043030A4C44F82300074B1B6803EB43034D
S31508022F7004EB83035960044B1B6803EB430304EB1E
S31508022F8083039A6030BD0000A8060010207700105F
S31508022F90F8B5044626460021304605F054F94FF4A2
S31508022FA0167007F0BFFB0220034600221146009066
S31508022FB0304604F02DFF412007F0B4FB304602F0FC
S31508022FC0C5FEC5B24FF4BA7007F0ACFB0DB90120C5
S31508022FD0F8BD0020FCE706207047000070B50446DD
S31508022FE00E461148006810F4807F12D10E48006818
S31508022FF040F480700C49086000200C4908600C49AE
S31508023000C86248604FF0010088600A48C8600A48EA
S315080230100861204602F0CCF905460423002211462F
S3150802302002F0E2F9012070BD44380240042301404F
S31508023030002001409224490092244912F0B59DB01D
S3150802304004460D46002104A817F008FF04A968469D
S315080230501CF0E6F812A9204602F0E8FD071E00DA7F
S3150802306054E007A9284602F0E1FD071E00DA4DE002
S315080230709DF8200068B19DF84E0010B94FF022471E
S3150802308044E00022214604A817F0D4FC071E3BDAC6
S315080230903CE0294604A817F0FFFD071E00DA35E0D2
S315080230A09DF84C0070B19DF8220030B90AA904A80F
S315080230B017F08AF8071E00DA28E004A9204618F055
S315080230C00CF921E004A834F0A9F850B1204634F0EE
S315080230D0A5F890B90AA904A817F076F8071E0CDA1B
S315080230E014E0204634F09AF8012806D10AA904A861
S315080230F017F020FB071E00DA08E004A9204618F09C
S3150802310033F9071E00DA01E0002700BF3E4668468B
S315080231101CF08FF830461DB0F0BD70472DE9F04718
S3150802312080460E46404634F04EFA814616F09AFE1E
S3150802313000684FF4B47190FBF1F201FB120006210C
S3150802314090FBF1F4002C00DA3C34084800EB8405C5
S3150802315016B1B5F9020001E0B5F90000014640468C
S3150802316019F04FFA00273846BDE8F08774C90508F2
S3150802317000207047024600207047000008B500216B
S31508023180112005F060F802200323034A012100906A
S315080231901B2004F03DFE08BDF145020810B50024C7
S315080231A006E0064901EBC401496808688047641CC1
S315080231B0034800688442F4D310BD0000A808001032
S315080231C070C905080020704740F281207047014601
S315080231D000207047014600207047034600207047CA
S315080231E0704770B504460D462946204608F020FE6B
S315080231F070BD10B50446204608F06CFE10BD2DE9D8
S31508023200F04104460D4616460020FFF7BCF808B101
S31508023210FCF75CFF0CB1072D01DBFCF757FF04F145
S31508023220100050F8250020B104F13C0050F82500A2
S3150802323008B1FCF74BFF04F1100151F8250037F0ED
S3150802324064FD074604F1100151F8250081683160D2
S31508023250012202FA05F16079FFF7EEFD3846BDE86C
S31508023260F08170B504460D4616460020FFF78BF826
S3150802327008B1FCF72BFF0CB1072D01DBFCF726FF83
S3150802328004F1100050F8250020B104F13C0050F872
S31508023290250008B9FCF71AFF36B104F1100151F8F6
S315080232A0250037F009FD70BD04F1100151F825001B
S315080232B037F01AFDF7E770B504460D46164604B10F
S315080232C00DB9012070BD324629462046FDF77AF827
S315080232D0F8E72DE9F04104460F4616461D460CB19D
S315080232E006B117B90120BDE8F081681C874203D2EE
S315080232F0002020700120F6E7002060552A46314654
S315080233002046FDF7F1F90020EDE77FB504460D46A4
S315080233101646324629462046039BFCF7AFFF04B001
S3150802332070BD2DE9F04105460F46164606EB4600E6
S3150802333034F040FB804644463D44002319E02A788F
S31508023340D11702EB11710811FFF714FD04F8010BEE
S315080233502A78D11702EB11710911A2EB0111C8B231
S31508023360FFF708FD04F8010B2D2004F8010B5B1C7E
S315080233706D1CB342E3DB0021601E04460170404621
S31508023380BDE8F081014621F07F40704702461006EB
S3150802339061F3170070470146080E704710B502F030
S315080233A015F9012010BD0146112008600120704759
S315080233B02DE9FF4F87B007468B461D464FF000089A
S315080233C0002006908146059007B115B90BB0BDE8F5
S315080233D0F08F3B4837F070FD064616E0304637F068
S315080233E08EFD8246BAF1000F03D0504637F087FDAC
S315080233F008B94FF0000AF06AA84205D1304637F0FC
S3150802340026FC304637F03AF95646002EE6D1002415
S3150802341019E02C4850F83400A0B12A4850F8340074
S31508023420806A78B1274850F8340006A9826A284685
S31508023430904738B1234850F8349000EBC4004068EE
S31508023440059004E0641C204800688442E1D300BF6A
S31508023450B9F1000F01D10120069000242AE0342098
S3150802346037F012F98046B8F1000F00D1AEE73421E1
S315080234704046FDF712F9B9F1000F01D0012000E02C
S315080234800020CDE90195CDE90340059800905A46FA
S3150802349039464046099B1CF0E3F918B9404637F00D
S315080234A0EDF806E0434600220121032000F0B0FEB3
S315080234B000BF641C06988442D1D300BF86E7000089
S315080234C05C0B0010A808001070C905081CB518F096
S315080234D0A5FB11F013FA00BF00200190009069467F
S315080234E001A801F0FFFCDDE9001003F04BFD00BF67
S315080234F000F0B6FB01F014F801F0D6FF01F005FA68
S315080235000020FEF750FF13F051F804F065FC13F0A3
S31508023510A9F8FFF743FE1CF0E3F8FFF72FFE1CF0AD
S315080235202BF906F00DF800F01EF805F0E1FC00F0A4
S3150802353013F801F0C7F902F0E5FB00F068FE01F0A6
S3150802354076F901F0CDFC02F07CFA01F044FD00F0B8
S3150802355007F804F013FC1CBD10B507F0F3FA10BD0A
S315080235604FF04A4070470120704700002DE9F041AC
S3150802357005460A2D02D30020BDE8F0814448425D83
S31508023580501EDFF8108158F820104348435D501E3C
S31508023590DFF8088158F82060DFF8048158F82040DF
S315080235A0B1F1804F11D03F4881420ED03E48814248
S315080235B00BD03E48814208D03D48814205D03D485D
S315080235C0814202D03C48814217D13C4800682042D9
S315080235D03AD13A4800682043DFF8E080C8F800008C
S315080235E0842008803648B6FBF0F04FF00108C8EB95
S315080235F0400008850120888226E03048001D0068C0
S31508023600204221D12D48001D00682043DFF8AC80F6
S3150802361008F10408C8F80000842008802848B6FB88
S31508023620F0F04FF00108C8EB4000088501208882B7
S315080236302448814202D02448814205D1B1F8440087
S3150802364040F40040A1F84400022A01D0052A06D116
S315080236504FF0000801F1340040F8238005E04FF0EE
S31508023660000801F1340020F82380682713F0010FBF
S3150802367000D03F0201F1180C13F0020F01D001F13C
S315080236801C0CBCF800003843ACF80000012073E7B4
S31508023690D4320608F4320608DE3206083C33060837
S315080236A0743306080004004000080040000C00407D
S315080236B000180040001C004000200040403802402C
S315080236C040420F0000000140000401407CB5044658
S315080236D00D4664B100216846FEF736FE00222946E9
S315080236E0204605F049F86846FEF733FE00BF7CBD62
S315080236F070B504460120FFF70BF80220FFF708F819
S31508023700104850F82450B5B1A0100F4951F82000BE
S31508023710A107090FC84000F00F060C4B53F82420E6
S315080237200B4B03EB86231B69E34003F0010144EAD2
S315080237300610A84700BF0220FEF7C4FF0120FEF7C5
S31508023740C1FF70BDC40A001008380140040B0010FE
S31508023750000002402DE9FE4306460C4617464FF086
S315080237600008002E56D0304633F086FE054644F44D
S315080237708030009000BF6846011D38680860786886
S315080237804860A54202D14FF0010835E0192C0AD14A
S31508023790102D05D1304633F03EFD08B9012000E070
S315080237A00020804628E0102C0AD1684633F033FD03
S315080237B018B9192D01D1012000E0002080461BE02E
S315080237C005EB8500154951F8200010F4003F01D198
S315080237D0FCF77CFC05EB8500104901EB800040797B
S315080237E0042809D104EB840001EB800040790428FF
S315080237F002D22C464FF00108B8F1000F09D0214633
S31508023800304616F0E8FD00BF301D39680160796858
S31508023810416000BF4046BDE8FE830000641006080A
S3150802382030B504460D46E888012804D029462046C4
S3150802383001F029FC19E0CE20005D022802D00328F7
S315080238400DD105E001220949204603F051FA0BE0A1
S31508023850012204F1CC01204603F04AFA04E0294683
S31508023860204601F010FC00BF00BF30BD1005001055
S3150802387030B504460D46CE20005D022802D0032844
S3150802388011D100E000BFD020005918B10320094920
S31508023890086002E00120074908600122054920461E
S315080238A003F026FA04E02946204601F0ECFB00BFA5
S315080238B000BF30BD0C05001070B504460D46688879
S315080238C02F49087008460078012804DD2946204653
S315080238D001F0D9FB52E0CE20005D022802D003286F
S315080238E046D116E02648007878B12548007884F84B
S315080238F0CC000321CE20015521480178204600F04C
S31508023900B2FC204604F0F8FB02E0204604F0F4FB81
S3150802391033E01B48007878B90221CE2001551848B1
S31508023920007884F8CC0016480178204600F090FC0E
S31508023930204604F0E1FB1AE094F8CC001049097815
S31508023940884211D094F8CC10204600F081FC0C482D
S31508023950007884F8CC000A480178204600F083FCF7
S31508023960204604F0C9FB02E0204604F0C5FB04E049
S315080239702946204601F087FB00BF00BF70BD000044
S315080239808005001070B504460D462946204607F004
S31508023990F1FD70BDF0B505460B460026E86800B98C
S315080239A0F0BD41E0044647883C4401460778022FA9
S315080239B00AD003DC7FB3012F2ED104E0032F08D0EF
S315080239C0FF2F29D111E000BF07789F4200D10126B7
S315080239D026E007789F4207D14778B2F802C00CF072
S315080239E0FF0C674500D101261AE00F7992F800C04C
S315080239F067450FD14F7992F801C067450AD1CF883A
S31508023A00B2F802C0674505D10F89B2F804C0674506
S31508023A1000D1012604E000E000BF0126002000BF15
S31508023A2000BF06B9204600BF002EBBD000BFB7E7CD
S31508023A3010B50446204607F0BFFD10BD70B5044612
S31508023A400D46164632462946204607F073FE70BDD5
S31508023A5070B50446204601F0ABFC054600231A461B
S31508023A60194601F0C1FC70BD014640F67460086053
S31508023A70012070470FB4F8B504460D4609A8009010
S31508023A8029462046009B089A00F023FA064600209B
S31508023A9000903046F8BC5DF814FB10B530B91D2409
S31508023AA00C601E2414601F241C6019E0012806D12C
S31508023AB005240C600624146007241C6010E0022802
S31508023AC006D12A240C602B2414602C241C6007E0DF
S31508023AD0032805D142240C604D24146046241C6038
S31508023AE010BD000000487047007A030A70B5064602
S31508023AF00A20A6FB00400546012200232046294645
S31508023B00FCF7E8FA04460D462046294670BD2DE91B
S31508023B10F04104460D464FF00A024FF000062146D0
S31508023B20A1FB020705FB027204FB062504464FF0B9
S31508023B3001024FF0000320462946FCF7CBFA044659
S31508023B400D4620462946BDE8F08130B502461446A0
S31508023B500B46B4F90000B3F90050401B30BD70475C
S31508023B600146002070470A2070472DE9F0410646B3
S31508023B700D461746984605F07F0000EBC00106F190
S31508023B80D40000EB81040120607005F07F002070EC
S31508023B90E76000206061C4F81080207820B92146C9
S31508023BA0304603F0C3FF03E02146304603F0B3F87C
S31508023BB00020BDE8F081000018B50024002000901E
S31508023BC000BF032006F066FD1648C068006900902B
S31508023BD0601C04461449884200D918BD0098C00FD3
S31508023BE0EFD00024009820F00100401C00900098B5
S31508023BF00C49C968086100BF0A48C0680069009094
S31508023C00601C04460849884200D904E00098C0F3BB
S31508023C1000000128F0D000BF032006F03BFD00BFDC
S31508023C20DBE70000C05C0010400D030070B50446D7
S31508023C300D4607222946204619F024FB70BD70B5A9
S31508023C4004460D4603222946204619F01BFB70BD81
S31508023C5010B5024807F0A8F810BD0000085C00106D
S31508023C6010B5024807F0AAF810BD0000085C00105B
S31508023C70F8B504460D46164622462B4602480096D5
S31508023C8007F0F0F8F8BD0000085C001010B504460D
S31508023C900120FEF73DFD0220FEF73AFD0A4800889C
S31508023CA020F0020008490880FEF79DFB074B0CCB63
S31508023CB0801A994101D310F0D1FD0220FEF702FDC8
S31508023CC00120FEF7FFFC10BD100C00402800001072
S31508023CD070B504460D46CE20005D022802D00328A0
S31508023CE011D100E000BF688801280BD10021D0203D
S31508023CF00151D4F824052946826820469047204671
S31508023D0004F0FAF904E02946204601F0BCF900BF9E
S31508023D1000BF70BD30B504460D46022340228121FC
S31508023D20204600F087FC022340221946204600F06E
S31508023D3081FC4023034A0221204603F0FAFF0020B1
S31508023D4030BD00000070001070B504460D46A88804
S31508023D50F8B9E888E8B9688800F07F06CE20005DE1
S31508023D60032804D12946204601F08DF915E0CF2013
S31508023D7006553146204604F0E1F9204604F0BCF91E
S31508023D801EB10221CE20015507E00121CE200155A0
S31508023D9003E02946204601F076F970BDF8B50446D7
S31508023DA00D460026688801280CD10121D020015130
S31508023DB0D4F824052946826820469047204604F00E
S31508023DC09BF937E06888022834D1A88810F0FF0FDB
S31508023DD030D1206940680090A8880612062E22D2A1
S31508023DE0DFE806F02103090F151B009820F0700082
S31508023DF01030009017E0009820F0700020300090F4
S31508023E0011E0009820F07000303000900BE0009826
S31508023E1020F070004030009005E0009820F0700015
S31508023E205030009000BF00BF0099206941602046CB
S31508023E3004F062F9F8BD2DE9FC4104460E46174620
S31508023E4000216846FEF780FAD6B1002516E004F18D
S31508023E50100050F8250020B104F13C0050F8250066
S31508023E6000B10AE004F1100151F8250036F00DFF01
S31508023E702946204600F064F800BF6D1C072DE6DBD4
S31508023E80A7B1002510E004F1100050F8250050B142
S31508023E9004F13C0050F8250028B104F1100151F84C
S31508023EA0250036F0F2FE6D1C072DECDB6846FEF7A0
S31508023EB050FABDE8FC8110B50446204607F0C7FC57
S31508023EC010BD70B504460D462946204607F008FD82
S31508023ED070BD2DE9FF4104460D46904629682068C3
S31508023EE04246039BFFF711FA064600BF012000EB84
S31508023EF0E67707B92E6820683044206000202168DA
S31508023F0008702868801B2860384604B0BDE8F0812E
S31508023F1070B50546284600F0D7FC0446A10804F009
S31508023F200302024B985CFFF731FA70BD8C40060813
S31508023F30014609B1002070470048FCE7305C0010D2
S31508023F4030B504460D464CB104F1100050F8250070
S31508023F5020B104F13C0050F8250008B1002030BD1C
S31508023F6040220349022004F0E9FB0120F7E700009A
S31508023F700070001010B50446002003490860204668
S31508023F8005F0FCFB002010BDD004001070B50546F4
S31508023F901BF0EAFB04461AE0E06AA84213D120465F
S31508023FA01BF0BFFB0646012120461BF0A5FB214656
S31508023FB0084836F0D3FD234600220221032000F0EA
S31508023FC027F9344603E020461BF0ABFB0446002CD7
S31508023FD0E2D170BD5C0B00107047000070B5044654
S31508023FE004202080032060800120A0800020E08039
S31508023FF03825372308A2382104F10800FFF769F9A2
S315080240001148006D206430220F49543104F14400EE
S31508024010FCF723FA012070BD4E65746475696E6FEC
S3150802402020332057692D4669202876342E332E32BE
S315080240302E322920627920536563726574204C6199
S315080240406273204C4C43000000C4000810B50024DB
S315080240500AE0204850F8240020B11E4951F82400ED
S31508024060804700E002E0641C102CF2D300BF00F087
S315080240705FF800F031F801F049FE03F02CF900F080
S31508024080FBFF01F041FE02F089F804F009FA00F09C
S3150802409027F802F083F902F077FD04F071F905F0CA
S315080240A0E5F81BF0A9FB12F045FB01F08BFD01F0C8
S315080240B08DFE02F037FD02F04BFB0020FEF76DF98C
S315080240C001F070FB00F006FB17F094FD10F0B2FB4E
S315080240D010BD00005C09001010B506F059FD10BDB0
S315080240E04FF04A40704780207047000070B586B08E
S315080240F004464FF4C026214668461BF0B3FE002844
S3150802410002DA002006B070BD0398C07B00EB80007F
S31508024110064901EB8005286800F4C020B0F5C02FD7
S3150802412001D10120EEE70020ECE700006410060842
S315080241300120704740F2012070470346002070476D
S31508024140F0B502462548845C601EDFF894C05CF828
S3150802415020102448855C601EDFF88CC05CF820605D
S31508024160FF2715F0010F00D03F0201F1180315F0E1
S31508024170020F00D01B1D1888B8431880088BB1F8A7
S315080241801CC050EA0C0026D1B1F1804F11D0174855
S3150802419081420ED0164881420BD01648814208D079
S315080241A01548814205D01548814202D014488142F9
S315080241B007D1144800683040DFF848C0CCF8000040
S315080241C009E01048001D00683040DFF838C00CF1DD
S315080241D0040CCCF800000120F0BD0000D432060819
S315080241E0F4320608DE320608743306080004004074
S315080241F000080040000C004000180040001C004067
S3150802420000200040403802404FF400707047704763
S315080242102DE9FC4104460D4616461F460B48006822
S3150802422090B100216846FEF78FF8300440EA042070
S3150802423040EA05083A4641460448006804F09CFAF2
S315080242406846FEF786F800BFBDE8FC81D004001078
S3150802425070B504460D46D4F8240529464268204618
S315080242609047002070BD70B504460D46D4F8240563
S315080242702946026820469047D4F828158868804758
S31508024280002070BD70B504460D46164633462A46CA
S315080242902146024806F0FAFD70BD0000085C0010CF
S315080242A02DE9FC4704460D4616461F46DDE90A89EE
S315080242B03B46324629462046CDE9008908F08EFE5D
S315080242C0BDE8FC8770B505460E46002E3CD105F1C1
S315080242D0D404CD20405D022844D1A168A069884251
S315080242E00AD9A168A069401AA061A06982B22846C3
S315080242F0E16805F009F835E0A168E069B0FBF1F27A
S3150802430001FB120078B9A168E06988420BD3D4E9A7
S315080243100701884207D200221146284604F0F4FF14
S31508024320002020621EE0D5F82405C06840B1CE20E0
S31508024330405D032804D1D5F82405C1682846884774
S31508024340284604F02BFD0DE0D5F82405406948B14E
S31508024350CE20405D032805D1D5F8240531464269A9
S3150802436028469047002070BD30B505460C46207891
S3150802437010F0700008D0102821D100BF2146284627
S3150802438000F081FE022030BD6078062804D00A2893
S3150802439008D00B2811D10BE02146284600F073FEFF
S315080243A00220F0E701220749284602F0A1FC04E0B0
S315080243B06088C0B20349086000BF00BF00BF00BFE3
S315080243C00020E0E7400500102DE9F04381460C463F
S315080243D01546002202214846FFF7DCFA8046B8F164
S315080243E0000F02D10020BDE8F08308F10D06B8F8E7
S315080243F0020000EB0807206818B92660002028602A
S3150802440021E02068B0421CD92068B84219D228682F
S31508024410B04216D32868B84213D2206840780528D5
S315080244200FD12068007807280BD12868407804281D
S3150802443007D128680078092803D12068C01D2060A2
S3150802444001E00020CFE719E020684078042806D169
S3150802445020680078092802D12068286009E02068C7
S315080244604078052805D120680078072801D101205F
S31508024470B9E7266820680078064426602068B842AC
S31508024480E2D30020AFE710B50446204607F05CFAEF
S3150802449010BD000030B5039C064D2D5C0D60064D1F
S315080244A02D5C1560054D2D5C1D60054D2D5C256046
S315080244B030BD0000181E0608101E0608281E06082B
S315080244C0201E06082DE9F04104460D461646002729
S315080244D004F47F40B0F5807F06D0B0F5007F0BD09C
S315080244E0B0F5407F18D10FE0E1B2481E32462946A0
S315080244F0FEF722FB07460FE0E1B2481E324629467E
S3150802450006F061F9074607E0E1B2481E3246294637
S31508024510FEF784FC074600BF00BF3846BDE8F081B7
S3150802452000BF002003490860486000BF02490860CE
S3150802453001207047E07B0010840000100146024803
S315080245400068084070470000840000103EB5054622
S3150802455018A0FEF7A6FC044616A000210123032292
S31508024560CDE901040091042128460FF087FC1D4875
S31508024570D0F80401A0B11B48D0F80401406978B10B
S315080245801848D0F80401406900F11C04E08800903C
S31508024590A3886288218805F1400032F05EFC08E0B3
S315080245A00020034602460146009005F1400032F01B
S315080245B054FC3EBD4E65746475696E6F2033205790
S315080245C0692D4669202876342E332E322E3229203A
S315080245D0627920536563726574204C616273204C5C
S315080245E04C430000B41E001003460020704700002A
S315080245F070B505460C46164664B90123094A0A49A6
S315080246000A4812F00FF9094B0022114608A0FEF7D4
S31508024610CFFE06E00548FFF7B9FC0121034811F071
S31508024620DFFF70BDEC01001038020010986F001011
S31508024630534400002DE9F04106460D4690461F46B2
S3150802464005F08000802808D105F07F0000EBC00144
S3150802465006F1D40000EB810407E005F07F0000EBC9
S31508024660C00106F53C7000EB810405F07F0020705E
S3150802467005F08000C0096070C4F80880E7706078A9
S3150802468008B12078E080022F01D10020207121464E
S31508024690304601F0F6FE0020BDE8F0810146C86802
S315080246A0406900F00100704710B5024806F050FC58
S315080246B010BD0000085C0010F8B504460D46164603
S315080246C022462B460248009606F06CFCF8BD00000E
S315080246D0085C001010B5024806F09CFD10BD0000EB
S315080246E0085C001070B505460E465EBB05F53C74BF
S315080246F0CD20405D032833D1A168A069884210D92C
S31508024700A168A069401AA061A368A069984201D26B
S31508024710A06900E0A06882B22846E16803F0E0FCDE
S315080247201EE0D5F82405006940B1CE20405D032875
S3150802473004D1D5F82405016928468847284603F096
S31508024740DBFC0DE0D5F82405806948B1CE20405D32
S31508024750032805D1D5F824053146826928469047AB
S31508024760002070BD2DE9F04106460F46DFF8388075
S31508024770012239464046FEF774FD044684B125688F
S31508024780002004E0211D095C084A1154401CA84275
S31508024790F8DB2B46054A81213046FFF7E6F900BFCA
S315080247A00020BDE8F0810000305C00104070001067
S315080247B030B504460D468121204600F080FC0221D0
S315080247C0204600F07CFC002030BD10B50446207956
S315080247D094F86E10884229D02079052804D101223E
S315080247E011462046FFF727FB94F86E00207194F8CD
S315080247F06E00072816D2DFE800F0040A0B0C0D0E2D
S3150802480014000020A4F88C00C4F884000DE00CE023
S315080248100BE00AE009E0002201212046FFF70BFB24
S3150802482003E002E0FBF752FC00BF00BF10BD012007
S315080248307047000010B51F48006840F00F001D4978
S3150802484008600846006840F0100008604FF02840EB
S31508024850194908604FF420701849086080031849FE
S3150802486008600020144948601449091D0860144963
S31508024870091D086010498860C0201049083108607F
S315080248804FF420000E49083108604FF0C8400A4923
S31508024890C860881509490C310860002008490C319E
S315080248A008600221082001F0CFF80021112003F048
S315080248B0CAFC10BD30380240000002400004024023
S315080248C0000802400020704710B50246116811F828
S315080248D0010B10F0800F16D000F0C003802B05D113
S315080248E08306980C11F8013B18430CE0C306D80856
S315080248F011F8014B40EA044011F8014B40EA042042
S3150802490011F8013B1843116010BD012070470420BD
S31508024910704700000048704740420F002DE9F047F3
S315080249208EB08246BAF1000F03D001200EB0BDE860
S31508024930F08700210CA8FDF707FDFC4F0120FC4972
S315080249400860FC48F867072087F88000082087F87F
S315080249506F00012608E0002107F13C0040F8261006
S31508024960402109388155761C072EF4DB0020F249CE
S3150802497008800B900A905CE00B98807800F07F061E
S31508024980072E03DA0A988078032804DD0CA8FDF7B7
S31508024990E0FC0120CAE70B98807810F0800F04D05B
S315080249A0012107F13C0040F826100B98B0F8049054
S315080249B0B9F1080F0DD0B9F1100F0AD0B9F1200FCD
S315080249C007D0B9F1400F04D00CA8FDF7C2FC0120AC
S315080249D0ACE707F1330000F80690711E8B225143AB
S315080249E0D64A02EB8100002101604160816000BF66
S315080249F0701E8B214843114601EB800107F1100016
S31508024A0040F826100B98C07800F00300012804D15C
S31508024A100CA8FDF79EFC002088E70B98C07800F0EA
S31508024A20030071008840C44909880843C2490880BE
S31508024A3000BF0AAA0BA93846FFF7C6FC00289BD175
S31508024A40BD48008820B90CA8FDF783FC01206DE754
S31508024A504FF47A70FDF7E2FC0021504600F0F8FDAB
S31508024A600022B749432004F065F9012005F052F9FE
S31508024A700A21092000F0E8FF0A210B2000F0E4FFD2
S31508024A800A210C2000F0E0FF02230122002109205E
S31508024A9000F0AAFC0223012200210B2000F0A4FC4C
S31508024AA00223012200210C2000F09EFC4FF48040D4
S31508024AB005F050F9802005F035F94FF0805005F0E1
S31508024AC041F9A049A048C0F82415A049C0F82815FC
S31508024AD09F49C0F82C154FF0000801209A498870A2
S31508024AE0402088804FF0A0480120C872082008702C
S31508024AF0042048704FF4A070C88002200872084645
S31508024B00C0F80C8008F500600861002410E008F57A
S31508024B10106000EB44118C48143040F8241008F554
S31508024B20306000EB44118848503040F82410641C69
S31508024B3085484078A042EAD8002408E008F5805063
S31508024B4000EB043180488C3040F82410641C7E48FF
S31508024B500078A042F2D808F560607B49C1F8C8001F
S31508024B600121794880F8CE10002180F8CF10002460
S31508024B7011E004EBC4017448D43000EB810501202E
S31508024B8068702C70EC800020E8704020A860002035
S31508024B90E8602861641C6C484078A042E9D8002481
S31508024BA00FE004EBC4016B4800EB81050020687036
S31508024BB02C70EC80E8704020A8600020E86028612C
S31508024BC0641C61484078A042EBD804F08BFF0020B1
S31508024BD0099008905C48C068C0680990099820F056
S31508024BE0400040300990099820F0804000F180404A
S31508024BF0099055490998C968C860FEF7DDFF002083
S31508024C000890089820F4803000F5803008900898BB
S31508024C1020F4802000F580200890089820F40020CF
S31508024C2000F5002008904848407A28B1089820F4F0
S31508024C30801000F58010089043490898C96888636F
S31508024C40142005F037FC0020079006900590049082
S31508024C50039000213C48D0F8C80001603A48006930
S31508024C6000680690069820F4C0500690069820F030
S31508024C700300C01C0690344806990069016080202A
S31508024C803149C9684862059880B200F580000590E6
S31508024C9005986FF30F00803005902B490598C9686F
S31508024CA08862059800EB1041049861F30F0004909E
S31508024CB0049880B200F50000049023490498C96854
S31508024CC0C1F80401049800EB104161F30F00049047
S31508024CD0049880B204901C480499C068C0F8081168
S31508024CE0049800EB104161F30F000490049880B217
S31508024CF0049015480499C068C0F80C11102112488E
S31508024D0002F0F6F8104802F0CDF800210E480069C4
S31508024D1001610D4800694161491E0B4800698161BC
S31508024D20002109480069C16100243EE0305C001098
S31508024D308C010010FC6E001088010010F46100104E
S31508024D40218E020814050010C05C001064050010CC
S31508024D50EC040010B05F0010604850F824000068A8
S31508024D6007900798C00F0ED000200790079820F0EA
S31508024D70804000F180400790079820F0006000F11B
S31508024D800060079001E000200790544850F824007C
S31508024D90079901600021514850F824000161FF215A
S31508024DA04E4850F824008160641C4C4814384078F8
S31508024DB0A042D1D800242CE048483C3050F82400C0
S31508024DC0006801900198C00F0ED00020019001984A
S31508024DD020F0804000F180400190019820F00060A8
S31508024DE000F10060019001E0002001903B483C3050
S31508024DF050F8240001990160002138483C3050F8E7
S31508024E0024000161FF2135483C3050F824008160B6
S31508024E10641C324814384078A042CDD8002003904A
S31508024E20039820F4807000F5807003902B4814389C
S31508024E3000690069039988430843284914390969AE
S31508024E4008610020029025491439C9688861401E04
S31508024E5022491439C9684861029820F010001030B6
S31508024E600290029820F0004000F100400290029859
S31508024E7020F4006000F500600290029820F4805049
S31508024E8000F580500290029820F4005000F5005078
S31508024E900290029820F4802000F580200290029861
S31508024EA020F4002000F5002002900C481438C0684F
S31508024EB0806902998843084308491439C968886190
S31508024EC004F04AFD05491439D1F8281508688047BF
S31508024ED00CA8FDF73EFA002028E50000D45C001075
S31508024EE001207047002202600A60704710B5044626
S31508024EF004F47F40B0F5807F06D0B0F5007F08D075
S31508024F00B0F5407F0FD109E0E1B2481EFDF79CFEDD
S31508024F1010BDE1B2481E05F004FDF9E7E1B2481EEC
S31508024F20FEF758F9F4E70020F2E72DE9FC5F04469C
S31508024F300F46164604F47F400190B8464FF0000922
S31508024F40642000903DE000250198B0F5807F06D0E8
S31508024F50B0F5007F0BD0B0F5407F18D10FE0E1B273
S31508024F60481E32464146FDF775FE05460FE0E1B298
S31508024F70481E3246414605F0DAFC054607E0E1B22C
S31508024F80481E32464146FEF728F9054600BF00BFCD
S31508024F90002D00DA1BE075B90020FDF7F4F900B917
S31508024FA015E04FF0000A4FF0010B5A4651462020F1
S31508024FB001F0FFF804E032200090761BA844A944C9
S31508024FC000BF26B10098411E00910028BBD100BF40
S31508024FD04846BDE8FC9F4FF04A40704701460729FC
S31508024FE017D2DFE801F016040710130A0D0040F283
S31508024FF0011070474FF48170FBE740F20310F8E79F
S315080250004FF48270F5E740F20120F2E740F20130F0
S31508025010EFE740F20120ECE70146B1F5827F17D0AF
S3150802502008DCA1F5807001380CD001280CD00228C2
S3150802503014D10BE0A1F5007001380BD0B0F5807FD2
S315080250400CD109E0012070470220FCE70520FAE7A7
S315080250500620F8E70320F6E70420F4E70020F2E743
S315080250600020704770B50646DDE90445002070BD8C
S3150802507010B520F079FC10BD704701460120704733
S3150802508001460020704730B505460C46207800F0E8
S315080250908000802804D18021284600F035F80AE0ED
S315080250A0E08820B98021284600F02EF803E0002186
S315080250B0284600F029F8284602F0CCFD30BD70B526
S315080250C006460C4604F08000802808D104F07F00CA
S315080250D000EBC00106F1D40000EB810507E004F0FD
S315080250E07F0000EBC00106F53C7000EB810504F079
S315080250F07F00287004F08000C0096870294630468F
S3150802510002F0E8FD002070BD70B506460C4604F0B4
S315080251108000802808D104F07F0000EBC00106F168
S31508025120D40000EB810505E004EBC40106F53C70EA
S3150802513000EB81050120A87004F07F002870E009C1
S3150802514068702946304601F0E8F9002070BD000073
S3150802515030B503461C4608E014F8015B85EA12607E
S31508025160054D55F8200080EA0222081EA1F1010128
S31508025170F2DC104630BD000090190608704710B5DB
S315080251800446204607F09AFF10BDF8B504460E46B7
S3150802519070880012012804D002280AD0032854D1A4
S315080251A013E0A078D4F82C150A6869469047054694
S315080251B050E0A078D4F824158A6A694690470546CD
S315080251C002216970C4F8305544E07088C0B20628D6
S315080251D034D2DFE800F0030B131B232BA078D4F894
S315080251E02C154A686946904705462CE0A078D4F8FB
S315080251F02C158A6869469047054624E0A078D4F8B3
S315080252002C15CA686946904705461CE0A078D4F86A
S315080252102C150A6969469047054614E0A078D4F821
S315080252202C154A696946904705460CE0A078D4F8D9
S315080252302C158A6969469047054604E03146204698
S31508025240FFF721FFF8BD00BF04E031462046FFF70D
S315080252501AFFF7E700BFBDF8000088B1F08878B1F9
S31508025260F088BDF80010884202DDBDF8000000E0B3
S31508025270F0880090BDF800202946204601F038FD46
S3150802528000BFDFE72DE9F84F8046894609EBC901D9
S3150802529008F53C7000EB810040691FFA80FADFF8D6
S315080252A048B06A4649465846FDF7A9FF0446C4B1BE
S315080252B05546402D00DD40250C4E271D002004E0F2
S315080252C016F8011B07F8011B401CA842F8DB2560EB
S315080252D0009828B94023054A0221404602F029FDD2
S315080252E000BF0020BDE8F88F305C00100070001087
S315080252F001464FF0FF3070472DE9FC4707468846BE
S3150802530091461E46304636F009FE4A46CDE9000168
S3150802531041463846FDF798FDBDE8FC872DE9F04F72
S315080253208FB004460D4691469A46DDF868B0189E37
S31508025330A9B220460FF072FE07464FF000082EE08B
S315080253403988204610F0CEFD0E9051460E98FBF78E
S31508025350F7F900BBAEB13A46214608A81EF097FDFA
S31508025360304619990FF0A1FE02463146019002A86D
S315080253701EF09EFD02A908A818F012FC00B90BE05F
S3150802538000BF05EB08025846E1681AF044FB012003
S315080253900FB0BDE8F08F00BF08F101080837C8450D
S315080253A0CED300BF0020CBF8000000BF00BFEFE756
S315080253B00146062902D34FF0FF30704701F120005B
S315080253C0FBE710B50446FA20206001F0F5FF01203C
S315080253D010BD00000146902902D20248405C70477F
S315080253E00020FCE7CF5A06082DE9F84F8046894681
S315080253F092461F46B8F1900F3CD2032F03D10224DE
S315080254000125002627E0042F03D1032400250026C0
S3150802541021E0BAF1000F0FD0012F03D10224002593
S31508025420012618E0022F03D102240025032612E0E2
S315080254300124002501260EE0052F03D102240025AA
S31508025440002608E0062F03D102240025022602E0E0
S3150802545000240025002633462A4621464046CDF832
S31508025460009001F0EDFB00231A461946404602F069
S3150802547089FF00BFBDE8F88F70B50A4A0346902433
S3150802548001B970BD03E015781D705B1C521C0D0036
S31508025490A1F1010103D02500A4F10104F3D100BF53
S315080254A0EFE70000CF5A060810B51420002100F0D5
S315080254B05FFC002004E00021184A22F81010401C64
S315080254C00928F8DB0020164908600022154906203B
S315080254D003F030FC00221449072003F02BFC0022BB
S315080254E01249082003F026FC00221149092003F07C
S315080254F021FC00220F490A2003F01CFC00220E4957
S31508025500172003F017FC00220C49282003F012FC8E
