S315080000000CE000201D00000831000008310000083F
S3150800001031000008310000083100000800F0E2BE97
S31508000020DFF808D000F078FF01F02CB8F8FD0220C0
S31508000030FEE76E2900F02483702900F0758466298E
S31508000040AFF300806529AFF300806729AFF300801E
S315080000506129AFF3008003681B0A28BF41F08001BD
S31508000060692900F0D182642900F0CE82752900F052
S31508000070CB826F2900F00084782900F04184E929B1
S3150800008000F09883E42900F09583F52900F092831F
S31508000090EF2900F0FD83F82900F040840368DB09A6
S315080000A028BF41F08001632900F0F885732900F024
S315080000B0FD85E32900F00886F32900F00D86002067
S315080000C07047000040BA7047C0BA704700BEFEE7E6
S315080000D07047704753EA020C00F069802DE9F04B2F
S315080000E04FF00006002B1FBFB3FA83F503FA05F499
S315080000F024FA05F65E4012BF1643B2FA82F502FAF2
S3150800010005F4C5F120051EBF22FA05FC44EA0C04D5
S31508000110203556EA044C4FEA144418BF641C4FF0C5
S3150800012000084FF00009904271EB030C39D30029FF
S3150800013019BFB1FA81F701FA07F6B0FA80F700FAA3
S3150800014007F6C7F120071EBF20FA07FC46EA0C0689
S315080001502037B6FBF4FCA7EB0507103F07F01F0B8B
S31508000160CBF120060CFA0BFB2CFA06F644BFB34675
S315080001700026202FA4BF5E464FF0000B5BEA060C54
S3150800018008BF4FF0010B19EB0B09ABFB027C48EBE0
S315080001900608C01B06FB02CC0BFB03CC71EB0C015B
S315080001A0C1E70B46024641464846BDE8F08B13B503
S315080001B04FF000004FF0000100F0C0F9BDE81C4008
S315080001C0704700007CB515461A460C00009001D011
S315080001D02044401E074B7B4469460190284600F0A0
S315080001E06AFA05461CB10020694600F077FA2846E7
S315080001F07CBD00000D05000040EA010310B59B0711
S315080002000FD1042A0DD310C808C9121F9C42F8D072
S3150800021020BA19BA884201D9012010BD4FF0FF3023
S3150800022010BD1AB1D30703D0521C07E0002010BD39
S3150800023010F8013B11F8014B1B1B07D110F8013BC5
S3150800024011F8014B1B1B01D1921EF1D1184610BDA6
S31508000250032A40F2308010F0030C00F0158011F8E4
S31508000260013BBCF1020F624498BF11F801CB00F8BC
S31508000270013B38BF11F8013BA2F1040298BF00F810
S3150800028001CB38BF00F8013B11F0030300F067808B
S31508000290083AC0F0088051F8043B083A51F804CBF4
S315080002A0A0E80810F5E7121D5CBF51F8043B40F8BA
S315080002B0043BAFF30080D20724BF11F8013B11F8C5
S315080002C001CB48BF11F8012B24BF00F8013B00F809
S315080002D001CB48BF00F8012B7047431A28BF9A4242
S315080002E07FF6B6AF032A1044114440F2268010F078
S315080002F0030F1EBF11F8013D521E00F8013D10F014
S31508000300030F7FF4F6AF11F0030300F0F283083A07
S31508000310C0F00B8051F8043D083A51F804CD40F876
S31508000320043D40F804CDFFF7F3BF121D5CBF51F83A
S31508000330043D40F8043DAFF30080D20724BF11F80E
S31508000340013D11F801CD48BF11F8012C24BF00F872
S31508000350013D00F801CD48BF00F8012C704710B5E3
S31508000360203AC0F00B80B1E81850203AA0E818509F
S31508000370B1E81850A0E81850BFF4F5AF5FEA027C60
S3150800038024BFB1E81850A0E8185044BF18C918C0CF
S31508000390BDE810405FEA827C24BF51F8043B40F870
S315080003A0043B08BF7047D20728BF31F8023B48BF55
S315080003B011F8012B28BF20F8023B48BF00F8012B93
S315080003C0704702F0FF0343EA032242EA024200F0C2
S315080003D002B84FF000020429C0F0128010F0030C96
S315080003E000F01B80CCF1040CBCF1020F18BF00F81A
S315080003F0012BA8BF20F8022BA1EB0C0100F00DB8C9
S315080004005FEAC17C24BF00F8012B00F8012B48BF26
S3150800041000F8012B70474FF0000200B513469446CA
S315080004209646203922BFA0E80C50A0E80C50B1F13E
S315080004302001BFF4F7AF090728BFA0E80C5048BF52
S315080004400CC05DF804EB890028BF40F8042B08BFF0
S31508000450704748BF20F8022B11F0804F18BF00F8EC
S31508000460012B704710B5044610F0030F08BF11F0B2
S31508000470030F40F015804FF0013E121FC0F20E80A8
S3150800048051F8043BA3EB0E0C2CEA030C1CEACE1C19
S3150800049008BF40F8043BF0D0A1F1040102F10402C0
S315080004A0521E08DB11F8013B002B00F8013BF7D17F
S315080004B01146FFF78EFF204610BD00004FF0013CA5
S315080004C050F8042B51F8043B9A4221D1A2EB0C03B5
S315080004D0934313EACC1317D150F8042B51F8043B75
S315080004E09A4215D1A2EB0C03934313EACC130BD112
S315080004F050F8042B51F8043B9A4209D1A2EB0C039D
S31508000500934313EACC13DBD04FF00000704700BFCB
S31508000510D01A01BAB1FA81F101F0180122FA01F0F4
S31508000520CB40C1F12001DBB2C0B2C01A2CFA01F3EC
S31508000530D11A914311EAC311E6D1704709F06EBC8E
S3150800054070B5044685690068C10601D5302600E005
S315080005502026C00708D070BDD4E90121304690474F
S31508000560206A00F1010020626D1EF5D570BD70B5D8
S31508000570044685690068C00708D170BDD4E9012121
S3150800058020209047206A00F1010020626D1EF5D5F3
S3150800059070BD09684A0501D540B27047C905FCD542
S315080005A000B2704709684A0501D5C0B27047C90547
S315080005B0FCD580B2704770B505460C46012A05D0B1
S315080005C02868800600D5EA69002302E0012305E0D1
S315080005D05B1C934202D2E05C0028F9D1A869E618B0
S315080005E0C01AA861286A184428622846FFF7A8FF97
S315080005F004E0D5E9012114F8010B9047B442F8D379
S315080006002846FFF7B4FF70BD2DE9F04107460025DF
S3150800061010687529394616A411D0FFF7BAFF0028C5
S3150800062003DAC0F1000013A407E039688A0701D588
S3150800063011A402E0490704D510A4012501E0FFF73B
S31508000640B1FF00210A2307F1240607E0B0FBF3F205
S3150800065003FB1200303070541046491C0028F5D1AF
S315080006602B4622463846BDE8F04100F0B1BA0000F4
S31508000670000000002D0000002B00000020000000F4
S3150800068011680268006A530501D508700BE0D305A6
S3150800069001D5088007E0130603D5C217C1E9000291
S315080006A001E05206086001207047000001694A1CF3
S315080006B002610878704700B58FB0CDE90131002195
S315080006C0059105497944CDE903101146684600F0BD
S315080006D037F90FB000BD0000E5FFFFFF0A6802F812
S315080006E0010B0A607047D1E900239A4202D2531CD3
S315080006F00B601070704700002DE9FF5F04468A46BC
S315080007001546DFF8AC80F8440027D8E900103E46C5
S31508000710CDE9001011E03AF816106A4602A800F072
S31508000720DFFA411C07D02168890603D5E269391822
S3150800073091420ED8074406F101062068800602D5C4
S31508000740E069B84205DDAE42E5DB3AF81600002856
S31508000750E1D1A069C01BA0612046FFF7F1FED8E9E8
S315080007600010CDE90010002016E03AF818106A4685
S3150800077002A800F0B5FA8146401C0BD000250DF101
S31508000780080B05E0D4E901211BF8050090476D1C0C
S315080007904D45F7D308F10100B0428046E5DB206AF3
S315080007A0384420622046FFF7E2FEBDE8FF9F0000BE
S315080007B016A200002DE9F0418046D21D22F007025C
S315080007C00026D2E90002F52914A512D0002A06DA75
S315080007D00023D0EB030063EB020211A508E0D8F86A
S315080007E000108B0701D50FA502E0490701D50EA514
S315080007F001261146002408F1240704E000F0A3F9B5
S3150800080030323A55641C50EA0102F7D133462A467B
S3150800081021464046BDE8F04100F0DAB90000000084
S315080008202D0000002B0000002000000030B400213D
S3150800083000F124040CE002F0070505F130054FEA43
S31508000840D20242EA4372655401F101014FEAD30329
S3150800085052EA0305EFD10468002310A2250708D53C
S3150800086004F020040C4304D0C46901230CA2641EBE
S31508000870C46130BC00F0ACB910B504462146106816
S31508000880FFF790FE02462046BDE810400023CDE75C
S31508000890D21D22F00701D1E90023C7E700000000B6
S315080008A030000000F0B40F460168090502D5234C54
S315080008B07C4402E0214C7C440E34002100F12405DE
S315080008C00BE002F00F064FEA1212A65D42EA037227
S315080008D04FEA13136E5401F1010152EA0306F0D1EF
S315080008E0224604680023240704D5702F05D009B1D1
S315080008F011320223F0BC00F06BB910320123F9E77C
S3150800090070B504460D4621461068FFF74BFE0246B1
S3150800091029462046BDE870400023C3E7D21D22F0D1
S315080009200703D3E90023BDE70368126843F02003F1
S3150800093003600823C3610023B4E7000074A0000025
S315080009402DE9F05F044689464FF0000ADFF878B1D2
S31508000950FB44C0F820A02046E1688847002875D0E7
S31508000960252806D0D4E901219047206A401C206238
S31508000970F1E700265F462046E168884720280546B5
S3150800098008DB312D06D207EB050010F8200C08B15C
S315080009900643F0E7B00701D526F00406C4F81CA004
S315080009A00027C4F818A02A2D09D0284609F056FAB7
S315080009B038B304EB8708303DC8F8185019E059F8E1
S315080009C0041B204604EB87029161E1688847012FE2
S315080009D0054618D1E069002820DA26F020061DE031
S315080009E0D8F8180000EB800005EB40003038C8F84E
S315080009F018002046E1688847054609F02FFA0028BE
S31508000A00EED1012F0AD02E2D08D12046E16888475D
S31508000A107F1C0546022F46F02006C4DBA069002885
S31508000A2003DA404246F00106A061F00701D026F03D
S31508000A3010066C2D0BD0682D09D04C2D39D06A2D97
S31508000A4035D0742D35D07A2D33D016E038E0E168EC
S31508000A502F4620468847B842054609D16C2F26D02E
S31508000A604FF48060E168064320468847054604E05F
S31508000A706C2F1AD04FF4807006430DB3A5F14100D0
S31508000A80192802D8203546F400664A4629462046E3
S31508000A9026604E46FFF7CDFA80B101280BD0F61D29
S31508000AA026F0070000F1080955E74020E4E7802012
S31508000AB0D8E70020D6E706F104094CE7284651E7AF
S31508000AC0206ABDE8F09F0000FC9F0000431A28BF7B
S31508000AD09A427FF644AC104410F0030F11441EBF2F
S31508000AE011F8013D521E00F8013D10F0030F7FF486
S31508000AF0F6AF103AC0F00A8010B531E91850103A2E
S31508000B0020E91850BFF4F9AFBDE81040530724BFD9
S31508000B1031E9081020E9081044BF51F8043D40F8AF
S31508000B20043D12F0030F08BF7047D20728BF31F8FB
S31508000B30023D48BF11F8012C28BF20F8023D48BFE6
S31508000B4000F8012C704730B5B0F10A024FEA900E52
S31508000B5071F100034EEA817EB0EB0E0061EB910164
S31508000B604FEA101E4EEA017E10EB0E0041EB111102
S31508000B704FEA102E4EEA016E10EB0E0041EB1121E2
S31508000B804FEA104E4EEA014E10EB0E0041EB1141B2
S31508000B90401841F100014FEAD00040EA41704FEA9F
S31508000BA0D10110EB80054FEA810444EA907444EBC6
S31508000BB001046D1944EB0404521BA3414FF00003D2
S31508000BC048BF0A3200D530BD401C41F1000130BD96
S31508000BD02DE9F0470D4604469246994600F1240849
S31508000BE00168880604D5E06921F01001216000E05B
S31508000BF00120A84202DDA0EB050700E00027A16955
S31508000C0007EB050202EB0900A1EB0000A0612068D2
S31508000C10C00602D42046FFF793FC002608E0D4E974
S31508000C2001211AF806009047206A401C761C2062AB
S31508000C304E45F4DB2068C0060AD52046FFF780FC3F
S31508000C4006E0D4E9012130209047206A401C206242
S31508000C50381EA7F10107F4DC07E0D4E9012118F8EA
S31508000C6005009047206A401C2062281EA5F1010550
S31508000C70F3DC2046FFF77BFC2068000602D502203D
S31508000C80BDE8F0870120FBE710B5436913B1AFF360
S31508000C90008001E0FFF78FFC012010BD126800F10B
S31508000CA024010A7000224A700122EDE711684FF00C
S31508000CB0FF32E9E710B5436913B1AFF3008001E0ED
S31508000CC0FFF71AFD012010BD126800F12401828485
S31508000CD00022C2840122EDE711684FF0FF32E9E7EE
S31508000CE070B505460C46164600F01AF8036893F8E0
S31508000CF00101012806D0FF2C0FD8185D68B1012024
S31508000D002C7070BDD3F807013246214603442846A5
S31508000D10BDE8704003F2071318474FF0FF3070BD67
S31508000D2010B500F005F8001D10BD00BFB991000010
S31508000D3000487047D031002070B5814214D002F0C7
S31508000D40030522F0030202E040C840C1121F002A30
S31508000D50FAD10B46044604E014F8016B03F8016B5C
S31508000D606D1E002DF8DC00BF70BD10B501F0030341
S31508000D7021F0030102E0002410C0091F0029FAD15E
S31508000D80024603E0002402F8014B5B1E002BF9DC47
S31508000D9010BD70B50B4C0C4D0C4E324629462046FC
S31508000DA0FFF7CAFF0A4C0B4D0B4E32462946204622
S31508000DB0FFF7C2FF094C0A4D29462046FFF7D5FF23
S31508000DC070BD000080B3000800000020000000008D
S31508000DD080B30008000000200C0200000C0200206E
S31508000DE0043C0000FFF71CB9002100204E4A126897
S31508000DF042F480324C4B1A6000BF4B4A126802F428
S31508000E000030491C10B9B1F5A06FF6D1464A1268F0
S31508000E1012F4003F01D0012000E00020012845D14E
S31508000E20414A4032126842F080523F4B40331A60C2
S31508000E303E4A126842F480423C4B1A603A4A0832EB
S31508000E401268394B08331A601A46126842F400428F
S31508000E501A601A46126842F4A0521A60344A1B1FD6
S31508000E601A601A1F126842F080721B1F1A6000BFB0
S31508000E702D4A126812F0007FFAD040F205622D4B17
S31508000E801A60294A0832126822F00302264B0833F0
S31508000E901A601A46126842F002021A6000BF224A15
S31508000EA00832126802F00C02082AF8D1704710B509
S31508000EB072B6012020494860082088601F480068EB
S31508000EC020F402701D4908601C48E830006840F4A8
S31508000ED0FE601A49E83108601348006840F00100CE
S31508000EE01149086000201049083108600E4800685A
S31508000EF0134908400C4908601248091D0860081F74
S31508000F00006820F48020091F0860002006490C317B
S31508000F100860FFF769FF10BD10B5FFF7C8FF01F0BD
S31508000F2077FCFFF736FF10BD00380240007000401E
S31508000F3019544007003C0240002004E014ED00E08C
S31508000F40FFFFF6FE10300024EFF3108272B602603F
S31508000F507047016881F310887047EFF305810068D0
S31508000F6009B14FF001007047016881F31088704796
S31508000F7072B670470168EFF3108281F3108800BFDC
S31508000F8082F310887047EFF31080EFF3058180F045
S31508000F90010009B14FF000007047EFF3108072B6F8
S31508000FA080F001007047EFF3108062B680F0010010
S31508000FB07047EFF3108172B601607047016881F3DC
S31508000FC01088704730B502460B464FF001044FF0C3
S31508000FD00000A2FB041503FB045402FB0044084668
S31508000FE0214630BD70472048008810F0010F0CD00C
S31508000FF04FF6FE701C4908801C48D0E900301A1CC0
S3150800100040F101001949C1E9002017481430006869
S31508001010164AD2E900321843114670477CB506468F
S3150800102000216846FFF790FFFFF7DDFF04463046CC
S31508001030FFF7D8FF0546032D01D8002500E0ED1E71
S3150800104000BFFFF7D0FF001BA842FAD96846FFF792
S3150800105080FF7CBD70B50446A820444300BF651FC9
S31508001060284600F037F970BD100C004060000020DB
S3150800107001460A4690684068704701460A469068E5
S31508001080806870470EB56FF003006844324902E085
S31508001090324A40F804298842FAD231483149086070
S315080010A031483249086000F01BFC31483149084490
S315080010B02E49096808442D49086003F05DF92E4950
S315080010C0086000F00AFD02F0FDFA00F00BFD0020B2
S315080010D0012303220421009028A000F077F92DA30C
S315080010E02FA2324932A000F071F9384938A000F031
S315080010F06DF901A902A800F0E7FBDDE90110FFF789
S3150800110068F93AA008F0D4FE284939A008F0D0FEBC
S3150800111039A137A008F0CCFE21A13AA008F0C8FEF4
S315080011201CA138A008F0C4FE01214EF6602003F089
S315080011303AFF0121022003F0EBFF0121084603F0E4
S315080011402FFF02F0E1FF32A008F0B2FE39A008F046
S315080011508DFE05F09CF90EBD00DE02200DF0ADBA3D
S31508001160000000083400002080B30000380000208A
S31508001170000000000C0200002C0000202E4E6574B2
S315080011804D46207625642E25642E25642E25640D6D
S315080011900A00000030313A33373A3539000000008A
S315080011A04D6179203134203230313500B8A100083C
S315080011B025732C204275696C6420446174653A0D68
S315080011C00A0925732025730D0A0000000E4506003E
S315080011D041524D20436F6D70696C65722076657259
S315080011E073696F6E2025640D0A0000000C0000006C
S315080011F0252D3135730D0A004275696C64204461EA
S3150800120074653A002020252D3133730D0A0000003D
S315080012100C6D61696E2065786974656421213F3FAC
S315080012203F2E202048616C74696E67204350550D27
S315080012300A0000006D61696E20657869746564212D
S31508001240213F3F3F2E202048616C74696E6720431A
S3150800125050550D0A00000000014600207047F0B501
S31508001260074605AC70CC0020F0BD0146002070474B
S3150800127070B504460D460020FFF785FE08B1FEF757
S3150800128025FF2946204602F099FD05F000F970BDB4
S3150800129004B02DE9FF0F6846EFF30581FFF7E8BFB5
S315080012A081B000B52DE9FF5F6846EFF30381C1639E
S315080012B0AFF300801CB5044600216846FFF744FEDC
S315080012C00021204602F07AFD05F0E1F86846FFF7AE
S315080012D040FE1CBD001FFDDCF746000010B50446A5
S315080012E00020FFF750FE08B1FEF7F0FE034850F85D
S315080012F02400401E014941F8240010BD4C0200207C
S3150800130010B504460020FFF73EFE08B1FEF7DEFEE4
S31508001310044850F82400002801DD012010BD0020F3
S31508001320FCE700004C02002010B504460020FFF739
S315080013302AFE08B1FEF7CAFE034850F82400401CEE
S31508001340014941F8240010BD4C0200201CB5044692
S3150800135000216846FFF7F8FD08480068204307495A
S3150800136008600748006820B106480068044909680B
S3150800137088476846FFF7EDFD1CBD0000B000002059
S31508001380B4000020B800002070B504460D46164685
S3150800139032462946204606F09DF970BD10B504462A
S315080013A0002340221946204601F050F90023402226
S315080013B08021204601F04AF90121CE200155A07866
S315080013C0D4F8282551688847002010BD0FB438B5D1
S315080013D005A800900099049800F034F80446002007
S315080013E00090204638BC5DF814FB10B5044620462C
S315080013F006F0E4F910BD70B504460D4616463246A9
S315080014002946204606F084FA70BD10B50446D4F87D
S315080014102815086980470321CE200155002010BDF4
S315080014200FB438B5044606A800902046009A0599D8
S3150800143000F078FA054600200090284638BC5DF88A
S3150800144014FB000013B50446034948692146019A6E
S3150800145000F068FA1CBD0000000000202DE9F04FDE
S315080014608FB006460F469046994609F00F090DAA11
S3150800147031460EA807F024FD00287DD00E9807F007
S31508001480A9FE0A900BAB0CAA31460E9807F0B0FEDF
S3150800149038B93146E44808F0E9FC00200FB0BDE849
S315080014A0F08F3546C2460120099008970A9989693E
S315080014B00C9A02EB820201EB82000168691A8268C3
S315080014C0B1FBF2F302FB131107910799002903DA1E
S315080014D000200790FEF7FAFD60E10A9880690C99EA
S315080014E001EB810100EB810420690B9A02EB4202B1
S315080014F000EB82004168204608F0F1FB069000BF29
S315080015002068281AA168B0FBF1F00590A168079831
S31508001510081A0490002007902EE10899049888423A
S3150800152001D2049800E008988346A06804902069D0
S315080015300B9901EB410100EB810081680598814216
S3150800154014D20B98401C0B90E0680B99884202D87D
S31508001550FEF7BCFD15E120690B9A02EB420200EB8F
S3150800156082004168204608F0BAFB0690B9F1000FE0
S315080015700BD0B9F1010F00E018E107D0B9F1020F5D
S3150800158046D0B9F1030F33D1C5E000BF0A98006809
S31508001590C0F3400088B1B9F1000F08D15946284672
S315080015A0D8F8002001F096FDC8F800002FE05A464A
S315080015B029465046FEF74CFE29E0B9F1000F08D13E
S315080015C0584608F088FC8246BAF1000F01D100207F
S315080015D064E753465A4629460E9807F01BFE0990BB
S315080015E0099830B9B9F1000F02D1504608F06DFCE0
S315080015F0AFE0B9F1000F0AD159465046D8F8002095
S3150800160001F068FDC8F80000504608F05EFCA0E04E
S3150800161029460E9803F0BEFF08B900203EE7216967
S315080016200B9A02EB420201EB820008F0B9FA50BBB2
S315080016302046059908F053FB03900398854211D17B
S315080016400E98009003980190A06802900099C868C7
S3150800165089680B6ADDE90112984718B903990E984B
S3150800166008F0D3FB002053465A46294600900E98A8
S3150800167007F0E0FD099028B95A4629466BA008F0FC
S31508001680F5FB66E046E00698854210D17348006887
S3150800169018B17248006808F018FC00207049086004
S315080016A040F60C1008F017FC6C4908601FE06C48FF
S315080016B00068384440F60C11884218D96849096808
S315080016C0C81908F008FC0390039808B90020E5E655
S315080016D063480268614801680398FEF7B9FD5F48E8
S315080016E0006808F0F2FB5D490398086000BF5B4894
S315080016F0006808B90020D1E658490968584A1268AE
S3150800170088183A465146FEF7A3FD554800683844FE
S31508001710534908601DE029460E9803F03BFF08B9B7
S315080017200020BBE621690B9A02EB420201EB82001C
S3150800173008F036FA60B92046059908F0D0FA01464D
S3150800174003900E9808F061FB0990099800B900E02B
S3150800175000BF00BF0898A0EB0B0008900898002867
S3150800176001DD099800B90CE0BAF1000F00D0DA449F
S315080017705D440598401C05906168059881423FF6CE
S31508001780CCAE00BF0898002801DD099800B90BE027
S31508001790002005900B900C98401C0C900A98406904
S315080017A00C9988423FF699AE00BF3AE006EB070B64
S315080017B02C488469C0690519A64203D3AE4201D2F2
S315080017C0AB4508D923463A46314627A0009508F086
S315080017D04DFB002062E6B9F1000F09D0B9F1010FFF
S315080017E007D0B9F1020F0AD0B9F1030F16D10DE0EF
S315080017F015E03A4631464046FEF72AFD0FE0B24666
S315080018003A4641465046FEF723FD08E0B24627B160
S31508001810FF2239465046FEF7D4FD00E000BF00BF60
S3150800182000BF01203AE6000078A200082046616958
S315080018306C6564205772697465536563746F7220AA
S315080018406174206C6F636174696F6E2025782C2033
S3150800185073697A65202578200D0A00004C0000205F
S31508001860500000200000002020496E76616C6964F3
S31508001870206164647265737320257820616E642024
S3150800188072616E67652025782052616D20537461F8
S3150800189072742025782C2052616D20656E6420258F
S315080018A0780D0A001CB5044600216846FFF74CFB74
S315080018B004480068A043034908606846FFF749FBE7
S315080018C01CBD0000B0000020034A0260034A024B18
S315080018D0D21A121D0A607047103E0020F8DD022059
S315080018E0704703460020704710B504460421CE20F1
S315080018F00155D4F82815C8688047002010BD70B572
S3150800190004460D462946204605F040FA70BD0146B4
S315080019100A4600BF12F8013B002BFBD1501A401EA5
S3150800192070470000F7B5ADF5007D06460F46002462
S315080019303A464FF400716846829B00F0C2F80446A6
S3150800194006F47F40B0F5407F10D006DCB0F5807F06
S315080019500AD0B0F5007F24D107E0B0F5A06F16D005
S31508001960B0F5C06F1DD107E000BF00BF224669462B
S31508001970304601F0ACFA14E00C48006830B100209B
S315080019800DF80400684609490968884709E00025F2
S3150800199004E01DF8050003F009F96D1CA542F8DB03
S315080019A000BF00BF20460DF5037DF0BD48000020AE
S315080019B0704770470146002070470346002070476D
S315080019C0704770B504460D462946204605F002FACA
S315080019D070BD2DE9F04104460D4616460020FFF776
S315080019E0D2FA08B1FEF772FB0CB1072D01DBFEF740
S315080019F06DFB04F1100050F8250020B104F13C00FD
S31508001A0050F8250008B1FEF761FB04F1100151F802
S31508001A10250008F01BFB074604F1100151F82500C4
S31508001A2081683160012202FA05F16079FFF767FFE4
S31508001A303846BDE8F08170B504460D4616460020C6
S31508001A40FFF7A1FA08B1FEF741FB0CB1072D01DB40
S31508001A50FEF73CFB04F1100050F8250020B104F114
S31508001A603C0050F8250008B9FEF730FB36B104F102
S31508001A70100151F8250008F0C0FA70BD04F11001F4
S31508001A8051F8250008F0D1FAF7E72DE9F0410446A8
S31508001A900F4616461D460CB106B117B90120BDE81A
S31508001AA0F081681C874203D2002020700120F6E7E7
S31508001AB0002060552A4631462046FEF7D3FC002012
S31508001AC0EDE77FB504460D461646324629462046BA
S31508001AD0039BFEF777FB04B070BD10B501F02AFD35
S31508001AE0012010BD1CB507F02BFB06F077FE00BFE2
S31508001AF0002001900090694601A801F0BDF9DDE9D2
S31508001B00001002F049FE00BF00F0E6FA00F088FD7A
S31508001B1001F0C4FC00F0C6FE0020FFF744FA07F007
S31508001B2021F903F043FA07F063F9FFF742FF07F0DC
S31508001B304DFEFFF73DFF07F04AFE03F017FF00F0E2
S31508001B401AF800F013F800F0ABFE01F00DFF00F0F4
S31508001B500BFC00F05AFE01F08DF901F019FE01F0B8
S31508001B600CFA00F005F803F017FA1CBD00207047C0
S31508001B704FF04A40704701207047000070B5044690
S31508001B800120FFF7D1FB0220FFF7CEFB104850F8E3
S31508001B902450B5B1A0100F4951F82000A107090F2C
S31508001BA0C84000F00F060C4B53F824200B4B03EBF0
S31508001BB086231B69E34003F0010144EA0610A8479F
S31508001BC000BF0220FFF78AFB0120FFF787FB70BDE5
S31508001BD0BC02002008380140FC0200200000024038
S31508001BE030B504460D46E888012804D02946204623
S31508001BF001F00BFA19E0CE20005D022802D0032876
S31508001C000DD105E001220949204602F07BFC0BE0D4
S31508001C10012204F1CC01204602F074FC04E02946B6
S31508001C20204601F0F2F900BF00BF30BD30010020A8
S31508001C3030B504460D46CE20005D022802D00328A2
S31508001C4011D100E000BFD020005918B1032009497E
S31508001C50086002E00120074908600122054920467C
S31508001C6002F050FC04E02946204601F0CEF900BFF8
S31508001C7000BF30BD2C01002070B504460D466888AB
S31508001C802F49087008460078012804DD29462046B1
S31508001C9001F0BBF952E0CE20005D022802D00328ED
S31508001CA046D116E02648007878B12548007884F8A9
S31508001CB0CC000321CE20015521480178204600F0AA
S31508001CC05FFB204603F0E6F902E0204603F0E2F95E
S31508001CD033E01B48007878B90221CE200155184810
S31508001CE0007884F8CC0016480178204600F03DFBC1
S31508001CF0204603F0CFF91AE094F8CC001049097889
S31508001D00884211D094F8CC10204600F02EFB0C48DF
S31508001D10007884F8CC000A480178204600F030FBA9
S31508001D20204603F0B7F902E0204603F0B3F904E0D1
S31508001D302946204601F069F900BF00BF70BD0000C2
S31508001D40A001002070B504460D462946204604F039
S31508001D5055FC70BDF0B505460B460026E86800B987
S31508001D60F0BD41E0044647883C4401460778022F07
S31508001D700AD003DC7FB3012F2ED104E0032F08D04D
S31508001D80FF2F29D111E000BF07789F4200D1012615
S31508001D9026E007789F4207D14778B2F802C00CF0D0
S31508001DA0FF0C674500D101261AE00F7992F800C0AA
S31508001DB067450FD14F7992F801C067450AD1CF8898
S31508001DC0B2F802C0674505D10F89B2F804C0674565
S31508001DD000D1012604E000E000BF0126002000BF74
S31508001DE000BF06B9204600BF002EBBD000BFB7E72C
S31508001DF010B50446204604F023FC10BD70B5044611
S31508001E000D46164632462946204604F0D7FC70BDD4
S31508001E102DE9F04104460D464FF00A024FF0000640
S31508001E202146A1FB020705FB027204FB06250446B0
S31508001E304FF001024FF0000320462946FEF74AF903
S31508001E4004460D4620462946BDE8F0812DE9FC41A9
S31508001E5004460D4616461F46002000903B4632466D
S31508001E6029460190204600F002F8BDE8FC812DE9DC
S31508001E70FF5FADF5825D044615460DF58050D0E945
S31508001E801E96406C04EB00080DF58050C06C2918AE
S31508001E900DF58050C1634FF0000A002703E02020AB
S31508001EA00FA9C8557F1CB7F5805FF8DBAEE044453F
S31508001EB006D34FF0FF3014B00DF5805DBDE8F09FF6
S31508001EC02EB12046641C0EAA0121B04702E014F880
S31508001ED0011B0E91002790E00120B8409DF83810AC
S31508001EE0084000285BDC444502D34FF0FF30E2E7A8
S31508001EF02EB12046641C0DAA0121B04702E014F851
S31508001F00011B0D91444502D34FF0FF30D3E72EB1A4
S31508001F102046641C0CAA0121B04702E014F8011BF4
S31508001F200C919DF8300000F00F0000F1030B9DF8AE
S31508001F30300001099DF8340000EB0120C0F30B00C6
S31508001F4010300B9027E00B98C0F30B000FA9095C23
S31508001F500D919DF83410CAF30B000FAA11540DF514
S31508001F608050C06B854202D34FF0FF30A3E7B9F12A
S31508001F70000F05D028466D1C0DAA0121C84703E0AD
S31508001F809DF8340005F8010B0AF1010A0B98411C6B
S31508001F900B91ABF1010BBBF1000FD4D12CE04445FA
S31508001FA002D34FF0FF3086E72EB12046641C0DAAF7
S31508001FB00121B04702E014F8011B0D919DF8340089
S31508001FC0CAF30B010FAA50540DF58050C06B854219
S31508001FD002D34FF0FF306EE7B9F1000F05D028465F
S31508001FE06D1C0DAA0121C84703E09DF8340005F8C9
S31508001FF0010B0AF1010A00BF7F1C082F05DA0DF54F
S315080020008050C06B8542FFF467AF00BF4445FFF4BC
S315080020104EAF01204FE72DE9F04106460D4617461B
S31508002020984605F07F0000EBC00106F1D40000EBEE
S3150800203081040120607005F07F002070E7600020B1
S315080020406061C4F81080207820B92146304602F035
S315080020507BFE03E02146304602F067FA0020BDE821
S31508002060F081000018B500240020009000BF03206E
S3150800207004F0FEF91648C06800690090601C044622
S315080020801449884200D918BD0098C00FEFD0002423
S31508002090009820F00100401C009000980C49C9687F
S315080020A0086100BF0A48C06800690090601C0446C1
S315080020B00849884200D904E00098C0F300000128C6
S315080020C0F0D000BF032004F0D3F900BFDBE700001F
S315080020D0CC030020400D030010B5024804F03AFA7C
S315080020E010BD0000D830002010B504460120FFF7C7
S315080020F01BF90220FFF718F90A48008820F00200A9
S3150800210008490880FEF76FFF074B0CCB801A9941E8
S3150800211001D306F02BFB0220FFF7E0F80120FFF7BA
S31508002120DDF810BD100C00405800002070B50446BC
S315080021300D46CE20005D022802D0032811D100E00A
S3150800214000BF688801280BD10021D0200151D4F89E
S3150800215024052946826820469047204602F09AFFC1
S3150800216004E02946204600F050FF00BF00BF70BDBE
S3150800217030B504460D46022340228121204600F050
S3150800218065FA022340221946204600F05FFA4023EA
S31508002190034A0221204602F0DAFE002030BD000084
S315080021A04031002070B504460D46A888F8B9E8887D
S315080021B0E8B9688800F07F06CE20005D032804D1C0
S315080021C02946204600F021FF15E0CF200655314666
S315080021D0204602F081FF204602F05CFF1EB1022174
S315080021E0CE20015507E00121CE20015503E02946FE
S315080021F0204600F00AFF70BDF8B504460D460026D5
S31508002200688801280CD10121D0200151D4F8240571
S315080022102946826820469047204602F03BFF37E071
S315080022206888022834D1A88810F0FF0F30D12069B9
S3150800223040680090A8880612062E22D2DFE806F02B
S315080022402103090F151B009820F07000103000902C
S3150800225017E0009820F070002030009011E00098F8
S3150800226020F07000303000900BE0009820F07000ED
S315080022704030009005E0009820F070005030009043
S3150800228000BF00BF009920694160204602F002FFA6
S31508002290F8BD2DE9FC4104460E461746002168465E
S315080022A0FEF752FED6B1002516E004F1100050F8EC
S315080022B0250020B104F13C0050F8250000B10AE0E1
S315080022C004F1100151F8250007F080FE2946204642
S315080022D000F02EF800BF6D1C072DE6DBA7B1002520
S315080022E010E004F1100050F8250050B104F13C004C
S315080022F050F8250028B104F1100151F8250007F01F
S3150800230065FE6D1C072DECDB6846FEF722FEBDE870
S31508002310FC8110B50446204604F0DDFA10BD000025
S31508002320014609B1002070470048FCE73C0300203D
S3150800233030B504460D464CB104F1100050F825009E
S3150800234020B104F13C0050F8250008B1002030BD4A
S3150800235040220349022003F099F80120F7E700001C
S315080023604031002001207047704770B504460D467D
S31508002370D4F824052946426820469047002070BDB7
S3150800238070B504460D46D4F8240529460268204649
S315080023909047D4F8281588688047002070BD2DE935
S315080023A0FC4704460D4616461F46DDE90A893B46A4
S315080023B0324629462046CDE9008904F0FBFFBDE8F0
S315080023C0FC8770B505460E46002E3CD105F1D404AF
S315080023D0CD20405D022844D1A168A06988420AD967
S315080023E0A168A069401AA061A06982B22846E1687E
S315080023F003F08CFA35E0A168E069B0FBF1F201FB65
S31508002400120078B9A168E06988420BD3D4E90701BC
S31508002410884207D200221146284603F077FA0020A0
S3150800242020621EE0D5F82405C06840B1CE20405D84
S31508002430032804D1D5F82405C168284688472846C4
S3150800244003F0F4F80DE0D5F82405406948B1CE202C
S31508002450405D032805D1D5F824053146426928464A
S315080024609047002070BD000030B505460C46207820
S3150800247010F0700008D0102821D100BF2146284648
S3150800248000F0C3FD022030BD6078062804D00A2873
S3150800249008D00B2811D10BE02146284600F0B5FDDF
S315080024A00220F0E701220749284602F02BF804E04B
S315080024B06088C0B20349086000BF00BF00BF00BF04
S315080024C00020E0E7600100202DE9F04381460C4634
S315080024D01546002202214846FFF73CFC8046B8F123
S315080024E0000F02D10020BDE8F08308F10D06B8F808
S315080024F0020000EB0807206818B92660002028604B
S3150800250021E02068B0421CD92068B84219D2286850
S31508002510B04216D32868B84213D2206840780528F6
S315080025200FD12068007807280BD12868407804283E
S3150800253007D128680078092803D12068C01D2060C3
S3150800254001E00020CFE719E020684078042806D18A
S3150800255020680078092802D12068286009E02068E8
S315080025604078052805D120680078072801D1012080
S31508002570B9E7266820680078064426602068B842CD
S31508002580E2D30020AFE710B50446204604F0ECF984
S3150800259010BD704730B5039C064D2D5C0D60064D89
S315080025A02D5C1560054D2D5C1D60054D2D5C256067
S315080025B030BD0000D8A20008D0A20008E8A2000892
S315080025C0E0A200082DE9F04104460D46164600270C
S315080025D004F47F40B0F5807F06D0B0F5007F0BD0BD
S315080025E0B0F5407F18D10FE0E1B2481E32462946C1
S315080025F0FEF7CAFE07460FE0E1B2481E32462946F4
S3150800260003F047FF074607E0E1B2481E324629466F
S31508002610FFF767F9074600BF00BF3846BDE8F081F7
S3150800262000BF002003490860486000BF02490860EF
S3150800263001207047A8340020B00000200146024857
S315080026400068084070470000B00000202DE9F041FE
S3150800265006460D4690461F4605F08000802808D19C
S3150800266005F07F0000EBC00106F1D40000EB810401
S3150800267007E005F07F0000EBC00106F53C7000EBB3
S31508002680810405F07F00207005F08000C0096070A5
S31508002690C4F80880E770607808B12078E080022FD7
S315080026A001D1002020712146304601F000FC0020AF
S315080026B0BDE8F0810146C868406900F0010070472E
S315080026C070B505460E465EBB05F53C74CD20405DEB
S315080026D0032833D1A168A069884210D9A168A069E6
S315080026E0401AA061A368A069984201D2A06900E0D7
S315080026F0A06882B22846E16802F0C0FC1EE0D5F860
S315080027002405006940B1CE20405D032804D1D5F8E0
S315080027102405016928468847284602F0BBFC0DE0D7
S31508002720D5F82405806948B1CE20405D032805D137
S31508002730D5F824053146826928469047002070BDA1
S315080027402DE9F04106460F46DFF838800122394662
S315080027504046FFF770F9044684B12568002004E076
S31508002760211D095C084A1154401CA842F8DB2B4677
S31508002770054A81213046FFF74EFC00BF0020BDE820
S31508002780F08100003C0300208031002030B504466B
S315080027900D468121204600F054FC0221204600F017
S315080027A050FC002030BD10B50446207994F86E1010
S315080027B0884229D02079052804D1012211462046CD
S315080027C0FFF767FD94F86E00207194F86E000728ED
S315080027D016D2DFE800F0040A0B0C0D0E14000020D8
S315080027E0A4F88C00C4F884000DE00CE00BE00AE0C5
S315080027F009E0002201212046FFF74BFD03E002E035
S31508002800FDF764FC00BF00BF10BD01207047000043
S3150800281010B51F48006840F00F001D4908600846BB
S31508002820006840F0100008604FF028401949086019
S315080028304FF4207018490860800318490860002082
S31508002840144948601449091D08601449091D08609F
S3150800285010498860C0201049083108604FF42000EC
S315080028600E49083108604FF0C8400A49C860881503
S3150800287009490C310860002008490C31086002211A
S31508002880082000F089FF0021112002F044FC10BD49
S3150800289030380240000002400004024000080240AE
S315080028A000207047012070470048704740420F00DB
S315080028B02DE9F0478EB08246BAF1000F03D0012009
S315080028C00EB0BDE8F08700210CA8FEF73DFBFC4FD3
S315080028D00120FC490860FC48F867072087F8800053
S315080028E0082087F86F00012608E0002107F13C0060
S315080028F040F82610402109388155761C072EF4DB4E
S315080029000020F24908800B900A905CE00B988078CA
S3150800291000F07F06072E03DA0A988078032804DD7C
S315080029200CA8FEF716FB0120CAE70B98807810F072
S31508002930800F04D0012107F13C0040F826100B98BF
S31508002940B0F80490B9F1080F0DD0B9F1100F0AD0FC
S31508002950B9F1200F07D0B9F1400F04D00CA8FEF743
S31508002960F8FA0120ACE707F1330000F80690711E6B
S315080029708B225143D64A02EB810000210160416057
S31508002980816000BF701E8B214843114601EB800110
S3150800299007F1100040F826100B98C07800F00300E5
S315080029A0012804D10CA8FEF7D4FA002088E70B9872
S315080029B0C07800F0030071008840C44909880843BC
S315080029C0C249088000BF0AAA0BA93846FFF77CFD52
S315080029D000289BD1BD48008820B90CA8FEF7B9FA93
S315080029E001206DE74FF47A70FEF718FB0021504678
S315080029F000F0E2FD0022B749432002F0A9FD0120BC
S31508002A0003F0F6FA0A21092000F0C6FE0A210B2077
S31508002A1000F0C2FE0A210C2000F0BEFE02230122AD
S31508002A200021092000F0F2FC0223012200210B20DC
S31508002A3000F0ECFC0223012200210C2000F0E6FC49
S31508002A404FF4804003F0ECFA802003F0D9FA4FF0F7
S31508002A50805003F0DDFAA049A048C0F82415A04923
S31508002A60C0F828159F49C0F82C154FF0000801201A
S31508002A709A498870402088804FF0A0480120C87283
S31508002A8008200870042048704FF4A070C8800220FF
S31508002A9008720846C0F80C8008F500600861002432
S31508002AA010E008F5106000EB44118C48143040F82B
S31508002AB0241008F5306000EB44118848503040F87F
S31508002AC02410641C85484078A042EAD8002408E00F
S31508002AD008F5805000EB043180488C3040F824100B
S31508002AE0641C7E480078A042F2D808F560607B49ED
S31508002AF0C1F8C8000121794880F8CE10002180F875
S31508002B00CF10002411E004EBC4017448D43000EB64
S31508002B108105012068702C70EC800020E870402048
S31508002B20A8600020E8602861641C6C484078A042D0
S31508002B30E9D800240FE004EBC4016B4800EB8105DB
S31508002B40002068702C70EC80E8704020A860002097
S31508002B50E8602861641C61484078A042EBD803F01D
S31508002B604FF90020099008905C48C068C068099031
S31508002B70099820F0400040300990099820F08040DC
S31508002B8000F18040099055490998C968C860FFF75F
S31508002B9069FA00200890089820F4803000F5803003
S31508002BA00890089820F4802000F58020089008985E
S31508002BB020F4002000F5002008904848407A28B103
S31508002BC0089820F4801000F580100890434908986A
S31508002BD0C9688863142003F042FC00200790069019
S31508002BE005900490039000213C48D0F8C800016085
S31508002BF03A48006900680690069820F4C050069086
S31508002C00069820F00300C01C06903448069900690F
S31508002C10016080203149C9684862059880B200F58C
S31508002C208000059005986FF30F00803005902B49BA
S31508002C300598C9688862059800EB1041049861F305
S31508002C400F000490049880B200F500000490234910
S31508002C500498C968C1F80401049800EB104161F3AF
S31508002C600F000490049880B204901C480499C06828
S31508002C70C0F80811049800EB104161F30F000490A6
S31508002C80049880B2049015480499C068C0F80C11DD
S31508002C901021124801F036FD104801F00DFD002103
S31508002CA00E48006901610D4800694161491E0B48DB
S31508002CB000698161002109480069C16100243EE07C
S31508002CC03C030020AC00002008160020A8000020C5
S31508002CD000090020B156000834010020CC0300206A
S31508002CE0840100200C010020BC060020604850F832
S31508002CF02400006807900798C00F0ED000200790A0
S31508002D00079820F0804000F180400790079820F04F
S31508002D10006000F10060079001E000200790544829
S31508002D2050F82400079901600021514850F8240002
S31508002D300161FF214E4850F824008160641C4C480C
S31508002D4014384078A042D1D800242CE048483C30BA
S31508002D5050F82400006801900198C00F0ED000209A
S31508002D600190019820F0804000F180400190019880
S31508002D7020F0006000F10060019001E00020019061
S31508002D803B483C3050F8240001990160002138483E
S31508002D903C3050F824000161FF2135483C3050F89A
S31508002DA024008160641C324814384078A042CDD88B
S31508002DB000200390039820F4807000F5807003903B
S31508002DC02B48143800690069039988430843284941
S31508002DD01439096908610020029025491439C9681F
S31508002DE08861401E22491439C9684861029820F052
S31508002DF0100010300290029820F0004000F10040C8
S31508002E000290029820F4006000F500600290029893
S31508002E1020F4805000F580500290029820F400506B
S31508002E2000F500500290029820F4802000F58020DA
S31508002E300290029820F4002000F5002002900C4829
S31508002E401438C068806902998843084308491439C8
S31508002E50C968886102F00EFF05491439D1F82815AA
S31508002E60086880470CA8FEF774F8002028E50000DB
S31508002E70E003002001207047034A0260034A024B20
S31508002E80D21A121D0A60704750FF0220F8FF02206E
S31508002E9010B5044604F47F40B0F5807F06D0B0F53F
S31508002EA0007F08D0B0F5407F0FD109E0E1B2481E97
S31508002EB0FEF79BFA10BDE1B2481E03F03AFBF9E7AC
S31508002EC0E1B2481EFEF776FDF4E70020F2E72DE9A9
S31508002ED0FC5F04460F46164604F47F400190B84648
S31508002EE04FF00009642000903DE000250198B0F5F8
S31508002EF0807F06D0B0F5007F0BD0B0F5407F18D1A3
S31508002F000FE0E1B2481E32464146FEF774FA05461E
S31508002F100FE0E1B2481E3246414603F010FB054673
S31508002F2007E0E1B2481E32464146FEF746FD054631
S31508002F3000BF00BF002D00DA1BE075B90020FEF7C0
S31508002F4022F800B915E04FF0000A4FF0010B5A4677
S31508002F505146202000F0D5FE04E032200090761B72
S31508002F60A844A94400BF26B10098411E0091002834
S31508002F70BBD100BF4846BDE8FC9F4FF04A407047AA
S31508002F800146072917D2DFE801F016040710130ACD
S31508002F900D0040F2011070474FF48170FBE740F2D4
S31508002FA00310F8E74FF48270F5E740F20120F2E7E4
S31508002FB040F20130EFE740F20120ECE70146B1F5B7
S31508002FC0827F17D008DCA1F5807001380CD0012863
S31508002FD00CD0022814D10BE0A1F5007001380BD0F3
S31508002FE0B0F5807F0CD109E0012070470220FCE78C
S31508002FF00520FAE70620F8E70320F6E70420F4E7B9
S315080030000020F2E701460120704730B505460C4618
S31508003010207800F08000802804D18021284600F01E
S3150800302035F80AE0E08820B98021284600F02EF815
S3150800303003E00021284600F029F8284601F018FF89
S3150800304030BD70B506460C4604F08000802808D1CD
S3150800305004F07F0000EBC00106F1D40000EB810507
S3150800306007E004F07F0000EBC00106F53C7000EBBA
S31508003070810504F07F00287004F08000C00968709C
S315080030802946304601F034FF002070BD70B506466B
S315080030900C4604F08000802808D104F07F0000EB7D
S315080030A0C00106F1D40000EB810505E004EBC4017C
S315080030B006F53C7000EB81050120A87004F07F003E
S315080030C02870E00968702946304600F03CFF002069
S315080030D070BD000030B503461C4608E014F8015BD5
S315080030E085EA1260054D55F8200080EA0222081E7E
S315080030F0A1F10101F2DC104630BD000018A300085A
S315080031002DE9F0410746002F56D03C46143C2B4982
S31508003110E068884212D029499131E068884206D091
S31508003120394627A0D4E90232FEF750F904E03946B9
S315080031302EA0A268FEF74AF9FEF7B2F835492069CB
S31508003140884206D034A0A2682169FEF73FF9FEF747
S31508003150A7F8A068204450F8040C2E49884208D0E5
S31508003160A268101950F8041C3BA0FEF72FF9FEF7C9
S3150800317097F812489130E06025686DB10F49913192
S31508003180E868884208D1A168AA681144A16028683D
S31508003190206000B1446000BF666866B10749913196
S315080031A0F068884207D1B068A1680844B06025680D
S315080031B0356005B16E6000BFBDE8F0815EBEADDE6C
S315080031C0202020204D656D6F7279282530387829A2
S315080031D03A20434F5252555054494F4E3A202530C3
S315080031E0387820253038780D0A0000002020202065
S315080031F04D656D6F72792825303878293A20524501
S315080032004C454153452054574943453A20253038C3
S31508003210780D0A000DF0B1BA53696D706C65486592
S3150800322061705F52656C656173653A204D656D6FB7
S31508003230727920626C6F636B206865616420636FC6
S315080032407272757074696F6E3A2025303878202549
S315080032503038780D0A00000053696D706C65486552
S3150800326061705F52656C656173653A204D656D6F77
S31508003270727920626C6F636B207461696C20636F6E
S315080032807272757074696F6E3A2025303878202509
S315080032903038780D0A00000010B50446204604F0C0
S315080032A0F9F810BDF8B504460E46708800120128D4
S315080032B004D002280AD0032854D113E0A078D4F801
S315080032C02C150A6869469047054650E0A078D4F858
S315080032D024158A6A69469047054602216970C4F82A
S315080032E0305544E07088C0B2062834D2DFE800F0D2
S315080032F0030B131B232BA078D4F82C154A686946B0
S31508003300904705462CE0A078D4F82C158A686946BB
S315080033109047054624E0A078D4F82C15CA68694673
S31508003320904705461CE0A078D4F82C150A6969462A
S315080033309047054614E0A078D4F82C154A696946E2
S31508003340904705460CE0A078D4F82C158A6969469A
S315080033509047054604E031462046FFF756FEF8BD7D
S3150800336000BF04E031462046FFF74FFEF7E700BFEF
S31508003370BDF8000088B1F08878B1F088BDF8001073
S31508003380884202DDBDF8000000E0F0880090BDF834
S3150800339000202946204601F0B5F800BFDFE7000007
S315080033A02DE9F84F8046894609EBC90108F53C70B6
S315080033B000EB810040691FFA80FADFF848B06A46D8
S315080033C049465846FEF705FB0446C4B15546402D06
S315080033D000DD40250C4E271D002004E016F8011BD1
S315080033E007F8011B401CA842F8DB2560009828B99D
S315080033F04023054A0221404601F0A9FD00BF0020EE
S31508003400BDE8F88F3C030020403100202DE9F84F35
S315080034108046894692461F46B8F1900F3CD2032F44
S3150800342003D102240125002627E0042F03D1032413
S315080034300025002621E0BAF1000F0FD0012F03D195
S3150800344002240025012618E0022F03D102240025B4
S31508003450032612E00124002501260EE0052F03D1DC
S3150800346002240025002608E0062F03D102240025A1
S31508003470022602E000240025002633462A46214675
S315080034804046CDF8009000F0E5FF00231A4619469D
S31508003490404601F059FE00BFBDE8F88F10B514206C
S315080034A0002100F075FA002004E00021184A22F8ED
S315080034B01010401C0928F8DB002016490860002275
S315080034C01549062002F044F800221449072002F0A4
S315080034D03FF800221249082002F03AF80022114962
S315080034E0092002F035F800220F490A2002F030F8C8
S315080034F000220E49172002F02BF800220C4928203A
S3150800350002F026F84FF4804002F08AFD012010BD33
S31508003510A8020020003C0140A5430008BD4300085E
S31508003520D5430008ED430008054400081D4400087B
S31508003530B14B00084FF0FF3017490860014617489D
S31508003540C0F88410C0F888104FF0FF304FF0E02123
S31508003550C1F8800201461248016000F104000160CA
S31508003560104811498860C860086148618861C86266
S3150800357008638863C863BFF35F8F0C480C4908600B
S315080035800948A1F1040108600A48006840F4E020EF
S31508003590084908607047000080E100E000E100E0AB
S315080035A084E200E09112000800FE02200007FA05F6
S315080035B00CED00E024ED00E02DE9FC4107460E463F
S315080035C02048008810B90020BDE8FC811E4C002167
S315080035D06846FDF7B9FC1EB31C480068F8B9012017
S315080035E01A490860012512E004F1100050F8250078
S315080035F060B104F13C0050F8250038B100BF012243
S3150800360029462046FEF717FA0028F8D16D1C072D23
S31508003610EADB002084F86E002046FFF7C4F80BE0CA
S315080036200A48006840B1002008490860012084F86B
S315080036306E002046FFF7B7F86846FDF78AFC0120BA
S31508003640C2E70000A80000203C030020AC000020D0
S315080036507CB505460C460DB1072C01DB00207CBD68
S3150800366000216846FDF770FC05F1100050F82400AB
S3150800367020B105F13C0050F8240020B96846FDF752
S3150800368068FC0020EBE70E4830F8140010F0010F34
S315080036900CD000BF012221462846FEF7CCF90028A7
S315080036A0F8D16846FDF755FC0120D8E72246294699
S315080036B0002001F0CBFF6846FDF74BFC0120CEE762
S315080036C00816002010B54FF0FF30010C1C4A03C243
S315080036D000211C4A116051601B48006840F0080030
S315080036E0194908600420194908800020091D088026
S315080036F0091D08800220091D088000201349183179
S315080037000880091D088053201049283108800020A8
S315080037100E4934310860401E0C492C3108600120DE
S315080037200A49143108800948008840F00100074911
S31508003730088000220649322001F00AFF10BD000069
S31508003740580000206000002040380240000C00406D
S31508003750E92000087CB504460D464FF0000168468E
S31508003760FDF7F2FB084830C008480460FDF73BFC4B
S31508003770001BA94103D30220044920390880684662
S31508003780FDF7E7FB7CBD000058000020340C004024
S315080037904FF07740704700002DE9F04100F00F0226
S315080037A04707FB0E0F2707FA03F501F00F0707FA7D
S315080037B003F60709DFF824C00CEB87244FEAD20C7E
S315080037C004F1200757F82C70AF4337434FEAD20865
S315080037D004F1200C4CF82870BDE8F0810000024086
S315080037E070B513460022D8B100261446551CEAB215
S315080037F00E5503261446551CEAB20E550AE010F873
S31508003800016B1446551CEAB20E5500261446551C83
S31508003810EAB20E550478002CF1D11A801C880C7077
S3150800382070BD1CB50022019200920B7800F150027F
S3150800383052F82320126801920B7800F1500252F8D0
S315080038402320126900920A6952B98B68009A63F3B9
S31508003850120200920123009A63F3DC42009213E0FD
S315080038608A68521E0B691A448B68B2FBF3F3009AF6
S3150800387063F3DC420092009AC2F3C9428B685A434A
S31508003880009B62F3120300930C7800F1500252F881
S315080038902420009B1361019A22F0806202F1806263
S315080038A00192019A22F0004202F1004201920C783C
S315080038B000F1500252F82420019B13601CBD000041
S315080038C070B505461D4E346814352D1DE81C20F0CC
S315080038D003051CE01A49E068884217D1A068A84287
S315080038E014D305F12800A168814200D811E02046CA
S315080038F0A2682244541B016821606060046001B11B
S315080039004C60A5608268521B826002E02468002C25
S31508003910E0D100BF5CB10A489138E06009482061EF
S31508003920A168214441F8040C04F1140070BD29462D
S3150800393005A0FDF74BFD0020F8E700006800002011
S31508003940EFBEADDE0DF0B1BA202020204D656D6FBB
S3150800395072793A204F55544F464D454D4F5259218D
S31508003960212025640D0A0000012070470146902990
S3150800397001D3002070470809044B03EB8022106925
S3150800398001F00F03D84000F00100F3E70000024001
S3150800399070B504460D464FF000010846091BA841BC
S315080039A00CDA42F21071611A75F1000006DA204647
S315080039B001F00AFB02490860012070BD0020FCE7FF
S315080039C05400002030B590280DD20409064D05EBA9
S315080039D0842200F00F05012404FA05F309B953837C
S315080039E000E0138300BF30BD000002402DE9F04F10
S315080039F08BB004468B4691469846DDF854A0082CB1
S31508003A0003DB00200BB0BDE8F08FB9F1030F01DB33
S31508003A100020F7E7B8F1070F0EDBB8F1070F02D160
S31508003A20B9F1000F08D0B8F1090F02D1B9F1000FAA
S31508003A3002D1B8F1090F01DD0020E3E7002109A84A
S31508003A40FDF782FA8E4850F824508E48065D8E4857
S31508003A50805D089003A804AB05AA06A90090204635
S31508003A60FEF798FD1AF0040F06D00498FF2803D035
S31508003A7008990498FFF790FE1AF0020F06D00398EB
S31508003A80FF2803D008990398FFF786FE7F488542EA
S31508003A9002D07F4885420ED17C49691A012202EB81
S31508003AA091207C490968082282401143794A1160AD
S31508003AB07949079111E07949691A012202EB9120A7
S31508003AC07449091F0A684FF4803181400A437149D5
S31508003AD0091F0A607249079100BF079800EB6B003F
S31508003AE0B0FBFBF080B20290029828810C27B8F14F
S31508003AF0090F01D147F48057B9F1000F06D047F4F2
S31508003B008067B8F1080F01D147F48057B9F1010F62
S31508003B1001D147F40077AF811498012801D100201C
S31508003B20149014980007000C288200271AF0040F36
S31508003B3004D00498FF2801D047F400771AF0020F42
S31508003B4004D00398FF2801D047F48077AF82052375
S31508003B50002211460698FFF759FC08990698FFF7C0
S31508003B601BFE01231A4600210598FFF74FFC08990A
S31508003B700598FFF711FE1AF0040F11D00498FF28D4
S31508003B8004D109A8FDF7E5F900203BE70523002243
S31508003B9011460498FFF73AFC08990498FFF7FCFDCC
S31508003BA01AF0020F11D00398FF2804D109A8FDF7CF
S31508003BB0D0F9002026E701231A4600210398FFF7CB
S31508003BC025FC08990398FFF7E7FD0021204600F039
S31508003BD0BDFB3CB9334951F826000022324901F0B1
S31508003BE0B7FC44E0012C07D12E4951F826000022E3
S31508003BF02E4901F0ADFC3AE0022C07D1294951F8CB
S31508003C00260000222A4901F0A3FC30E0032C07D144
S31508003C10244951F826000022264901F099FC26E09D
S31508003C20042C07D11F4951F826000022224901F029
S31508003C308FFC1CE0052C07D11A4951F826000022F2
S31508003C401E4901F085FC12E0062C07D1154951F8EA
S31508003C50260000221A4901F07BFC08E0072C06D151
S31508003C60104951F826000022164901F071FCA8896E
S31508003C7040F40050A88109A8FDF76BF90120C1E6B8
S31508003C806C000020C8A20008F0A20008001001403D
S31508003C90001401404438024000BD010500440040BC
S31508003CA080DE8002F8A20008E94B0008154C0008DF
S31508003CB0414C00086D4C0008994C0008C54C00089A
S31508003CC0F14C00081D4D000810B50446064801F0E1
S31508003CD0F2F9054800F0D1F901212046FFF76CFCFE
S31508003CE000200249088010BDCC030020A80000204F
S31508003CF070B504460D462A462146202000F001F8F4
S31508003D0070BD2DE9F04F85B0814688469246002061
S31508003D10FDF739F908B9FCF7D9F9504601F054F915
S31508003D2004460D46002103A8FDF70EF9FDF75BF9D9
S31508003D30061941EB0507012002903DE04046FEF7D3
S31508003D407DFC8346BBF1000F08D0CDF804B003A86C
S31508003D50FDF7FFF8019805B0BDE8F08FFDF743F9C8
S31508003D60801BB94104D303A8FDF7F3F80020F2E756
S31508003D70029868B10220FDF7C3FA48B903A8FDF70F
S31508003D80F3F805F0E5F9029003A8FDF7F1F812E05B
S31508003D90012002900020FDF7F6F808B1FCF796F925
S31508003DA000204A46CDE900803046394604F01EFD1B
S31508003DB003A8FDF7DFF800BFC0E700007CB504469E
S31508003DC00E460020012108230246CDE900104FF4D3
S31508003DD0E131FEF7E4FA26B1314612A000F076F991
S31508003DE002E015A000F072F916A0E16B00F06EF97A
S31508003DF018A0A16B00F06AF91AA0616B00F066F9C9
S31508003E0004F140011BA000F061F9002506E054F812
S31508003E10252029461BA000F059F96D1C0C2DF6DD4E
S31508003E207CBD0000455843455054494F4E203078D4
S31508003E30253032783A0D0A004552524F523A0D0A49
S31508003E40000000002020637073723D3078253038FA
S31508003E50780D0A002020706320203D307825303800
S31508003E60780D0A0020206C7220203D3078253038E5
S31508003E70780D0A002020737020203D3078253038D0
S31508003E80780D0A0020207225303264203D307825CE
S31508003E903038780D0A00000070B504460D462046F5
S31508003EA02946FDF7B5FF70BD0146012070471CB5D0
S31508003EB00246002001900090487801280CD10C7821
S31508003EC002F1140050F824300C780120A040009C20
S31508003ED060F30F0400940BE00C7802F1500050F8E0
S31508003EE024300C780120A040009C60F31F44009405
S31508003EF0186801900198C0F3C030E0B98C68019841
S31508003F0064F30A000190CC78019864F39340019019
S31508003F10CC88019864F399500190019820F080505C
S31508003F2000F180500190019820F4004000F500400F
S31508003F300190019818601069C069009C20431469B3
S31508003F40E06100201CBD18B503460A460020009013
S31508003F505078012818D1147803F1140050F8241069
S31508003F60086800900098C00F05D0009820F080409F
S31508003F7000F180400090009820F4001000F5001031
S31508003F800090009808600EE0147803F1500050F88D
S31508003F90241008680090009820F4001000F500101E
S31508003FA0009000980860002018BDF0B5034600246C
S31508003FB0D01CC71700EB9777BD10D3F88C6000BFED
S31508003FC003E030680860641C091DAC42F9D3084652
S31508003FD0F0BD3CB500220023019300930C7800F154
S31508003FE0140353F824301B6801930C7800F114036A
S31508003FF053F824301B6900930B694BB9009B6FF388
S31508004000120300930124009B64F3DC4300930EE043
S315080040100C69009B64F3120300930B695B1E8C68A2
S315080040202344B3FBF4F4009B64F3DC4300930D785C
S3150800403000F1140353F82530009C1C610B6943B149
S315080040400C78012303FA04F203695B6B13430469D2
S315080040506363019B23F0806303F180630193019BF3
S3150800406023F0004303F1004301930D7800F1140394
S3150800407053F82530019C1C603CBD30B5044601212F
S31508004080CE20015500250BE0FF2104F1140050F85D
S315080040902500816004F1500050F8250081606D1CF0
S315080040A06078A842F0D80021206901612069416141
S315080040B02069C161491E20698161204600F0FCFA29
S315080040C01021204600F01EFB30BD70470FB410B516
S315080040D0C2B045A80190FF2102A8019B449AFDF7AA
S315080040E0F0FC04460020FDF780F9224602A90020CC
S315080040F0FDF781F90020FDF778F90020019042B01C
S3150800410010BC5DF814FB00002DE9F04786B044F6B4
S31508004110206005904FF0000903A904A8FDF7D4FB19
S31508004120DDE9031000F038FB61484168614803F097
S3150800413019FD05A9604805F05BFC08B1012000E0FF
S3150800414000208146B9F1000F03D105A800F0DAFF77
S315080041508146B9F1000F08D1564804F04DF820B948
S315080041604FF0FF3005904FF00109B9F1000F7DD0EF
S3150800417002F0DEF90020012103230422CDE9001014
S315080041804EA140F20150FDF74BF953A055A3584AEA
S3150800419058A1009040F20150FDF742F94449486899
S315080041A000F032FF00221146104601F05BF8404944
S315080041B0C868FEF76DFE0020012303220421009043
S315080041C03EA0FDF703F944A346A2494950A0FDF7CE
S315080041D0FDF8554955A0FDF7F9F83549C868FEF7C1
S315080041E057FE0120019001A8082301220021009012
S315080041F0554804F09FFAFCF7F6FE06460F4600BF40
S315080042004FF0850A8524059D2A4621462020FFF77A
S3150800421078FD8046B8F1000F02D04046FDF742FB14
S3150800422018F0800F04D0002205A9012001F01AF821
S3150800423018F0050F02D01F4803F02EFE1D48D0F8CF
S31508004240040800F00200022813D11A48D0F804081E
S3150800425020F002011748C0F80418002205A9022018
S3150800426001F000F8FCF7BFFE064600E01AE00F462C
S3150800427017E00598401C14D0059800F0A5FE0446E2
S315080042800D46FCF7B0FE801B61EB0701201A8D4135
S3150800429007D200221146072000F0E4FF054803F084
S315080042A0ABFFADE702F000F906B0BDE8F087000005
S315080042B00000002058260020E834002054696E7952
S315080042C0426F6F746572207625642E25642E2564E8
S315080042D02E25640D0A00000030313A33373A35335B
S315080042E0000000004D61792031342032303135002C
S315080042F0B8A100082573204275696C64204461746E
S31508004300653A0D0A0925732025730D0A0000000079
S315080043102573204275696C6420446174653A2025CA
S31508004320732025730D0A00000E45060041524D20E4
S31508004330436F6D70696C65722076657273696F6E0E
S315080043402025640D0A000000682E002030B50546B9
S315080043500C4644B10021284601F06AFE0021284691
S3150800436001F086FE07E00121284601F081FE0121C1
S31508004370284601F05DFE30BD70B5084D084E002296
S3150800438020211046FEF7A6FE044622463146284658
S31508004390FEF7A0FE0446204670BD0000000000207F
S315080043A00000000010B504460120034908600020FB
S315080043B0FDF7E4FB10BD0000143C014010B50446AF
S315080043C00220034908600120FDF7D8FB10BD000054
S315080043D0143C014010B50446042003490860022035
S315080043E0FDF7CCFB10BD0000143C014010B5044697
S315080043F00820034908600320FDF7C0FB10BD000034
S31508004400143C014010B504461020034908600420F6
S31508004410FDF7B4FB10BD0000143C014070B506461C
S315080044200B48006800F47874094804600848143892
S31508004430006804400525640900BF14F0010F02D086
S315080044402846FDF79BFB6D1C6408002CF5D170BD52
S31508004450143C01402DE9FF5F0646884691469A4678
S31508004460DDF838B03009264901EB80243007C50E3F
S3150800447006F00F00039008FA05F8039809FA00F900
S315080044800AFA05FA032000FA05F701210398814084
S31508004490029100216846FCF757FD152E00D100BF92
S315080044A02068B84340EA080020606068029988439B
S315080044B040EA09006060A068B84340EA0A00A060C4
S315080044C0BBF1020F06D1E068B8430121A9400843B1
S315080044D0E0600FE0BBF1010F06D1E068B8430221A6
S315080044E0A9400843E06005E0E068B8430021A94018
S315080044F00843E0606846FCF72CFDBDE8FF9F000016
S315080045000000024070B504460E461546C4F8F05041
S31508004510C4F8EC500221CD2001552B463246002125
S315080045202046FDF778FD002070BD3CB50246002305
S31508004530002001900090487801284ED10C7802F1AD
S31508004540140050F82400006801900C7802F1140059
S3150800455050F8240000690090086948B900986FF37C
S31508004560120000900124009864F3DC4000900EE0ED
S315080045700C69009864F3120000900869401E8C6864
S315080045802044B0FBF4F4009864F3DC4000900D7806
S3150800459002F1140050F82500009C0461086940B136
S315080045A00C78012000FA04F31069406B184314696B
S315080045B06063019820F0806000F1806001900198A6
S315080045C020F0004000F1004001900D7802F114003F
S315080045D050F82500019C046048E00C7802F1500070
S315080045E050F82400006801900C7802F1500050F849
S315080045F0240000690090086950B98C68009864F333
S31508004600120000900124009864F3DC40009013E047
S315080046108868401E0C6920448C68B0FBF4F4009846
S3150800462064F3DC4000900098C0F3C9408C6860438E
S31508004630009C60F3120400940D7802F1500050F8C3
S315080046402500009C0461019820F0806000F18060DC
S315080046500190019820F0004000F1004001900D788B
S3150800466002F1500050F82500019C046000203CBD72
S3150800467070B506460C4604F08000802808D104F080
S315080046807F0000EBC00106F1D40000EB810505E0D0
S3150800469004EBC40106F53C7000EB81050020A87008
S315080046A004F07F002870E00968702946304600F05B
S315080046B0F7FB002070BD000078B5044600250026EB
S315080046C000200090009820F010001030009000980C
S315080046D0E168086100BFE06800690090701C064642
S315080046E00749884200D904E00098C0F30010012861
S315080046F0F1D000BF032001F0BBFE284678BD0000BC
S31508004700400D0300F8B504460D4600260027002094
S315080047100090009820F0200020300090009865F363
S315080047208A1000900098E168086100BFE068006997
S315080047300090781C07460749884200D904E000988B
S31508004740C0F340100128F1D000BF032001F090FE0D
S315080047503046F8BD400D03000146C8684069CA687E
S31508004760926910407047F0B5044600260025D81C0B
S315080047704FEAE07C00EB9C7C4FEAAC0604F18C0027
S3150800478050F8227000BF03E0086838606D1C091DE8
S31508004790B542F9D30020F0BD10B5024607480260BD
S315080047A00368996000230468236004686360044B07
S315080047B00468E360034B0468236110BD68000020A9
S315080047C0EFBEADDE0DF0B1BA0246202008800148E2
S315080047D070470000640100202DE9F14F8EB04FF0BC
S315080047E0000AD046CDF83480CDF83080CDF82C803C
S315080047F00020002306E04FF000080DF10C0B0BF823
S3150800480003805B1C1F2BF6DB002304E04FF0FF0838
S315080048100DF803805B1C0A2BF8DB0E9975E10F4631
S31508004820B1F80280474491F80080B8F1020F5AD0D7
S3150800483006DCB8F1000F0AD0B8F1010F72D115E005
S31508004840B8F1030F6FD0B8F1FF0FF7D14DE1DDF8DE
S315080048503080B8F1000F07D0DDF82C80B8F1000FD2
S3150800486002D00FB0BDE8F08F01204CE1DDF83080B2
S31508004870B8F1000F01D0022045E10C46B1F80280DC
S31508004880B8F1160F04D194F80480B8F1120F01D0CC
S31508004890032038E194F80580B8F1010F01D004200F
S315080048A031E194F80B80B8F1080F10D094F80B801A
S315080048B0B8F1100F0BD094F80B80B8F1200F06D082
S315080048C094F80B80B8F1400F01D005201BE194F84D
S315080048D01580B8F1010F01D0062014E14FF0010848
S315080048E0CDF830800FE1DDF82C80B8F1000F01D04B
S315080048F0072008E10D46294695F80480B8F1090F06
S3150800490007D1B1F802B0B5F8068008F10408C34526
S3150800491001D00820F7E095F80580B8F1020F03D01A
S315080049200920F0E0EDE0CCE095F808A0BAF1000F18
S3150800493001D10A20E7E095F80980B8F1010F01DDF9
S315080049400B20E0E095F80B8008F08F08B8F1800F8F
S3150800495001D00C20D7E005F10D069EE096F80180FF
S31508004960B8F1040F01D00E209FE096F80080B8F148
S31508004970090F01D00D2098E096F80380B8F1000FD2
S3150800498001D00F2091E096F80480CDF83480DDF848
S315080049903480B8F1000F01D1102086E0002308E02A
S315080049A01DF8038096F802B0D84501D11A2007E011
S315080049B05B1C1DF80380B8F1FF0F01D00A2BEFDB53
S315080049C000BF0A2B01DB1B206FE096F802800DF86A
S315080049D0038006F1090205E0904692F800B0D84433
S315080049E0424600BF92F80180B8F1050FF4D145E0C0
S315080049F092F80180B8F1050F01D0122049E092F82B
S31508004A000080B8F1070F01D0112042E092F8028029
S31508004A1008F07F08B8F1010F06DB92F8028008F06B
S31508004A207F08B8F11F0F01DD182032E092F80380E5
S31508004A3018F0030F04D092F8038018F0C00F01D0C5
S31508004A40132026E092F8028008F07F08A8F10108F2
S31508004A500DF10C0B1BF80880B8F1000F01D01920D6
S31508004A6017E04FF0010B92F8028008F07F08A8F1D2
S31508004A7001080DF10C0E0EF808B0D21DDDF83480D1
S31508004A80A8F1010B0BF0FF0BCDF834B0B8F1000F0D
S31508004A90AED100BF00B108E016465FEA0A08AAF1DF
S31508004AA0010B0BF0FF0A7FF459AF00BF00B12AE0F3
S31508004AB0BE4204D14FF00108CDF82C8000E0082052
S31508004AC021E08C46B1F802B061469CF8048008F1F2
S31508004AD00408C34501D0142015E09CF80580B8F1F8
S31508004AE0030F01D015200EE00DE08946494699F8D6
S31508004AF0048008F08008B8F1800F01D0162002E083
S31508004B0001E0172000BF00BF394600283FF487AEF2
S31508004B1000BFA6E67CB5054600216846FCF714FAF0
S31508004B201B4850F825401B48465D0020A0811A49BD
S31508004B3051F8260000F086FE01212846FFF706FCFC
S31508004B401648844202D0164884420CD11349611A89
S31508004B50012202EB912013490968082282409143F9
S31508004B60104A11600EE01049611A012202EB9120E9
S31508004B700C49091F0968120482409143094A121F09
S31508004B80116000BF6846FCF7E4F901207CBD00000F
S31508004B906C000020C8A20008F8A200080010014016
S31508004BA000140140443802400044004070470000A9
S31508004BB070B506460B48006800F47C440948046052
S31508004BC008481438006804400A25A40A00BF14F0EF
S31508004BD0010F02D02846FCF7D1FF6D1C6408002C93
S31508004BE0F5D170BD143C014070B506460848046806
S31508004BF0258815F0200F03D02146002000F00DFC73
S31508004C0015F0800F03D02146002000F01FFC70BD70
S31508004C106C00002070B5064608484468258815F0DB
S31508004C20200F03D02146012000F0F7FB15F0800F76
S31508004C3003D02146012000F009FC70BD6C0000205D
S31508004C4070B5064608488468258815F0200F03D0F5
S31508004C502146022000F0E1FB15F0800F03D0214623
S31508004C60022000F0F3FB70BD6C00002070B506460C
S31508004C700848C468258815F0200F03D0214603206C
S31508004C8000F0CBFB15F0800F03D02146032000F07F
S31508004C90DDFB70BD6C00002070B506460848046947
S31508004CA0258815F0200F03D02146042000F0B5FB17
S31508004CB015F0800F03D02146042000F0C7FB70BD15
S31508004CC06C00002070B5064608484469258815F02A
S31508004CD0200F03D02146052000F09FFB15F0800F1A
S31508004CE003D02146052000F0B1FB70BD6C00002002
S31508004CF070B5064608488469258815F0200F03D044
S31508004D002146062000F089FB15F0800F03D02146C6
S31508004D10062000F09BFB70BD6C00002070B50646AF
S31508004D200848C469258815F0200F03D021460720B6
S31508004D3000F073FB15F0800F03D02146072000F022
S31508004D4085FB70BD6C0000207EB50246002400205D
S31508004D50029000904878012845D153691868029056
S31508004D6018690090086950B9009820F07F000090F3
S31508004D70009820F4C01000F50020009016E08D6819
S31508004D800869A84207D9886808618D68009865F39C
S31508004D900600009004E00D69009865F3060000908F
S31508004DA0009820F4C01000F50020009000981861C3
S31508004DB0029820F0806000F180600290029820F04E
S31508004DC0004000F100400290029818600869002827
S31508004DD04CD00D780120A84004431069406B20434D
S31508004DE01569686342E00D7802F1500050F8250015
S31508004DF0006802900D7802F1500050F8250000690D
S31508004E000090086958B98D68009865F30600009007
S31508004E10009820F4C01000F5002000900CE0886887
S31508004E2008618D68009865F306000090009820F4E4
S31508004E30C01000F5002000900E7802F1500050F8DE
S31508004E402600009D0561029820F0806000F18060D0
S31508004E500290029820F0004000F1004002900E787F
S31508004E6002F1500050F82600029D056000207EBD24
S31508004E700CB500210091009921F04041A1F1804133
S31508004E800091009921F4C01101F5002100910099C3
S31508004E9021F07F0118310091009A016D0A610CBD5D
S31508004EA038B503460020002400944C78012C05D11F
S31508004EB00D7803F1140454F8252004E00D7803F165
S31508004EC0500454F8252014680094009C24F4001417
S31508004ED00094CC78032C02D0CC78022C05D1009C07
S31508004EE024F0805404F180540094009C146038BD6A
S31508004EF03CB5024600200024019400944C78012C0D
S31508004F000CD10D7802F1140454F825300D780124DB
S31508004F10AC40009D64F30F0500950BE00D7802F197
S31508004F20500454F825300D780124AC40009D64F3F4
S31508004F301F450095019C24F400440194019C1C60C3
S31508004F401469E469009DAC431569EC613CBD2DE923
S31508004F50F04106460D461746984605F07F0000EBD9
S31508004F60C00106F53C7000EB8104E760C4F81080C8
S31508004F7000206061607005F07F002070207820B9FD
S31508004F8021463046FFF7E0FE03E021463046FFF7AC
S31508004F90CCFA0020BDE8F0814FF04A4070477047D0
S31508004FA002460020704702460020704710B50023CD
S31508004FB0024A0349034803F0D3FF10BDA4010020A9
S31508004FC0C0000020C031002070B506464FF47A7044
S31508004FD0A6FB004005460122002320462946FBF78A
S31508004FE079F804460D462046294670BD014605480F
S31508004FF050F82100008810F0800F01D0012070477A
S315080050000020FCE76C0000201CB5044604F47F4031
S31508005010B0F5807F06D0B0F5007F10D0B0F5407FA0
S3150800502028D122E000200121134ACDE90010116998
S31508005030E2B2501E08230022FDF7B1F91CBD00217B
S31508005040C4F34210FCF7BDFC08B10020F6E7C4F330
S315080050504210FCF7CDFE08B90020EFE7E1B2481E82
S3150800506002220121FCF7CAFEE8E7E1B2481EFDF775
S31508005070C9FFE3E70020E1E70000002070B5064617
S315080050800C4615462B46224600213046FFF75FFFA1
S31508005090002070BD30B5044600250421CD200155F9
S315080050A000231A4619462046FCF7B5FF2046FFF7A7
S315080050B0DFFE284630BD18B50446206940680090D2
S315080050C0009820F00200801C009000992069416039
S315080050D0032001F0C4F918BD08B500220092009A11
S315080050E061F30A12009202691268009B1A43036967
S315080050F01A6008BD70B504460D462946204602F0DA
S31508005100F7F970BD0246002000497047D801002013
S3150800511002460020704738B504460D46902C11D239
S3150800512029462046FEF74EFC002001230246194672
S3150800513000902046FFF78EF900231A4619462046A6
S3150800514000F002F838BD70472DE9FF4F83B080465E
S3150800515089461E4608F00F05012000FA05F4A8073F
S31508005160000F0290AF080F21029801FA00FA4FEAE1
S315080051701810029900FA01FB00216846FBF7E4FEC5
S31508005180B9F1000F51D0334850F8270000EA0A0059
S31508005190584514D030480068204206D06846FBF7C8
S315080051A0D8FE002007B0BDE8F08F2A4850F827003F
S315080051B020EA0A0040EA0B00264941F8270027485A
S315080051C040F825902649059841F82500022E01D079
S315080051D0032E07D120480830006820431E490831AD
S315080051E0086006E01C4808300068A0431A490831E0
S315080051F00860012E01D0032E07D117480C3000682D
S31508005200204315490C31086006E013480C30006845
S31508005210A04311490C3108600F48143004600E4849
S31508005220006820430C4908600FE00A4850F8270038
S3150800523000EA0A00584508D107480068A04306490D
S3150800524008600020054941F825006846FBF781FEFD
S315080052500120A7E708380140003C0140BC020020B5
S31508005260FC0200202DE9FC4105460C461646092D90
S3150800527068D2DFE805F0050B1F2E353C452D5C008E
S3150800528032A140F20150FCF7CBF85BE08CB127461F
S315080052904FF0FF30386005E0019810F0100F01D08C
S315080052A000203860694601A800F04EF90028F3D1BD
S315080052B000BF47E05CB120460168491C06D044F6A9
S315080052C020620168914201DA1146016000BF39E0A7
S315080052D038E0224620A140F20150FCF7A1F831E05F
S315080052E0224620A140F20150FCF79AF82AE020A1B4
S315080052F040F20150FCF794F81DA0FCF767F821E08E
S3150800530044B11FA140F20150FCF78AF81CA0FCF733
S315080053105DF807E01FA140F20150FCF781F81DA0D7
S31508005320FCF754F82049C868FDF7B2FD0AE02CB12D
S3150800533022461EA140F20150FCF772F844F0010023
S31508005340306000BF00BFBDE8FC810000576169748A
S31508005350696E670D0000000057723A2030782530D4
S3150800536038780D0045723A203078253038780D00A7
S3150800537043686B207369676E6174757265200D00EA
S315080053805369676E617475726520504153530D0AEF
S315080053900D0A00005369676E61747572652046418F
S315080053A0494C0D0A0D0A0000000000205374617272
S315080053B074696E67206170706C69636174696F6E79
S315080053C0206174203078253038780D0A00000000F6
S315080053D07047704710B5044604F47F40B0F5807FE7
S315080053E006D0B0F5007F08D0B0F5407F13D10DE0A8
S315080053F0E1B2481EFDF750FF10BDE1B2481EFCF7AA
S3150800540088FFC4F34210FDF7BEF8F5E7E1B2481E7F
S31508005410FEF74AFDF0E70020EEE770B505460C46B4
S315080054200120FBF781FF0220FBF77EFFA088C6B2AA
S3150800543031462846FFF75EFE0120FBF787FF02206C
S31508005440FBF74CFF0120FBF749FF70BD38B5054651
S315080054500C460120FBF768FF0220FBF765FF69464B
S31508005460284600F0FFF918B19DF80000A08003E077
S31508005470A08920F08000A0810220FBF767FF0220A8
S31508005480FBF72CFF0120FBF729FF38BDF0B50546D1
S315080054900E46174605F07F0000EBC001084800EBF2
S315080054A081040020607005F07F002070E66000200F
S315080054B0606127612146034800F0F0FBF0BD00005B
S315080054C0BC060020CC0300203EB5044608A0FCF725
S315080054D01EFA054606A0002101230322CDE901058F
S315080054E000910421204603F0CBF801203EBD0000C0
S315080054F04E65746475696E6F20332057692D466949
S31508005500202876342E332E322E32292062792053E3
